:0200000490006A
:10000000D80A0024AD020090272E0090B927009056
:10001000252E0090BB030090F542009000000000E8
:10002000000000000000000000000000793D00908A
:100030003904009000000000292E00907B3D0090C4
:10004000C7020090C7020090C7020090C70200904C
:10005000C7020090C7020090C7020090C70200903C
:10006000C7020090C7020090C7020090C70200902C
:10007000C7020090C7020090C7020090C70200901C
:10008000C7020090C7020090C7020090C70200900C
:10009000C7020090C7020090C7020090C7020090FC
:1000A000C7020090C7020090C7020090C7020090EC
:1000B000C7020090C7020090C7020090C7020090DC
:1000C000C7020090C7020090C7020090C7020090CC
:1000D000C7020090C7020090C7020090C7020090BC
:1000E000C7020090C702009000000000C702009005
:1000F000C7020090C7020090C7020090C70200909C
:10010000C7020090C7020090C7020090C70200908B
:10011000C7020090C7020090C7020090C70200907B
:10012000C7020090C7020090C7020090C70200906B
:10013000C7020090C7020090C7020090C70200905B
:1001400000000000000000000000000000000000AF
:10015000C7020090C7020090C7020090C70200903B
:10016000C7020090C7020090C7020090C70200902B
:10017000C7020090C7020090C7020090C70200901B
:10018000C7020090C7020090C7020090C70200900B
:10019000C7020090C7020090C7020090C7020090FB
:1001A000C7020090C7020090C7020090C7020090EB
:1001B000C7020090C7020090C7020090C7020090DB
:1001C000C7020090C7020090C7020090C7020090CB
:1001D000C7020090C7020090C7020090C7020090BB
:1001E000C7020090C7020090C7020090C7020090AB
:1001F000C7020090C7020090C7020090C70200909B
:10020000C7020090C7020090C7020090C70200908A
:10021000C7020090C7020090C7020090C70200907A
:10022000C7020090C7020090C702009000000000C3
:10023000C7020090C702009000000000C7020090B3
:10024000C7020090C7020090C7020090C70200904A
:10025000C7020090C7020090C7020090C70200903A
:10026000C7020090C7020090C7020090C70200902A
:10027000C7020090C7020090C70200900000000073
:10028000C7020090C7020090C70200900000000063
:1002900000000000C7020090DFF80CD000F05CF80E
:1002A00000480047A1470090D80A0024064880472C
:1002B00006480047FEE7FEE7FEE7FEE7FEE7FEE74B
:1002C000FEE7FEE7FEE7FEE7693E00909902009038
:1002D000D2B201E000F8012B491EFBD27047002288
:1002E000F6E710B513460A4604461946FFF7F0FF35
:1002F000204610BD2DE9F05F0546002092469B4642
:1003000088460646814640241BE02846414647462B
:10031000224600F042F853465A46C01A914110D383
:1003200011461846224600F029F82D1A67EB0108FD
:100330004F4622460120002100F020F817EB00096B
:100340004E41201EA4F10104DFDC484631462A4616
:100350004346BDE8F09F0000064C074D06E0E0680C
:1003600040F0010394E8070098471034AC42F6D3FC
:10037000FFF796FFB8520090D8520090202A04DB75
:10038000203A00FA02F1002070479140C2F12003A8
:1003900020FA03F3194390407047202A04DB203AE7
:1003A00021FA02F00021704721FA02F3D040C2F195
:1003B00020029140084319467047FEE7F0B5BFF3AD
:1003C0004F8FBFF36F8F1A4900200860BFF34F8F24
:1003D000BFF36F8F174A116841F400311160BFF30A
:1003E0004F8FBFF36F8F134970310860BFF34F8F8A
:1003F000081F43F6FF7400680D4D1035C0F34E31F1
:10040000C0F3C90304EA4116184600BF46EA8077E4
:100410002F60401EFAD2491EF4D2BFF34F8F1068EE
:1004200040F480301060BFF34F8FBFF36F8FF0BD8B
:1004300050EF00E014ED00E070474FF4FA7002F066
:10044000FFBA000070B5044600F03AF90546601C9A
:1004500002D004480078044400F032F9401BA04266
:10046000FAD370BD940000242DE9FC4F01257E4C89
:1004700000234FF0030A4FF0B04E4FF00F0BEBE0AC
:1004800005FA03F637403A0077D04F68012F05D0C0
:10049000022F03D0112F01D0122F1AD187684FEAF3
:1004A0004308D1F80CC00AFA08F927EA09070CFA40
:1004B00008FC4CEA070CC0F808C0476891F804C073
:1004C000B743CCF3001C0CFA03FC4CEA070CC0F851
:1004D00004C0C6684FEA430CD1F80880E1460AFA26
:1004E0000CF7BE43019708FA09F848EA0608C0F875
:1004F0000C804E68022E01D0122E12D1DE084FEA77
:10050000437C00EB860600960F69366A4FEADC6C86
:100510000BFA0CF807FA0CF726EA08063743009E98
:1005200037620E790768DDF804C006F0030606FAA4
:1005300009F627EA0C073E4306604E68F6001CD514
:100540004A4E376847F00207376036689F0706F063
:100550000206009623F0030606F1B046B1463F0FAF
:10056000D6F80864DFF808810BFA07FC404526EA54
:100570000C0603D14FF0000C41E06CE0DFF8F4C052
:10058000604502D14FF0010C39E0DFF8ECC0604566
:1005900002D14FF0020C32E0DFF8E0C0604502D13A
:1005A0004FF0030C2BE0DFF8D8C0604502D14FF0CC
:1005B000040C24E0DFF8CCC0604502D14FF0050CFC
:1005C0001DE0DFF8C4C0604502D14FF0060C16E014
:1005D000DFF8B8C0604502D14FF0070C0FE0DFF83C
:1005E000B0C0604502D14FF0080C08E0DFF8A4C0AD
:1005F000604502D14FF0090C01E04FF00A0C0CFAF3
:1006000007FC4CEA060CC9F808C426684F6826EABD
:100610000206FF0300D51643266066684F6826EA87
:100620000206BF0300D516436660D1F804C07646C3
:10063000DEF800705FEACC2C27EA020700D51743EA
:100640003760D1F804C077685FEA8C2C27EA02078C
:1006500000D5174377605B1C0A681746DA407FF4C1
:100660000FAFBDE8FC8F000080000058F444025832
:10067000000002580004025800080258000C0258FA
:10068000001002580014025800180258001C0258AA
:1006900000200258002402580AB181617047090401
:1006A000FBE7000002480068C0F30B007047000041
:1006B0000010005C01480068000C70470010005CEE
:1006C0000148806870470000940000240248816857
:1006D000027811448160704794000024032010B513
:1006E00000F0C6F800F084FE0F4A10491468136841
:1006F000C4F3032203F00F038A5CC95C02F01F02FB
:1007000001F01F01D0400A4A20FA01F111600949A5
:100710000860002000F010F808B1012010BD00F0C2
:1007200079F8002010BD000018440258A85200902B
:10073000A4000024A000002470B50D4D04462878C4
:10074000A0B14FF47A71B1FBF0F00A490968B1FB2E
:10075000F0F001F078FE48B9102C07D200222146B3
:10076000501E00F065F800206C6070BD012070BD67
:1007700094000024A0000024F0B5154C4378211DFE
:100780000A1D23600378F3B143680B60057BC67ACA
:10079000817A437B2D07847B45EA0665C77B90F809
:1007A00009C0067A90F800E045EAC14040EA83407B
:1007B00040EA444040EA074040EA0C2040EA460054
:1007C00040EA0E0001E0002008601060F0BD00006B
:1007D00098ED00E0BFF35F8F044800210368034AEF
:1007E00023F48033036070321160704724ED00E021
:1007F000074A40F00100064970321060086840F472
:1008000080300860BFF34F8FBFF36F8F70470000D9
:1008100024ED00E0054808B5016841F002010160DF
:10082000006800F00200009008BD0000F444025887
:100830000E4BF0B41B680D46C3F30223C3F1070649
:10084000042E00D90426191D072901D2002300E037
:10085000DB1E012404FA06F19C40491E2940641E57
:10086000994014402143F0BC03F05ABD0CED00E068
:10087000064900F0070210B54FF6FF040868044B64
:10088000204040EA02201843086010BD0CED00E053
:100890000000FA05134970B50A68D243520705D51E
:1008A000096801F00701814213D118E00A6822F0BB
:1008B000070202430A60FFF703FF0A4D4FF47A76FE
:1008C0000446083D07E000BFFFF7FAFE001BB042F8
:1008D00001D9012070BD2868C0438004F4D40020F1
:1008E00070BD00000C4802580248016841F4807154
:1008F00001607047004802582DE9FC5F044650F83B
:10090000241B002500902E460801FE4FDFF8F883D7
:100910001DD5606E50B1B0F5801F0CD0B0F5001F32
:100920000ED0B0F5401F1DD001250FE0386840F40F
:100930000030386016E00221201D02F077FA03E053
:100940000098022102F002FB05000BD02E46208801
:10095000C00523D5606D05281ED2DFE800F00C111C
:10096000161B1B00626ED8F8001021F440111143D1
:10097000C8F80010EBE7386840F40030386009E050
:100980000021201D02F052FA03E00098002102F03D
:10099000DDFA05466DB100E001252E462088800570
:1009A00028D5A06D80281ED00CDC90B140280ED137
:1009B00014E0626DD8F8001021F007011143C8F867
:1009C0000010EBE7C02813D0B0F5807F10D00125D0
:1009D0000FE0386840F40030386009E00021201D45
:1009E00002F024FA03E00098002102F0AFFA054675
:1009F00095B12E462088DFF81093400509F10809CB
:100A00002CD5D4F8A400B0F5800F20D00DDCA0B117
:100A1000B0F5001F0FD115E0A26DD8F8001021F439
:100A2000E0711143C8F80010E4E7B0F5C00F13D02F
:100A3000B0F5000F10D001250FE0386840F4003009
:100A4000386009E00021201D02F0F0F903E0009871
:100A5000002102F07BFA054675B12E46208800057C
:100A60002DD5D4F8A800B0F1007F21D00EDCA8B1BC
:100A7000B0F1807F10D116E0D4F8A420D9F800108E
:100A800021F460011143C9F80010E7E7B0F1407F9D
:100A900013D0B0F1806F10D001250FE0386840F41A
:100AA0000030386009E00021201D02F0BFF903E0AA
:100AB0000098002102F04AFA05468DB12E462068C2
:100AC000DFF844B28001ABF1040B1FD5A06CD8B1A4
:100AD00010280FD0202812D0302815D0012514E07E
:100AE000D4F8A820D9F8001021F0E0611143C9F82A
:100AF0000010E4E7386840F40030386004E0022178
:100B0000201D02F093F905466DB12E462088C004E1
:100B10002BD5E06DB0F5005F20D00DDCA0B1B0F5B5
:100B2000805F0FD115E0A26CDBF8001021F03001DE
:100B30001143CBF80010E9E7B0F5405F13D0B0F5F2
:100B4000804F10D001250FE0386840F40030386045
:100B500009E00021201D02F069F903E0009800215E
:100B600002F0F4F9054685B12E462088800429D587
:100B7000206EB0F5403F23D010DC08B3B0F5803FC5
:100B800014D0B0F5003F0FD115E0E26DD8F8001099
:100B900021F4E0411143C8F80010E6E7B0F5802FDA
:100BA0000ED0B0F5A02F0BD001250AE00121201DA9
:100BB00002F03CF903E00098012102F0C7F9054674
:100BC0008DB12E46208840042AD5D4F8AC00B0F16F
:100BD000405F23D010DC08B3B0F1805F14D0B0F1D7
:100BE000005F0FD115E0226ED8F8001021F4E0214B
:100BF0001143C8F80010E5E7B0F1804F0ED0B0F116
:100C0000A04F0BD001250AE00121201D02F00EF9B2
:100C100003E00098012102F099F905466DB12E46D6
:100C2000208800041FD5E06ED8B1B0F1805F0ED0EF
:100C3000B0F1005F10D0012514E0D4F8AC20D9F851
:100C4000001021F0E0411143C9F80010E8E73868CE
:100C500040F40030386004E00121201D02F0E6F885
:100C600005466DB12E462068C0011ED5606CD0B11E
:100C700001280ED0022811D0032814D0012513E03A
:100C8000E26ED8F8001021F040511143C8F800106E
:100C9000E9E7386840F40030386004E00221201DA4
:100CA00002F0C4F8054665B12E462068400257D5CB
:100CB0001648016841F480710160FFF701FD82462A
:100CC0000EE0626CDBF8001021F003011143CBF859
:100CD0000010EAE7FFF7F4FCA0EB0A0064283DD817
:100CE0000A480068C005F5D57DBBDFF81CA0B4F844
:100CF000B0100AF1200ADAF8000001F4407100F4A3
:100D0000407005E02C4402585044025800480258F4
:100D1000884211D0DAF80010DAF8002021F440718E
:100D200042F48032CAF80020DAF8002022F480323F
:100D3000CAF80020CAF80010D4F8B000B0F5807FDF
:100D400021D1FFF7BDFC019019E008E0FFF7B8FCE6
:100D50000199411A41F28830814210D903252E466B
:100D60002078DFF80CA4C0073DD0A06F182838D039
:100D700026DC80B3082829D0102825D12CE0DAF809
:100D800000008007E2D5D4F8B010C1F30120032899
:100D9000F8480DD0016821F47C510160B4F8B0200E
:100DA000DAF80010C2F30B021143CAF80010D7E7BB
:100DB000F14A036802EA111223F47C511143ECE773
:100DC00020280ED028280CD001250BE00121201D61
:100DD00002F02CF804E004E00098012102F0B6F8DB
:100DE00005465DB12E46207880071ED5606F062827
:100DF00019D2DFE800F0160C11161616A26FDAF8F9
:100E0000001021F038011143CAF80010EBE701216E
:100E1000201D02F00BF803E00098012102F096F883
:100E2000054675B100E001252E46207840071FD504
:100E3000D4F89000062819D2DFE800F0160C11163D
:100E40001616626FDAF8001021F007011143CAF894
:100E50000010EAE70121201D01F0E8FF03E00098FF
:100E6000012102F073F805469DB100E001252E46F0
:100E7000207880062BD5D4F88C00B0F1405F24D0C8
:100E800011DC10B3B0F1805F15D0B0F1005F10D16C
:100E900016E0D4F89020D9F8001021F00701114392
:100EA000C9F80010E4E7B0F1804F0ED0B0F1A04FC8
:100EB0000BD001250AE00021201D01F0B7FF03E05F
:100EC0000098022102F042F805468DB12E462078A6
:100ED00040062BD5D4F89800B0F5406F24D011DC33
:100EE00010B3B0F5806F15D0B0F5006F10D116E0DB
:100EF000D4F88C20DAF8001021F0E0411143CAF850
:100F00000010E4E7B0F5805F0ED0B0F5A05F0BD025
:100F100001250AE00021201D01F088FF03E0009870
:100F2000022102F013F805468DB12E462078000606
:100F30002BD5D4F89C00B0F5C04F24D011DC10B3F1
:100F4000B0F5005F15D0B0F5804F10D116E0D4F8A1
:100F50009820D9F8001021F4E0511143C9F800108D
:100F6000E4E7B0F5004F0ED0B0F5204F0BD00125CF
:100F70000AE00021201D01F059FF03E00098022142
:100F800001F0E4FF05464DB12E46207800071ED53E
:100F9000D4F88000B0F5805F0AD00FE0D4F89C2030
:100FA000D9F8001021F460411143C9F80010ECE7B2
:100FB0000098022101F0CAFF00B10126D4F8802078
:100FC000DAF8001021F440511143CAF800102078DB
:100FD000C00613D5D4F89400B0F5807F05D10098F1
:100FE000022101F0B3FF00B10126D4F89420D9F812
:100FF000001021F440711143C9F80010206800036B
:1010000016D5D4F8A00038B1B0F5803F09D0B0F5BE
:10101000003F0BD001250AE00021201D01F006FF52
:1010200003E00098022101F091FF054685B12E46AC
:101030002068400322D5D4F88400B0F5801F11D079
:10104000B0F5001F13D0B0F5401F15D0012514E0F6
:10105000D4F8A020D9F8001021F440311143C9F888
:101060000010E5E7386840F40030386004E000988C
:10107000012101F06BFF054655B12E462068C003E3
:101080001CD5E06C70B1B0F5803F10D0012514E0A4
:10109000D4F88420DAF8001021F440111143CAF882
:1010A0000010EBE7386840F40030386004E00221BB
:1010B000201D01F0BBFE0546CDB12E462068800004
:1010C00005D50098022101F041FF00B101262068FA
:1010D00080031BD5E06FB8B1B0F5807F10D0B0F5BC
:1010E000007F11D0B0F5407F0ED001250DE0E26CFD
:1010F000DBF8001021F480311143CBF80010DDE75C
:10110000386840F400303860C5B32E462068C0020D
:1011100007D5226FD8F8001021F000411143C8F81C
:1011200000102068800207D5A26ED8F8001021F0C8
:1011300080711143C8F800102068400009D50D489F
:10114000016821F4004101600168D4F8B82011431E
:1011500001602068002807DA226DDBF8001021F01A
:1011600040511143CBF8001096B10120BDE8FC9F1F
:101170005444025810440258CFFFFF00FFE7E26FCB
:10118000DAF8001021F440711143CAF80010BDE7ED
:101190000020EBE72DE9F05F04000F467ED0DFF87A
:1011A0003882D8F8000000F00F00B8420CD2D8F80E
:1011B000001021F00F013943C8F80010D8F80000E2
:1011C00000F00F00B84269D12078844D40070AD55D
:1011D0002069296801F07001884204D9296821F04A
:1011E00070010143296020787C4E361D00070AD526
:1011F0006069316801F07001884204D9316821F0DA
:101200007001014331602078C0060AD5A0693168B9
:1012100001F4E061884204D9316821F4E0610143BE
:1012200031602078DFF8B4B180060BF1080B0CD5E3
:10123000E1695846DBF8002002F07002914204D9BF
:10124000026822F070020A430260207880070AD503
:10125000E068296801F00F01884204D9296821F06B
:101260000F01014329602078C0073ED05B49A26886
:101270002868183920F470601043286060680228DC
:1012800018D0032819D00968012819D04907002966
:101290004ADADFF848A1AAF1080A00E044E0DAF8E7
:1012A000002022F007020243CAF80020FFF708FAE4
:1012B000814612E009688903E9E709688901E6E7E0
:1012C000C905E4E7FFF7FCF9A0EB090141F288301A
:1012D000814202D90320BDE8F09F6168DAF800007E
:1012E00000F03800B0EBC10FECD1207880070AD5B0
:1012F000E068296801F00F01884204D2296821F0D2
:101300000F0101432960D8F80010404601F00F0199
:10131000B9420BD9016821F00F013943016000681F
:1013200000F00F00B84201D00120D4E72078400738
:101330000AD52069296801F07001884204D2296821
:1013400021F0700101432960207800070AD5606907
:10135000316801F07001884204D2316821F07001D7
:10136000014331602078C0060AD5A069316801F4D4
:10137000E061884204D2316821F4E06101433160C8
:10138000207880060CD5E1695846DBF8002002F091
:101390007002914204D2026822F070020A43026095
:1013A00000F026F80E492A682B68C2F3032203F0E6
:1013B0000F038A5CC95C02F01F0201F01F01D040DC
:1013C000084A20FA01F111600749086007480068DF
:1013D000BDE8F05FFFF7B0B9002000521844025892
:1013E000A8520090A4000024A0000024980000242B
:1013F000454970B545480968434B103B11F0380228
:1014000008D00111082A03D0102A0BD0182A0BD0BB
:10141000084670BD19688906FBD51968C1F3C1017A
:10142000C84070BD3A4870BD3749374D18310C1D62
:1014300024350A68096826682D6802F0030406F05E
:101440000102C1F30511C5F3CC0515FB02F200EE54
:10145000102AB8EE400AE9B32F4ADFED2E0AB7EEA4
:10146000001A6CB1DFED2D1A012C01D0022C43D0F3
:1014700002EE101A1068F8EE422A81EEA22A1EE04F
:101480001C68A40611D51B6801EE901A1168C3F3FD
:10149000C103F8EE612AD84001EE900AC1F30800BA
:1014A000F8EE611A81EEA22A0BE001EE901ADFED50
:1014B0001C2A00BFF8EE611A106882EEA12AC0F360
:1014C000080001EE900AF8EE611A40EE201A31EEA3
:1014D000810A00E015E022EE000A1068C0F3462001
:1014E000401C00EE900AF8EE600A80EE201ABCEE76
:1014F000C10A10EE100A70BD01EE901ADFED092A44
:10150000D8E7002070BD0000104402580090D003BE
:1015100040787D0100000039304402580024744AAC
:101520000024744C20BCBE4B2DE9F05F04007CD03D
:10153000FF4F2078FE4D1837DFF8F493103DC007B9
:1015400048D0D9F80000396800F03800102815D0CC
:10155000182803D101F0030002280FD06068B0F50D
:10156000803F12D010B1B0F5A02F18D0286820F419
:1015700080302860286820F4802009E028688003F3
:1015800028D560680028D2D024E0286840F4803054
:101590002860606888B1FFF793F8064609E028687C
:1015A00040F480202860F0E7FFF78AF8801B642869
:1015B0007ED828688003F7D50CE0FFF781F806464F
:1015C00005E000BFFFF77CF8801B6428F0D828688E
:1015D0008003F7D4207841F20308D54E0C3E8007F3
:1015E0004BD5D9F80000396810F038000ED0182813
:1015F00001D188070AD0E06868B3296821F0190191
:1016000001432960FFF75CF8824619E0286840072B
:1016100002D5E06800288AD0FFF74CF8404513D87F
:101620002069316821F47C3100E0BEE041EA0030FD
:10163000306022E0FFF744F8A0EB0A000228B7D898
:1016400028684007F6D5E7E7207C316821F0FE41A5
:1016500041EA0060ECE7286820F001002860FFF70D
:101660002FF8824606E000BFFFF72AF8A0EB0A0039
:1016700002289DD828684007F6D42078C00659D59E
:10168000D9F80000DFF8A8B2396800F03800ABF1F3
:10169000040B082812D0182803D101F003000128F8
:1016A0000CD0E0690028286834D040F0800000E0C9
:1016B000DCE02860FFF704F8824623E02868C005D4
:1016C00023D5E069802870D11FE000BF94F8200086
:1016D000316821F0F84141EA806030602AE000BFC3
:1016E00094F82010DBF8002022F07C5242EA0161DD
:1016F000CBF800101EE000BFFEF7E2FFA0EB0A00EF
:1017000002289CD82868C005F6D5FEF7D3FF4045CF
:10171000E6D8DBE720F080002860FEF7D1FF064620
:1017200005E000BFFEF7CCFF801B022887D82868A1
:10173000C005F7D42078000729D57D486169643059
:1017400000298046016811D041F001010160FEF7D7
:10175000B7FF064605E000BFFEF7B2FF801B022878
:1017600087D8D8F800008007F6D510E021F00101F5
:101770000160FEF7A5FF064605E000BFFEF7A0FFEB
:10178000801B022872D8D8F800008007F6D4207891
:10179000800623D5A0690028286810D040F4805026
:1017A0002860FEF78DFF064605E02EE1FEF788FF74
:1017B000801B02285AD828688004F7D50EE020F450
:1017C00080502860FEF77CFF064604E0FEF778FFB5
:1017D000801B02284AD828688004F7D42078400764
:1017E0004FD5DFF85081D8F8001041F48071C8F867
:1017F0000010FEF765FF064605E000BFFEF760FF3C
:10180000801B642832D8D8F80000C005F6D5484EB1
:10181000A068603601280AD008B1052813D03068C6
:1018200020F001003060306820F0040002E03068F1
:1018300040F001003060A06841F2883A90B1FEF7B4
:101840003FFF80460AE0306840F004003060EEE779
:10185000FEF736FFA0EB0801514507D83068800736
:10186000F6D50EE0FEF72CFF804607E084E000BFCF
:10187000FEF726FFA0EB080151457DD830688007B0
:10188000F6D4606AF0B3DFF8A880D9F8001008F148
:101890002008C1F3C20103296FD00228286820F074
:1018A0008070286003D0FEF70BFF044682E0FEF74D
:1018B00007FF064605E000BFFEF702FF801B022877
:1018C00075D828688001F7D4E26A40F2F3313868AD
:1018D00054F8283F884340EA021018433860217BBF
:1018E0004FF4FE0C22894FF0FE47208A4902267DE4
:1018F000521E401EA1F5007189B20CEA0040C2F3ED
:10190000080200E083E01143761E0143084807EA1D
:1019100006621143064A1C30C8F8001024320168E0
:1019200021F00101016011684FF6F876B14303E040
:101930001044025800480258236A41EAC30111606A
:101940000168A26921F00C01114301600168E2699C
:1019500021F0020111430160016841F4803101600E
:10196000016841F400310160016841F480210160A7
:10197000016841F0010101E019E01FE00160286801
:1019800040F080702860FEF79BFE044605E000BF33
:10199000FEF796FE001B022809D828688001F7D5BB
:1019A00035E000BFFEF78CFE001B022802D90320A1
:1019B000BDE8F09F28688001F4D428E03968012848
:1019C000D8F8000021D0A26A01F0030393421CD191
:1019D000E26AC1F305118A4217D1216BC0F30802F4
:1019E000491E8A4211D1616BC0F34622491E9142C1
:1019F0000BD1A16BC0F30642491E914205D1E16BA8
:101A0000C0F30660491E814201D00120D0E70020CA
:101A1000CEE700002DE9F04104004FF0010554D05D
:101A200094F82100002528B9002084F820002046E1
:101A300000F050F8022184F82110CA2022685321B6
:101A4000506220684162204601F010FB4FF0FF0613
:101A50004FF0040710BB20681D4A81681140816067
:101A6000D4E90013D4F818C02269886842EA0C024D
:101A700018431043886022682189E06840EA0140E9
:101A800010612068C16821F08001C1602068806811
:101A9000800609D4204600F02BF828B120680125E3
:101AA000466284F8217010E020680122C16C21F0A8
:101AB0000301C16421686369E069CF6C184338434E
:101AC000C8642068466284F821202846BDE8F08179
:101AD000BFFF8FFF00680449884204D103480168B2
:101AE00041F40041016070470040005870440258C2
:101AF00070B504460068C16821F0A001C160FEF71E
:101B0000DFFD4FF47A76054607E000BFFEF7D8FD0B
:101B1000401BB04201D9032070BD2068C068800618
:101B2000F4D5002070BD00002DE9F047040029D055
:101B30004A4A4FF000092068494B4A4D9042C4F888
:101B4000289006D0984204D0A84202D0E1680F291C
:101B500018D8E1684FF0010AE76B0831C9080AEBB1
:101B600057167143904205D0984203D0A84201D045
:101B7000082907D8904203D0984201D0A84204D146
:101B8000102902D90120BDE8F08794F8810020B91E
:101B9000204684F8809000F067F8022084F88100E5
:101BA0002068016821F001010160A069B0F1806F37
:101BB0000AD16068B0F5800F06D1A06B20B920680B
:101BC000016841F480510160A56AE0692368E16B16
:101BD0002843E268084310439860D4E90D02D4E931
:101BE00005C1636A25691843D4F820800A43266832
:101BF00010432843A56DD4E90172D4E9123140EABB
:101C00000C0040EA080038430843104318432843B7
:101C1000F060606868B92068816821F4C05141F4BF
:101C2000006181602068816821F4C06141F48061B5
:101C300081602068016D21F001010165606840024A
:101C400006D52068626DC16821F000411143C16072
:101C5000C4F8849084F881A0002094E7003001400B
:101C600000380040003C004010B586B00446142106
:101C70006846FEF734FB13492068884220D1124899
:101C8000016841F400510160006800F400500590C3
:101C90000D481038016841F0100101600068002211
:101CA0004FF4A04100F0100005900220052304939A
:101CB000CDE90010CDE9022004486946FEF7D4FBC7
:101CC00006B010BD00340140F04402580010025824
:101CD0002DE9F84F0F46416804461D460020164680
:101CE000B1F5800F4FF0040B009001D1A06888B1CE
:101CF00094F88000012818D04FF0010984F88090F2
:101D0000FEF7DEFC94F881108246002001290ED0F7
:101D1000022125E084F881B02046009313463A461C
:101D2000114600F0FFF9BDE8F88F0220FBE7B7B1DC
:101D3000AEB1A26880466766A4F8686084F881B096
:101D4000C4F88400A4F86A60E065A4F86000A4F810
:101D50006200B2F5C02F2067606705D009E001215D
:101D600084F880000846DEE72068016821F40061FD
:101D70000160206841686FF30F01314341602068C2
:101D8000016841F0010101606068B0F5800F04D185
:101D90002068016841F400710160E0680F282ED9C5
:101DA00048F20806B4F86A00002858D02068416953
:101DB00031420BD0006B616E0860606E001D606682
:101DC000B4F86A00401EA4F86A00EBE7FEF778FC5E
:101DD000A0EB0A00A84202D3681CE3D001E0002D6A
:101DE000E0D1204601F05FF9D4F8842084F88080A7
:101DF00042F48071C4F8841084F8819078E0072858
:101E000029D867E02068416911F4604F18D0416912
:101E1000090409D5006B616E0860606E001D606684
:101E2000B4F86A00801E08E0008E616E0880606E63
:101E3000801C6066B4F86A00401EA4F86A000AE0DC
:101E4000FEF73EFCA0EB0A00A84202D3681C02D0B9
:101E5000C7E7002DC5D0B4F86A000028D2D13DE014
:101E60002068416911F4604F29D04169090409D5FE
:101E7000006B616E0860606E001D6066B4F86A00F9
:101E8000001F19E0416901F4C041B1F5005F09D9B3
:101E9000008E616E0880606E801C6066B4F86A0017
:101EA000801E09E090F83000616E0870606E401C82
:101EB0006066B4F86A00401EA4F86A000AE0FEF703
:101EC000FFFBA0EB0A00A84202D3681C02D088E7FF
:101ED000002D86D0B4F86A000028C1D1204601F058
:101EE000E2F884F88190D4F8841084F8808009B1F5
:101EF000012018E7009816E72DE9F84F8A4690F878
:101F000080101D461746012904464FF0000B0DD0E6
:101F10004FF0010884F88080FEF7D2FB814694F8E8
:101F200081000026012804D002201EE00220BDE826
:101F3000F88FBAF1000F17D0B7B1A1680320C4F829
:101F40005CA0A4F8607084F88100C4F88460A4F8F0
:101F500062706666A4F86860A4F86A60B1F5C02F84
:101F60006667266704D008E0012084F88060DEE719
:101F70002068016841F400610160206841686FF3E6
:101F80000F01394341602068016841F0010101609F
:101F90006068B0F5800F04D12068016841F40071D9
:101FA0000160E0680F281AD82CE020684169890791
:101FB0000BD5E16D09680162E06D001DE065B4F8C4
:101FC0006200401EA4F8620009E0FEF779FBA0EB76
:101FD0000900A84202D3681C01D005E025B1B4F87D
:101FE00062000028E1D181E0204601F05CF8D4F8DD
:101FF000841084F8806041F48071C4F8841084F8FF
:1020000081808BE007282BD86CE020684169890724
:102010001BD5B4F8621001290BD9E16B49B1E16D10
:1020200009680162E06D001DE065B4F86200801E81
:1020300008E0E16D09880184E06D801CE065B4F87A
:102040006200401EA4F862000AE0FEF739FBA0EB34
:102050000900A84202D3681C02D0C5E7002DC3D0F6
:10206000B4F862000028D0D140E0206841698907B7
:102070002DD5B4F8621003290CD9E16B402909D998
:10208000E16D09680162E06D001DE065B4F8620071
:10209000001F19E0B4F8621001290BD9E16B49B1B6
:1020A000E16D09880184E06D801CE065B4F8620090
:1020B000801E09E0E16D097880F82010E06D401C79
:1020C000E065B4F86200401EA4F862000AE0FEF782
:1020D000F7FAA0EB0900A84202D3681C02D083E7FC
:1020E000002D81D0B4F862000028BED100224B46FA
:1020F00008212046009501F034F828B1D4F8840076
:1021000040F02000C4F88400204600F0CCFF84F8A2
:102110008180D4F8840084F8806008B1012006E74B
:10212000584604E72DE9FF4F83B090F8801004462D
:102130001D4600209346109F0129019014D04FF0B6
:10214000010A84F880A0FEF7BBFA804694F881006B
:102150006368002101282E464FF480020CD0934280
:1021600008D1A36833B903E0022007B0BDE8F08FBF
:10217000042801D0022037E0049898B3BBF1000F87
:1021800031D07DB394F88100042802D0052084F872
:10219000810089460846C4F88410C4F864B0A4F8E5
:1021A0006A50A4F868500499E165A4F86250A4F854
:1021B000605020676067206841686FF30F01294312
:1021C00041602068016841F001010160606890424F
:1021D00004D12068016841F400710160E0680F28B3
:1021E0002BD846E0FFE7012084F88010BDE7206887
:1021F000416989070DD565B1E16D09680162E06D3E
:10220000001DE065B4F86200401EA4F86200B4F856
:10221000625048F208022068416911420DD066B14F
:10222000006B616E0860606E001D6066B4F86A0045
:10223000401EA4F86A00B4F86A6055EA0600D6D1D8
:10224000FEF73EFAA0EB0800B84202D3781C02D198
:10225000DDE0002F5DD1204600F025FFD4F884207A
:1022600084F8809042F48070C4F8840084F881A0DF
:10227000E5E007284AD8C7E02068416989071BD5EF
:10228000D5B1012D0BD9E16B49B1E16D096801624E
:10229000E06D001DE065B4F86200801E08E0E16DAD
:1022A00009880184E06D801CE065B4F86200401E7E
:1022B000A4F86200B4F862502068416911F4604FDC
:1022C0001AD0CEB14169090409D5006B616E08606E
:1022D000606E001D6066B4F86A00801E08E0008E23
:1022E000616E0880606E801C6066B4F86A00401EF3
:1022F000A4F86A00B4F86A60FEF7E2F9A0EB0800FF
:10230000B84202D3781C01D004E01FB155EA0600A0
:10231000B2D17CE0204600F0C6FED4F8842084F8D8
:10232000809042F48071C4F8841084F881A086E023
:102330002068416989072BD555B3032D0CD9E16B72
:1023400040290BD9E16D09680162E06D001DE0656F
:10235000B4F86200001F17E0012D0BD9E16B49B101
:10236000E16D09880184E06D801CE065B4F86200CD
:10237000801E09E0E16D097880F82010E06D401CB6
:10238000E065B4F86200401EA4F86200B4F8625040
:102390002068416911F4604F2BD056B3416909049C
:1023A00009D5006B616E0860606E001D6066B4F850
:1023B0006A00001F19E0416901F4C041B1F5005FF6
:1023C00009D9008E616E0880606E801C6066B4F86A
:1023D0006A00801E09E090F83000616E0870606E3F
:1023E000401C6066B4F86A00401EA4F86A00B4F8A5
:1023F0006A60FEF765F9A0EB0800B84202D3781CCA
:1024000002D028E7002FFCD055EA060090D1002228
:10241000434608212046009700F0A3FE28B1D4F8D7
:10242000840040F02000C4F88400204600F03BFE09
:1024300084F881A0D4F8840084F8809008B1012049
:1024400093E6019891E6401EB0F1807F10B501D36C
:10245000012010BD4FF0E02460610F21601701F0F2
:102460005FFF0020A0610721216110BD2DE9F0432D
:1024700090F83C20012A42D0012280F83C2051F8FB
:102480000C4BDFF880804FF0000991E8680051E9BB
:10249000022723F44073B1F80CC03B43CF6923F407
:1024A00080631343026823F40063234323F48053BF
:1024B00043EA050323F4005343EA060323F480436D
:1024C00043EA07030C3923F47023424543EA0C43E3
:1024D00002D00D4CA2420CD18D8C23F47006D1E9B0
:1024E000073446EA055121F08071194321F0007349
:1024F0002343536480F83C900020BDE8F083022021
:10250000FBE700000000014000040140F0B590F836
:102510003C20012A38D01D4E012480F83C40022284
:1025200080F83D2002681A4D5368B242D2F808C0C4
:1025300001D0AA4203D14F6823F470033B430F68D4
:1025400023F070031F4357600268B24210D0B2F10B
:10255000804F0DD00F4B9A420AD00F4B9A4207D0B2
:102560000E4B9A4204D0AA4202D00D4B9A4204D19B
:1025700089682CF0800319439160002180F83D4068
:1025800080F83C100846F0BD0220F0BD000001407C
:10259000000401400004004000080040000C00401E
:1025A0000018004010B504220446006801F00CFD3C
:1025B0002068094A416C41F4004141642068816807
:1025C0001140062906D0B1F5803F03D0016841F0E3
:1025D00001010160002010BD0700010010B586B0A8
:1025E000044614216846FDF77AFE0E4920688842A9
:1025F00016D10D48016841F0100101600068012307
:10260000022200F01000059000204FF4806100913C
:102610006946CDE90120CDE903030448FDF724FF15
:1026200006B010BD00000140E044025800100258FE
:1026300070B5044690F83C000D4601280ED00126E6
:1026400084F83C60022084F83D000C2A45D007DC69
:102650005AB1042A1BD0082A78D12CE0022070BD80
:10266000102A4ED0142A71D15DE0206801F0BAFC26
:102670002068816941F0080181612068816921F049
:102680000401816120682A698169114311E0206891
:1026900001F0FCFC2068816941F4006181612068DF
:1026A000816921F48061816120682969826942EA37
:1026B000012181614AE0206801F034FD2068C16990
:1026C00041F00801C1612068C16921F00401C161C4
:1026D00020682A69C169114311E0206801F068FD92
:1026E0002068C16941F40061C1612068C16921F4B9
:1026F0008061C16120682969C26942EA0121C16122
:1027000024E0206801F08AFD2068416D41F0080155
:1027100041652068416D21F00401416520682A6906
:10272000416D114311E0206801F0AEFD2068416D5C
:1027300041F4006141652068416D21F4806141658B
:1027400020682969426D42EA01214165002084F830
:102750003D6084F83C0070BD10B5040003D094F8CF
:102760003D0010B107E0012010BD002084F83C00BE
:10277000204600F00DF8022084F83D002068211D5D
:1027800001F0C0FB012084F83D00002010BD0000D6
:1027900008B500680649884208D10648016841F03A
:1027A00001010160006800F00100009008BD000018
:1027B00000000140F0440258FEE700002DE9FF4F01
:1027C000DFF83CA183B04F481D4617460C46DDF8A4
:1027D00040808946BAF8006001A900F0DBFE494854
:1027E000694600F0DFFE203FF8B20590B8F1000F17
:1027F0004FF000003FD07BE00C2D0CD005994248F3
:1028000000EB01114FF0000B11F80870380609D5E4
:10281000AAF800600AE0059800EB40013B4800EB95
:102820008101EFE7BAF80210AAF800102246BAF8C0
:1028300000303448039901F071FA7806641C070EE1
:102840000098A4B2844256D2A4EB0900A84208D151
:1028500003984C460199401C80B2039088424AD2AA
:1028600006E00BF1010000F0FF0BBBF1080FCDD328
:1028700008F10100C0B2A8428046BDD33BE00C2D58
:1028800025D00599204800EB011100BF11F8087010
:102890004FF0000B380606D5BAF80030224619482A
:1028A000039901F03BFA7806641C070E0098A4B265
:1028B000844220D2A4EB0900A8420FD103984C46D1
:1028C0000199401C80B20390884214D20DE0059813
:1028D00000EB40010D4800EB8101D7E70BF101004F
:1028E00000F0FF0BBBF1080FD4D308F10100C0B218
:1028F000A8428046C3D3AAF8006007B0BDE8F08FB5
:1029000000000024A8000024B84C00904448009027
:102910002DE9F84F0D46044658194FF0000A1119D9
:1029200087B21FFA81F8DDE90AB604F0FF0912E068
:10293000444503D305EB0B004C4685B2BD420FD294
:102940005B4629462046CDF800A0FFF737FF04EB91
:102950005B0084B2761C3278A2F120005E28E7D9B1
:10296000BDE8F88F30B5264987B0264801F0B6F8A3
:10297000254C032205212348236898472049A26853
:10298000091F204890471F215020A023CDE90001B6
:10299000A46B00221B481146A0471CA102A801F00D
:1029A000ABFC02AC102504212B46A0220846CDE941
:1029B0000054FFF7ADFFFDF775FE18A1024602A80F
:1029C00001F09AFC1023A02216210420CDE9005426
:1029D000FFF79EFF0A4815A10838426802A801F0D7
:1029E0008BFC1023A02228210420CDE90054FFF7FE
:1029F0008FFF124801680A20886307B030BD0000CD
:102A000008000024A8000024280000245765416322
:102A1000742053747564696F0000000053544D3383
:102A20003248377878203078255800004C434420CD
:102A300049443A20307825580000000098060024C8
:102A400070B50A4D0122082104462846FDF724FEF0
:102A5000601EFDF7F7FC002228460821FDF71CFE4A
:102A6000BDE8704040F2F310FDF7ECBC00100258D6
:102A70002DE9FF4700240094019402940394FDF78C
:102A8000A9FE01254FF014088DF8088068468DF8DE
:102A90000F40EF068DF80B408DF80E408DF800507A
:102AA0008DF80D408DF80A4001978DF801408DF8A2
:102AB00009408DF80C50FDF75FFE4FF010098DF8BE
:102AC00008908DF80F5003268DF80B6068468DF83E
:102AD0000E508DF800508DF80D408DF80A4001978A
:102AE0008DF801508DF809408DF80C40FDF744FE3B
:102AF00017208DF808008DF80F4002208DF80B602C
:102B00004FF010478DF80E508DF800508DF80D40A5
:102B10008DF80A4001978DF8010068468DF809404C
:102B20008DF80C50FDF728FE8DF8088068468DF86A
:102B30000F408DF80B608DF80E508DF800508DF819
:102B40000D408DF80A4001978DF801608DF809401D
:102B50008DF80C40FDF710FE12218DF808108DF84D
:102B60000F50B8088DF80B608DF80E508DF800509E
:102B7000019004208DF80D508DF80A408DF8010069
:102B800068468DF809408DF80C40FDF7F5FD1121E0
:102B90008DF808108DF80F5028078DF80B608DF810
:102BA0000E508DF80050019005208DF80D508DF8D5
:102BB0000A408DF8010068468DF809408DF80C40F8
:102BC000FDF7DAFD0F218DF808108DF80F504FF04A
:102BD00060508DF80B608DF80E508DF8005001900C
:102BE00006208DF80D508DF80A408DF801006846DA
:102BF0008DF809408DF80C40FDF7BEFD8DF808906A
:102C000069078DF80F5007228DF80B6068468DF824
:102C10000E508DF800508DF80D508DF80A4001913E
:102C20008DF801208DF809408DF80C40FDF7A4FDCA
:102C30000420FDF7DDFDBDE8FF870000F0B587B09B
:102C400014216846FDF74BFB2248016841F0100152
:102C50000160016801F010010591016841F0040173
:102C60000160016801F004010591016841F08001F3
:102C7000016000680022184F082100F080000590D4
:102C80003846FDF709FD4FF42056384601223146FB
:102C9000FDF702FD00246946012508200090CDE9DA
:102CA000015438460394FDF7DFFB022168030090CE
:102CB0000A48CDE901416946FDF7D6FB0320694684
:102CC000CDE90065CDE902403846FDF7CDFB07B000
:102CD000F0BD0000E04402580010025800080258FD
:102CE0000C4800210A4A7F2310B5FF2404C080E865
:102CF0001A00C160416181610161001FFEF78AFE17
:102D0000002803D0BDE81040FDF797BB10BD0000C0
:102D100000400058EC0500242DE9F04115484FF41F
:102D200080060021124D34010722C0E90321E3008F
:102D3000C0E90514C0E9073141625A0081624FF4CD
:102D4000C027C162C0E90D21C1630164416481648F
:102D5000C16401654165816580E8E000FEF7E4FE3D
:102D6000002803D0BDE8F041FDF767BBBDE8F08166
:102D7000003401401006002410B596B000241C2138
:102D80000BA8129413941494FDF7A9FA2C21684609
:102D9000FDF7A5FA224877222049632380E8160030
:102DA000C0E9033444618461FFF7D6FC08B1FDF744
:102DB00044FB1B4812A9129413941494FFF7A6FB2A
:102DC00008B1FDF73AFB60200821CDE90B04144857
:102DD0000422CDE90D410BA90F9410941194FFF733
:102DE00027FC08B1FDF729FB4FF400500094019433
:102DF00001030294CDE9044003940694CDE9074110
:102E00000748694609940A94FFF730FB08B1FDF7BB
:102E100014FB0348FFF7E2FB16B010BD00000140B1
:102E200098060024FEE77047704700002DE9F04740
:102E3000454D044689464FF0000A2868C043800784
:102E40000AD0414E283E306820F080603060FDF7A7
:102E500037FC0746B04608E00120BDE8F08700BF18
:102E6000FDF72EFCC01B022867D8D8F8000000012F
:102E7000F6D4206829684FF4FE0721F47C313E0225
:102E800041EA00302860207AA389B4F804C04002E7
:102E90002D4D2D495B1E227CACF1010C1035091D16
:102EA000A0F5007080B2521ECCF3080C07EA034371
:102EB00040EA0C00184306EA0262104328600868E2
:102EC000626920F0C000104308600A68A06922F01F
:102ED000200202430A60281D0A6822F010020A60DC
:102EE00002684FF6F873E4699A4342EAC40202604A
:102EF0000868B9F1000F40F010020A6011D00868AC
:102F0000B9F1010F11D040F400100860D8F80000AA
:102F1000444640F08060C8F80000FDF7D1FB05464C
:102F20000DE0086840F40020EFE740F48010ECE783
:102F3000FDF7C6FB401B022801D903208DE720685E
:102F40000001F5D5504688E7284402582DE9F0479E
:102F5000454D044689464FF0000A2868C043800763
:102F60000AD0414E283E306820F080503060FDF796
:102F7000A7FB0746B04608E00120BDE8F08700BF88
:102F8000FDF79EFBC01B022867D8D8F80000800020
:102F9000F6D4208829684FF4FE0721F07C713E02A8
:102FA00041EA00502860207AA389B4F804C04002A6
:102FB0002D4D2D495B1E227CACF1010C1835091DED
:102FC000A0F5007080B2521ECCF3080C07EA034350
:102FD00040EA0C00184306EA0262104328600868C1
:102FE000626920F44060104308600A68A06922F416
:102FF000007202430A60281D0A6822F480720A6087
:1030000002684FF6F873E4699A4342EAC402026028
:103010000868B9F1000F40F480720A6011D00868A6
:10302000B9F1010F11D040F080700860D8F80000AD
:10303000444640F08050C8F80000FDF741FB0546CB
:103040000DE0086840F48000EFE740F40000ECE792
:10305000FDF736FB401B022801D903208DE72068CD
:103060008000F5D5504688E72844025870B50446DC
:103070000068C168490614D44FF0FF31C160FDF704
:103080001FFB4FF47A76054607E000BFFDF718FBFB
:10309000401BB04201D9032070BD2068C0684006C3
:1030A000F4D5002070BD10B5026840F26F3351694D
:1030B000946944F0080494610268946944F010042F
:1030C00094610268146824F00104146002681469B1
:1030D0009C4314610268936823F44043936090F822
:1030E0008120042A0CD08A060AD5D0F8842042F028
:1030F0008002C0F884200268936943F02003936142
:1031000090F88120032A0CD04A060AD5D0F88420F2
:1031100042F00402C0F884200268936943F040033F
:1031200093618A050AD5D0F8842042F00102C0F8E4
:1031300084200268936943F400739361C9050AD53A
:10314000D0F8841041F00801C0F8841001688A6941
:1031500042F480728A610021A0F86210A0F86A101F
:1031600010BD2DE9F041984616460D460746069CCF
:1031700009E0FDF7A5FAA0EB0800A04202D3601C0D
:1031800001D00BE054B13868406935EA000007D03F
:103190000020B042EDD00020BDE8F0810320FBE725
:1031A0000120F6E700207047F8B504466A46002083
:1031B00003468DF8000004F120001321064601F0BB
:1031C0003AFB0A210546204600F0F4F900236A463E
:1031D0002821304601F02FFB054420460A2100F04B
:1031E000E9F900236A463621304601F024FB0949FB
:1031F000441909480122896800EBC1006946007939
:103200008DF80000304601F00FFB001901D04FF09F
:10321000FF30F8BDE005002474000024F8B5044632
:103220006A46002003468DF8000004F120001321B7
:10323000064601F000FB0A210546204600F0BAF9D7
:1032400000236A462921304601F0F5FA054420465C
:103250000A2100F0AFF900236A463621304601F01A
:10326000EAFA0949441909480122896800EBC100BA
:10327000694600798DF80000304601F0D5FA001952
:1032800001D04FF0FF30F8BDE005002474000024A9
:103290002DE9FF4F93F8038096469C7885B0DF7A3E
:1032A0004FF0000993F80CC004EB0824997ACA4641
:1032B00093F80D80DD7C01EB07211F7D4FEA0C4C5C
:1032C0009A7C0CEB086893F815C08844DE7D3F04B7
:1032D00002EB05221D7E987D07EB0C6C5F7E62443D
:1032E0002D04DFF8D0B000EB06201E7905EB076552
:1032F0005F792844360406EB0766DBF8047003EBBD
:1033000008051346A7EB0E070090391A03913444C1
:103310000A46DDE90501A4EB080600F05FFC4FF06A
:10332000FF34E8BBDFF890800123DBF8081001AA26
:103330005F4618F8310036218DF8040005982030DA
:10334000834601F078FA58BBDDE90501039A00F0E5
:10335000FBFB28BB687802228DF8080002A92878B8
:103360008DF80900584601F05FFA08B1A14604E063
:10337000AD1C0AF1020AB245ECD3B968012301AAD7
:1033800008EBC100362100798DF80400584601F0A1
:1033900052FA28B978680022009011463B6800E094
:1033A00003E0059800F01AFC00B1A14609B04846B8
:1033B000BDE8F08FE0050024740000242DE9F04101
:1033C0001D46144B00248046069F48194FF0FF36D7
:1033D0001B68984219D8404600F0B6FBA8B90E49C0
:1033E0000020C7F30722FBB206E000BF01EB400755
:1033F00001F81020401C7B70A842F7D306496A00F0
:1034000008F1200001F010FA00B134462046BDE872
:10341000F0810000E0050024600300242DE9F05F46
:103420008A460F491E468346DDF8289090190025EC
:10343000174649684FF0FF38884208D8002409E051
:103440003A194B465146584600F068FC08B14546CB
:1034500002E0641CB442F3D32846BDE8F09F0000AC
:10346000E00500242DE9FF5F1D481C4691468B4670
:10347000DDE90E674FF0FF3A4FF0000803688A1944
:103480009A4204D8416809EB0700884201D9D04626
:1034900022E000251EE000BF009809EB0502594616
:1034A00000F052FBA0B90F49002008E0227801F893
:1034B000102001EB40026378401CA41C5370B04202
:1034C000F4D3009872000749203001F0ADF900B143
:1034D000D0466D1CBD42DFD304B04046BDE8F09F2E
:1034E000E0050024E00000242DE9F84F002699466D
:1034F0008A468346DDE90A78144635460DE04B4698
:10350000224651465846CDF80080FFF757FF10B1CC
:103510004FF0FF3603E0641C6D1CBD42EFD3304614
:10352000BDE8F88F4FF0FF30704700000248806818
:103530000860002070470000E0050024FEB51C462E
:10354000054600F001FB064605F120002E21054648
:1035500002AA01F05BF906442846012202A901F003
:103560005CF9064469460122284601F056F90644F2
:103570002846012201A901F050F99DF80420801984
:103580009DF8001001EB0221216001D04FF0FF30C7
:10359000FEBD00000248006808600020704700007F
:1035A000E0050024024840680860002070470000E1
:1035B000E005002470B50546C0690E468047044604
:1035C000E8698047001BB042FAD3002070BD2DE9A6
:1035D000F74F5FEA000884B07DD000248DF80440E6
:1035E0000121234601AA08F12000029001F023F9ED
:1035F000782105464046FFF7DDFF0298012311219F
:103600008DF8044001AA01F016F90023B121054408
:10361000029801AA01F00FF901268DF80460054413
:10362000029801A9324601F0FFF82C278DF80470AA
:10363000012200EB0509029801A901F0F5F82D25FA
:103640008DF8045001228144029801A901F0ECF8A0
:1036500001238DF80460B2218144029801AA01F08F
:10366000EAF801228DF804708144029801A901F062
:10367000DBF801228DF804508144029801A901F081
:10368000D3F801238DF80460B3218144029801AA84
:1036900001F0D1F801228DF804708144029801A94B
:1036A00001F0C2F801228DF804508144029801A96A
:1036B00001F0BAF801228DF804608144029801A952
:1036C00001F0B2F801228DF804708144029801A93A
:1036D00001F0AAF800E0C8E101228DF8045000EBE7
:1036E000090A029801A901F09FF801234FF0070988
:1036F000B4218DF804908244029801AA01F09BF84D
:10370000A2228DF804200123C0218244029801AA3C
:1037100001F091F801224FF0020B8244029801A9B6
:103720008DF804B001F080F8824484208DF8040004
:103730000298012201A901F077F88244C5208DF892
:10374000040002980123C12101AA01F074F8824407
:103750000A208DF8040002980123C22101AA01F079
:103760006AF801228DF804408244029801A901F010
:103770005BF882448A208DF8040002980123C3215B
:1037800001AA01F058F882442A208DF8040002981A
:10379000012201A901F048F882448A208DF8040032
:1037A00002980123C42101AA01F045F88244EE20C9
:1037B0008DF804000298012201A901F035F8824435
:1037C0000E208DF8040002980123C52101AA01F002
:1037D00032F8002321218244029801AA01F02BF83B
:1037E00001233A218244029805AA01F024F801231A
:1037F0008DF804B0E0218244029801AA01F01BF880
:1038000082441C208DF804000298012201A901F0D5
:103810000BF801228DF804908244029801A901F06E
:1038200003F8824412208DF804000298012201A9B5
:1038300000F0FAFF824437208DF80400029801223C
:1038400001A900F0F1FF824432208DF804000298B3
:10385000012201A900F0E8FF00EB0A010298012211
:103860004FF0290A009101A98DF804A000F0DCFFB7
:10387000009901228DF8045001440298009101A999
:1038800000F0D2FF009901228DF804A001440298B3
:10389000009101A900F0C8FF0099012201440091A4
:1038A00025208DF80400029801A900F0BDFF0099C1
:1038B0000122014400912B208DF80400029801A9F7
:1038C00000F0B2FF009901220144009139208DF8E7
:1038D0000400029801A900F0A7FF009901228DF8C9
:1038E000044001440298009101A900F09DFF009955
:1038F00001228DF8046001440298009101A900F0B2
:1039000093FF00990122461803208DF804000298C5
:1039100001A900F089FF064410208DF804000298E8
:10392000012201A900F080FF064403208DF8040065
:1039300002980123E12101AA00F07DFF06441D2029
:103940008DF804000298012201A900F06DFF012208
:103950008DF804900644029801A900F065FF064422
:1039600006208DF804000298012201A900F05CFFF6
:1039700000EB060902982E268DF80460012201A9A9
:1039800000F052FF01228DF804708144029801A9D1
:1039900000F04AFF01228DF804A000EB090702980D
:1039A00001A900F041FF01228DF80450074402985C
:1039B00001A900F039FFC519029801228DF80460B1
:1039C00001A900F031FF01228DF80460054402983E
:1039D00001A900F029FF37218DF8041001220544C8
:1039E000029801A900F020FF3F218DF80410012268
:1039F0000544029801A900F017FF01228DF8044048
:103A00000544029801A900F00FFF01228DF804403F
:103A10000544029801A900F007FF01228DF804B0C7
:103A20000544029801A900F0FFFE10218DF8041052
:103A300001220544029801A900F0F6FE01238DF849
:103A4000044013210544029801AA00F0F4FE441931
:103A500002980123292101AA00F0EDFE04440699F1
:103A6000404600F02BF9001901D04FF0FF3007B0AD
:103A7000BDE8F08FF8B520300E46DA216A460746D9
:103A800000F0C4FE4FF0FF3408B12046F8BD6D468B
:103A90003846DB216A1C00F0B9FE0028F5D1AA1CCB
:103AA0003846DC2100F0B2FE0028EED1BDF801104E
:103AB0009DF8002049BA62F31F413160F8BD30B46F
:103AC0000C4603692046114630BC184730B40C46FA
:103AD00083692046114630BC184700004FF0FF3282
:103AE00010B5E0B10B6803604C68002B44600C8992
:103AF0000481CC68C4600C6904614C6944618C69C0
:103B00008461C969C1610749416207490162074986
:103B100081620749C0E90B1001D098470246104660
:103B200010BD0000BF3A0090653D0090353B00900D
:103B3000CD3A009030B40C4643692046114630BC63
:103B400018474FF0FF307047F8B5234B9B68012BA7
:103B500003D8521C01F11A0501E04D1C1A32203025
:103B6000144600236A462A21064600F064FE0746F2
:103B70006946280A8DF800000122304600F054FE04
:103B800007446946012230468DF8005000F04CFE93
:103B9000C5196A46002330462B2100F04CFE210A4D
:103BA0008DF80010054469460122304600F03CFEC5
:103BB00005446946012230468DF8004000F034FE8D
:103BC00044196A46002330462C2100F034FE0019C7
:103BD00001D04FF0FF30F8BDE00500242DE9F84397
:103BE0001E46354BDDF820909B68012B03D8551CF1
:103BF00001F11A0402E04C1C02F11A056A46203059
:103C0000002380462A2100F016FE07466946200A56
:103C10008DF800000122404600F006FE0744694688
:103C2000012240468DF8004000F0FEFD3444694614
:103C3000641EC619200A8DF800000122404600F0DB
:103C4000F3FD06446946012240468DF8004000F02D
:103C5000EBFD84196A46002340462B2100F0EBFD62
:103C6000290A8DF80010044469460122404600F0FC
:103C7000DBFD06196946012240468DF8005000F030
:103C8000D3FD05EB09046946641E8519200A8DF8E9
:103C900000000122404600F0C7FD054469460122AC
:103CA00040468DF8004000F0BFFD401901D04FF0B4
:103CB000FF30BDE8F8830000E00500247CB5154A1C
:103CC0000C0005464FF050004FF0A0011FD0012C12
:103CD0001DD0C2E900109460506800902846136817
:103CE00000221146FFF77AFF0B49012301AA01EBDD
:103CF000C4010446087936218DF8040005F120003E
:103D000000F099FD001901D04FF0FF307CBDC2E9F1
:103D10000001E0E7E005002474000024F8B5064641
:103D20000F481F0A4FF6FF7404EA03234FF0FF35D4
:103D30003B43ADF80030036800248B420DD9406846
:103D400090420AD93046FFF7FFFE30B90222694699
:103D500006F1200000F068FD00B12C462046F8BDB9
:103D6000E0050024F0B4C66814460D4621462846F6
:103D7000B446F0BC1A4660477047FCF7A7BC000089
:103D8000F0B5CBB04C212FA8FCF7A9FA202142A80E
:103D9000FCF7A5FABC216846FCF7A1FA0220FCF763
:103DA00079FD2D492D480A6822F001020A60096850
:103DB0000168002421F4404141F4004101600168A0
:103DC00001F440414A9101688904FCD5FCF78CFD5F
:103DD000FCF770FC224905220B6802200825C60367
:103DE000012723F018030B602FAB3890602183E884
:103DF000C400CDE93902CDE93B103D903E902FA89B
:103E0000CDE93F544194FDF78FFB4FF4FA7610B1A2
:103E10003046FEF715FE42AA3F20032182E8330018
:103E20000121469442A8479448944994FDF7B2F979
:103E300010B13046FEF704FE0A4818940090811332
:103E400068462C91FCF758FD002802D03046FEF75A
:103E5000F7FD4BB0F0BD00002C0400581848025884
:103E60007044025800204000214A30B521491468AE
:103E70000020204B44F47004146010330A681E4D77
:103E800042F001020A6018600A681A4B2A400A6070
:103E900018331C1D251D174A186028322060131D79
:103EA00028601C1D251D10602A1D1860131D206030
:103EB0001C1D2860251D10601860206028600A689D
:103EC0000C4B0E4C22F4802260330A60186020688C
:103ED0006FF30F00B0F1005F03D209490120C1F870
:103EE00008014FF0006002498039086030BD0000D1
:103EF00088ED00E0004402587FEDF6EA0010005C17
:103F0000008000512DE9F047274B4FF0804A274DA4
:103F100002689842264E274F274C09D0504507D0BB
:103F2000A84205D0B04203D0B84201D0A04205D18A
:103F3000D1F804C022F070024CEA0202DFF87CC023
:103F4000DFF87C809842DFF87C900FD050450DD090
:103F5000A8420BD0B04209D0B84207D0A04205D049
:103F6000604503D0404501D0484503D1CD6822F4D7
:103F700040722A434D6922F080022A43026098422F
:103F80008A68C2620A68826207D0A04205D0604592
:103F900003D0404501D0484501D1096901630121A1
:103FA0004161BDE8F08700000000014000040040CE
:103FB00000080040000C00400004014000400140A7
:103FC000004401400048014010B5046A042301F098
:103FD0001F018B409C4304628A40016A11430162C5
:103FE00010BD00002DE9F04F026ADFF88880DFF88D
:103FF000889022F00102DFF884A0DFF884B0214F1E
:104000000262DFF884C0066A4268836926F002060D
:104010000D68B8428C6803EA0C0323F0030344EAFA
:10402000060445EA030507D0404505D0484503D0BE
:10403000504501D0584505D1CB6824F008042343EE
:1040400023F00404B84207D0404505D0484503D0CA
:10405000504501D0584505D122F44076D1E90532CA
:1040600033431A4342608561496841630462BDE895
:10407000F08F000000040140004001400044014076
:1040800000480140000001408FFFFEFFF0B5026ACA
:104090001E4E1F4C22F01002DFF878E00262056A23
:1040A0004368826925F02005D1F808C0A0420F6856
:1040B00002EA060222F4407245EA0C1542EA07229F
:1040C00001D0704506D1CE6825F0800545EA061579
:1040D00025F04005A0420AD0704508D00E4CA04201
:1040E00005D00E4CA04202D00D4CA04207D1D1E920
:1040F000054623F4406343EA840343EA86034360AE
:104100008261496881630562F0BD0000FF8FFFFE98
:104110000000014000040140004001400044014013
:1041200000480140F0B5026A1C4D1D4E22F4807219
:10413000A8420262026A4368C76922F40072D1F899
:1041400008C00C6827F0730742EA0C2244EA07040F
:1041500001D0B04206D1CF6822F4006242EA0722C1
:1041600022F48062A8420AD0B04208D00D4DA84285
:1041700005D00D4DA84202D00C4DA84207D1D1E97F
:10418000055623F4405343EA051343EA06134360FC
:10419000C4614968C1630262F0BD000000000140D3
:1041A000000401400040014000440140004801403B
:1041B00070B5026A144B22F4805202629842036A7C
:1041C0004268C46923F400538E680D6824F4E64401
:1041D00043EA063344EA05240BD00C4DA84208D02C
:1041E0000B4DA84205D00B4DA84202D00A4DA84263
:1041F00004D14D6922F4804242EA85124260C461D2
:1042000049680164036270BD000001400004014080
:10421000004001400044014000480140F0B5026AFE
:1042200022F480320262134F056A4268446D25F41D
:1042300000350E89B8420B6824F0700445EA064543
:1042400043EA04030BD00C4CA04208D00B4CA04214
:1042500005D00B4CA04202D00A4CA04204D14C69BC
:1042600022F4803242EA0422426043654968816553
:104270000562F0BD00000140000401400040014023
:104280000044014000480140F0B5026A22F4801267
:104290000262134F046A4268436D24F400140E89CD
:1042A000B8420D6823F4E04344EA065443EA052388
:1042B0000BD00C4DA84208D00B4DA84205D00B4D99
:1042C000A84202D00A4DA84204D14D6922F400321E
:1042D00042EA8522426043654968C1650462F0BDD7
:1042E0000000014000040140004001400044014042
:1042F00000480140FEE700000FB4084B10B504A9C8
:1043000002AA039800F02CF8044602A9002000F04D
:1043100087F9204610BC5DF814FB00002146009090
:10432000090700284FEA116104DB00F1E02080F862
:104330000014704700F00F0000F1E02080F8141D19
:10434000704702E008C8121F08C1002AFAD170475E
:104350007047002001E001C1121F002AFBD1704705
:104360002DE9FF4F8DB09B460F460446002606E020
:1043700025280BD05A460F999047641C761C20784C
:104380000028F5D111B03046BDE8F08F0025A846D1
:104390000122984900E0054314F8013F203B02FA4E
:1043A00003F00842F7D120782E2817D114F8010F16
:1043B00045F004052A280ED06FF02F022078A0F1D6
:1043C000300109290AD808EB880102EB410100EB12
:1043D0000108641CF2E757F8048B641C20786C28F1
:1043E0000DD004DC4C2812D06A2811D104E07428C6
:1043F0000DD07A280CD10AE045F4001507E0617869
:1044000045F48015814202D1641C05F58015641CB9
:104410002278692A45D008DC002AB3D0582A69D00E
:10442000632A10D0642A08D13BE0702A67D0732A2F
:1044300013D0752A5CD0782A5CD010465A460F9962
:104440009047761CD3E017F8040B8DF8000000208D
:104450008DF80100E946012003E057F8049B4FF076
:10446000FF3069074FF0000501D40AE06D1C454597
:104470000DDA8542FADB19F805100029F6D106E0BD
:104480006D1C8542FCDB19F805100029F8D12E447B
:1044900004E019F8010B5A460F9990476D1EF8D2A7
:1044A000A5E00A200021CDE90801C5F30250022849
:1044B0000DD001CFC117031E71F100030DDA4FF0CB
:1044C000000CD0EB0C006CEB01012D2308E0FF1D6C
:1044D00027F00707F7E80201EDE72B0504D52B23AA
:1044E0008DF8283001233BE0EB0739D02023F7E794
:1044F0000A2000E010200021CDE9080107E010208B
:10450000002145F00405CDE908014FF00808C5F386
:10451000025002280FD001CF00214FF0000A2B07D4
:104520001FD5702A0DD0DDE908C38CF0100C5CEAB1
:10453000030C0CD015E0FF1D27F00707F7E8020178
:10454000EBE740228DF828204FF0010A0BE050EAFB
:10455000010306D030238DF828308DF8292002235E
:104560009A46582A04D024A20DF120090B9209E0A2
:1045700026A2F9E7DDE90823FBF7BCFE0B9B9B5C59
:1045800009F8013D50EA0102F4D1ADEB09002030F9
:104590000890680701D44FF001080899884502DDAA
:1045A000A8EB010000E000208046002506E00AA8F4
:1045B0005A46405D0F9990476D1C761C5545F6DBB9
:1045C00004E030205A460F999047761CB8F100015C
:1045D000A8F10108F5DC05E019F8010B5A460F991E
:1045E0009047761C0899481E08900029F4DC641C4A
:1045F000C5E6000009280100303132333435363742
:10460000383961626364656600000000303132331E
:1046100034353637383941424344454600000000BE
:104620000A68531C0B6010707047FCF749B8000013
:1046300010B5034800240421FDF7B4FF204610BD47
:10464000980600242DE9F341164E4FF40065002230
:10465000884629463046FCF71FF8AC003046002259
:104660002146FCF719F81048642301226946FDF73A
:1046700043FC0122074621463046FCF70DF80A4864
:1046800001224FF4FA734146FDF722FBC419294673
:1046900001223046FCF700F8604294FBF0F0BDE8E0
:1046A000FC81000000100258100600242DE9F041A2
:1046B0000D4E4FF4006500220C4607462946304651
:1046C000FBF7EAFFA2B209484FF4FA733946FDF747
:1046D000FFFA0122044629463046FBF7DDFF60421F
:1046E00094FBF0F0BDE8F0810010025810060024A1
:1046F0002DE9F0410D4E4FF4006500220C460746AF
:1047000029463046FBF7C8FFA2B209486423394660
:10471000FDF7F2FB0122044629463046FBF7BCFFB9
:10472000604294FBF0F0BDE8F081000000100258F8
:10473000100600242DE9F743174E4FF40068154684
:104740008946002241463046FBF7A6FF4FF400574A
:10475000304600223946FBF79FFF104864230122B0
:104760006946FDF7C9FB0122044639463046FBF78E
:1047700093FF3DB1AAB209484FF4FA734946FDF7D9
:10478000BBFB0444414601223046FBF785FF6042F3
:1047900094FBF0F0BDE8FE830010025810060024E0
:1047A00088B016494FF010400860FEF761F9FBF73A
:1047B00005FEFBF793FFFFF7E3FAFEF73FFAFEF77C
:1047C0008FFAFEF7A9FAFEF7D7FAFEF7CBF85FF0FB
:1047D000100502ACFBF774FF09A1024602A8FFF71F
:1047E0008BFD1023A0223A210420CDE90054FEF7CE
:1047F0008FF80320FEF724F9ECE7000008ED00E055
:104800005469636B3A202564206D730030B44468AA
:104810000369A44630BC1846604730B4D0E903436E
:10482000A44630BC1846604730B484680369A44687
:1048300030BC1846604730B4046905682046AC4671
:1048400030BC6047000000000000000000000000D5
:10485000000000003F4000000000000000003000A9
:10486000400030004000000009000BC03D000BC0BC
:104870003D00090018C024407FE022403180000044
:10488000180024C01B000D803240018003801C40B2
:1048900027401C800740004010006000000000001E
:1048A000000000000000000000001F8020404020A9
:1048B0000000402020401F8000000000090006008A
:1048C0001F80060009000000040004003F8004006F
:1048D0000400000000100060000000000000000064
:1048E0000400040004000400040000000000004074
:1048F0000000000000000000002001C00600380099
:10490000400000001F802040204020401F80000009
:10491000000010403FC000400000000018C02140CF
:1049200022402440184000001080204024402440B1
:104930001B80000002000D0011003FC0014000007C
:104940003C80244024402440238000001F802440D9
:1049500024403440038000003000200027C038008D
:10496000200000001B802440244024401B800000C5
:104970001C0022C0224022401F80000000000000D6
:10498000084000000000000000000000046000007B
:1049900000000000000004000A00110020804040D8
:1049A000090009000900090009000000000040405A
:1049B000208011000A000400180020002340240079
:1049C000180000001F802040274029401F400000A1
:1049D000004007C039000F0001C0004020403FC028
:1049E000244024401B8000001F80204020402040A5
:1049F0003080000020403FC0204020401F80000049
:104A000020403FC024402E4030C0000020403FC026
:104A100024402E00300000000F0010802040224073
:104A20003380020020403FC0040004003FC020400B
:104A3000204020403FC02040204000000060202057
:104A400020203FC02000200020403FC024400B0019
:104A500030C0204020403FC020400040004000C007
:104A60003FC03C0003C03C003FC0000020403FC0AE
:104A70000C4023003FC020001F80204020402040E9
:104A80001F80000020403FC0244024001800000088
:104A90001F802140214020E01FA0000020403FC097
:104AA0002440260019C0004018C024402440224061
:104AB00031800000300020403FC020403000000026
:104AC00020003F80004000403F80200020003E004A
:104AD00001C0070038002000380007C03C0007C0B4
:104AE00038000000204039C0060039C020400000D6
:104AF0002000384007C0384020000000304021C06E
:104B00002640384020C00000000000007FE0402028
:104B100040200000000070000C00038000400000F6
:104B20000000402040207FE0000000000000200046
:104B300040002000000000000010001000100010D5
:104B40000010001000000000400000000000000005
:104B5000000002800540054003C0004020003FC027
:104B6000044004400380000000000380044004402F
:104B70000640000000000380044024403FC0004085
:104B80000000038005400540034000000000044091
:104B90001FC0244024402000000002E005500550C2
:104BA0000650042020403FC00440040003C00040E1
:104BB0000000044027C0004000000000001000106A
:104BC000041027E00000000020403FC00140070023
:104BD00004C00440204020403FC00040004000008E
:104BE00007C0040007C0040003C00000044007C061
:104BF0000440040003C0004000000380044004405F
:104C000003800000041007F00450044003800000FB
:104C1000000003800440045007F00010044007C067
:104C2000024004000400000000000640054005406A
:104C300004C00000000004001F8004400040000089
:104C4000040007800040044007C000400400070043
:104C500004C0018006000400060001C0070001C076
:104C600006000000044006C0010006C00440000029
:104C70000410071004E00180060004000000044056
:104C800005C00640044000000000000004007BE076
:104C900040200000000000000000FFF000000000C5
:104CA000000040207BE00400000000004000800085
:104CB0004000200020004000000000000000000034
:104CC00000000000000000000000000000001FCCF9
:104CD000000C000000000000000008003000600030
:104CE0000800300060000000022003FC1E200220AB
:104CF00003FC1E200220000000000E1811043FFFDC
:104D000010840C78000000000F0010840F3800C0E1
:104D1000077818840078000000780F8410C41124EC
:104D20000E9800E40084000808006800700000008D
:104D3000000000000000000000000000000007E08C
:104D40001818200440020000000040022004181837
:104D500007E00000000000000240024001800FF068
:104D600001800240024000000080008000800FF8B7
:104D700000800080008000000001000D000E000097
:104D800000000000000000000000008000800080A3
:104D900000800080008000800000000C000C0000FB
:104DA0000000000000000000000000060018006085
:104DB0000180060018002000000007F00808100419
:104DC0001004080807F000000000080408041FFC95
:104DD000000400040000000000000E0C1014102459
:104DE000104411840E0C000000000C181004110473
:104DF000110412880C700000000000E0032004245D
:104E000008241FFC0024000000001F9810841104D7
:104E10001104108810700000000007F008881104C9
:104E2000110418880070000000001C00100010FC25
:104E300013001C001000000000000E381144108404
:104E4000108411440E38000000000700088C104444
:104E50001044088807F00000000000000000030C68
:104E6000030C00000000000000000000000101062B
:104E7000000000000000000000000080014002204F
:104E80000410080810040000022002200220022062
:104E90000220022002200000000010040808041074
:104EA000022001400080000000000E001200100CE3
:104EB000106C10800F00000003E00C1813E41424A1
:104EC00017C4082807D000000004003C03C41C409D
:104ED000074000E4001C000410041FFC110411042E
:104EE00011040E880070000003E00C181004100478
:104EF000100410081C10000010041FFC1004100403
:104F00001004080807F0000010041FFC110411042D
:104F100017C410040818000010041FFC110411002D
:104F200017C010000800000003E00C181004100463
:104F300010441C780040000010041FFC1084008006
:104F4000008010841FFC10040000100410041FFCDB
:104F50001004100400000000000300011001100103
:104F60001FFE10001000000010041FFC110403803D
:104F70001464181C1004000010041FFC100400042A
:104F800000040004000C000010041FFC1F0000FCC3
:104F90001F001FFC1004000010041FFC0C04030081
:104FA00000E010181FFC100007F00808100410049F
:104FB0001004080807F0000010041FFC1084108083
:104FC000108010800F00000007F008181024102433
:104FD000101C080A07F2000010041FFC1104110045
:104FE00011C011300E0C000400000E1C11041084BE
:104FF000108410441C3800001800100010041FFC1E
:10500000100410001800000010001FF81004000425
:10501000000410041FF8100010001E0011E0001C16
:10502000007013801C0010001FC0103C00E01F0027
:1050300000E0103C1FC000001004180C163401C022
:1050400001C01634180C100410001C00130400FCDE
:1050500013041C00100000000804101C10641084CD
:1050600013041C04101800000000000000007FFE64
:105070004002400240020000000030000C000380AB
:105080000060001C000300000000400240024002DB
:105090007FFE000000000000000000002000400033
:1050A000400040002000000000010001000100015C
:1050B000000100010001000100004000400020004C
:1050C00000000000000000000000009801240144DE
:1050D0000144014400FC000410001FFC008801048E
:1050E00001040088007000000000007000880104C6
:1050F0000104010400880000000000700088010421
:10510000010411081FFC0004000000F801440144E0
:105110000144014400C800000000010401040FFC28
:105120001104110411001800000000D60129012902
:10513000012901C90106000010041FFC00840100C0
:105140000100010400FC000400000104190419FC22
:105150000004000400000000000000030001010141
:10516000190119FE0000000010041FFC002400407B
:1051700001B4010C010400000000100410041FFC25
:105180000004000400000000010401FC010401000F
:1051900001FC0104010000FC010401FC0084010089
:1051A0000100010400FC0004000000F801040104F7
:1051B0000104010400F80000010101FF0085010461
:1051C00001040088007000000000007000880104E5
:1051D0000104010501FF00010104010401FC008438
:1051E0000104010001800000000000CC0124012422
:1051F000012401240198000000000100010007F8CB
:105200000104010400000000010001F80004000492
:105210000004010801FC0004010001800170000C81
:10522000001001600180010001F0010C003001C09C
:105230000030010C01F0010000000104018C007439
:105240000170018C01040000010101810171000E57
:10525000001801600180010000000184010C01348C
:1052600001440184010C0000000000000000000067
:1052700001003EFC4002400200000000000000006F
:10528000FFFF0000000000000000400240023EFC62
:1052900001000000000000000000600080008000AD
:1052A0004000400020002000000000000102030434
:1052B0000102030406070809D852009000000024E8
:1052C000A80000004243009080530090A8000024F2
:1052D000300A000052430090FFFF1F000000000052
:1052E00031460090000000000000000035470090AB
:1052F00045460090F1460090AD4600902B46009048
:10530000CF350090A5310090753A00901D32009085
:10531000A9310090433B009025350090BD3C0090A2
:105320002D350090493B00909132009065340090FB
:10533000BD3300901D340090E93400903D3500905D
:105340001D3D009095350090A53500904800000067
:10535000C8000000880000000800000028000000CD
:1053600068000000E8000000A80000000100000044
:1053700010000000000000000090D0030090D00357
:0400000590000299CC
:00000001FF
