:020000040800F2
:10000000E84B0020AD02000837390008F131000844
:1000100035390008BF0300081D610008000000001A
:10002000000000000000000000000000214D00085A
:10003000C103000800000000B33A0008234D000887
:10004000C7020008C7020008C7020008C70200086C
:10005000C7020008C7020008C7020008C70200085C
:10006000C7020008C7020008C7020008C70200084C
:10007000C7020008C7020008C7020008C70200083C
:10008000C7020008C7020008C7020008C70200082C
:10009000C7020008C7020008C7020008C70200081C
:1000A000C7020008C7020008C7020008C70200080C
:1000B000C7020008C7020008C7020008C7020008FC
:1000C000C7020008C7020008C7020008C7020008EC
:1000D000C7020008C7020008C7020008C7020008DC
:1000E000C7020008C702000800000000C70200089D
:1000F000C7020008C7020008C7020008C7020008BC
:10010000C7020008C7020008C7020008C7020008AB
:10011000C7020008C7020008C7020008C70200089B
:10012000C7020008C7020008C7020008C70200088B
:10013000C7020008C7020008C7020008C70200087B
:1001400000000000000000000000000000000000AF
:10015000C7020008C7020008C7020008C70200085B
:10016000C7020008C7020008C7020008C70200084B
:10017000C7020008C7020008C7020008C70200083B
:10018000C7020008C7020008C7020008C70200082B
:10019000C7020008C7020008C7020008C70200081B
:1001A000C7020008C7020008C7020008C70200080B
:1001B000C7020008C7020008C7020008C7020008FB
:1001C000C7020008C7020008C7020008C7020008EB
:1001D000C702000839390008C7020008C702000832
:1001E000C7020008C7020008C7020008C7020008CB
:1001F000C7020008C7020008C7020008C7020008BB
:10020000C7020008C7020008C7020008C7020008AA
:10021000C7020008C7020008C7020008C70200089A
:10022000C7020008C7020008C7020008000000005B
:10023000C7020008C702000800000000C70200084B
:10024000C7020008C7020008C7020008C70200086A
:10025000C7020008C7020008C7020008C70200085A
:10026000C7020008C7020008C7020008C70200084A
:10027000C7020008C7020008C7020008000000000B
:10028000C7020008C7020008C702000800000000FB
:1002900000000000C7020008DFF80CD000F05EF894
:1002A0000048004721710008E84B002006488047BD
:1002B00006480047FEE7FEE7FEE7FEE7FEE7FEE74B
:1002C000FEE7FEE7FEE7FEE7194E00089902000888
:1002D000D2B201E000F8012B491EFBD27047002288
:1002E000F6E710B513460A4604461946FFF7F0FF35
:1002F000204610BD2DE9F05F0546002092469B4642
:1003000088460646814640241BE02846414647462B
:10031000224600F044F853465A46C01A914110D381
:1003200011461846224600F02BF82D1A67EB0108FB
:100330004F4622460120002100F022F817EB000969
:100340004E41201EA4F10104DFDC484631462A4616
:100350004346BDE8F09F002070470000064C074D63
:1003600006E0E06840F0010394E807009847103485
:10037000AC42F6D3FFF794FF6CE400088CE400086D
:10038000202A04DB203A00FA02F100207047914055
:10039000C2F1200320FA03F3194390407047202A4A
:1003A00004DB203A21FA02F00021704721FA02F31F
:1003B000D040C2F120029140084319467047FEE741
:1003C0007047704770B5044600F03AF90546601C66
:1003D00002D004480078044400F032F9401BA042E7
:1003E000FAD370BD000000202DE9FC4F01257E4CA2
:1003F00000234FF0030A4FF0B04E4FF00F0BEBE02D
:1004000005FA03F637403A0077D04F68012F05D040
:10041000022F03D0112F01D0122F1AD187684FEA73
:100420004308D1F80CC00AFA08F927EA09070CFAC0
:1004300008FC4CEA070CC0F808C0476891F804C0F3
:10044000B743CCF3001C0CFA03FC4CEA070CC0F8D1
:1004500004C0C6684FEA430CD1F80880E1460AFAA6
:100460000CF7BE43019708FA09F848EA0608C0F8F5
:100470000C804E68022E01D0122E12D1DE084FEAF7
:10048000437C00EB860600960F69366A4FEADC6C07
:100490000BFA0CF807FA0CF726EA08063743009E19
:1004A00037620E790768DDF804C006F0030606FA25
:1004B00009F627EA0C073E4306604E68F6001CD595
:1004C0004A4E376847F00207376036689F0706F0E4
:1004D0000206009623F0030606F1B046B1463F0F30
:1004E000D6F80864DFF808810BFA07FC404526EAD5
:1004F0000C0603D14FF0000C41E06CE0DFF8F4C0D3
:10050000604502D14FF0010C39E0DFF8ECC06045E6
:1005100002D14FF0020C32E0DFF8E0C0604502D1BA
:100520004FF0030C2BE0DFF8D8C0604502D14FF04C
:10053000040C24E0DFF8CCC0604502D14FF0050C7C
:100540001DE0DFF8C4C0604502D14FF0060C16E094
:10055000DFF8B8C0604502D14FF0070C0FE0DFF8BC
:10056000B0C0604502D14FF0080C08E0DFF8A4C02D
:10057000604502D14FF0090C01E04FF00A0C0CFA73
:1005800007FC4CEA060CC9F808C426684F6826EA3E
:100590000206FF0300D51643266066684F6826EA08
:1005A0000206BF0300D516436660D1F804C0764644
:1005B000DEF800705FEACC2C27EA020700D517436B
:1005C0003760D1F804C077685FEA8C2C27EA02070D
:1005D00000D5174377605B1C0A681746DA407FF442
:1005E0000FAFBDE8FC8F000080000058F4440258B3
:1005F000000002580004025800080258000C02587B
:10060000001002580014025800180258001C02582A
:1006100000200258002402580AB181617047090481
:10062000FBE7000002480068C0F30B0070470000C1
:100630000010005C01480068000C70470010005C6E
:10064000014880687047000000000020074908B595
:100650000A6842F002020A60096801F00201009192
:1006600003490A6802430A6008BD0000F4440258C6
:100670000404005802488168027811448160704780
:1006800000000020032010B500F078F801F0A0FB76
:100690000F4A104914681368C4F3032203F00F03D0
:1006A0008A5CC95C02F01F0201F01F01D0400A4AB7
:1006B00020FA01F1116009490860002000F010F8EB
:1006C00008B1012010BD00F02BF8002010BD000083
:1006D000184402586C740008100000200C00002020
:1006E00070B50D4D04462878A0B14FF47A71B1FB76
:1006F000F0F00A490968B1FBF0F002F0C0FB48B91C
:10070000102C07D200222146501E00F017F80020BE
:100710006C6070BD012070BD000000200C00002046
:10072000054808B5016841F002010160006800F069
:100730000200009008BD0000F44402580E4BF0B4D3
:100740001B680D46C3F30223C3F10706042E00D92C
:100750000426191D072901D2002300E0DB1E012415
:1007600004FA06F19C40491E2940641E9940144039
:100770002143F0BC05F041BE0CED00E0064900F05D
:10078000070210B54FF6FF040868044B204040EA0A
:1007900002201843086010BD0CED00E00000FA05CF
:1007A0007047D0F8040404F0EDBEC1EBC10200EBC9
:1007B0008202D0F80404926C04F042BEC1EBC10284
:1007C00000EB8202D0F80404D2F8082204F099BEAB
:1007D000D0F8040404F0D8BE70B54268044601F0B5
:1007E0000F00904201D9012070BD01F00F024FF0BF
:1007F00000050B06C2EBC2014FF0010204EB8101C0
:1008000003D581F83D203C3103E081F8FD5101F52D
:10081000FE718D70087094F8BC03012808D084F82C
:10082000BC23206805F03AFA002084F8BC5370BD60
:10083000022070BD2DE9F04101F00F0604460D06BF
:100840004FF00100C6EBC6014FF0000504EB81013B
:1008500003D581F83D003C3103E081F8FD5101F5FD
:10086000FE714F788A60CB700E7007B1CE80022B7C
:1008700000D10D7194F8BC23012A09D084F8BC037F
:10088000206805F003F9284684F8BC53BDE8F081E0
:100890000220FBE770B501F00F050C460026C5EB02
:1008A000C50100EB8101C1F80822C1E9843681F855
:1008B000FD6181F8FC5101F5FE710369012B00D146
:1008C0000A612207027C006803D005F03FFA00208D
:1008D00070BD05F029F9FAE770B50D464168044688
:1008E00005F00F00884201D9012070BD29064FF0A4
:1008F00000064FF0010207D5C0EBC00104EB8101F7
:1009000081F83D203C3107E0C5EBC50104EB8101D6
:1009100081F8FD6101F5FE718A70087094F8BC03DE
:10092000012807D084F8BC23206805F0E3F92807E4
:1009300002D007E0022070BD217C04F571722068AE
:1009400005F080F9002084F8BC6370BD2DE9F0410A
:1009500001F00F050C460026C5EBC501012700EB91
:1009600081018A64C1E9143681F83D7001F83C5F69
:100970000369012B00D10A612207027C006804D0C0
:1009800005F0E4F90020BDE8F08105F0CDF8F9E7C5
:100990002DE9FC5F05680446284605F0EAFA0028C0
:1009A0007ED1206805F011FB002879D0206805F081
:1009B0000CFB800704D52068416901F00201416108
:1009C000206805F002FBC10604F57170009034D573
:1009D0002068816921F0100181612F6A07F00F0101
:1009E000C7F34340C1EBC101022804EB810606F5C1
:1009F000FE7602D0062811D01AE047F6F0700742C2
:100A000016D0C7F30A12F1681746284605F0E1FA36
:100A1000F168B0693944F160384408E0009908226F
:100A2000284605F0D6FAB069C7F30A110844B06148
:100A30002068816941F010018161206805F0C5FAE4
:100A400000034FF001094FF0080B5BD5206800262A
:100A500005F09AFADFF8A8A3074651E0F8074DD051
:100A60002068F1B205F0A9FA8046C00707D005EB6F
:100A70004611C1F8089B3146204602F063FF5FEA49
:100A8000087022D505EB4611C1F808BB2068016C3F
:100A900000EB461001915145D0F8081B07D900E042
:100AA000ABE1090403D54FF40041C0F8081B204610
:100AB00000F0E2F90198504507D92069012804D1D6
:100AC00020680121009A05F0BDF85FEAC86004D5EE
:100AD00005EB46111020C1F8080B5FEA886004D5C9
:100AE00005EB46102021C0F8081B5FEA884005D5B9
:100AF00005EB46114FF40050C1F8080B7F08761C37
:100B0000002FABD1206805F060FA40034FF0000AD7
:100B10005CD5206805F031FA0026074654E0F80756
:100B200050D02068F1B205F036FA8046C00723D0D5
:100B3000D5F8342806F00F0C05EB461309FA0CF033
:100B40008243C5F83428C3F80899206901280FD1D9
:100B5000C6EBC60004EB8000D0E911121144816499
:100B600036B9206D20B920680121009A05F06AF895
:100B70002046F1B2FFF719FE5FEA087003D505EBD6
:100B80004611C1F808B95FEAC86004D505EB461103
:100B90001020C1F808095FEA486004D505EB46114A
:100BA0004020C1F808095FEA887004D505EB4611BA
:100BB0000220C1F808095FEA086003D531462046E3
:100BC00002F026FF7F08761C002FA8D1206805F0D0
:100BD000FCF9002811DAD5F8040820F00100C5F866
:100BE000040894F8F403012839D0204600F028F9CD
:100BF0002068416901F000414161206805F0E5F994
:100C000000050BD5D5F80808C00702D0204600F033
:100C10003BF92068416901F400614161206805F0F9
:100C2000D4F900010AD52068416901F000614161F1
:100C300094F8F403D0B1204600F026F9206805F0BE
:100C4000C4F9C00476D5D5F8040820F00100C5F831
:100C500004082068102105F06DF9002135E000211D
:100C6000204684F8F4A3FFF79BFDC1E784F8F493D2
:100C70002068406D0121C0F38300C4F8F8032046CA
:100C8000FFF78EFDDAE700BF05EB41104FF67F322C
:100C9000C0F80829D0F8003923F40013C0F800394F
:100CA000D0F8003943F00063C0F80039C0F8082BD1
:100CB000D0F8002B22F40012C0F8002BD0F8002B43
:100CC00042F00062C0F8002B491C60688842DBD803
:100CD000D5F81C0840F00110C5F81C08206B60B165
:100CE000D5F8840840F00B00C5F88408D5F844080E
:100CF00040F00B00C5F844080CE0D5F8140842F2A7
:100D00002B010843C5F81408D5F8100840F00B0073
:100D1000C5F81008D5F8000820F4FE60C5F80008F2
:100D2000217C2068009A04F08DFF2068416901F45D
:100D300080514161206805F048F9800417D520688A
:100D400004F0E4FE206805F007F9E06001F01EF809
:100D50000146207B2368C2B2184605F059F92046A7
:100D600000F058F82068416901F4005141612068A1
:100D700005F02BF9000707D5204600F065F820683C
:100D8000416901F008014161206805F01EF9C002C7
:100D900008D50021204600F035F82068416901F4AB
:100DA00080114161206805F010F9800208D500210A
:100DB000204600F02BF82068416901F400114161E0
:100DC000206805F002F9400007D52046FFF7E9FC4E
:100DD0002068416901F080414161206805F0F5F823
:100DE00040070AD520684568680702D52046FFF706
:100DF000EFFC2168486828434860BDE8FC9F00007C
:100E00000A30544FD0F8040404F0D9BBD0F80404DD
:100E100004F0D7BB70B50446C068012570B1022844
:100E200001D0FFF7CEFAD4F80404294604F01EFCE2
:100E3000D4F80404BDE8704004F0DABB0025F2E702
:100E4000D0F8040404F0FCBBD0F8040404F002BCA5
:100E500010B5044690F8BC0301280BD0012084F89B
:100E6000381084F8BC03206805F0C1F8002084F82D
:100E7000BC0310BD022010BDD0F8042400F5717130
:100E8000104604F0FFBB000010B50446D0F804047F
:100E900004F02CFC2068D0F8001E41F00101C0F8DD
:100EA000001E206A002804D00248016841F00601B3
:100EB000016010BD10ED00E0134970B50A68D2431F
:100EC000520705D5096801F00701814213D118E0E6
:100ED0000A6822F0070202430A60FFF7B1FB0A4DDD
:100EE0004FF47A760446083D07E000BFFFF7A8FB01
:100EF000001BB04201D9012070BD2868C0438004A6
:100F0000F4D4002070BD00000C480258024801686B
:100F100041F08071016070470C4802582DE9F84F8C
:100F20001E4615468A460446FFF78AFB814694F81A
:100F3000400001280ED001274FF0000884F84070CF
:100F400094F84100012807D05FF0020084F8408047
:100F5000BDE8F88F0220FBE74221C4F8448084F802
:100F60004110002220214B462046009602F0C9FE87
:100F70000028EBD121682868886221686868486287
:100F80002168A868C86220682969026822F44002C2
:100F900042F4800211430160E9684FF0006220468C
:100FA000CAF82810514602F085FD01224B4608215F
:100FB0002046009602F0A5FE0028C7D1226808212D
:100FC000D16084F84170C1E72DE9F84F17468B4690
:100FD0000446FFF735FB824694F8400001280ED006
:100FE00001264FF0000884F8406094F84100012881
:100FF00007D0022584F840802846BDE8F88F0220FB
:10100000FBE74FF00209C4F8448084F841900022C5
:10101000202153462046009702F073FE0500E9D1D7
:1010200000225946204602F045FDDBF8240058B95D
:101030000122534602212046009702F062FE05007D
:10104000D8D12168C1F80C9084F84160D2E7000043
:10105000F8B50446FFF7F4FA05461CB194F84100D0
:1010600010B107E00120F8BD204600F047F841F23A
:101070008830A06420686FF0FF02A168036802EB6B
:10108000012223F4706111430160A06C0022202131
:101090002B460090204602F034FE0028E3D122685F
:1010A000D4E907352679E168176845EA0665DFF86F
:1010B00044C01943104B29430025012607EA0C07B9
:1010C000394311602268D4E90517B4F810C0D2F88A
:1010D00004E039430EEA030E4EEA0C431943516013
:1010E00021680A6842F001020A60656484F8416080
:1010F000F8BD00002FFFFF00FEF8E0FF2DE9F041F2
:1011000086B0044614216846FFF7E9F82C492068A8
:10111000884252D12B48016841F480410160006847
:1011200000F48040059027480C30016841F0100120
:101130000160016801F010010591016841F00201B0
:101140000160016801F002010591016841F00801A8
:1011500001600068092701AA4FF0040800F00800A8
:10116000CDF80080022469460025CDE904700326ED
:10117000154882E87000FFF737F9CDE9008402AA2C
:10118000DFF848806946404682E8E000FFF72CF926
:101190004FF4605069468DE8F1000D48FFF724F9DF
:1011A0000A214020CDE903618DE8310069464046BF
:1011B000FFF71AF91020FFF749FA06B0BDE8F081F1
:1011C00000500052D4440258001002580004025843
:1011D000000C02582DE9F84F15460E460446FFF75D
:1011E0002FFA82462068816994F8403000F1200986
:1011F000012B0DD001274FF0000884F8407094F8BF
:101200004120012A06D0022084F84080BDE8F88FF2
:101210000220FBE7C4F84480A6B3222284F84120D0
:101220000269521CA2630269521C6263266342690E
:1012300022F0406242F080624261206881610EE0EB
:101240000621204602F05DFDC8B999F80000216B27
:101250000870206B401C2063A06B401EA063A06B35
:1012600053464FF0010200950028E9D14FF00201EA
:10127000204602F046FD10B922680221D16084F8B0
:101280004170C1E7FFE7616C012041F00801616432
:10129000BAE700002DE9FC5F044650F8241B002546
:1012A00000902E460801FE4FDFF8F8831DD5606ED2
:1012B00050B1B0F5801F0CD0B0F5001F0ED0B0F5C6
:1012C000401F1DD001250FE0386840F40030386021
:1012D00016E00221201D02F07DFD03E000980221AE
:1012E00002F008FE05000BD02E462088C00523D54D
:1012F000606D05281ED2DFE800F00C11161B1B00E4
:10130000626ED8F8001021F440111143C8F80010A3
:10131000EBE7386840F40030386009E00021201D18
:1013200002F058FD03E00098002102F0E3FD0546BD
:101330006DB100E001252E462088800528D5A06DDE
:1013400080281ED00CDC90B140280ED114E0626DD4
:10135000D8F8001021F007011143C8F80010EBE79E
:10136000C02813D0B0F5807F10D001250FE0386879
:1013700040F40030386009E00021201D02F02AFD11
:1013800003E00098002102F0B5FD054695B12E4618
:101390002088DFF81093400509F108092CD5D4F80E
:1013A000A400B0F5800F20D00DDCA0B1B0F5001F77
:1013B0000FD115E0A26DD8F8001021F4E0711143AF
:1013C000C8F80010E4E7B0F5C00F13D0B0F5000F77
:1013D00010D001250FE0386840F40030386009E093
:1013E0000021201D02F0F6FC03E00098002102F02D
:1013F00081FD054675B12E46208800052DD5D4F80F
:10140000A800B0F1007F21D00EDCA8B1B0F1807F40
:1014100010D116E0D4F8A420D9F8001021F460010E
:101420001143C9F80010E7E7B0F1407F13D0B0F1E5
:10143000806F10D001250FE0386840F4003038602C
:1014400009E00021201D02F0C5FC03E00098002106
:1014500002F050FD05468DB12E462068DFF844B2FB
:101460008001ABF1040B1FD5A06CD8B110280FD0B0
:10147000202812D0302815D0012514E0D4F8A82057
:10148000D9F8001021F0E0611143C9F80010E4E739
:10149000386840F40030386004E00221201D02F07A
:1014A00099FC05466DB12E462088C0042BD5E06D11
:1014B000B0F5005F20D00DDCA0B1B0F5805F0FD19A
:1014C00015E0A26CDBF8001021F030011143CBF8DD
:1014D0000010E9E7B0F5405F13D0B0F5804F10D0B1
:1014E00001250FE0386840F40030386009E0002141
:1014F000201D02F06FFC03E00098002102F0FAFCCE
:10150000054685B12E462088800429D5206EB0F589
:10151000403F23D010DC08B3B0F5803F14D0B0F5C5
:10152000003F0FD115E0E26DD8F8001021F4E04142
:101530001143C8F80010E6E7B0F5802F0ED0B0F5E3
:10154000A02F0BD001250AE00121201D02F042FC52
:1015500003E00098012102F0CDFC05468DB12E4636
:10156000208840042AD5D4F8AC00B0F1405F23D0E5
:1015700010DC08B3B0F1805F14D0B0F1005F0FD180
:1015800015E0226ED8F8001021F4E0211143C8F8CC
:101590000010E5E7B0F1804F0ED0B0F1A04F0BD0B6
:1015A00001250AE00121201D02F014FC03E000984F
:1015B000012102F09FFC05466DB12E4620880004F3
:1015C0001FD5E06ED8B1B0F1805F0ED0B0F1005FF2
:1015D00010D0012514E0D4F8AC20D9F8001021F087
:1015E000E0411143C9F80010E8E7386840F40030E2
:1015F000386004E00121201D02F0ECFB05466DB1CE
:101600002E462068C0011ED5606CD0B101280ED0D6
:10161000022811D0032814D0012513E0E26ED8F877
:10162000001021F040511143C8F80010E9E7386874
:1016300040F40030386004E00221201D02F0CAFBB3
:10164000054665B12E462068400257D51648016808
:1016500041F480710160FEF7F3FF82460EE0626C98
:10166000DBF8001021F003011143CBF80010EAE78A
:10167000FEF7E6FFA0EB0A0064283DD80A480068A0
:10168000C005F5D57DBBDFF81CA0B4F8B0100AF199
:10169000200ADAF8000001F4407100F4407005E01F
:1016A0002C4402585044025800480258884211D035
:1016B000DAF80010DAF8002021F4407142F48032A8
:1016C000CAF80020DAF8002022F48032CAF800209C
:1016D000CAF80010D4F8B000B0F5807F21D1FEF731
:1016E000AFFF019019E008E0FEF7AAFF0199411A47
:1016F00041F28830814210D903252E462078DFF848
:101700000CA4C0073DD0A06F182838D026DC80B3C9
:10171000082829D0102825D12CE0DAF8000080070D
:10172000E2D5D4F8B010C1F301200328F8480DD059
:10173000016821F47C510160B4F8B020DAF800109F
:10174000C2F30B021143CAF80010D7E7F14A03684D
:1017500002EA111223F47C511143ECE720280ED049
:1017600028280CD001250BE00121201D02F032FBBE
:1017700004E004E00098012102F0BCFB05465DB1E5
:101780002E46207880071ED5606F062819D2DFE824
:1017900000F0160C11161616A26FDAF8001021F0E0
:1017A00038011143CAF80010EBE70121201D02F0B7
:1017B00011FB03E00098012102F09CFB054675B186
:1017C00000E001252E46207840071FD5D4F8900070
:1017D000062819D2DFE800F0160C11161616626FF3
:1017E000DAF8001021F007011143CAF80010EAE707
:1017F0000121201D02F0EEFA03E00098012102F021
:1018000079FB05469DB100E001252E462078800633
:101810002BD5D4F88C00B0F1405F24D011DC10B38C
:10182000B0F1805F15D0B0F1005F10D116E0D4F8B0
:101830009020D9F8001021F007011143C9F80010D9
:10184000E4E7B0F1804F0ED0B0F1A04F0BD00125EE
:101850000AE00021201D02F0BDFA03E000980221F9
:1018600002F048FB05468DB12E46207840062BD568
:10187000D4F89800B0F5406F24D011DC10B3B0F567
:10188000806F15D0B0F5006F10D116E0D4F88C2021
:10189000DAF8001021F0E0411143CAF80010E4E743
:1018A000B0F5805F0ED0B0F5A05F0BD001250AE047
:1018B0000021201D02F08EFA03E00098022102F0C0
:1018C00019FB05468DB12E46207800062BD5D4F89D
:1018D0009C00B0F5C04F24D011DC10B3B0F5005F10
:1018E00015D0B0F5804F10D116E0D4F89820D9F873
:1018F000001021F4E0511143C9F80010E4E7B0F5FD
:10190000004F0ED0B0F5204F0BD001250AE000218A
:10191000201D02F05FFA03E00098022102F0EAFACB
:1019200005464DB12E46207800071ED5D4F880001C
:10193000B0F5805F0AD00FE0D4F89C20D9F80010F1
:1019400021F460411143C9F80010ECE7009802212E
:1019500002F0D0FA00B10126D4F88020DAF80010A5
:1019600021F440511143CAF800102078C00613D565
:10197000D4F89400B0F5807F05D10098022102F0E0
:10198000B9FA00B10126D4F89420D9F8001021F456
:1019900040711143C9F800102068000316D5D4F82F
:1019A000A00038B1B0F5803F09D0B0F5003F0BD0B2
:1019B00001250AE00021201D02F00CFA03E0009846
:1019C000022102F097FA054685B12E4620684003B1
:1019D00022D5D4F88400B0F5801F11D0B0F5001FD7
:1019E00013D0B0F5401F15D0012514E0D4F8A02085
:1019F000D9F8001021F440311143C9F80010E5E78F
:101A0000386840F40030386004E00098012102F0AA
:101A100071FA054655B12E462068C0031CD5E06C0E
:101A200070B1B0F5803F10D0012514E0D4F88420C7
:101A3000DAF8001021F440111143CAF80010EBE766
:101A4000386840F40030386004E00221201D02F0C4
:101A5000C1F90546CDB12E462068800005D5009815
:101A6000022102F047FA00B10126206880031BD54D
:101A7000E06FB8B1B0F5807F10D0B0F5007F11D025
:101A8000B0F5407F0ED001250DE0E26CDBF80010D0
:101A900021F480311143CBF80010DDE7386840F4C1
:101AA00000303860C5B32E462068C00207D5226FCB
:101AB000D8F8001021F000411143C8F80010206848
:101AC000800207D5A26ED8F8001021F08071114372
:101AD000C8F800102068400009D50D48016821F4BD
:101AE000004101600168D4F8B8201143016020680A
:101AF000002807DA226DDBF8001021F04051114375
:101B0000CBF8001096B10120BDE8FC9F5444025868
:101B100010440258CFFFFF00FFE7E26FDAF8001031
:101B200021F440711143CAF80010BDE70020EBE733
:101B30002DE9F05F04000F467ED0DFF83882D8F838
:101B4000000000F00F00B8420CD2D8F8001021F0CD
:101B50000F013943C8F80010D8F8000000F00F005A
:101B6000B84269D12078844D40070AD52069296898
:101B700001F07001884204D9296821F07001014305
:101B8000296020787C4E361D00070AD560693168CF
:101B900001F07001884204D9316821F070010143DD
:101BA00031602078C0060AD5A069316801F4E0618F
:101BB000884204D9316821F4E06101433160207822
:101BC000DFF8B4B180060BF1080B0CD5E16958467B
:101BD000DBF8002002F07002914204D9026822F082
:101BE00070020A430260207880070AD5E0682968FD
:101BF00001F00F01884204D9296821F00F01014347
:101C000029602078C0073ED05B49A268286818394F
:101C100020F47060104328606068022818D0032800
:101C200019D00968012819D0490700294ADADFF8D4
:101C300048A1AAF1080A00E044E0DAF8002022F006
:101C400007020243CAF80020FEF7FAFC814612E0C0
:101C500009688903E9E709688901E6E7C905E4E756
:101C6000FEF7EEFCA0EB090141F28830814202D977
:101C70000320BDE8F09F6168DAF8000000F038004A
:101C8000B0EBC10FECD1207880070AD5E068296855
:101C900001F00F01884204D2296821F00F010143AD
:101CA0002960D8F80010404601F00F01B9420BD965
:101CB000016821F00F0139430160006800F00F0056
:101CC000B84201D00120D4E7207840070AD5206926
:101CD000296801F07001884204D2296821F070015E
:101CE00001432960207800070AD56069316801F056
:101CF0007001884204D2316821F0700101433160E3
:101D00002078C0060AD5A069316801F4E0618842F4
:101D100004D2316821F4E06101433160207880060B
:101D20000CD5E1695846DBF8002002F070029142C0
:101D300004D2026822F070020A43026000F048F800
:101D40000E492A682B68C2F3032203F00F038A5C52
:101D5000C95C02F01F0201F01F01D040084A20FABE
:101D600001F111600749086007480068BDE8F05FAD
:101D7000FEF7B6BC00200052184402586C740008EC
:101D8000100000200C0000200400002030B500F0FE
:101D90001FF80B4A0B490C4B15681468C5F3032256
:101DA00004F00F048A5C095D02F01F0201F01F01BC
:101DB000D040064A20FA01F119601060084630BD93
:101DC000184402586C740008100000200C00002019
:101DD000454970B545480968434B103B11F038023E
:101DE00008D00111082A03D0102A0BD0182A0BD0D2
:101DF000084670BD19688906FBD51968C1F3C10191
:101E0000C84070BD3A4870BD3749374D18310C1D78
:101E100024350A68096826682D6802F0030406F074
:101E20000102C1F30511C5F3CC0515FB02F200EE6A
:101E3000102AB8EE400AE9B32F4ADFED2E0AB7EEBA
:101E4000001A6CB1DFED2D1A012C01D0022C43D009
:101E500002EE101A1068F8EE422A81EEA22A1EE065
:101E60001C68A40611D51B6801EE901A1168C3F313
:101E7000C103F8EE612AD84001EE900AC1F30800D0
:101E8000F8EE611A81EEA22A0BE001EE901ADFED66
:101E90001C2A00BFF8EE611A106882EEA12AC0F376
:101EA000080001EE900AF8EE611A40EE201A31EEB9
:101EB000810A00E015E022EE000A1068C0F3462017
:101EC000401C00EE900AF8EE600A80EE201ABCEE8C
:101ED000C10A10EE100A70BD01EE901ADFED092A5A
:101EE000D8E7002070BD0000104402580090D003D5
:101EF00040787D0100000039304402580024744AC3
:101F00000024744C20BCBE4B2DE9F05F04007CD053
:101F1000FF4F2078FE4D1837DFF8F493103DC007CF
:101F200048D0D9F80000396800F03800102815D0E2
:101F3000182803D101F0030002280FD06068B0F523
:101F4000803F12D010B1B0F5A02F18D0286820F42F
:101F500080302860286820F4802009E02868800309
:101F600028D560680028D2D024E0286840F480306A
:101F70002860606888B1FEF763FB064609E02868C0
:101F800040F480202860F0E7FEF75AFB801B6428AD
:101F90007ED828688003F7D50CE0FEF751FB064693
:101FA00005E000BFFEF74CFB801B6428F0D82868D2
:101FB0008003F7D4207841F20308D54E0C3E800709
:101FC0004BD5D9F80000396810F038000ED0182829
:101FD00001D188070AD0E06868B3296821F01901A7
:101FE00001432960FEF72CFB824619E02868400770
:101FF00002D5E06800288AD0FEF71CFB404513D8C4
:102000002069316821F47C3100E0BEE041EA003013
:10201000306022E0FEF714FBA0EB0A000228B7D8DC
:1020200028684007F6D5E7E7207C316821F0FE41BB
:1020300041EA0060ECE7286820F001002860FEF724
:10204000FFFA824606E000BFFEF7FAFAA0EB0A00AC
:1020500002289DD828684007F6D42078C00659D5B4
:10206000D9F80000DFF8A8B2396800F03800ABF109
:10207000040B082812D0182803D101F0030001280E
:102080000CD0E0690028286834D040F0800000E0DF
:10209000DCE02860FEF7D4FA824623E02868C00519
:1020A00023D5E069802870D11FE000BF94F820009C
:1020B000316821F0F84141EA806030602AE000BFD9
:1020C00094F82010DBF8002022F07C5242EA0161F3
:1020D000CBF800101EE000BFFEF7B2FAA0EB0A003A
:1020E00002289CD82868C005F6D5FEF7A3FA40451B
:1020F000E6D8DBE720F080002860FEF7A1FA06466C
:1021000005E000BFFEF79CFA801B022887D82868EC
:10211000C005F7D42078000729D57D48616964306F
:1021200000298046016811D041F001010160FEF7ED
:1021300087FA064605E000BFFEF782FA801B0228F8
:1021400087D8D8F800008007F6D510E021F001010B
:102150000160FEF775FA064605E000BFFEF770FA6B
:10216000801B022872D8D8F800008007F6D42078A7
:10217000800623D5A0690028286810D040F480503C
:102180002860FEF75DFA064605E02EE1FEF758FAF4
:10219000801B02285AD828688004F7D50EE020F466
:1021A00080502860FEF74CFA064604E0FEF748FA35
:1021B000801B02284AD828688004F7D4207840077A
:1021C0004FD5DFF85081D8F8001041F48071C8F87D
:1021D0000010FEF735FA064605E000BFFEF730FABC
:1021E000801B642832D8D8F80000C005F6D5484EC8
:1021F000A068603601280AD008B1052813D03068DD
:1022000020F001003060306820F0040002E0306807
:1022100040F001003060A06841F2883A90B1FEF7CA
:102220000FFA80460AE0306840F004003060EEE7C4
:10223000FEF706FAA0EB0801514507D83068800781
:10224000F6D50EE0FEF7FCF9804607E084E000BF1B
:10225000FEF7F6F9A0EB080151457DD830688007FC
:10226000F6D4606AF0B3DFF8A880D9F8001008F15E
:102270002008C1F3C20103296FD00228286820F08A
:102280008070286003D0FEF7DBF9044682E0FEF799
:10229000D7F9064605E000BFFEF7D2F9801B0228F9
:1022A00075D828688001F7D4E26A40F2F3313868C3
:1022B00054F8283F884340EA021018433860217BD5
:1022C0004FF4FE0C22894FF0FE47208A4902267DFA
:1022D000521E401EA1F5007189B20CEA0040C2F303
:1022E000080200E083E01143761E0143084807EA34
:1022F00006621143064A1C30C8F8001024320168F7
:1023000021F00101016011684FF6F876B14303E056
:102310001044025800480258236A41EAC301116080
:102320000168A26921F00C01114301600168E269B2
:1023300021F0020111430160016841F48031016024
:10234000016841F400310160016841F480210160BD
:10235000016841F0010101E019E01FE00160286817
:1023600040F080702860FEF76BF9044605E000BF7E
:10237000FEF766F9001B022809D828688001F7D506
:1023800035E000BFFEF75CF9001B022802D90320EC
:10239000BDE8F09F28688001F4D428E0396801285E
:1023A000D8F8000021D0A26A01F0030393421CD1A7
:1023B000E26AC1F305118A4217D1216BC0F308020A
:1023C000491E8A4211D1616BC0F34622491E9142D7
:1023D0000BD1A16BC0F30642491E914205D1E16BBE
:1023E000C0F30660491E814201D00120D0E70020E1
:1023F000CEE700002DE9F04104004FF0010554D074
:1024000094F82100002528B9002084F820002046F7
:1024100000F050F8022184F82110CA2022685321CC
:10242000506220684162204601F0F4FD4FF0FF0643
:102430004FF0040710BB20681D4A8168114081607D
:10244000D4E90013D4F818C02269886842EA0C0263
:1024500018431043886022682189E06840EA0140FF
:1024600010612068C16821F08001C1602068806827
:10247000800609D4204600F02BF828B120680125F9
:10248000466284F8217010E020680122C16C21F0BE
:102490000301C16421686369E069CF6C1843384364
:1024A000C8642068466284F821202846BDE8F0818F
:1024B000BFFF8FFF00680449884204D103480168C8
:1024C00041F40041016070470040005870440258D8
:1024D00070B504460068C16821F0A001C160FEF734
:1024E000AFF84FF47A76054607E000BFFEF7A8F88C
:1024F000401BB04201D9032070BD2068C06880062F
:10250000F4D5002070BD00002DE9F047040029D06B
:102510004A4A4FF000092068494B4A4D9042C4F89E
:10252000289006D0984204D0A84202D0E1680F2932
:1025300018D8E1684FF0010AE76B0831C9080AEBC7
:1025400057167143904205D0984203D0A84201D05B
:10255000082907D8904203D0984201D0A84204D15C
:10256000102902D90120BDE8F08794F8810020B934
:10257000204684F8809000F067F8022084F88100FB
:102580002068016821F001010160A069B0F1806F4D
:102590000AD16068B0F5800F06D1A06B20B9206821
:1025A000016841F480510160A56AE0692368E16B2C
:1025B0002843E268084310439860D4E90D02D4E947
:1025C00005C1636A25691843D4F820800A43266848
:1025D00010432843A56DD4E90172D4E9123140EAD1
:1025E0000C0040EA080038430843104318432843CE
:1025F000F060606868B92068816821F4C05141F4D6
:10260000006181602068816821F4C06141F48061CB
:1026100081602068016D21F0010101656068400260
:1026200006D52068626DC16821F000411143C16088
:10263000C4F8849084F881A0002094E70030014021
:1026400000380040003C0040F0B587B00646142139
:102650006846FDF744FE2648002532680224254BD3
:1026600010382349012605279A4224D10A6842F4EA
:1026700080520A60096801F480510591016841F0B7
:1026800008010160016801F008010591016841F04D
:10269000020101600068694600F002000590802098
:1026A0008DE8F1001448FDF79FFE182069468DE87B
:1026B000F100124818E0124B9A4217D10A6842F40E
:1026C00000520A60096801F400510591016841F067
:1026D000100101600068694600F0100005904FF499
:1026E000A0408DE8F1000748FDF77EFE07B0F0BD81
:1026F000F044025800300140000C02580004025817
:1027000000340140001002582DE9F84F0F4641688F
:1027100004461D4600201646B1F5800F4FF0040B0D
:10272000009001D1A06888B194F88000012818D0E9
:102730004FF0010984F88090FDF782FF94F8811032
:102740008246002001290ED0022125E084F881B0C4
:102750002046009313463A46114600F0FFF9BDE8C3
:10276000F88F0220FBE7B7B1AEB1A268804667667A
:10277000A4F8686084F881B0C4F88400A4F86A60A2
:10278000E065A4F86000A4F86200B2F5C02F2067ED
:10279000606705D009E0012184F880000846DEE783
:1027A0002068016821F400610160206841686FF3CE
:1027B0000F01314341602068016841F0010101606F
:1027C0006068B0F5800F04D12068016841F40071A1
:1027D0000160E0680F282ED948F20806B4F86A00B4
:1027E000002858D02068416931420BD0006B616EDF
:1027F0000860606E001D6066B4F86A00401EA4F8B0
:102800006A00EBE7FDF71CFFA0EB0A00A84202D329
:10281000681CE3D001E0002DE0D1204601F017FC58
:10282000D4F8842084F8808042F48071C4F8841045
:1028300084F8819078E0072829D867E0206841690A
:1028400011F4604F18D04169090409D5006B616E1D
:102850000860606E001D6066B4F86A00801E08E0C3
:10286000008E616E0880606E801C6066B4F86A003D
:10287000401EA4F86A000AE0FDF7E2FEA0EB0A00A1
:10288000A84202D3681C02D0C7E7002DC5D0B4F817
:102890006A000028D2D13DE02068416911F4604F00
:1028A00029D04169090409D5006B616E0860606E2A
:1028B000001D6066B4F86A00001F19E0416901F468
:1028C000C041B1F5005F09D9008E616E0880606E6D
:1028D000801C6066B4F86A00801E09E090F8300041
:1028E000616E0870606E401C6066B4F86A00401E3D
:1028F000A4F86A000AE0FDF7A3FEA0EB0A00A842D4
:1029000002D3681C02D088E7002D86D0B4F86A0094
:102910000028C1D1204601F09AFB84F88190D4F8B8
:10292000841084F8808009B1012018E7009816E728
:102930002DE9F84F8A4690F880101D461746012968
:1029400004464FF0000B0DD04FF0010884F8808052
:10295000FDF776FE814694F881000026012804D018
:1029600002201EE00220BDE8F88FBAF1000F17D058
:10297000B7B1A1680320C4F85CA0A4F8607084F823
:102980008100C4F88460A4F862706666A4F8686088
:10299000A4F86A60B1F5C02F6667266704D008E026
:1029A000012084F88060DEE72068016841F400615E
:1029B0000160206841686FF30F013943416020686E
:1029C000016841F0010101606068B0F5800F04D139
:1029D0002068016841F400710160E0680F281AD88E
:1029E0002CE02068416989070BD5E16D0968016217
:1029F000E06D001DE065B4F86200401EA4F86200BE
:102A000009E0FDF71DFEA0EB0900A84202D3681CF7
:102A100001D005E025B1B4F862000028E1D181E0E1
:102A2000204601F014FBD4F8841084F8806041F44F
:102A30008071C4F8841084F881808BE007282BD83B
:102A40006CE02068416989071BD5B4F86210012940
:102A50000BD9E16B49B1E16D09680162E06D001DC0
:102A6000E065B4F86200801E08E0E16D0988018429
:102A7000E06D801CE065B4F86200401EA4F86200BE
:102A80000AE0FDF7DDFDA0EB0900A84202D3681CB7
:102A900002D0C5E7002DC3D0B4F862000028D0D121
:102AA00040E02068416989072DD5B4F862100329F8
:102AB0000CD9E16B402909D9E16D09680162E06D2B
:102AC000001DE065B4F86200001F19E0B4F8621060
:102AD00001290BD9E16B49B1E16D09880184E06DF1
:102AE000801CE065B4F86200801E09E0E16D0978A1
:102AF00080F82010E06D401CE065B4F86200401ED4
:102B0000A4F862000AE0FDF79BFDA0EB0900A842D3
:102B100002D3681C02D083E7002D81D0B4F8620094
:102B20000028BED100224B4608212046009501F026
:102B3000ECFA28B1D4F8840040F02000C4F88400F6
:102B4000204601F084FA84F88180D4F8840084F867
:102B5000806008B1012006E7584604E72DE9FF4FE1
:102B600083B090F8801004461D4600209346109FC5
:102B70000129019014D04FF0010A84F880A0FDF7DC
:102B80005FFD804694F881006368002101282E468D
:102B90004FF480020CD0934208D1A36833B903E00C
:102BA000022007B0BDE8F08F042801D0022037E0F2
:102BB000049898B3BBF1000F31D07DB394F8810035
:102BC000042802D0052084F8810089460846C4F80C
:102BD0008410C4F864B0A4F86A50A4F8685004994A
:102BE000E165A4F86250A4F860502067606720682F
:102BF00041686FF30F01294341602068016841F08B
:102C0000010101606068904204D12068016841F4CC
:102C100000710160E0680F282BD846E0FFE7012033
:102C200084F88010BDE72068416989070DD565B13A
:102C3000E16D09680162E06D001DE065B4F86200B5
:102C4000401EA4F86200B4F8625048F208022068FE
:102C5000416911420DD066B1006B616E0860606E13
:102C6000001D6066B4F86A00401EA4F86A00B4F85B
:102C70006A6055EA0600D6D1FDF7E2FCA0EB080039
:102C8000B84202D3781C02D1DDE0002F5DD120468E
:102C900001F0DDF9D4F8842084F8809042F480704B
:102CA000C4F8840084F881A0E5E007284AD8C7E08A
:102CB0002068416989071BD5D5B1012D0BD9E16B7E
:102CC00049B1E16D09680162E06D001DE065B4F88D
:102CD0006200801E08E0E16D09880184E06D801CBF
:102CE000E065B4F86200401EA4F86200B4F86250D7
:102CF0002068416911F4604F1AD0CEB141690904CE
:102D000009D5006B616E0860606E001D6066B4F8E6
:102D10006A00801E08E0008E616E0880606E801C74
:102D20006066B4F86A00401EA4F86A00B4F86A60ED
:102D3000FDF786FCA0EB0800B84202D3781C01D056
:102D400004E01FB155EA0600B2D17CE0204601F054
:102D50007EF9D4F8842084F8809042F48071C4F81D
:102D6000841084F881A086E02068416989072BD50A
:102D700055B3032D0CD9E16B40290BD9E16D0968DE
:102D80000162E06D001DE065B4F86200001F17E00D
:102D9000012D0BD9E16B49B1E16D09880184E06D2A
:102DA000801CE065B4F86200801E09E0E16D0978DE
:102DB00080F82010E06D401CE065B4F86200401E11
:102DC000A4F86200B4F862502068416911F4604FC1
:102DD0002BD056B34169090409D5006B616E0860B8
:102DE000606E001D6066B4F86A00001F19E041695A
:102DF00001F4C041B1F5005F09D9008E616E088011
:102E0000606E801C6066B4F86A00801E09E090F86D
:102E10003000616E0870606E401C6066B4F86A0035
:102E2000401EA4F86A00B4F86A60FDF709FCA0EB44
:102E30000800B84202D3781C02D028E7002FFCD04B
:102E400055EA060090D1002243460821204600970B
:102E500001F05BF928B1D4F8840040F02000C4F8F8
:102E60008400204601F0F3F884F881A0D4F88400AF
:102E700084F8809008B1012093E6019891E6401E05
:102E8000B0F1807F10B501D3012010BD4FF0E024D8
:102E900060610F21601703F0B0FA0020A0610721E4
:102EA000216110BD2DE9F04390F83C20012A42D069
:102EB000012280F83C2051F80C4BDFF880804FF065
:102EC000000991E8680051E9022723F44073B1F842
:102ED0000CC03B43CF6923F480631343026823F49F
:102EE0000063234323F4805343EA050323F4005390
:102EF00043EA060323F4804343EA07030C3923F42F
:102F00007023424543EA0C4302D00D4CA2420CD13F
:102F10008D8C23F47006D1E9073446EA055121F07F
:102F20008071194321F000732343536480F83C906F
:102F30000020BDE8F0830220FBE700000000014014
:102F400000040140F0B590F83C20012A38D01D4E15
:102F5000012480F83C40022280F83D2002681A4D8E
:102F60005368B242D2F808C001D0AA4203D14F68D8
:102F700023F470033B430F6823F070031F43576033
:102F80000268B24210D0B2F1804F0DD00F4B9A427E
:102F90000AD00F4B9A4207D00E4B9A4204D0AA4255
:102FA00002D00D4B9A4204D189682CF0800319435A
:102FB0009160002180F83D4080F83C100846F0BD4B
:102FC0000220F0BD00000140000401400004004068
:102FD00000080040000C00400018004010B504221A
:102FE0000446006801F0C8FF2068094A416C41F4BA
:102FF00000414164206881681140062906D0B1F57E
:10300000803F03D0016841F001010160002010BD44
:103010000700010010B586B0044614216846FDF78C
:103020005EF90E492068884216D10D48016841F0CA
:103030001001016000680123022200F010000590D9
:1030400000204FF4806100916946CDE90120CDE96F
:1030500003030448FDF7C8F906B010BD00000140A5
:10306000E04402580010025870B5044690F83C0045
:103070000D4601280ED0012684F83C60022084F819
:103080003D000C2A45D007DC5AB1042A1BD0082A7F
:1030900078D12CE0022070BD102A4ED0142A71D1B4
:1030A0005DE0206801F076FF2068816941F0080149
:1030B00081612068816921F00401816120682A69A9
:1030C0008169114311E0206801F0B8FF206881692F
:1030D00041F4006181612068816921F4806181612E
:1030E00020682969826942EA012181614AE02068F9
:1030F00001F0F0FF2068C16941F00801C16120685A
:10310000C16921F00401C16120682A69C1691143C4
:1031100011E0206802F024F82068C16941F40061E0
:10312000C1612068C16921F48061C1612068296999
:10313000C26942EA0121C16124E0206802F046F838
:103140002068416D41F0080141652068416D21F022
:103150000401416520682A69416D114311E020682E
:1031600002F06AF82068416D41F400614165206811
:10317000416D21F48061416520682969426D42EA10
:1031800001214165002084F83D6084F83C0070BD59
:1031900010B5040003D094F83D0010B107E0012001
:1031A00010BD002084F83C00204600F00DF80220FD
:1031B00084F83D002068211D01F07CFE012084F888
:1031C0003D00002010BD000008B500680649884297
:1031D00008D10648016841F001010160006800F073
:1031E0000100009008BD000000000140F0440258BA
:1031F000FEE7000001480068806B70474002002035
:103200002DE9F0410D4601462DED028BFFF7F2FF4F
:103210008842044631D0002D2FD001EE904A01EEB5
:10322000101A00EE905AF8EE611AB8EE411AB8EE94
:10323000602A9FED140A71EEC10A30EE420A80EE58
:10324000808AFDF7FDF9104F06460120FDF7BAF818
:10325000FDF7F6F9801B3A6800EE904A00EE100A7E
:10326000F8EE600AB8EE400A40EE080ABCEEE00A4A
:1032700010EE101A9163A842E7D3BDEC028BBDE8B3
:10328000F081000000000000400200202DE9FF4F07
:1032900085B01D460C2B90460C4689460598049037
:1032A0006348DDF848B0068819D0082715FB07F0F9
:1032B000400003F0FFFF03A982465E4801F03EF99B
:1032C0005C4802A901F042F9A8F120014FF000008A
:1032D000C9B20791BBF1000F014602D097E0062763
:1032E000E4E7DFF84CE149E00C2D0ED0079B524A91
:1032F00002EB0312002321F0010B525C0093130632
:103300000AD573BAAEF800300CE0079A02EB42031C
:103310004A4A02EB8302EDE7BEF802C09CFA9CFC2D
:10332000AEF800C007FB00F3401CBEF800C080B23E
:103330000AEB4303A84223F80BC000D30020029BF2
:103340005206641CA4B2120E9C4202D3AEF8006076
:1033500047E0A4EB0903AB4208D1059A4C46039B16
:10336000521C92B205929A42F0D205E0009B5B1C7F
:10337000DBB20093082BC2D3491CC9B2A942B3D314
:1033800047E00C2D33D0079B2B4A02EB03124FF082
:10339000000B21F0010E525C130608D5244B07FBED
:1033A00000FC1B880AEB4C0C5BBA2CF80E30401C5E
:1033B00080B2A84200D30020029B5206641CA4B233
:1033C000120E9C420BD2A4EB0903AB4216D1059A14
:1033D0004C46039B521C92B205929A4215D3144854
:1033E0000680504603F0BAFD09B0BDE8F08F079A99
:1033F00002EB4203114A02EB8302C8E70BF101031F
:1034000003F0FF0BBBF1080FC6D3491CC9B2A94298
:10341000B7D30C2D09D008200499CDE90005054843
:1034200053464A4600F0F2FFD9E70620F4E70000D1
:103430001800002088060020F07800087C7400083E
:103440002DE9F84F0D46044658194FF0000A11199E
:1034500087B21FFA81F8DDE90AB604F0FF0912E02D
:10346000444503D305EB0B004C4685B2BD420FD259
:103470005B4629462046CDF800A0FFF707FF04EB86
:103480005B0084B2761C3278A2F120005E28E7D976
:10349000BDE8F88F2DE9F047554988B0554801F04F
:1034A000F1FA554D0322052152482B68984750499F
:1034B000AA68091F4F489047504F00203968886319
:1034C0000246AC6A01464E4B4A48A047FDF7B8F8A1
:1034D0000DF1080804464FF47A764FF010094FF4C6
:1034E000FA6A0A20FCF76EFFFDF7AAF8001BB0424B
:1034F00009D8FDF7A5F8001B642148433968B0FBE3
:10350000F6F08863EDE7FDF79BF8001B504529D8DE
:10351000FDF796F8001B0A21A0F57A70B0FBF1F2D6
:1035200038A102A802F042FF1023A022012182202C
:10353000CDE90098FFF784FFFDF782F8001B4FF6F6
:10354000FF71A0F57A7000EB800203205201B2FBFC
:10355000F6F3CDE90001D5F838C04D220021254809
:10356000E047BEE7FDF76CF8001B5045B9D90020D5
:103570004FF49671FFF744FE002150200A46A02325
:10358000CDE90001AC6B1B48A04720A102A802F0C6
:103590000DFF0421444610234D46A0220846CDE9E4
:1035A0000098FFF74DFFFDF73DF81CA1024602A869
:1035B00002F0FCFE1023A02216210420CDE90054C5
:1035C000FFF73EFF0A4819A10838426802A802F036
:1035D000EDFE1023A02228210420CDE90054FFF79E
:1035E0002FFFC8216420FFF70BFE08B0BDE8F0876D
:1035F000200000208806002040000020400200201B
:10360000E07E000825303364000000005765416308
:10361000742053747564696F0000000053544D3377
:103620003248377878203078255800004C434420C1
:1036300049443A20307825580000000070B50A4E01
:1036400001220C46054608213046FCF7E5FF681EBE
:10365000FCF7B8FE002230460821FCF7DDFF601EB3
:10366000BDE87040FCF7AEBE001002582DE9F043F3
:1036700087B014216846FCF732FE3348016841F0F8
:1036800010010160016801F010010591016841F02D
:1036900004010160016801F004010591016841F035
:1036A00080010160016801F080010591016841F02D
:1036B00002010160016801F002010591016841F019
:1036C00008010160016801F008010591016841F0FD
:1036D0000101016000680022DFF87080082100F01D
:1036E000010005904046FCF797FF4FF420574046F5
:1036F00001223946FCF790FFDFF854900122402167
:103700004846FCF789FF00246946012508200090FF
:10371000CDE9015440460394FCF766FE032600976A
:1037200003966946CDE901544046FCF75DFE402012
:103730006946CDE90005CDE902464846FCF754FE4E
:1037400007B0BDE8F0830000E044025800100258C2
:10375000000C02580D48012170B50B4B1024E0E815
:10376000023116254FF4A066002280E87200C0E9FD
:10377000041282610548FDF76BFC002803D0BDE808
:103780007040FCF71EBE70BD00500052C00000200B
:103790000C4800210A4A7F2310B5FF2404C080E8AA
:1037A0001A00C160416181610161001FFEF722FEC4
:1037B000002803D0BDE81040FCF703BE10BD000098
:1037C000004000580C01002070B5154807224FF446
:1037D0008005124E00212C01C0E902120161A300F4
:1037E000C0E90514C0E9073141629A008162C162F3
:1037F000C0E90D21C163016441648164C164016554
:1038000041658165C0E90065FEF77EFE002803D0B2
:10381000BDE87040FCF7D5BD70BD00000030014030
:10382000300100202DE9F04115484FF480060021B9
:10383000124D34010722C0E90321E300C0E9051459
:10384000C0E9073141625A0081624FF4C027C1626A
:10385000C0E90D21C163016441648164C1640165F3
:103860004165816580E8E000FEF74EFE002803D048
:10387000BDE8F041FCF7A5BDBDE8F0810034014092
:10388000B801002010B596B000241C210BA812949A
:1038900013941494FCF723FD2C216846FCF71FFDBC
:1038A00023480B22214940F2E73380E81600C0E9A3
:1038B000033444618461FFF76BFC08B1FCF781FDC0
:1038C0001B4812A9129413941494FFF73BFB08B100
:1038D000FCF777FD60200821CDE90B041448042291
:1038E000CDE90D410BA90F9410941194FFF7BCFB87
:1038F00008B1FCF766FD4FF40050009401940103F9
:103900000294CDE9044003940694CDE907410848A8
:10391000694609940A94FFF7C5FA08B1FCF751FD0E
:103920000348FFF777FB16B010BD00000000014010
:1039300040020020FEE770470148FDF729B800006B
:10394000800200202DE9F041044600690D46202741
:10395000236801284FF4004604F5717203EB45110A
:10396000D3F840C0D1F8080B09D0DFF89CE0F4454B
:103970003AD1020433D500BFC1F8086B40E0234BB5
:103980005FEA007E04D59C453AD90004F4D437E0C0
:103990005FEA806E02D5C1F8087B31E010F0280F95
:1039A0002ED19C4501D90004E6D4D1F8103BC5EBDB
:1039B000C50004EB8000C3F31203D0F80412A1EB9E
:1039C0000303C0F81432D0F808321944C0F80812C2
:1039D00095B9D4F8100278B9206801210AE0800670
:1039E0000AD5C1F8087B07E035B9D4F8100218B938
:1039F0000021184602F026F92046E9B2FCF7DEFE67
:103A00000020BDE8F08100000A31544F0A30544FC5
:103A10002DE9F84F0E4605688146C1EBC60100EB63
:103A20008104D4E914203C34904202D90120BDE83D
:103A3000F88FA168101A814200D20846C01C05EB1D
:103A4000461887081BE000BFA268A0EB010A524598
:103A500000D2924699F810100AF1030000911FFA63
:103A60008AF3E16887082846F2B202F045FBE16874
:103A700001EB0A00E060A16901EB0A00A061D8F83F
:103A8000180980B2B84205D3D4E90501814201D2B8
:103A90000028D9D1D4E90501884208D8D5F83418CE
:103AA000012006F00F0290408143C5F83418002031
:103AB000BDE770472DE9F0434B6A4FF040652BB1ED
:103AC000AA4203D004688B6A5B1E23618B69002BBA
:103AD00068D00C6AB4B303688C68DC61CC69FCB153
:103AE000D1E90B38D1F824C04E6B8F8A43EA080322
:103AF00046EA0C0633430E6A43EA8743D1E9037C66
:103B000043EA0C0333438E693B430F682343046845
:103B100033433B4365E0006849688161BDE8F08359
:103B2000D1E90B364F6A4C6B8D8A33433C430E69A7
:103B300023430C6A43EA85438D6933430968234371
:103B40002B4362E0FFE7CC69B4F1000918D0D1E95A
:103B50000B484F6A4E6BB1F814C044EA08043E4368
:103B60000F683443CE6844EA8C44344344EA090481
:103B70001C4303683C431443AA425C61CBD1CDE7AC
:103B8000D1E90B464F6A4D6BB1F814C034433D4345
:103B900000682C43096844EA8C441C430C431443DA
:103BA0004461BBE70B6AABB303688C68DC61CC692A
:103BB000E4B1D1E90B38D1F824C04E6B8F8A43EAC7
:103BC000080346EA0C0633430E6A43EA8743D1E909
:103BD000037C43EA0C0333438E693B43234304686D
:103BE00033431343AA42636195D197E7D1E90B367A
:103BF0004F6A4C6B8D8A33433C430E6923430C6AF6
:103C000043EA854389693343234300680B431343E5
:103C1000436183E7FFE7CC6984B1D1E90B384F6A90
:103C20004E6BB1F814C043EA08033E433343CE68F9
:103C300043EA8C43334323430468D2E74C6A002CA5
:103C40009DD0D1E90B368F8A4D6B016833432543F4
:103C50002B4343EA8740104348615FE7F0B58FB0DC
:103C60000646002141F288344FF4807022466625D2
:103C70000095CDE9060108913046099105910B9117
:103C80000C910D916946FDF79FF9C8B99927224615
:103C9000694630460097FDF797F988B94FF44070B0
:103CA00022466946009506903046FDF78DF938B9F1
:103CB0002246694630460097FDF786F9002800D075
:103CC00001200FB0F0BDF0B58FB014AC94E8E05017
:103CD00000248DE81600CDE90334CDF824C041F26C
:103CE0008832CDE90774CDE90AE40C9469460D9455
:103CF000CDE90556FDF768F9002800D001200FB086
:103D0000F0BD2DE9F041984616460F460446069D43
:103D100008E0681C06D0FCF793FCA0EB0800A84262
:103D20000AD84DB120688068384000D00120B042E8
:103D3000EFD10020BDE8F081042084F84100606CE0
:103D400040F0010060640120F4E70000F0B5204D70
:103D5000074695B02878042815D04FF48070069057
:103D6000002441F2883606200794089432460594D0
:103D7000694609940B940C940D9400903846FDF715
:103D800023F9F0B902E04FF44070E8E702204FF069
:103D9000050C1022CDF800C0430513930E900121AD
:103DA000CDE90F02CDE91114287804280CD00806BB
:103DB00033460EAA694609903846FDF7AFF8002849
:103DC00000D0012015B0F0BD4FF04070F0E70000CA
:103DD000AC0000202DE9F047454D044689464FF0E0
:103DE000000A2868C04380070AD0414E283E306848
:103DF00020F080603060FCF723FC0746B04608E006
:103E00000120BDE8F08700BFFCF71AFCC01B0228A8
:103E100067D8D8F800000001F6D4206829684FF46C
:103E2000FE0721F47C313E0241EA00302860207A0E
:103E3000A389B4F804C040022D4D2D495B1E227C9D
:103E4000ACF1010C1035091DA0F5007080B2521EB6
:103E5000CCF3080C07EA034340EA0C00184306EAD7
:103E60000262104328600868626920F0C0001043B5
:103E700008600A68A06922F0200202430A60281D37
:103E80000A6822F010020A6002684FF6F873E469CB
:103E90009A4342EAC40202600868B9F1000F40F098
:103EA00010020A6011D00868B9F1010F11D040F476
:103EB00000100860D8F80000444640F08060C8F860
:103EC0000000FCF7BDFB05460DE0086840F400204B
:103ED000EFE740F48010ECE7FCF7B2FB401B022850
:103EE00001D903208DE720680001F5D5504688E709
:103EF000284402582DE9F047454D044689464FF0C5
:103F0000000A2868C04380070AD0414E283E306826
:103F100020F080503060FCF793FB0746B04608E085
:103F20000120BDE8F08700BFFCF78AFBC01B022818
:103F300067D8D8F800008000F6D4208829684FF4AC
:103F4000FE0721F07C713E0241EA00502860207A91
:103F5000A389B4F804C040022D4D2D495B1E227C7C
:103F6000ACF1010C1835091DA0F5007080B2521E8D
:103F7000CCF3080C07EA034340EA0C00184306EAB6
:103F80000262104328600868626920F440601043B0
:103F900008600A68A06922F4007202430A60281DC2
:103FA0000A6822F480720A6002684FF6F873E469C6
:103FB0009A4342EAC40202600868B9F1000F40F473
:103FC00080720A6011D00868B9F1010F11D040F079
:103FD00080700860D8F80000444640F08050C8F86F
:103FE0000000FCF72DFB05460DE0086840F480005A
:103FF000EFE740F40000ECE7FCF722FB401B02284F
:1040000001D903208DE720688000F5D5504688E768
:104010002844025870B504460068C168490614D4A3
:104020004FF0FF31C160FCF70BFB4FF47A76054689
:1040300007E000BFFCF704FB401BB04201D903209E
:1040400070BD2068C0684006F4D5002070BD10B572
:10405000026840F26F335169946944F00804946136
:104060000268946944F0100494610268146824F0B2
:1040700001041460026814699C4314610268936827
:1040800023F44043936090F88120042A0CD08A06E0
:104090000AD5D0F8842042F08002C0F8842002685B
:1040A000936943F02003936190F88120032A0CD098
:1040B0004A060AD5D0F8842042F00402C0F88420D1
:1040C0000268936943F0400393618A050AD5D0F8EA
:1040D000842042F00102C0F884200268936943F40E
:1040E00000739361C9050AD5D0F8841041F0080126
:1040F000C0F8841001688A6942F480728A610021E4
:10410000A0F86210A0F86A1010BD2DE9F0419846A1
:1041100016460D460746069C09E0FCF791FAA0EB0F
:104120000800A04202D3601C01D00BE054B13868F3
:10413000406935EA000007D00020B042EDD00020F1
:10414000BDE8F0810320FBE70120F6E7002070477F
:10415000F8B504466A46002003468DF8000004F1D5
:1041600020001321064603F0F0F80A2105462046F8
:1041700000F0F4F900236A462821304603F0E5F800
:10418000054420460A2100F0E9F900236A46362159
:10419000304603F0DAF809494419094801228968D0
:1041A00000EBC100694600798DF80000304603F04D
:1041B000C5F8001901D04FF0FF30F8BDC00B00204A
:1041C0008C000020F8B504466A46002003468DF8AE
:1041D000000004F120001321064603F0B6F80A217E
:1041E0000546204600F0BAF900236A4629213046E8
:1041F00003F0ABF8054420460A2100F0AFF9002394
:104200006A463621304603F0A0F8094944190948A6
:104210000122896800EBC100694600798DF8000031
:10422000304603F08BF8001901D04FF0FF30F8BD95
:10423000C00B00208C0000202DE9FF4F93F8038075
:1042400096469C7885B0DF7A4FF0000993F80CC051
:1042500004EB0824997ACA4693F80D80DD7C01EBC3
:1042600007211F7D4FEA0C4C9A7C0CEB086893F8F1
:1042700015C08844DE7D3F0402EB05221D7E987D3B
:1042800007EB0C6C5F7E62442D04DFF8D0B000EBCE
:1042900006201E7905EB07655F792844360406EB96
:1042A0000766DBF8047003EB08051346A7EB0E075F
:1042B0000090391A039134440A46DDE90501A4EB64
:1042C000080600F05FFC4FF0FF34E8BBDFF8908099
:1042D0000123DBF8081001AA5F4618F831003621E7
:1042E0008DF8040005982030834603F02EF858BB63
:1042F000DDE90501039A00F0FBFB28BB6878022288
:104300008DF8080002A928788DF80900584603F0B6
:1043100015F808B1A14604E0AD1C0AF1020AB24545
:10432000ECD3B968012301AA08EBC100362100795A
:104330008DF80400584603F008F828B97868002280
:10434000009011463B6800E003E0059800F01AFC7D
:1043500000B1A14609B04846BDE8F08FC00B00206F
:104360008C0000202DE9F0411D46144B00248046AE
:10437000069F48194FF0FF361B68984219D84046EF
:1043800000F0B6FBA8B90E490020C7F30722FBB224
:1043900006E000BF01EB400701F81020401C7B70D5
:1043A000A842F7D306496A0008F1200002F0C6FFD0
:1043B00000B134462046BDE8F0810000C00B00206B
:1043C000400900202DE9F05F8A460F491E468346CA
:1043D000DDF8289090190025174649684FF0FF38FE
:1043E000884208D8002409E03A194B4651465846FD
:1043F00000F068FC08B1454602E0641CB442F3D307
:104400002846BDE8F09F0000C00B00202DE9FF5FAB
:104410001D481C4691468B46DDE90E674FF0FF3A7A
:104420004FF0000803688A199A4204D8416809EBE2
:104430000700884201D9D04622E000251EE000BFD7
:10444000009809EB0502594600F052FBA0B90F494C
:10445000002008E0227801F8102001EB4002637888
:10446000401CA41C5370B042F4D30098720007495A
:10447000203002F063FF00B1D0466D1CBD42DFD397
:1044800004B04046BDE8F09FC00B0020C0060020ED
:104490002DE9F84F002699468A468346DDE90A78D9
:1044A000144635460DE04B46224651465846CDF857
:1044B0000080FFF757FF10B14FF0FF3603E0641C98
:1044C0006D1CBD42EFD33046BDE8F88F4FF0FF3092
:1044D00070470000024880680860002070470000B4
:1044E000C00B0020FEB51C46054600F001FB064649
:1044F00005F120002E21054602AA02F011FF064414
:104500002846012202A902F012FF06446946012250
:10451000284602F00CFF06442846012201A902F0B9
:1045200006FF9DF8042080199DF8001001EB022180
:10453000216001D04FF0FF30FEBD0000024800684E
:104540000860002070470000C00B0020024840684F
:104550000860002070470000C00B002070B50546C1
:10456000C0690E4680470446E8698047001BB04298
:10457000FAD3002070BD2DE9F74F5FEA000884B040
:104580007DD000248DF804400121234601AA08F1C2
:104590002000029002F0D9FE782105464046FFF740
:1045A000DDFF0298012311218DF8044001AA02F0D9
:1045B000CCFE0023B1210544029801AA02F0C5FEF9
:1045C00001268DF804600544029801A9324602F0E4
:1045D000B5FE2C278DF80470012200EB0509029826
:1045E00001A902F0ABFE2D258DF804500122814473
:1045F000029801A902F0A2FE01238DF80460B22105
:104600008144029801AA02F0A0FE01228DF80470F4
:104610008144029801A902F091FE01228DF8045014
:104620008144029801A902F089FE01238DF80460FB
:10463000B3218144029801AA02F087FE01228DF87D
:1046400004708144029801A902F078FE01228DF8DD
:1046500004508144029801A902F070FE01228DF8F5
:1046600004608144029801A902F068FE01228DF8DD
:1046700004708144029801A902F060FE00E0C8E1E4
:1046800001228DF8045000EB090A029801A902F0FA
:1046900055FE01234FF00709B4218DF804908244A0
:1046A000029801AA02F051FEA2228DF804200123F3
:1046B000C0218244029801AA02F047FE01224FF075
:1046C000020B8244029801A98DF804B002F036FE74
:1046D000824484208DF804000298012201A902F08E
:1046E0002DFE8244C5208DF8040002980123C121CB
:1046F00001AA02F02AFE82440A208DF804000298E2
:104700000123C22101AA02F020FE01228DF80440FB
:104710008244029801A902F011FE82448A208DF899
:10472000040002980123C32101AA02F00EFE824474
:104730002A208DF804000298012201A902F0FEFD52
:1047400082448A208DF8040002980123C42101AA22
:1047500002F0FBFD8244EE208DF804000298012255
:1047600001A902F0EBFD82440E208DF804000298AE
:104770000123C52101AA02F0E8FD00232121824482
:10478000029801AA02F0E1FD01233A218244029835
:1047900005AA02F0DAFD01238DF804B0E02182447D
:1047A000029801AA02F0D1FD82441C208DF8040079
:1047B0000298012201A902F0C1FD01228DF80490A6
:1047C0008244029801A902F0B9FD824412208DF8BA
:1047D00004000298012201A902F0B0FD82443720B2
:1047E0008DF804000298012201A902F0A7FD82447D
:1047F00032208DF804000298012201A902F09EFDEA
:1048000000EB0A01029801224FF0290A009101A948
:104810008DF804A002F092FD009901228DF8045059
:1048200001440298009101A902F088FD009901223B
:104830008DF804A001440298009101A902F07EFDC8
:10484000009901220144009125208DF8040002986E
:1048500001A902F073FD00990122014400912B206F
:104860008DF80400029801A902F068FD0099012268
:104870000144009139208DF80400029801A902F04A
:104880005DFD009901228DF80440014402980091D9
:1048900001A902F053FD009901228DF80460014442
:1048A0000298009101A902F049FD009901224618E1
:1048B00003208DF80400029801A902F03FFD064490
:1048C00010208DF804000298012201A902F036FDA3
:1048D000064403208DF8040002980123E12101AA77
:1048E00002F033FD06441D208DF8040002980122D9
:1048F00001A902F023FD01228DF8049006440298DC
:1049000001A902F01BFD064406208DF80400029860
:10491000012201A902F012FD00EB060902982E26E1
:104920008DF80460012201A902F008FD01228DF832
:1049300004708144029801A902F000FD01228DF863
:1049400004A000EB0907029801A902F0F7FC01227C
:104950008DF804500744029801A902F0EFFCC51934
:10496000029801228DF8046001A902F0E7FC0122FF
:104970008DF804600544029801A902F0DFFC37219C
:104980008DF8041001220544029801A902F0D6FC1A
:104990003F218DF8041001220544029801A902F07C
:1049A000CDFC01228DF804400544029801A902F0D3
:1049B000C5FC01228DF804400544029801A902F0CB
:1049C000BDFC01228DF804B00544029801A902F053
:1049D000B5FC10218DF8041001220544029801A9AC
:1049E00002F0ACFC01238DF8044013210544029829
:1049F00001AA02F0AAFC441902980123292101AA64
:104A000002F0A3FC04440699404600F02BF900197B
:104A100001D04FF0FF3007B0BDE8F08FF8B520307F
:104A20000E46DA216A46074602F07AFC4FF0FF3460
:104A300008B12046F8BD6D463846DB216A1C02F0FD
:104A40006FFC0028F5D1AA1C3846DC2102F068FC76
:104A50000028EED1BDF801109DF8002049BA62F39C
:104A60001F413160F8BD30B40C4603692046114641
:104A700030BC184730B40C4683692046114630BC20
:104A8000184700004FF0FF3210B5E0B10B6803602B
:104A90004C68002B44600C890481CC68C4600C69AC
:104AA00004614C6944618C698461C969C1610749C9
:104AB000416207490162074981620749C0E90B1059
:104AC00001D098470246104610BD0000674A000812
:104AD0000D4D0008DD4A0008754A000830B40C4648
:104AE00043692046114630BC18474FF0FF307047ED
:104AF000F8B5234B9B68012B03D8521C01F11A0512
:104B000001E04D1C1A322030144600236A462A2147
:104B1000064602F01AFC07466946280A8DF800008E
:104B20000122304602F00AFC074469460122304661
:104B30008DF8005002F002FCC5196A460023304689
:104B40002B2102F002FC210A8DF800100544694671
:104B50000122304602F0F2FB05446946012230464C
:104B60008DF8004002F0EAFB44196A460023304603
:104B70002C2102F0EAFB001901D04FF0FF30F8BD04
:104B8000C00B00202DE9F8431E46354BDDF8209080
:104B90009B68012B03D8551C01F11A0402E04C1C40
:104BA00002F11A056A462030002380462A2102F0CD
:104BB000CCFB07466946200A8DF8000001224046DA
:104BC00002F0BCFB07446946012240468DF80040D4
:104BD00002F0B4FB34446946641EC619200A8DF8FD
:104BE00000000122404602F0A9FB0644694601226A
:104BF00040468DF8004002F0A1FB84196A4600236C
:104C000040462B2102F0A1FB290A8DF80010044434
:104C100069460122404602F091FB061969460122CD
:104C200040468DF8005002F089FB05EB0904694607
:104C3000641E8519200A8DF800000122404602F00A
:104C40007DFB05446946012240468DF8004002F094
:104C500075FB401901D04FF0FF30BDE8F88300002C
:104C6000C00B00207CB5154A0C0005464FF05000E3
:104C70004FF0A0011FD0012C1DD0C2E9001094609C
:104C8000506800902846136800221146FFF77AFF0B
:104C90000B49012301AA01EBC4010446087936211E
:104CA0008DF8040005F1200002F04FFB001901D03F
:104CB0004FF0FF307CBDC2E90001E0E7C00B0020EF
:104CC0008C000020F8B506460F481F0A4FF6FF7407
:104CD00004EA03234FF0FF353B43ADF8003003688F
:104CE00000248B420DD9406890420AD93046FFF724
:104CF000FFFE30B90222694606F1200002F01EFBD9
:104D000000B12C462046F8BDC00B0020F0B4C668A8
:104D100014460D4621462846B446F0BC1A46604764
:104D20007047FBF7A7BC00002DE9F041CCB04C2147
:104D30002FA8FBF7D4FA202142A8FBF7D0FABC2118
:104D40006846FBF7CCFA0220FCF7B6F82E492F484C
:104D50000A6822F001020A6009680168002421F44F
:104D6000404141F400410160016801F440414A9131
:104D700001688904FCD52648022505260168082714
:104D800009234FF0600821F0030CEA0301210CF124
:104D9000020CC0F800C039A83895349180E8600151
:104DA0003C952FA83D953E95CDE93F744194CDE9C2
:104DB0002F32FDF7A9F843AA3F214291032082E850
:104DC00091000121469442A8479448944994FCF7E5
:104DD000AFFE104B0A210B966A020093CDE9091829
:104DE0001294D0021794CDE90E2421900113189447
:104DF0006846CDE90C6510942C91FCF74BFAFCF752
:104E000085F84CB0BDE8F0812C04005818480258D1
:104E10002844025800304402214A30B52149146820
:104E20000020204B44F47004146010330A681E4DB7
:104E300042F001020A6018600A681A4B2A400A60B0
:104E400018331C1D251D174A186028322060131DB9
:104E500028601C1D251D10602A1D1860131D206070
:104E60001C1D2860251D10601860206028600A68DD
:104E70000C4B0E4C22F4802260330A6018602068CC
:104E80006FF30F00B0F1005F03D209490120C1F8B0
:104E900008014FF0006002498039086030BD000011
:104EA00088ED00E0004402587FEDF6EA0010005C57
:104EB000008000512DE9F047274B4FF0804A274DE5
:104EC00002689842264E274F274C09D0504507D0FC
:104ED000A84205D0B04203D0B84201D0A04205D1CB
:104EE000D1F804C022F070024CEA0202DFF87CC064
:104EF000DFF87C809842DFF87C900FD050450DD0D1
:104F0000A8420BD0B04209D0B84207D0A04205D089
:104F1000604503D0404501D0484503D1CD6822F417
:104F200040722A434D6922F080022A43026098426F
:104F30008A68C2620A68826207D0A04205D06045D2
:104F400003D0404501D0484501D1096901630121E1
:104F50004161BDE8F087000000000140000400400E
:104F600000080040000C00400004014000400140E7
:104F7000004401400048014010B5046A042301F0D8
:104F80001F018B409C4304628A40016A1143016205
:104F900010BD00002DE9F04F026ADFF88880DFF8CD
:104FA000889022F00102DFF884A0DFF884B0214F5E
:104FB0000262DFF884C0066A4268836926F002064E
:104FC0000D68B8428C6803EA0C0323F0030344EA3B
:104FD000060445EA030507D0404505D0484503D0FF
:104FE000504501D0584505D1CB6824F0080423432F
:104FF00023F00404B84207D0404505D0484503D00B
:10500000504501D0584505D122F44076D1E905320A
:1050100033431A4342608561496841630462BDE8D5
:10502000F08F0000000401400040014000440140B6
:1050300000480140000001408FFFFEFFF0B5026A0A
:105040001E4E1F4C22F01002DFF878E00262056A63
:105050004368826925F02005D1F808C0A0420F6896
:1050600002EA060222F4407245EA0C1542EA0722DF
:1050700001D0704506D1CE6825F0800545EA0615B9
:1050800025F04005A0420AD0704508D00E4CA04241
:1050900005D00E4CA04202D00D4CA04207D1D1E960
:1050A000054623F4406343EA840343EA86034360EE
:1050B0008261496881630562F0BD0000FF8FFFFED9
:1050C0000000014000040140004001400044014054
:1050D00000480140F0B5026A1C4D1D4E22F480725A
:1050E000A8420262026A4368C76922F40072D1F8DA
:1050F00008C00C6827F0730742EA0C2244EA070450
:1051000001D0B04206D1CF6822F4006242EA072201
:1051100022F48062A8420AD0B04208D00D4DA842C5
:1051200005D00D4DA84202D00C4DA84207D1D1E9BF
:10513000055623F4405343EA051343EA061343603C
:10514000C4614968C1630262F0BD00000000014013
:10515000000401400040014000440140004801407B
:1051600070B5026A144B22F4805202629842036ABC
:105170004268C46923F400538E680D6824F4E64441
:1051800043EA063344EA05240BD00C4DA84208D06C
:105190000B4DA84205D00B4DA84202D00A4DA842A3
:1051A00004D14D6922F4804242EA85124260C46112
:1051B00049680164036270BD0000014000040140C1
:1051C000004001400044014000480140F0B5026A3F
:1051D00022F480320262134F056A4268446D25F45E
:1051E00000350E89B8420B6824F0700445EA064584
:1051F00043EA04030BD00C4CA04208D00B4CA04255
:1052000005D00B4CA04202D00A4CA04204D14C69FC
:1052100022F4803242EA0422426043654968816593
:105220000562F0BD00000140000401400040014063
:105230000044014000480140F0B5026A22F48012A7
:105240000262134F046A4268436D24F400140E890D
:10525000B8420D6823F4E04344EA065443EA0523C8
:105260000BD00C4DA84208D00B4DA84205D00B4DD9
:10527000A84202D00A4DA84204D14D6922F400325E
:1052800042EA8522426043654968C1650462F0BD17
:105290000000014000040140004001400044014082
:1052A0000048014010B5D0F8B42252689047002061
:1052B00010BD13460A46002110B500F090F90020F9
:1052C00010BD13460A46002110B500F018FA002060
:1052D00010BD10B58021044600F0FFF92046BDE85E
:1052E0001040002100F0F9B90521002310B51A463D
:1052F000C0F89412194600F072F9002010BD10B5E4
:10530000C2610223C0F89432134602620A460021A9
:1053100000F0F5F9002010BD0421002310B51A4655
:10532000C0F89412194600F0EAF9002010BDF8B553
:1053300004460D460020ADF800004888010A0829FF
:1053400048D2DFE801F04704091747473C45D4F845
:10535000B012207C0A6819E0207C02260028D4F8CC
:10536000B40205D0C16A68468847014646703EE0EF
:10537000816AF8E7C0B206282CD2DFE800F0030A01
:105380001014181CD4F8B002426805E06946904732
:105390001CE0D4F8B0028268E2B1207CF6E7D4F8D1
:1053A000B002C268F8E7D4F8B0020269F4E7D4F8B2
:1053B000B0024269F0E7D4F8B0028269ECE7207CE1
:1053C00040B9D4F8B402416B6846884701460EE004
:1053D000207C20B129462046FFF77BFFF8BDD4F89A
:1053E000B402016B68468847014607204870BDF843
:1053F000000048B1EA8852B1824200D902462046F4
:10540000ADF80020FFF77BFFE8880028E6D12046B2
:10541000FFF782FFF8BD01004FF0000004D0012922
:1054200001D0022901D0022070470120704710B539
:10543000D0F8C002FBF7D0F9BDE81040FFF7EBBF92
:1054400070B51646044649B1D4F8B40242691AB19F
:1054500094F89C02032850D0022070BDD4F89432F6
:10546000002504F11400022B03D0042B3AD0C3B35F
:105470003CE0D0E90313994207D9C91AC1608AB246
:1054800031462046FFF71DFF12E08068B0FBF3F1C4
:1054900003FB110199B9984211D3D4F898128842AC
:1054A0000DD2002220461146FFF70BFFC4F8985298
:1054B00000231A461946204600F091F816E0D4F869
:1054C000B402C16829B194F89C02032801D1204696
:1054D00088478021204600F000F92046FFF704FFAE
:1054E00004E0FFE78021204600F0F7F894F8A002DE
:1054F000012804D184F8A05201E020469047002002
:1055000070BD70B51546044649B1D4F8B40282693D
:105510001AB194F89C02032830D0022070BDD4F850
:10552000941204F5AA70032902D005291ED027E0A1
:10553000D0E903218A420BD9531AC360084683423B
:1055400000D3034629469AB22046FFF7B2FE17E081
:10555000D4F8B402016929B194F89C02032801D15E
:10556000204688472046FFF7D7FE09E00020C4F810
:1055700094020146204600F0B0F801E02046904732
:10558000002070BD0020704710B5012180F89C12EA
:10559000D0F8B422017952689047002010BDD0F8AD
:1055A000C02201F07F000B06C0EBC00002EB8000C0
:1055B00002D590F83E00704790F8FE017047002039
:1055C00070470020704710B51C46D0F8C002134643
:1055D0002246FBF72FF9BDE81040FFF71CBF10B5BE
:1055E000D0F8C002FBF756F9BDE81040FFF713BF33
:1055F00070B50022044640231146FFF7E4FF402621
:10560000C4F8646101253346002220468021C4F895
:105610005851FFF7D8FFD4F8B81200206662A56190
:1056200084F89C52C4F894026060C4F8A40229B1C2
:10563000D4F8B4020021426820469047002070BD93
:1056400090F89C12042903D190F89D1280F89C12C6
:105650000020704710B590F89C12032904D1D0F8AF
:10566000B412C96901B18847002010BD017400203F
:10567000704710B5D0F8C002FBF7EAFBBDE8104058
:10568000FFF7C9BE70B5044600F52A70054600F064
:105690003FF8B4F8AE32012194F8A80210F01F02CE
:1056A000C4E9A5130AD0012A0DD0022A10D000F0B7
:1056B0008001204600F011F8002070BD29462046E8
:1056C00000F08AF8F8E72946204600F0B7F9F3E73A
:1056D0002946204600F00AF9EEE710B5D0F8C002DE
:1056E000FBF7FAF8BDE81040FFF795BE90F89C2252
:1056F000042180F89D2280F89C120020704710B58C
:10570000D0F8C002FBF722F9BDE81040FFF783BED6
:105710000A7802704A784270CB788A7802EB0322CA
:1057200042804B790A7902EB032282808A79C97917
:1057300002EB0121C180704710B5D0F8B4220224D9
:105740001AB11268904700B90024204610BD00002D
:1057500070B5204D044688780E46C1B201292970E3
:1057600031D894F89C0202280BD003280FD0314680
:105770002046FFF7AEFD29782046BDE87040FFF7D0
:1057800091BDD9B16160032084F89C0209E071B138
:105790006068884212D0C1B22046FFF783FD2978A5
:1057A00061602046FFF7C8FF02280CD006E0022007
:1057B000616084F89C022046FFF774FD2046BDE836
:1057C0007040FFF7A9BD31462046BDE87040FFF7A5
:1057D00080BD0000140000202DE9F0410A784FF050
:1057E000000612F0600208D0202A01D0402A70D1B1
:1057F000D0F8B422926890476DE04B7800220125E2
:105800000A2B66D2DFE803F0405D65576508056541
:105810002C29FFF78CFD5EE004468888D8B9C8883B
:10582000C8B94888802816D294F89C2200F07F07D7
:10583000032A10D03946204684F89E72FFF719FFDC
:105840002046FFF769FD1FB1022084F89C0242E068
:1058500084F89C523FE020463BE0FFF779FF3AE0B6
:10586000CB88012B35D190F89C32012B04D0022B30
:1058700002D0032B2DD104E000F108018260012247
:1058800016E00122011D13E090F89C22012A03D0AA
:10589000022A01D0032A1CD1CA88022A19D1D0F8C1
:1058A000A412C56009B10321C160022200F10C01FC
:1058B000FFF725FD0FE0498801290CD1C0F8A4525B
:1058C00011E090F89C32012B08D0022B06D0032B5C
:1058D00004D0FFF7FEFC3046BDE8F081498801297D
:1058E000F9D1C0F8A422FFF717FDF4E70A462DE925
:1058F000F041044610780979002710F060030AD0BF
:10590000202B01D0402B50D1D4F8B402114683682B
:10591000204698478FE0C0F34110012806D0507808
:10592000D0B301282AD003283FD107E0D4F8B4022D
:10593000114683682046BDE8F041184794F89C0260
:10594000022802D0032872D10AE071B380296ED0F8
:105950002046FFF7C2FE80212046FFF7BEFE6AE028
:10596000508838B931B1802904D0D08810B9204688
:10597000FFF7B3FE2046FFF7CFFC5CE094F89C02F3
:105980000228E2D0032852D1508898BB4806F1D0B3
:105990002046FFF74CFDEDE7FFE794F89C02002658
:1059A000022803D0032842D112E040E009B1802947
:1059B0003DD1080601F07F0000EB800004EB800180
:1059C00001D5143101E001F5AA7102220E602AE02E
:1059D000080601F00F0000EB800004EB80000AD500
:1059E000806920B301F07F0000EB800004EB8005AC
:1059F00014350BE01FE0D0F85801C0B101F07F0072
:105A000000EB800004EB800505F5AA7541B1802903
:105A100006D02046FFF7C3FD10B10120286000E04A
:105A20002E60022229462046FFF769FC03E011465A
:105A30002046FFF74EFC3846BDE8F08170B50546BC
:105A400008780C4610F0600003D0202801D04028D0
:105A500016D195F89C02012803D0022801D0032812
:105A60000ED1207901280BD8D5F8B40282682846D7
:105A70009047E188014306D12846FFF74DFC02E03C
:105A80002846FFF726FC002070BD000070B54D7859
:105A900001230A78012D1C4C02F00F0503FA05F3CF
:105AA000D0F81C5817D000EB421245EA0343C0F867
:105AB0001C38D2F8000B00040BD40B89C978D2F83B
:105AC000000BC3F30A03184344EA81410843C2F8B8
:105AD000000B002070BD9EB23543C0F81C5800EB8F
