:020000040800F2
:10000000C0A4002451030008E17D00080B70000823
:10001000DD7D0008F50900082998000800000000AF
:1000200000000000000000000000000043920008F3
:100030009514000800000000A97F00084592000800
:100040006B0300086B0300086B0300086B030008D8
:100050006B0300086B0300086B0300086B030008C8
:100060006B0300086B0300086B0300082D0E0008EB
:100070006B0300086B0300086B0300086B030008A8
:100080006B0300086B0300086B0300086B03000898
:100090006B0300086B0300086B0300086B03000888
:1000A0006B0300086B0300086B0300086B03000878
:1000B0006B0300086B0300086B0300086B03000868
:1000C0006B0300086B0300086B0300086B03000858
:1000D0006B0300086B0300086B0300086B03000848
:1000E0006B0300086B030008000000006B030008AE
:1000F0006B0300086B0300086B0300086B03000828
:100100006B0300086B0300086B0300086B03000817
:100110006B0300086B0300086B0300086B03000807
:100120006B0300086B0300086B0300086B030008F7
:100130006B0300086B0300086B0300086B030008E7
:1001400000000000000000000000000000000000AF
:100150006B0300086B0300086B0300086B030008C7
:100160006B0300086B0300086B0300086B030008B7
:100170006B0300086B0300081D0E00080000000060
:100180006B0300086B0300086B0300086B03000897
:100190006B0300086B0300086B0300086B03000887
:1001A0006B0300086B0300086B0300086B03000877
:1001B0006B0300086B0300086B0300086B03000867
:1001C0006B0300086B0300086B0300086B03000857
:1001D0006B0300086B0300086B0300086B03000847
:1001E0006B0300086B0300086B0300086B03000837
:1001F0006B0300086B0300086B0300086B03000827
:100200006B0300086B0300086B0300086B03000816
:100210006B030008D19300086B0300086B03000810
:100220006B0300086B0300086B030008000000006C
:100230006B0300086B030008000000006B0300085C
:100240006B0300086B0300086B0300086B030008D6
:100250006B0300086B0300086B0300086B030008C6
:100260006B0300086B0300086B0300086B030008B6
:100270006B0300086B0300086B030008000000001C
:100280006B0300086B0300086B030008000000000C
:10029000000000006B03000800F002F800F048F8CE
:1002A0000AA090E8000C82448344AAF10107DA45D1
:1002B00001D100F03DF8AFF2090EBAE80F0013F0DB
:1002C000010F18BFFB1A43F001031847DC2E010091
:1002D000FC2E0100103A24BF78C878C1FAD8520722
:1002E00024BF30C830C144BF04680C6070470000B0
:1002F0000023002400250026103A28BF78C1FBD82F
:10030000520728BF30C148BF0B607047642900F016
:10031000D180782900F00A81002070471FB50AF0CB
:100320004DFB9DE8030000F00FFA1FBD10B510BD96
:1003300000F0DEFA1146FFF7F1FF09F00BFC00F0C8
:10034000FCFA03B4FFF7F2FF03BC00F02DFB000042
:100350000948804709480047FEE7FEE7FEE7FEE759
:10036000FEE7FEE7FEE7FEE7FEE7FEE70448054995
:10037000054A064B704700002993000899020008BF
:10038000C09E0024C0A40024C0A00024C0A000245B
:1003900070B5064600F0BCF9056806F10B0020F0C8
:1003A0000704B4429CBF002070BD2B466A68BAB1F6
:1003B0001068A04210D304F1080188423CBF506885
:1003C000586007D35168101941601168091B01601A
:1003D00058601460101D70BD13465268002AE7D1A2
:1003E0002146284600F09CF90028DED170BD70B58A
:1003F0000446051F00F08CF90068002C14BF446807
:1004000070BD002C18BFAC423CBF20466468F8D3D6
:1004100001680A18AA4218BF456003D12A68054638
:100420001144016028684119A1421CBF6C6070BD75
:100430006168696021680844286070BD0FB41CB50C
:10044000074B06AA7B4469460090059800F011FA14
:100450000020694600F020FA1CBC5DF814FB000087
:100460005104000070B5044685690068C10601D5D5
:10047000302600E02026C00707D070BDD4E9012156
:1004800030469047206A401C20626D1EF6D570BD34
:1004900070B5044685690078C00707D170BDD4E9FE
:1004A000012120209047206A401C20626D1EF6D555
:1004B00070BD00002DE9F041064600241068752942
:1004C000314616A510D0AFF30080002802DA404272
:1004D00013A507E031688A0701D512A502E0490794
:1004E00004D511A5012401E0AFF3008000210A2208
:1004F00006F1240709E0B0FBF2FCB0FBF2F302FBCB
:100500001C00303078541846491C0028F3D123468B
:100510002A463046BDE8F04100F04CB9000000002A
:100520002D0000002B0000002000000070B50446E4
:100530000D4621461068AFF300802188090502D5D9
:100540000F4A7A4402E00E4A7A440E32002104F146
:10055000240305E000F00F060009965D5E54491C77
:100560000028F7D120780023000704D5702D02D091
:1005700009B1022311322046BDE8704000F01AB9DB
:10058000292C01002DE9F05F894604464FF0000A4E
:10059000DFF824B1FB44C0F820A02046E16888477A
:1005A00000287DD0252806D0D4E901219047206A73
:1005B000401C2062F1E700255F462046E16888473D
:1005C0002028064607DB312E05D2B81910F8200C7A
:1005D00008B10543F1E7A80701D525F00405C4F8E3
:1005E0001CA00027C4F818A02A2E09D0304609F014
:1005F00039F938B304EB8708303EC8F8186019E0C1
:1006000059F8041B204604EB87029161E168884792
:10061000012F064618D1E069002820DA25F02005D0
:100620001DE0D8F8180000EB800006EB40003038E1
:10063000C8F818002046E1688847064609F012F914
:100640000028EED1012F0AD02E2E08D12046E168D5
:1006500088477F1C0646022F45F02005C4DBA069B1
:10066000002803DA404245F00105A061E80701D007
:1006700025F01005A6B1A6F14100192802D82036B0
:1006800045F400654A463146204625604D46FFF751
:100690003DFE60B1012807D0ED1D25F0070000E008
:1006A00007E000F1080978E705F1040975E730462D
:1006B0007AE7206ABDE8F09FFF2B01004FF00002AF
:1006C00000B5134694469646203922BFA0E80C5048
:1006D000A0E80C50B1F12001BFF4F7AF090728BF23
:1006E000A0E80C5048BF0CC05DF804EB890028BF9F
:1006F00040F8042B08BF704748BF20F8022B11F0C8
:10070000804F18BF00F8012B704770477047704743
:1007100000487047689E00247047704770477047D4
:1007200038B504460A4600206946AFF30080002829
:1007300008BF38BD02460099204600F0B7F80120F6
:1007400038BD012000F0CCB8F8B5AFF30080054605
:1007500000200C46102000BF0646A819A0420DD963
:10076000324669460020AFF30080070008BF00F062
:10077000B7F80098A04218BF0546C419FFF7C8FF94
:1007800005600746F01D20F007004619284600F0D6
:100790000AF8B44208BFF8BDA21B31463868BDE86C
:1007A000F84000F083B800210160C0E901107047F3
:1007B000102070472DE9F0470D46994692460446B1
:1007C00000F124080168880604D5E06921F01001D1
:1007D000216000E00120A84201DD471B00E0002766
:1007E000A1697A1902EB0900081AA0612078C006F5
:1007F00002D42046FFF736FE002608E0D4E90121A6
:100800001AF806009047206A401C761C20624E456C
:10081000F4DB2078C0060AD52046FFF723FE06E069
:10082000D4E9012130209047206A401C2062381E04
:10083000A7F10107F4DC07E0D4E9012118F805006D
:100840009047206A401C2062281EA5F10105F3DCB8
:100850002046FFF71DFE2078000602D50220BDE8E5
:10086000F0870120FBE7000001694A1C026108785B
:10087000704700B58FB0CDE90131002105910549E0
:100880007944CDE9031011466846FFF77BFE0FB0AF
:1008900000BD0000E5FFFFFF0A6802F8010B0A60D7
:1008A0007047000000487047609E0024034640687F
:1008B0008C46002818BF88423CBF03464068F8D3E6
:1008C00018681844884207D00CF1030020F0070094
:1008D000001D411A521A0146081D0A60FFF787BD24
:1008E00010B500F039F8BDE8104000F02FB870479F
:1008F0007546FFF7D7FFAE4605006946534620F020
:100900000700854618B020B5FFF730FDBDE8204050
:100910004FF000064FF000074FF000084FF0000BBB
:1009200021F00701AC46ACE8C009ACE8C009ACE86E
:10093000C009ACE8C0098D46704710B50446AFF356
:1009400000802046BDE81040FFF7FBBC002801D026
:1009500000F02AB87047000010B5012805D000212A
:1009600003A000F027F8012010BD09A1F8E700005E
:1009700053494752544D454D3A204F7574206F6688
:100980002068656170206D656D6F727900000000F0
:100990003A2048656170206D656D6F727920636FD4
:1009A000727275707465640001491820ABBEFEE771
:1009B0002600020070B505460C460A2000E06D1CBA
:1009C00000F011F835B128780028F8D102E0641C55
:1009D00000F009F814B120780028F8D1BDE8704083
:1009E0000A20AFF3008008B569468DF800000320A7
:1009F000ABBE08BD00BFFEE710B500BF48480068A9
:100A000000F4003000B139E000BF00BF00BFBFF309
:100A10004F8F00BF00BF00BF00BF00BF00BFBFF3CC
:100A20006F8F00BF00BF00BF00203E49086000BFBD
:100A300000BF00BFBFF34F8F00BF00BF00BF00BFAC
:100A400000BF00BFBFF36F8F00BF00BF00BF3448BF
:100A5000006840F400303249086000BF00BF00BFAA
:100A6000BFF34F8F00BF00BF00BF00BF00BF00BF7C
:100A7000BFF36F8F00BF00BF00BF00BF00BF284B98
:100A80001B6803F4803303B148E00023244C703426
:100A9000236000BF00BF00BFBFF34F8F00BF00BF88
:100AA00000BF231F1868C0F34E3100BFC0F3C90256
:100AB00000BF43F6E07303EA41134FF0404404EAF9
:100AC00082742343174C1034236000BF00BF131EF1
:100AD000A2F10102EDD10B1EA1F10101E6D100BF8F
:100AE00000BF00BFBFF34F8F00BF00BF00BF0C4B64
:100AF0001B6843F480330A4C236000BF00BF00BF73
:100B0000BFF34F8F00BF00BF00BF00BF00BF00BFDB
:100B1000BFF36F8F00BF00BF00BF00BF10BD00005C
:100B200014ED00E050EF00E070B504460D462E488D
:100B3000046042202C49087164208860084600F057
:100B4000B3F82948808947F6A271884208D126481F
:100B5000C08947F27361884202D107F05BF941E036
:100B6000602021490871084600F09EF81E488089DF
:100B700047F6A27188420AD11B48C08942F24161FE
:100B8000401A022803DC284609F0B6F82AE0422081
:100B900015490871084600F087F81348808947F620
:100BA000A27188420AD11048C089A0F5EE402138D0
:100BB000022803DC284609F0DDFC13E078200A490E
:100BC0000871084600F070F80748C08945F2406196
:100BD000884203D1284609F0BDF803E0002002490D
:100BE0000871C88170BD00000499002437B582B037
:100BF00004461546A06800902279511C012303AADF
:100C0000206803F011F8A06800902279511C01239C
:100C10002A46206802F056FF10B9002005B030BD0A
:100C20000120FBE7FEB504460D4616460121A068EB
:100C3000CDE9006102902279511C02232A462068E6
:100C400003F0A2F808B90020FEBD0120FCE77CB546
:100C500004460D4616468DF8045030788DF8050090
:100C6000A06800902179022301AA206802F0DCFF2D
:100C700008B900207CBD0120FCE737B584B00446EC
:100C80000D46012106AAA068CDE900210290227933
:100C9000511C02232A46206803F046F910B90020AF
:100CA00007B030BD0120FBE738B5044601208DF8C0
:100CB00000002079782822D06A46FF212046FFF7DD
:100CC000C6FF6A461C212046FFF790FF0DF1010286
:100CD0001D212046FFF78AFF9DF801009DF80010B6
:100CE00040EA0120A0816A460A212046FFF77EFFE4
:100CF0000DF101020B212046FFF778FF0EE06A4656
:100D000043F20A010A48FFF78DFF0DF1010243F299
:100D10000B010748FFF786FF0020A0819DF8010026
:100D20009DF8001040EA0120E081002038BD00005D
:100D30000499002470B50546AC6BA06C406D022888
:100D400006D0012084F83500E06C40F04000E064FB
:100D5000204600F0A6FB70BD70B50646B46BA06BD4
:100D600068B3A06C0068006800F40025A06B00F078
:100D7000010078B975B1A06C0068C568E26B082302
:100D800003FB02510022A06C00F0CAFDA06B401EC4
:100D9000A0632FE0A06C0068006800F4002048BB4E
:100DA000A06C00680569E26B082303FB0251012275
:100DB000A06C00F0B5FDA06B401EA0631AE0A06C13
:100DC0000068006800F4002020B1D4E9110109682E
:100DD000C8600FE0A06C0068006800F4002048B90B
:100DE000656CE06B042101FB0050A16C096808618F
:100DF000206CA063A06B216C88420ED12068C06873
:100E000040F001002168C8602068006800F002001E
:100E1000022802D1012084F8350070BD10B50248C7
:100E200000F066FB10BD0000D096002410B502480B
:100E300001F046FA10BD0000209700240146374A11
:100E40000868904249D0354A18320868904244D028
:100E5000324A3032086890423FD0304A48320868FF
:100E600090423AD02D4A60320868904235D02B4AE1
:100E700078320868904230D0284A90320868904210
:100E80002BD0264AA8320868904226D0244A086807
:100E9000904222D0224A1832086890421DD0204A3F
:100EA00030320868904218D01D4A48320868904293
:100EB00013D01B4A6032086890420ED0184A78322C
:100EC0000868904209D0164A90320868904204D0CF
:100ED000134AA8320868904201D1012000E00020A6
:100EE000B0B10A78103A1823B2FBF3F000F0070211
:100EF0000C4B9A5CCA65032805D90A686FF309028E
:100F0000121D8A6503E00A686FF309028A6503E02F
:100F1000086820F0FF008865886D70471000024067
:100F200010040240C6A9000810B502682B4C0368E3
:100F3000A34222D0294C14340368A3421DD0274C6D
:100F400028340368A34218D0244C3C340368A342DD
:100F500013D0224C50340368A3420ED01F4C64348B
:100F60000368A34209D01D4C78340368A34204D01F
:100F70001A4C8C340368A34201D1012300E0002302
:100F80008BB10378083B1424B3FBF4F1144B03EB4F
:100F900081030366124B8033436601F01F04012373
:100FA000A340836618E00378103B1824B3FBF4F1E8
:100FB0000C4B9A4204D80B4BA83B9A4200D3083101
:100FC000094B03EB81030366074B8033436601F053
:100FD0001F040123A340836610BD0000085402587B
:100FE00000580258B8040240000802400179A9B331
:100FF000082940D8204B02689A4222D01E4B143355
:1010000002689A421DD01C4B283302689A4218D0BD
:10101000194B3C3302689A4213D0174B5033026885
:101020009A420ED0144B643302689A4209D0124B94
:10103000783302689A4204D00F4B8C3302689A428C
:1010400001D1012200E000224AB14A1E0B4B03EB02
:101050008202C266094A4032026708E00BE04A1E7B
:10106000074B03EB8202C266054A403202674A1E02
:1010700001239340436770470854025800590258AF
:1010800000090240014600208A69D2B98A6A32B159
:10109000012A0DD0022A03D0032A10D10EE000BF8E
:1010A000CA6A02F08072B2F1807F00D1012007E0AD
:1010B000CA6AB2F1C07F00D1012001E000E000BFA8
:1010C00036E08A69B2F5005F1BD18A6A32B1012A23
:1010D00007D0022A03D0032A11D10AE000BF012061
:1010E0000EE0CA6A02F08072B2F1807F00D1012066
:1010F00006E0CA6AB2F1C07F00D1012000E000BF63
:1011000016E08A6A32B1012A05D0022A04D0032AE5
:101110000CD103E000BF00BF012008E0CA6A02F062
:101120008072B2F1807F00D1012000E000BF00BFDB
:101130007047000030B5384D0468AC4249D0364D98
:1011400018350468AC4244D0334D30350468AC42A5
:101150003FD0314D48350468AC423AD02E4D603511
:101160000468AC4235D02C4D78350468AC4230D0A0
:10117000294D90350468AC422BD0274DA835046822
:10118000AC4226D0254D0468AC4222D0234D183500
:101190000468AC421DD0214D30350468AC4218D0F3
:1011A0001E4D48350468AC4213D01C4D60350468B0
:1011B000AC420ED0194D78350468AC4209D0174DB9
:1011C00090350468AC4204D0144DA8350468AC4294
:1011D00001D1012400E0002474B1046863608468D4
:1011E000402C04D10468A2600468E16012E0046845
:1011F000A1600468E2600DE0046863608468402CCC
:1012000004D10468A2600468E16003E00468A1609E
:101210000468E26030BD000010000240100402408B
:10122000F0B5856D846D984F0668BE4270D0964FBC
:1012300018370668BE426BD0934F30370668BE42FF
:1012400066D0914F48370668BE4261D08E4F6037F6
:101250000668BE425CD08C4F78370668BE4257D0D5
:10126000894F90370668BE4252D0874FA83706682C
:10127000BE424DD0854F0668BE4249D0834F1837D5
:101280000668BE4244D0814F30370668BE423FD028
:101290007E4F48370668BE423AD07C4F60370668BA
:1012A000BE4235D0794F78370668BE4230D0774F8E
:1012B00090370668BE422BD0744FA8370668BE42EE
:1012C00026D0734F0668BE4222D0714F143706688D
:1012D000BE421DD06E4F28370668BE4218D06C4FF4
:1012E0003C370668BE4213D0694F50370668BE428D
:1012F0000ED0674F64370668BE4209D0644F783716
:101300000668BE4204D0624F8C370668BE4201D1E7
:10131000012600E000263EB1D0E919767E60C66E57
:1013200016B1D0E91C767E60574F0668BE4249D0A0
:10133000554F18370668BE4244D0534F30370668C1
:10134000BE423FD0504F48370668BE423AD04E4F5B
:1013500060370668BE4235D04B4F78370668BE42CC
:1013600030D0494F90370668BE422BD0464FA83741
:101370000668BE4226D0454F0668BE4222D0434F83
:1013800018370668BE421DD0404F30370668BE424F
:1013900018D03E4F48370668BE4213D03B4F6037E7
:1013A0000668BE420ED0394F78370668BE4209D073
:1013B000364F90370668BE4204D0344FA8370668CF
:1013C000BE4201D1012600E00026DEB190F85C604B
:1013D00006F01F073F26BE40AE600668366826F45A
:1013E000802607683E60066873608668402E04D1D8
:1013F0000668B2600668F16044E00668B16006689D
:10140000F2603FE0224F0668BE4222D0204F1437E0
:101410000668BE421DD01E4F28370668BE4218D04F
:101420001B4F3C370668BE4213D0194F5037066831
:10143000BE420ED0164F64370668BE4209D0144F24
:1014400078370668BE4204D0114F8C370668BE421A
:1014500001D1012600E00026A6B190F85C6006F0FC
:101460001F070126BE406660066873608668402ECE
:1014700004D10668B2600668F16003E00668B160F6
:101480000668F260F0BD0000100002401004024047
:1014900008540258704703E0FA21052006F086FA46
:1014A000FAE7704710B5044602F03AFA0C490968A9
:1014B000401AB0F57A7F0AD302F032FA0849086080
:1014C0000848006808490860002006490860054887
:1014D0000068401C0349086001200449086010BDF1
:1014E0000C00002408000024040000240000002454
:1014F00070B504462068056905F0040004280ED183
:1015000021684861E06C40F00200E064042084F847
:1015100035002348A16C0865A06C00F005FD05F0BE
:10152000020002280ED121684861E06C40F0010001
:10153000E064042084F835001948A16C0865A06CAB
:1015400000F0F2FC05F01000102804D12168486179
:10155000204600F077F805F00800082804D121683B
:101560004861204600F0DAF905F00100B8B12068C2
:10157000006800F00200022805D12068C06820F051
:101580001E002168C8602068C06820F00100216842
:10159000C8600120216848612046FFF783FF70BDC5
:1015A000350D000810B504460CB9012010BD94F8A3
:1015B000350010B9204600F047F8022084F83500C5
:1015C000A06908B100216162206800681C490840D8
:1015D00021680860616960680843E168084321691F
:1015E0000843A1680843A1690843216A0843616A66
:1015F0000843A16A0843E16A0843216B0843216854
:101600000968084321680860606810280BD1217FB1
:10161000607F41EA0021A07F41EA0041E07F41EA8A
:101620000060216888612068C06840F01E00216861
:10163000C8600020E064012084F835000020B5E790
:1016400007F0E0FF7047000010B586B00446142193
:1016500001A8FFF733F86049206888427ED100BFB7
:101660005E48006840F001005C4908600846006878
:1016700000F00100009000BF00BF00BF081D00681F
:1016800040F01000091D08600846006800F01000D6
:10169000009000BF00BF00BF0846006840F0010096
:1016A00008600846006800F00100009000BF00BF1D
:1016B00000BF0846006840F0040008600846006863
:1016C00000F00400009000BF00BF00BF08460068A3
:1016D00040F0080008600846006800F0080000902C
:1016E00000BF00BF00BF0846006840F0020008606D
:1016F0000846006800F00200009000BF00BF7320A1
:101700000190022002900020039004900D2005908B
:1017100001A9334801F0E4FF50200190022002901B
:101720000020039004900D20059001A92D4801F0A0
:10173000D7FFC02001900220029000200390049067
:101740000D20059001A9284801F0CAFF082001904A
:101750000220029000200390049000E039E00D2068
:10176000059001A9214801F0BBFF802001900220D3
:1017700002900020039004900D20059001A91C48C0
:1017800001F0AEFF1B481C4908604B204860002157
:1017900019488160C1604FF4806101618900416135
:1017A000890081618911C16100210162416201F0FA
:1017B00003FB08B1FFF76FFE00BF0F48A06484630E
:1017C00000BF002211464E2002F0BAFD4E2002F06A
:1017D000A3FD06B010BD000000000248DC44025822
:1017E000001002580000025800080258000C02586D
:1017F0000004025810000240209700242DE9F8430D
:1018000004460F4615461E4600BF94F834000128D2
:1018100002D10220BDE8F883012084F8340000BF23
:10182000022084F835002068006840F48040216878
:1018300008602068006820F00200216808602068C5
:1018400000683843216808603248A16CC863324898
:10185000A16CC8640020A16C0865A0632064E063EB
:101860006064B6F5803F15D2226802F12801334644
:101870002A46A06C01F030FD00283DD04020E064F5
:10188000012084F8350000BF002084F8340000BF38
:101890000120BFE71F48A16C48640120A063E663F4
:1018A000656405E0E06B4008E063A06B4000A06366
:1018B000E06BB0F5803FF5D2A06B801EA063A06BFB
:1018C0002064E06B042101FB0058E06B009022686B
:1018D00002F1280143462A46A06C00F089F858B16D
:1018E0004020E064012084F8350000BF002084F827
:1018F000340000BF01208DE72068006840F001003F
:101900002168086000BF002084F8340000BF00BFD9
:1019100080E70000590D0008350D000870470000F1
:1019200010B50346304C1868A04249D02E4C1834EC
:101930001868A04244D02C4C30341868A0423FD0E4
:10194000294C48341868A0423AD0274C60341868B3
:10195000A04235D0244C78341868A04230D0224CB4
:1019600090341868A0422BD01F4CA8341868A042AD
:1019700026D01E4C1868A04222D01C4C183418687F
:10198000A0421DD0194C30341868A04218D0174C12
:1019900048341868A04213D0144C60341868A04230
:1019A0000ED0124C78341868A04209D00F4C9034F5
:1019B0001868A04204D00D4CA8341868A04201D188
:1019C000012000E0002030B112B91868C16008E0C1
:1019D0001868016105E012B91868C16001E0186873
:1019E0000161002010BD0000100002401004024000
:1019F0002DE9F04704460F4690461E46DDF820903C
:101A00004FF0000AA068802804D1400060650120E2
:101A1000BDE8F08700BF94F83400012801D102200E
:101A2000F6E7012084F8340000BF94F8350001285F
:101A30007ED1022084F8350000206065F9492068D5
:101A4000884249D0F74918312068884244D0F54986
:101A50003031206888423FD0F249483120688842BE
:101A60003AD0F04960312068884235D0ED4978316C
:101A70002068884230D0EB499031206888422BD0D2
:101A8000E849A8312068884226D0E7492068884282
:101A900022D0E5491831206888421DD0E249303112
:101AA0002068884218D0E04948312068884213D025
:101AB000DD496031206888420ED0DB4978312068EA
:101AC000884209D0D84990312068884204D0D6494C
:101AD000A8312068884201D1012000E0002090B1A7
:101AE0002068006840F48020216808602068066152
:101AF000A06D00F1080594F85C0000F01F013F2084
:101B00008840286011E02068006848F220010843FE
:101B10002168086020680661A06D051D94F85C00CE
:101B200000F01F010120884028604B46424600E03B
:101B3000EFE139462046FFF7FDFABA4920688842AE
:101B400070D0B8491831206888426BD0B54930311F
:101B50002068884266D0B34948312068884261D005
:101B6000B0496031206888425CD0AE497831206845
:101B7000884257D0AB4990312068884252D0A94959
:101B8000A831206888424DD0A7492068884249D0B2
:101B9000A54918312068884244D0A34930312068D3
:101BA00088423FD0A0494831206888423AD09E49B7
:101BB00060312068884235D09B497831206888425E
:101BC00030D099499031206888422BD09649A8316D
:101BD0002068884226D095492068884222D09349BF
:101BE0001431206888421DD09049283120688842ED
:101BF00018D08E493C312068884213D08B4950312F
:101C0000206888420ED0894964312068884209D012
:101C1000864978312068884204D084498C31206814
:101C2000884201D1012000E0002038B1D4E9191028
:101C30004860E06E10B1D4E91C1048607949206812
:101C4000884249D0774918312068884244D0754984
:101C50003031206888423FD072494831206888423C
:101C60003AD0704960312068884235D06D4978316A
:101C70002068884230D06B499031206888422BD050
:101C80006849A8312068884226D067492068884280
:101C900022D065491831206888421DD06249303110
:101CA0002068884218D0604948312068884213D0A3
:101CB0005D496031206888420ED05B4978312068E8
:101CC000884209D0584990312068884204D056494A
:101CD000A8312068884201D1012000E00020C0B175
:101CE0002068006820F01E0040F01600216808609F
:101CF0002068406940F0800021684861206C08B984
:101D0000A06CC0B12068006840F00800216808603D
:101D100011E02068006820F00E0040F00A00216801
:101D20000860206C08B9A06C28B12068006840F0F9
:101D30000400216808603B492068884270D0394916
:101D40001831206888426BD036493031206888428B
:101D500066D0344948312068884261D031496031C9
:101D6000206888425CD02F4978312068884257D05B
:101D70002C4990312068884252D02A49A8312068E5
:101D800088424DD028492068884249D026491831D8
:101D90002068884244D024493031206888423FD0AE
:101DA00021494831206888423AD01F496031206873
:101DB000884235D01C4978312068884230D01A4991
:101DC0009031206888422BD01749A831206888427A
:101DD00026D016492068884222D014491431206840
:101DE00088421DD0114928312068884218D00F49F7
:101DF0003C312068884213D00C4950312068884219
:101E00000ED00A4964312068884209D007497831E8
:101E10002068884204D005498C312068884207D167
:101E2000012006E01000024010040240085402584D
:101E3000002090B1206E006800F4803028B1206E40
:101E4000006840F48070216E0860E06E28B1E06E9A
:101E5000006840F48070E16E086031492068884273
:101E600049D02F4918312068884244D02C4930315C
:101E7000206888423FD02A494831206888423AD0B9
:101E8000274960312068884235D02549783120685B
:101E9000884230D022499031206888422BD0204996
:101EA000A8312068884226D01E492068884222D066
:101EB0001C491831206888421DD01A4930312068E9
:101EC000884218D0174948312068884213D01549F4
:101ED0006031206888420ED01249783120688842EB
:101EE00009D0104990312068884204D00D49A831AA
:101EF0002068884206D12068006840F0010021680F
:101F000008600BE02068006840F00100216808606C
:101F100004E04FF4006060654FF0010A504677E539
:101F2000100002401004024070B504460CB90120B4
:101F300070BD94F83500022803D080206065012030
:101F4000F6E7DC492068884249D0DA491831206830
:101F5000884244D0D7493031206888423FD0D549A3
:101F60004831206888423AD0D2496031206888429E
:101F700035D0D04978312068884230D0CD49903171
:101F8000206888422BD0CB49A8312068884226D0CF
:101F9000C9492068884222D0C74918312068884240
:101FA0001DD0C54930312068884218D0C249483117
:101FB0002068884213D0C0496031206888420ED022
:101FC000BD4978312068884209D0BB4990312068EA
:101FD000884204D0B849A8312068884201D1012044
:101FE00000E00020F0B3042084F83500B1492068F7
:101FF00088424BD0AF4918312068884246D0AD495D
:1020000030312068884241D0AA494831206888424E
:102010003CD0A84960312068884237D0A549783142
:102020002068884232D0A3499031206888422DD060
:10203000A049A8312068884228D09F49206888425A
:1020400024D09D491831206888421FD09A493031E8
:10205000206888421AD0984948312068884215D0B3
:10206000954900E020E06031206888420ED0924916
:1020700078312068884209D08F49903120688842A1
:1020800004D08D49A8312068884206D120680068B4
:1020900020F001002168086009E12068006820F054
:1020A00001002168086002E12068006820F00E004D
:1020B000216808607F492068884249D07D491831ED
:1020C0002068884244D07B493031206888423FD024
:1020D00078494831206888423AD076496031206892
:1020E000884235D0734978312068884230D07149B0
:1020F0009031206888422BD06E49A83120688842F0
:1021000026D06D492068884222D06B49183120685A
:1021100088421DD0684930312068884218D066490D
:1021200048312068884213D0634960312068884272
:102130000ED0614978312068884209D05E499031DB
:102140002068884204D05C49A8312068884206D1C2
:102150002068006820F001002168086005E0206820
:10216000006820F001002168086052492068884218
:1021700070D050491831206888426BD04D493031B9
:102180002068884266D04B4948312068884261D037
:1021900048496031206888425CD0464978312068DF
:1021A000884257D0434990312068884252D04149F3
:1021B000A831206888424DD03F492068884249D0E4
:1021C0003D4918312068884244D03B49303120686D
:1021D00088423FD038494831206888423AD0364951
:1021E00060312068884235D0334978312068884290
:1021F00030D031499031206888422BD02E49A83107
:102200002068884226D02D492068884222D02B4958
:102210001431206888421DD028492831206888421E
:1022200018D026493C312068884213D023495031C8
:10223000206888420ED0214964312068884209D044
:102240001E4978312068884204D01C498C312068AE
:10225000884201D1012000E00020D8B1206E006842
:1022600020F48070216E0860A56D94F85C0000F089
:102270001F01012088406860D4E919104860E06EB1
:1022800040B1E06E006820F48070E16E0860D4E92F
:102290001C10486000BF002084F8340000BF0120FB
:1022A00084F83500206D10B12046216D884700204C
:1022B0003EE600001000024010040240085402589C
:1022C0002DE9F84F044600200090FE4800684FF4C6
:1022D0001651B0FBF1FAA66DD4F858803768D8F8DB
:1022E0000090F9492068884249D0F74918312068A0
:1022F000884244D0F4493031206888423FD0F249C6
:102300004831206888423AD0EF49603120688842DD
:1023100035D0ED4978312068884230D0EA49903193
:10232000206888422BD0E849A8312068884226D00E
:10233000E6492068884222D0E44918312068884262
:102340001DD0E24930312068884218D0DF49483139
:102350002068884213D0DD496031206888420ED061
:10236000DA4978312068884209D0D849903120680C
:10237000884204D0D549A8312068884201D1012083
:1023800000E0002000287DD094F85C0000F01F01E0
:10239000082088403840002868D0CB49206888420F
:1023A00049D0C94918312068884244D0C6493031E3
:1023B000206888423FD0C4494831206888423AD0DA
:1023C000C14960312068884235D0BF4978312068E2
:1023D000884230D0BC499031206888422BD0BA491D
:1023E000A8312068884226D0B8492068884222D087
:1023F000B6491831206888421DD0B4493031206870
:10240000884218D0B14948312068884213D0AF497A
:102410006031206888420ED0AC497831206888420B
:1024200009D0AA4990312068884204D0A749A83130
:102430002068884204D12068006800F0040003E0AE
:102440002068006800F0080080B12068006820F073
:1024500004002168086094F85C0000F01F01082067
:102460008840B060606D40F00100606594F85C00E9
:1024700000F01F01012088403840E8B392492068ED
:10248000884200E0B8E24BD08F491831206888427A
:1024900046D08D4930312068884241D08A49483140
:1024A000206888423CD0884960312068884237D013
:1024B000854978312068884232D08349903120683C
:1024C00088422DD08049A8312068884228D07F4991
:1024D0002068884224D07D491831206888421FD066
:1024E0007A493031206888421AD0784948312068CA
:1024F000884215D0754900E026E0603120688842A6
:102500000ED0724978312068884209D06F499031E5
:102510002068884204D06D49A8312068884204D1DF
:102520002068406900F0800002E020680068002018
:1025300050B194F85C0000F01F0101208840B060A9
:10254000606D40F00200606594F85C0000F01F01CF
:10255000042088403840E8B35B49206888424BD06B
:10256000594918312068884246D05749303120688F
:10257000884241D054494831206888423CD0524971
:1025800060312068884237D04F49783120688842CE
:1025900032D04D499031206888422DD04A49A83127
:1025A0002068884228D049492068884224D0474979
:1025B0001831206888421FD0444930312068884251
:1025C0001AD0424948312068884215D03F496031CD
:1025D000206800E024E088420ED03C497831206831
:1025E000884209D0394990312068884204D037495F
:1025F000A8312068884204D12068006800F00200F9
:1026000002E020680068002050B194F85C0000F0FF
:102610001F0104208840B060606D40F004006065D8
:1026200094F85C0000F01F01102088403840E8B3A7
:1026300025492068884251D02349183120688842B2
:102640004CD0214930312068884247D01E4948315A
:102650002068884242D01C496031206888423DD0C1
:10266000194978312068884238D01749903120685C
:10267000884233D01449A831206888422ED01349AB
:10268000206888422AD0114918312068884225D014
:102690000E4930312068884220D00C4948312068EA
:1026A00088421BD009496031206800E04DE0884233
:1026B00014D006497831206888420FD00349903100
:1026C000206805E01C0000241000024010040240B5
:1026D000884203D0FE492068884204D120680068FF
:1026E00000F0080003E02068006800F0040060B318
:1026F00094F85C0000F01F0110208840B060206852
:10270000006800F4802080B12068006800F4002098
:1027100028B9206CC8B12046216C884715E0A06C10
:1027200098B12046A16C88470FE02068006800F44B
:10273000807028B92068006820F0080021680860CF
:10274000206C10B12046216C884794F85C0000F0A2
:102750001F0120208840384000287DD0DD492068B6
:10276000884249D0DB4918312068884244D0D94991
:102770003031206888423FD0D649483120688842AD
:102780003AD0D44960312068884235D0D149783177
:102790002068884230D0CF499031206888422BD0C1
:1027A000CC49A8312068884226D0C949A839206878
:1027B000884221D0C6499039206888421CD0C4493B
:1027C00078392068884217D0C1496039206888422A
:1027D00012D0BF494839206888420DD0BC493039F1
:1027E0002068884208D0BA4918392068884203D046
:1027F000B7492068884204D12068006800F01000C2
:1028000003E02068006800F0020028B394F85C0040
:1028100000F01F0120208840B06094F835000428A3
:102820002DD12068006820F016002168086020681B
:10283000406920F0800021684861206C08B9A06CD4
:1028400028B12068006820F008002168086094F82A
:102850005C0000F01F0100E03FE03F208840B060D6
:1028600000BF002084F8340000BF012084F8350048
:10287000206D10B12046216D8847BDE8F88F206893
:10288000006800F4802080B12068006800F4002017
:1028900028B9606C08B32046616C88471DE0E06B86
:1028A000D8B12046E16B884717E02068006800F443
:1028B000807068B92068006820F010002168086006
:1028C00000BF002084F8340000BF012084F83500E8
:1028D000E06B10B12046E16B8847606D00287DD029
:1028E000606D00F00100E8B3042084F835007949F8
:1028F000206888424BD0774918312068884246D0FA
:10290000744930312068884241D07249483120688A
:1029100088423CD06F4960312068884237D06D4989
:1029200078312068884232D06A49903120688842E4
:102930002DD06849A8312068884228D06449A83938
:102940002068884223D062499039206888421ED08E
:102950005F4978392068884219D05D49603920681C
:10296000884200E041E012D0594948392068884245
:102970000DD0574930392068884208D05449183959
:102980002068884203D052492068884206D12068D6
:10299000006820F001002168086005E020680068F8
:1029A00020F001002168086000BF0098401C0090E2
:1029B000504500D905E02068006800F001000028BB
:1029C000F3D100BF00BF002084F8340000BF2068AE
:1029D000006800F0010028B1032000E00BE084F85B
:1029E000350002E0012084F83500E06C002802D0B8
:1029F0002046E16C8847D9E137492068884222D0D7
:102A000035491431206888421DD033492831206867
:102A1000884218D030493C312068884213D02E4972
:102A20005031206888420ED02B496431206888429A
:102A300009D0294978312068884204D026498C3150
:102A40002068884201D1012000E000200028D2D077
:102A50002068056894F85C0000F01F01042088409D
:102A600000EA0900D0B305F00400B8B394F85C00A4
:102A700000F01F0104208840C8F8040005F400405D
:102A800080B105F4803030B9A06C0028B3D0204666
:102A9000A16C88478AE1206C0028ACD02046216CCC
:102AA000884783E105F02000F0BB0A49206888428E
:102AB00052D008491831206888424DD0054930313C
:102AC0002068884248D0034948312068884206E09F
:102AD000B804024010000240085402584FE03BD0B6
:102AE000B3492068884237D0B149183120688842FC
:102AF00032D0AF493031206888422DD0AC494831BE
:102B00002068884228D0AB492068884224D0A9494F
:102B10001831206888421FD0A64930312068884289
:102B20001AD0A449483100E023E02068884213D03D
:102B3000A0496031206888420ED09E4978312068D3
:102B4000884209D09B4990312068884204D0994935
:102B5000A8312068884206D12068006820F008006B
:102B60002168086005E02068006820F00400216802
:102B70000860206C10B32046216C884716E194F859
:102B80005C0000F01F010220884000EA0900E8B361
:102B900005F00200D0B394F85C0000F01F010220A1
:102BA0008840C8F8040005F4004070B105F4803096
:102BB00028B9606C10B12046616C8847F6E0E06B84
:102BC000F0B32046E16B8847F0E005F02000C0BB81
:102BD00077496039206888424DD075494839206866
:102BE000884248D0724930392068884243D07049C1
:102BF0001839206888423ED06D49206888423AD012
:102C00006B4918312068884235D000E04EE06849B1
:102C10003031206888422ED065494831206888428A
:102C200029D064492068884225D06249183120683B
:102C3000884220D05F493031206888421BD001E0B3
:102C40006EE02DE05B4948312068884213D0594935
:102C50006031206888420ED0564978312068884219
:102C600009D0544990312068884204D05149A83194
:102C70002068884206D12068006820F0140021688E
:102C8000086005E02068006820F00A0021680860FC
:102C900000BF002084F8340000BF012084F8350014
:102CA000E06BE8B32046E16B88477FE094F85C0076
:102CB00000F01F010820884000EA090080B305F0F9
:102CC000080068B33A496039206888424AD03849D8
:102CD00048392068884245D03549303920688842D3
:102CE00040D033491839206888423BD030492068A9
:102CF000884237D02E4918312068884232D02C497A
:102D00003031206888422DD02949483120688842D6
:102D100028D028492068884224D02649183100E06C
:102D200044E0206888421DD0224930312068884222
:102D300018D0204948312068884213D01D4960319D
:102D4000206888420ED01B4978312068884209D01B
:102D5000184990312068884204D01649A83120686B
:102D6000884206D12068006820F01C0021680860B5
:102D700005E02068006820F00E002168086094F8E3
:102D80005C0000F01F0101208840C8F80400012009
:102D9000606500BF002084F8340000BF012084F883
:102DA0003500E06C10B12046E16C884700BF64E557
:102DB00070000240100402402DE9F041044600F08A
:102DC000AFFD804614B90120BDE8F081FE492068BE
:102DD000884249D0FC4918312068884244D0FA49D9
:102DE0003031206888423FD0F74948312068884216
:102DF0003AD0F54960312068884235D0F2497831BF
:102E00002068884230D0F0499031206888422BD029
:102E1000ED49A8312068884226D0EC4920688842D4
:102E200022D0EA491831206888421DD0E749303164
:102E30002068884218D0E54948312068884213D07C
:102E4000E2496031206888420ED0E049783120683C
:102E5000884209D0DD4990312068884204D0DB499E
:102E6000A8312068884201D1012000E0002000281C
:102E700073D0606A00B100BF00BF002084F8340046
:102E800000BF022084F83500CF492068884249D02D
:102E9000CD4918312068884244D0CB493031206870
:102EA00088423FD0C8494831206888423AD0C64954
:102EB00060312068884235D0C34978312068884223
:102EC00030D0C1499031206888422BD0BE49A8310A
:102ED0002068884226D0BD492068884222D0BB495C
:102EE0001831206888421DD0B849303120688842A6
:102EF00018D0B64948312068884213D0B3496031B0
:102F0000206888420ED0B14978312068884209D0C3
:102F1000AE4990312068884204D0AC49A83120687D
:102F2000884206D12068006820F00100216808600E
:102F300005E02068006820F00100216808600DE0CD
:102F400000F0EEFCA0EB0800052807D92020606502
:102F5000032084F83500012036E76AE02068006825
:102F600000F001000028EBD1206805689848054072
:102F7000D4E9020108432169084361690843A16952
:102F80000843E1690843216A08430543606A04284D
:102F900003D1D4E90B01084305438E4800686FF361
:102FA0000F00B0F1005F1DD36068292802D360686C
:102FB0002E2811D960683F2802D3606842280BD9B7
:102FC0006068472802D36068482805D960684F28A0
:102FD00004D36068522801D8012000E0002008B125
:102FE00045F48015206805602068456925F00705CF
:102FF000606A0543606A04280DD1A06A0543E06A4F
:1030000048B12046FEF73EF828B140206065012017
:1030100084F83500D8E6206845612046FDF70EFFAC
:10302000064694F85C0000F01F013F208840B06025
:103030009EE069492068884222D06749143120689F
:1030400088421DD0644928312068884218D06249DE
:103050003C312068884213D05F4950312068884253
:103060000ED05D4964312068884209D05A497831D0
:103070002068884204D058498C312068884201D1A8
:10308000012000E00020E0B353492068884222D0AC
:1030900051491431206888421DD04F492831206899
:1030A000884218D04C493C312068884213D04A49A4
:1030B0005031206888420ED04749643120688842E8
:1030C00009D0454978312068884204D042498C3182
:1030D0002068884201D1012000E0002000B100BF3B
:1030E00000BF002084F8340000BF022084F83500BF
:1030F0002068056839480540A068402802D11021A1
:1031000006E02EE0A068802801D1C10100E0002186
:10311000E06841EAD001206941EAD001606941EAF2
:10312000D001A06941EAD001E06941EAD001206AFA
:1031300041EA101005432068056027492068401ABD
:103140001421B0FBF1F08000E0652046FDF776FE2B
:10315000074694F85C0000F01F0101208840786069
:1031600006E040206065032084F8350001202BE64E
:103170001549206888427FD0134918312068884259
:103180007AD0114930312068884275D00E494831D3
:103190002068884270D00C496031206888426BD02A
:1031A000094978312068884266D007499031206803
:1031B000884261D00449A831206888425CD0034924
:1031C0002068884258D00BE01000024010040240F2
:1031D0003F8010FE0010005C085402580F00FEFFF4
:1031E0003B4918312068884246D03949303120683F
:1031F000884241D036494831206888423CD0344921
:1032000060312068884237D031497831206888425F
:1032100032D02F499031206888422DD02C49A831D6
:103220002068884228D02B492068884224D0294928
:103230001431206888421FD02649283120688842EE
:103240001AD024493C312068884215D02149503198
:103250002068884210D01F496431206888420BD012
:103260001C4978312068884206D01A498C31206880
:10327000884200E000E001D1012000E0002000B31E
:103280002046FDF751FEA068802801D10020606033
:103290002079216E0860D4E919104860606860B137
:1032A0006068082809D82046FDF7A0FE0020E16EDE
:1032B0000860D4E91C10486003E00020E066206745
:1032C000606700206065012084F8350000207BE500
:1032D00010040240085402582DE9F04104460D46FE
:1032E00016461F464FF0000814B90120BDE8F081D2
:1032F00000BF94F83400012801D10220F6E7012034
:1033000084F8340000BF94F8350001287ED10220F3
:1033100084F8350000206065E4492068884249D07F
:10332000E24918312068884244D0E04930312068B1
:1033300088423FD0DD494831206888423AD0DB4995
:1033400060312068884235D0D84978312068884279
:1033500030D0D6499031206888422BD0D349A8314B
:103360002068884226D0D2492068884222D0D0499D
:103370001831206888421DD0CD49303120688842FC
:1033800018D0CB4948312068884213D0C8496031F1
:10339000206888420ED0C64978312068884209D01A
:1033A000C34990312068884204D0C149A8312068BF
:1033B000884206D12068006820F00100216808607A
:1033C00005E02068006820F00100216808603B46A5
:1033D000324629462046FDF723FFB449206888423B
:1033E0004BD0B24918312068884246D0AF493031BD
:1033F0002068884241D0AD494831206888423CD09D
:10340000AA4960312068884237D000E042E1A749EC
:1034100078312068884230D0A449903120688842B1
:103420002BD0A249A8312068884226D0A049206824
:10343000884222D09E491831206888421DD09C497C
:1034400030312068884218D0994948312068884234
:1034500013D097496031206888420ED09449783162
:103460002068884209D0924990312068884204D06F
:103470008F49A8312068884201D1012000E0002056
:1034800080B12068006820F01E0040F0160021681E
:103490000860206CB0B12068006840F00800216826
:1034A00008600FE02068006820F00E0040F00A007D
:1034B00021680860206C28B12068006840F0040092
:1034C0002168086079492068884270D077491831AE
:1034D000206888426BD0754930312068884266D0B8
:1034E000724948312068884261D070496031206853
:1034F00088425CD06D4978312068884257D06B494A
:1035000090312068884252D06849A83120688842AA
:103510004DD067492068884249D0654918312068F4
:10352000884244D062493031206888423FD06049A7
:103530004831206888423AD05D496031206888422D
:1035400035D05B4978312068884230D05849903175
:10355000206888422BD05649A8312068884226D05E
:1035600054492068884222D0524914312068884248
:103570001DD0504928312068884218D04D493C312F
:103580002068884213D04B495031206888420ED0C1
:10359000484964312068884209D04649783120681A
:1035A000884204D043498C312068884201D10120EF
:1035B00000E0002090B1206E006800F4803028B157
:1035C000206E006840F48070216E0860E06E28B1C3
:1035D000E06E006840F48070E16E08603349206856
:1035E000884249D0314918312068884244D02F4957
:1035F0003031206888423FD02C49483120688842C9
:103600003AD02A4960312068884235D0274978313C
:103610002068884230D025499031206888422BD0DC
:103620002249A8312068884226D021492068884252
:1036300022D01F491831206888421DD01C493031E2
:103640002068884218D01A4948312068884213D02F
:1036500017496031206888420ED0154978312068BA
:10366000884209D0124990312068884204D010491C
:10367000A8312068884206D12068006840F0010027
:103680002168086010E02068006840F001002168AF
:10369000086009E000BF002084F8340000BF4FF448
:1036A000006060654FF0010840461FE610000240D0
:1036B000100402400854025870B5044600F030F976
:1036C00006462546681C10B104480078054400BF32
:1036D00000F026F9801BA842FAD370BD1800002420
:1036E000F8B502460023734DDEE001279F400E68C7
:1036F00006EA0704002C71D04E68012E08D04E68EF
:10370000022E05D04E68112E02D04E68122E13D113
:1037100090685F000326BE40B0435F00CE68BE40A5
:1037200030439060506801269E40B0430E79C6F346
:1037300000169E4030435060D0685F000326BE40B4
:10374000B0435F008E68BE403043D0604E68022EAA
:1037500002D04E68122E13D1DF0802F1200656F86F
:1037600027005E07F70E0F26BE40B0435F07FF0E2F
:103770000E69BE403043DF0802F1200646F82700FC
:1037800010685F000326BE40B0430E7906F00306C2
:103790005F00BE40304310604E6806F08056B6F1C0
:1037A000805F1BD100BF444E366846F00206424F90
:1037B0003E603E46366806F00206009600BF00BF37
:1037C0003E4E9F0856F827009E07370F0F26BE4033
:1037D000B0433B4EB24202D100262EE063E0394EA8
:1037E000B24201D1012628E0374EB24201D1022671
:1037F00023E0364EB24201D103261EE0344EB242DF
:1038000001D1042619E0334EB24201D1052614E05D
:10381000314EB24201D106260FE0304EB24201D104
:1038200007260AE02E4EB24201D1082605E02D4EB1
:10383000B24201D1092600E00A269F073F0FBE4091
:1038400030431E4E9F0846F827002868A0434E6864
:1038500006F48036B6F5803F00D1204328606868C2
:10386000A0434E6806F40036B6F5003F00D1204371
:1038700068604FF0B0463068A0434E6806F480168A
:10388000B6F5801F00D120434FF0B046306070681D
:10389000A0434E6806F40016B6F5001F00D1204381
:1038A0004FF0B04670605B1C0E68DE40002E7FF467
:1038B0001CAFF8BD80000058F444025808040058BA
:1038C000000002580004025800080258000C025878
:1038D000001002580014025800180258001C025828
:1038E0000020025800240258024613690B400BB115
:1038F000012000E0002070470AB1816101E00B0463
:103900008361704702480068C0F30B0070470000F5
:103910000010005C01480068000C70470010005C5B
:10392000014800687047000010000024024692F829
:10393000410020282DD100BF92F84000012801D17C
:1039400002207047012082F8400000BF242082F846
:1039500041001068006820F00100136818601068CA
:10396000006820F4805013681860106800680843ED
:10397000136818601068006840F001001368186050
:10398000202082F8410000BF002082F8400000BFE4
:10399000D7E70220D5E710B502460B4692F8410062
:1039A00020282AD100BF92F84000012801D102202E
:1039B00010BD012082F8400000BF242082F84100A1
:1039C0001068006820F00100146820601068016829
:1039D00021F4706141EA03211068016010680068F9
:1039E00040F0010014682060202082F8410000BFF0
:1039F000002082F8400000BFDAE70220D8E700008C
:103A000010B504460CB9012010BD94F8410028B946
:103A1000002084F84000204600F052FB242084F867
:103A200041002068006820F001002168086060689B
:103A300020F07060216808612068806820F40040F0
:103A400021688860E068012805D1A06840F4004042
:103A50002168886004E0A06840F404402168886020
:103A6000E068022802D1800221684860206840682E
:103A700013490843216848602068C06820F400406A
:103A80002168C860D4E904010843A16940EA012023
:103A90002168C860D4E907010843216808602068EC
:103AA000006840F001002168086000206064202068
:103AB00084F841000020206384F8420000BFA3E79F
:103AC000008000022DE9F8430446894616461F4649
:103AD000DDF8208094F84100202873D100BF94F8CD
:103AE0004000012802D10220BDE8F883012084F8BB
:103AF000400000BFFFF714FF054619230122D10340
:103B00002046009503F07AFB08B10120ECE7222063
:103B100084F84100102084F842000020606466624E
:103B200067856063608DFF280CD9FF2020853C48A5
:103B3000009094F828204FF080734946204603F007
:103B400043FB0BE0608D20853548009094F82820D9
:103B50004FF000734946204603F036FB3FE02A460B
:103B60004146204603F07AFB08B10120BCE72068FB
:103B7000406A616A0870606A401C6062208D401E65
:103B80002085608D401E6085608D40B3208D30BBE8
:103B90004346002280212046009503F02FFB08B108
:103BA0000120A1E7608DFF280DD9FF20208500208E
:103BB000009094F828204FF080734946204603F087
:103BC00003FB0CE02AE0608D20850020009094F833
:103BD00028204FF000734946204603F0F5FA608D27
:103BE0000028BCD12A464146204603F087FB08B195
:103BF000012079E720202168C861206840680949D0
:103C0000084021684860202084F84100002084F8A2
:103C1000420000BF84F8400000BF65E7022063E770
:103C20000024008000E800FE2DE9F84304468946A0
:103C300016461F46DDF8208094F84100202871D1F7
:103C400000BF94F84000012802D10220BDE8F883AB
:103C5000012084F8400000BFFFF762FE05461923EB
:103C60000122D1032046009503F0C8FA08B10120D3
:103C7000ECE7212084F84100102084F84200002065
:103C80006064666267856063608DFF280BD9FF20E2
:103C900020853B48009094F82820C30249462046DE
:103CA00003F092FA0AE0608D20853548009094F880
:103CB000282003034946204603F086FA3FE02A46BF
:103CC0004146204603F045FB08B10120BEE7606A8B
:103CD000007821688862606A401C6062608D401EC6
:103CE0006085208D401E2085608D40B3208D30BBC7
:103CF0004346002280212046009503F07FFA08B158
:103D00000120A3E7608DFF280DD9FF20208500202A
:103D1000009094F828204FF080734946204603F025
:103D200053FA0CE02AE0608D20850020009094F882
:103D300028204FF000734946204603F045FA608D75
:103D40000028BCD12A464146204603F0D7FA08B1E4
:103D500001207BE720202168C8612068406809496C
:103D6000084021684860202084F84100002084F841
:103D7000420000BF84F8400000BF67E7022065E70B
:103D80000020008000E800FE2DE9FC5F0446894623
:103D900092469B46DDE90C780E9E94F8410020285F
:103DA0007ED117B1B8F1000F05D14FF400706064F7
:103DB0000120BDE8FC9F00BF94F84000012801D11C
:103DC0000220F6E7012084F8400000BFFFF7A8FDBD
:103DD000054619230122D1032046009503F00EFA6F
:103DE00008B10120E5E7222084F84100402084F852
:103DF0004200002060646762A4F82A8060635B462A
:103E0000524649462046CDE9006503F061F930B1DC
:103E100000BF002084F8400000BF0120C9E7608D8A
:103E2000FF280CD9FF2020853D48009094F82820D9
:103E30004FF080734946204603F0C6F90BE0608DD1
:103E400020853748009094F828204FF000734946A9
:103E5000204603F0B9F900BF334600220421204672
:103E6000009503F0CBF908B10120A2E72068406A71
:103E7000616A0870606A401C6062208D401E208567
:103E8000608D401E6085608D48B3208D38BB334601
:103E9000002280212046009503F0B0F918B100E01F
:103EA0003CE0012085E7608DFF280CD9FF202085AC
:103EB0000020009094F828204FF080734946204657
:103EC00003F082F90BE0608D20850020009094F8CB
:103ED00028204FF000734946204603F075F9608DA5
:103EE0000028B9D12A463146204603F007FA08B126
:103EF00001205EE720202168C861206840680949E8
:103F0000084021684860202084F84100002084F89F
:103F1000420000BF84F8400000BF4AE7022048E7A3
:103F20000024008000E800FE2DE9FC5F044689467D
:103F300092469B46DDE90C780E9E94F841002028BD
:103F40007DD117B1B8F1000F05D14FF40070606456
:103F50000120BDE8FC9F00BF94F84000012801D17A
:103F60000220F6E7012084F8400000BFFFF7D8FCEC
:103F7000054619230122D1032046009503F03EF99E
:103F800008B10120E5E7212084F84100402084F8B1
:103F90004200002060646762A4F82A8060635B4688
:103FA000524649462046CDE9006503F0CFF830B1CE
:103FB00000BF002084F8400000BF0120C9E7608DE9
:103FC000FF280CD9FF2020850020009094F828209D
:103FD0004FF080734946204603F0F6F80BE0608D01
:103FE00020850020009094F828204FF00073494667
:103FF000204603F0E9F800BF2A463146204603F088
:10400000A8F908B10120A4E7606A007821688862F5
:10401000606A401C6062608D401E6085208D401E7D
:104020002085608D40B3208D30BB33460022802137
:104030002046009503F0E2F810B1012089E73AE04C
:10404000608DFF280CD9FF2020850020009094F877
:1040500028204FF080734946204603F0B5F80BE066
:10406000608D20850020009094F828204FF0007388
:104070004946204603F0A8F8608D0028BCD12A46A6
:104080003146204603F03AF908B1012061E72020CB
:104090002168C86120684068084908402168486074
:1040A000202084F84100002084F8420000BF84F8FA
:1040B000400000BF4DE702204BE7000000E800FE93
:1040C00010B5B6B00446142131A8FCF7F7FABC21AC
:1040D00002A8FCF7F3FA1E492068884236D108206E
:1040E00002900020229002A800F0ACF908B1FDF780
:1040F000D2F900BF1748006840F002001549086077
:104100000846006800F00200019000BF00BF4FF4B5
:104110004070319012203290012033900020349072
:104120000420359031A90C48FFF7DAFA00BF09489E
:104130000830006840F4001006490831086008465D
:10414000006800F40010019000BF00BF36B010BD41
:1041500000540040E044025800040258034800683C
:104160000349097808440149086070471000002499
:104170001800002410B5032000F020F901F0A4F885
:1041800010490968C1F303210F4A515C01F01F0176
:1041900020FA01F40B48006800F00F001146085C9B
:1041A00000F01F0024FA00F0084908600848046085
:1041B000002000F00FF808B1012010BD00F09AF8BF
:1041C0000020FAE718440258CEA900082000002475
:1041D0001C00002470B504461148007808B901207D
:1041E00070BD0F4800784FF47A71B1FBF0F00D49C3
:1041F0000968B1FBF0F5284602F094FB08B10120F4
:10420000EEE7102C07D200222146501E00F098F84D
:104210000548046001E00120E2E70020E0E700003B
:10422000180000241C000024140000244178154AC2
:1042300011600178F9B1121D41681160017B090715
:10424000C27A41EA0261827A41EAC241427B41EA92
:104250008241827B41EA4241C27B41EA0241427A89
:1042600041EA0221027A41EA420102781143054AF9
:104270000832116005E00021024A121D1160121D72
:104280001160704798ED00E000BF00BF00BFBFF3B2
:104290005F8F00BF00BF00BF0548006820F480307A
:1042A000034908600020024970310860704700002F
:1042B00024ED00E040F001010D4A11600C49703915
:1042C000096841F480310A4A703A116000BF00BFAA
:1042D00000BFBFF34F8F00BF00BF00BF00BF00BFD4
:1042E00000BFBFF36F8F00BF00BF00BF704700006B
:1042F00094ED00E008B500BF0648006840F00200F9
:10430000044908600846006800F00200009000BF01
:1043100000BF08BDF44402580146084600280DDBE2
:1043200000BF00BF00F01F0301229A4043099B0019
:1043300003F1E023C3F8002100BF00BF00BF7047B6
:104340002DE9F05F80460D46164605F06FFA0746E8
:1043500039462A46334601F00700C0F1070ABAF190
:10436000040F02D94FF0040A01E0C0F1070AD14658
:1043700000F1040ABAF1070F02D24FF0000A01E07F
:10438000A0F1030AD4464FF0010A0AFA09FAAAF189
:10439000010A0AEA020A0AFA0CFA4FF0010B0BFAB8
:1043A0000CFBABF1010B0BEA030B4AEA0B042146B1
:1043B000404605F043FABDE8F09F000000BF00F062
:1043C0000702064B19684FF6FF031940044B0B43D5
:1043D00043EA0221014B196000BF70470CED00E079
:1043E0000000FA0570B5044615480068C0F3800067
:1043F00048B91348006800F00700A04201D001202E
:1044000070BD0020FCE70E48006820F00700204344
:104410000B490860FFF784FA054607E0FFF780FACA
:10442000401BB0F57A7F01D90120E9E7044808383C
:104430000068C0F340300028F0D00020E0E7000022
:104440000C4802582DE9F04104460025A846206892
:1044500000F00060B0F1006F30D1606E48B1B0F58F
:10446000801F0DD0B0F5001F10D0B0F5401F15D142
:1044700013E0F948006840F40030F74908600FE0A5
:104480000221201D03F092FD054609E0022104F1FE
:10449000240003F03DFE054602E001E0012500BFD7
:1044A00000BF55B9EC482430006820F44010616E1C
:1044B0000843E9492431086000E0A846208800F458
:1044C0008070B0F5807F2DD1606D05281AD2DFE8AD
:1044D00000F0030A10171800DF48006840F40030AD
:1044E000DD49086010E00021201D03F05FFD054656
:1044F0000AE0002104F1240003F00AFE054603E06F
:1045000002E001E0012500BF00BF55B9D2482430C8
:10451000006820F00700616D0843CF49243108602E
:1045200000E0A846208800F40070B0F5007F33D189
:10453000A06D802817D003DC40B140281CD10CE0CE
:10454000C02817D0B0F5807F16D114E0C2480068AB
:1045500040F40030C049086010E00021201D03F045
:1045600025FD05460AE0002104F1240003F0D0FDFA
:10457000054603E002E001E0012500BF00BF55B998
:10458000B5482430006820F4E070A16D0843B249BA
:104590002431086000E0A846208800F48060B0F56F
:1045A000806F38D1D4F8A400B0F5800F19D004DCA6
:1045B00050B1B0F5001F1DD10DE0B0F5C00F17D000
:1045C000B0F5000F16D114E0A348006840F40030A5
:1045D000A149086010E00021201D03F0E7FC05461A
:1045E0000AE0002104F1240003F092FD054603E0F7
:1045F00002E001E0012500BF00BF5DB996482C3004
:10460000006820F46000D4F8A410084392492C31CB
:10461000086000E0A846208800F40060B0F5006F54
:1046200038D1D4F8A800B0F1007F19D004DC50B123
:10463000B0F1807F1DD10DE0B0F1407F17D0B0F117
:10464000806F16D114E08448006840F4003082493D
:10465000086010E00021201D03F0A8FC05460AE0D8
:10466000002104F1240003F053FD054603E002E0BD
:1046700001E0012500BF00BF5DB977482C3000681C
:1046800020F0E060D4F8A810084373492C3108608A
:1046900000E0A846206800F00070B0F1007F27D14C
:1046A000A06CA0B1102804D0202809D030280FD148
:1046B0000CE06948006840F400306749086009E090
:1046C0000221201D03F072FC054603E002E001E038
:1046D000012500BF00BF55B95F482030006820F0B9
:1046E0003000A16C08435C492031086000E0A84616
:1046F000208800F48050B0F5805F36D1E06DB0F5D1
:10470000005F19D004DC50B1B0F5805F1DD10DE021
:10471000B0F5405F17D0B0F5804F16D114E04E4889
:10472000006840F400304C49086010E00021201D72
:1047300003F03CFC05460AE0002104F1240003F0EC
:10474000E7FC054603E002E001E0012500BF00BFF1
:1047500055B941482430006820F4E040E16D084339
:104760003D492431086000E0A846208800F400504C
:10477000B0F5005F34D1206EB0F5403F1DD007DCAE
:1047800068B1B0F5803F0BD0B0F5003F18D10DE017
:10479000B0F5802F12D0B0F5A02F11D10FE011E0AD
:1047A0000121201D03F002FC05460BE0012104F16C
:1047B000240003F0ADFC054604E003E002E001E064
:1047C000012500BF00BF55B923482430006820F4FC
:1047D000E020216E084320492431086000E0A8460B
:1047E000208800F48040B0F5804F38D1D4F8AC0078
:1047F000B0F1405F1DD007DC68B1B0F1805F0BD035
:10480000B0F1005F18D10DE0B0F1804F12D0B0F1DF
:10481000A04F11D10FE011E00121201D03F0C6FBD4
:1048200005460BE0012104F1240003F071FC05466C
:1048300004E003E002E001E0012500BF00BF6DB924
:1048400005482C30006820F0E040D4F8AC10084354
:1048500001492C31086002E02C440258A846208807
:1048600000F40040B0F5004F26D1E06E98B1B0F1F1
:10487000805F03D0B0F1005F0ED106E0F948006818
:1048800040F40030F749086008E00121201D03F0E2
:104890008DFB054602E001E0012500BF00BF55B9D0
:1048A000F0482430006820F04050E16E0843ED49A4
:1048B0002431086000E0A846206800F08070B0F164
:1048C000807F27D1606CA0B1012804D0022809D0D4
:1048D00003280FD10CE0E348006840F40030E149C0
:1048E000086009E00221201D03F060FB054603E09B
:1048F00002E001E0012500BF00BF55B9D9482030D2
:10490000006820F00300616C0843D649203108603C
:1049100000E0A846206800F48000B0F5800F7DD14B
:10492000D148006840F48070CF490860FEF7F8FF76
:10493000064606E0FEF7F4FF801B642801D9032534
:1049400005E0C948006800F480700028F2D000BF7C
:1049500085BBC4484430006800F44070B4F8B0101F
:1049600001F44071884213D0BE484430006820F4FE
:104970004077BC484430006840F48030B949443145
:1049800008600846006820F4803008600846076028
:10499000D4F8B000B0F5807F15D1FEF7C1FF064610
:1049A00009E0FEF7BDFF801B41F28831884202D941
:1049B000032507E038E0AB4844300068C0F340000E
:1049C0000028EED000BF55BB00BFB4F8B00000F423
:1049D0004070B0F5407F0ED1A2481C38006820F42A
:1049E0007C51A24AD4F8B000104041EA10109D4911
:1049F0001C39086007E09B481C38006820F47C5094
:104A000098491C390860974844300068B4F8B010E1
:104A1000C1F30B0108439349443101E005E001E093
:104A2000086002E0A84600E0A846207800F00100F7
:104A300068B3A06F182819D005DC48B1082808D041
:104A4000102816D10BE0202811D0282811D10FE012
:104A500011E00121201D03F0A9FA05460BE0012118
:104A600004F1240003F054FB054604E003E002E0F7
:104A700001E0012500BF00BF55B97A482830006821
:104A800020F03800A16F084376492831086000E023
:104A9000A846207800F00200022828D1606F06287E
:104AA00015D2DFE800F003040A11121311E001210E
:104AB000201D03F07BFA05460BE0012104F12400E0
:104AC00003F026FB054604E003E002E001E00125D7
:104AD00000BF00BF55B963482830006820F00700C8
:104AE000616F08435F492831086000E0A8462078DC
:104AF00000F0040004282AD1D4F89000062815D22A
:104B0000DFE800F003040A11121311E00121201D57
:104B100003F04CFA05460BE0012104F1240003F0F8
:104B2000F7FA054604E003E002E001E0012500BFDA
:104B300000BF5DB94B482C30006820F00700D4F866
:104B40009010084347492C31086000E0A8462078BF
:104B500000F02000202836D1D4F88C00B0F1405F5E
:104B60001DD007DC68B1B0F1805F0BD0B0F1005F01
:104B700018D10DE0B0F1804F12D0B0F1A04F11D19B
:104B80000FE011E00021201D03F010FA05460BE0B4
:104B9000022104F1240003F0BBFA054604E003E01F
:104BA00002E001E0012500BF00BF5DB92D482830BB
:104BB000006820F0E040D4F88C10084329492831DF
:104BC000086000E0A846207800F04000402836D178
:104BD000D4F89800B0F5406F1DD007DC68B1B0F58F
:104BE000806F0BD0B0F5006F18D10DE0B0F5805F8D
:104BF00012D0B0F5A05F11D10FE011E00021201D0F
:104C000003F0D4F905460BE0022104F1240003F07F
:104C10007FFA054604E003E002E001E0012500BF61
:104C200000BF5DB90F482C30006820F4E050D4F884
:104C3000981008430B492C31086000E0A846207802
:104C400000F0800080283AD1D4F89C00B0F5C04F25
:104C500023D00DDC98B1B0F5005F11D0B0F5804FD6
:104C60001ED113E02C44025800480258FFFCFF0FED
:104C7000B0F5004F12D0B0F5204F11D10FE011E088
:104C80000021201D03F092F905460BE0022104F1FA
:104C9000240003F03DFA054604E003E002E001E0F1
:104CA000012500BF00BF4DB9BE48006820F4604038
:104CB000D4F89C100843BB49086000E0A84620785F
:104CC00000F00800082817D1D4F88000B0F5805F04
:104CD00007D1022104F1240003F01AFA08B14FF0C1
:104CE0000108B048001F006820F44050D4F880103C
:104CF0000843AC49091F0860207800F01000102814
:104D000015D1D4F89400B0F5807F07D1022104F1C9
:104D1000240003F0FDF908B14FF00108A148006834
:104D200020F44070D4F8941008439E49086020682D
:104D300000F40020B0F5002F26D1D4F8A00030B147
:104D4000B0F5803F09D0B0F5003F0ED10CE0002156
:104D5000201D03F02BF9054609E0022104F124008F
:104D600003F0D6F9054602E001E0012500BF00BFCF
:104D70004DB98C48006820F44030D4F8A0100843A6
:104D80008849086000E0A846206800F48020B0F55B
:104D9000802F2DD1D4F88400B0F5801F06D0B0F557
:104DA000001F0CD0B0F5401F11D10FE07D482C380A
:104DB000006840F400307B492C39086009E001218B
:104DC00004F1240003F0A4F9054602E001E0012506
:104DD00000BF00BF5DB97348001F006820F4401099
:104DE000D4F8841008436F49091F086000E0A84602
:104DF000206800F48030B0F5803F24D1E06C18B119
:104E0000B0F5803F0FD108E066482C38006840F4C8
:104E1000003064492C39086007E00221201D03F0AE
:104E2000C5F8054601E0012500BF00BF55B95D4842
:104E30000C38006820F48030E16C084359490C3983
:104E4000086000E0A846206800F00050B0F1005F64
:104E500007D1022104F1240003F05AF908B14FF000
:104E60000108206800F40030B0F5003F27D1E06F62
:104E7000A0B1B0F5807F06D0B0F5007F0CD0B0F5C2
:104E8000407F0CD109E047482C38006840F40030DE
:104E900044492C39086004E003E002E001E0012508
:104EA00000BF00BF55B93F48001F006820F44070A4
:104EB000E16F08433B49091F086000E0A8462068ED
:104EC00000F48010B0F5801F09D13648083800681A
:104ED00020F00040216F08433249083908602068FB
:104EE00000F08050B0F1805F0AD12E484838006849
:104EF00020F48040D4F8B41008432A4948390860A7
:104F0000206800F40010B0F5001F09D125480838CA
:104F1000006820F08070A16E0843224908390860BB
:104F2000206800F08040B0F1804F11D100BF1D48D3
:104F30004838006820F400401A494839086008469B
:104F40000068D4F8B810084316494839086000BF13
:104F5000206800F00040B0F1004F09D111480C3832
:104F6000006820F04050216D08430E490C3908605C
:104F7000206800F40000B0F5000F0AD10948001FB6
:104F8000006820F44000D4F8881008430549091F40
:104F90000860B8F1000F02D10020BDE8F0810120C7
:104FA000FBE70000584402582DE9F04104460D4645
:104FB00014B90120BDE8F081BD48006800F00F0081
:104FC000A8420ED2BA48006820F00F002843B84922
:104FD00008600846006800F00F00A84201D00120D8
:104FE000E8E7207800F0040004280ED1B1492069D8
:104FF000096801F07001884207D9AE48006820F0C6
:10500000700021690843AB490860207800F008006F
:10501000082811D1A749091D6069096801F07001CC
:10502000884209D9A348001D006820F0700061691A
:105030000843A049091D0860207800F010001028DE
:1050400011D19C49091DA069096801F4E0618842F9
:1050500009D99848001D006820F4E060A169084360
:105060009449091D0860207800F02000202811D103
:1050700090490831E069096801F07001884209D956
:105080008C480830006820F07000E16908438949C5
:1050900008310860207800F0020002280ED185490E
:1050A000E068096801F00F01884207D9814800686B
:1050B00020F00F00E16808437E490860207800F086
:1050C0000100002850D07B48006820F47060A1687F
:1050D0000843784908606068022807D17548183885
:1050E0000068C0F34040F8B9012063E76068032816
:1050F00007D1704818380068C0F34060A0B901209B
:1051000058E76068012807D16A4818380068C0F37A
:10511000002048B901204DE7664818380068C0F300
:10512000800008B9012045E762480838006820F08F
:105130000700616808435F4908390860FEF7F0FB23
:10514000064608E0FEF7ECFB801B41F288318842FE
:1051500001D903202EE757480838006800F03800CE
:105160006168B0EBC10FEDD1207800F00200022899
:105170000ED15049E068096801F00F01884207D25A
:105180004C48006820F00F00E16808434949086076
:105190004748006800F00F00A8420ED94448006854
:1051A00020F00F002843424908600846006800F0DC
:1051B0000F00A84201D00120FCE6207800F0040096
:1051C00004280ED13B492069096801F0700188422A
:1051D00007D23848006820F070002169084335493B
:1051E0000860207800F00800082811D13149091D15
:1051F0006069096801F07001884209D22D48001DDC
:10520000006820F07000616908432A49091D0860A0
:10521000207800F01000102811D12649091DA0693E
:10522000096801F4E061884209D22248001D006843
:1052300020F4E060A16908431E49091D0860207838
:1052400000F02000202811D11A490831E0690968CE
:1052500001F07001884209D216480830006820F039
:105260007000E169084313490831086000F02CF828
:1052700010490968C1F303210F4A515C01F01F0175
:1052800020FA01F70B48006800F00F001146085C97
:1052900000F01F0027FA00F008490860084807607E
:1052A00008480068FEF796FF8046404682E6000008
:1052B0000020005218440258CEA900082000002403
:1052C0001C00002414000024F0B5824E366806F05D
:1052D000380636B1082E15D0102E15D0182E7DD1D7
:1052E00014E07C4E103E3668C6F3401646B1794E47
:1052F000103E3668C6F3C107774E26FA07F000E085
:105300007548E5E07548E3E07548E1E0714E183610
:10531000366806F003046F4E18363668C6F305117A
:105320006C4E1C36366806F001056A4E2436366827
:10533000C6F3CC0616FB05F601EE106AB8EE410A7C
:10534000002971D024B1012C50D0022C6DD16DE018
:10535000604E103E3668C6F340163EB35D4E103EBA
:105360003668C6F3C1075C4E26FA07F301EE103A21
:10537000F8EE411A01EE101AB8EE411A81EE812AB8
:105380009FED581AC0EE011A524E20363668C6F309
:10539000080601EE106AB8EE411A31EE811AF7EEF6
:1053A000001A31EE211A62EE010A1EE001EE101A17
:1053B000B8EE411ADFED4C1A81EE812A9FED491AB1
:1053C000C0EE011A434E20363668C6F3080601EED9
:1053D000106AB8EE411A31EE811A00E076E0F7EE7D
:1053E000001A31EE211A62EE010A5BE001EE101A9A
:1053F000B8EE411A9FED3D2AC2EE011A9FED391A0F
:1054000080EE012A334E20363668C6F3080601EED8
:10541000106AB8EE411A32EE011AB7EE002A31EEE8
:10542000021A61EE810A3DE04EE01DE001EE101A25
:10543000B8EE411ADFED2E1A81EE812A9FED291A6E
:10544000C0EE011A234E20363668C6F3080601EE78
:10545000106AB8EE411A31EE811AF7EE001A31EEF9
:10546000211A62EE010A1DE001EE101AB8EE411A8F
:105470009FED1E2AC2EE011A9FED1A1A80EE012A34
:10548000144E20363668C6F3080601EE106AB8EEF0
:10549000411A32EE011AB7EE002A31EE021A61EE1D
:1054A000810A00BF00BF0B4E20363668C6F3462681
:1054B000721C01EE102AB8EE411AC0EE811ABCEE41
:1054C000E11A11EE100A00E0002001E0034800BFDD
:1054D00000BFF0BD104402580090D00300093D0009
:1054E00040787D01000000460024744C0024744A7A
:1054F00020BCBE4B70B586B006460C4615463EBB7A
:1055000000BF2848006840F00100264908600846AE
:10551000006800F00100009000BF00BF4FF48070F1
:105520000190022002900320049000200390059037
:1055300001A91D48FEF7D4F81A48D038006820F0B9
:10554000FE7044EA050108431649D039086026E098
:1055500000BF1448006840F0040012490860084683
:10556000006800F00400009000BF00BF4FF400701E
:1055700001900220029003200490002003900590E7
:1055800001A90A48FEF7ACF80648D038006820F0B8
:105590007E4044EAC51108430249D039086006B08C
:1055A00070BD0000E0440258000002580008025894
:1055B0002DE9F047044614B90120BDE8F0872078B2
:1055C00000F00100002870D0FE48006800F03808A4
:1055D000FC481830D0F80090B8F1100F06D0B8F1A0
:1055E000180F0FD109F0030002280BD1F54810382D
:1055F0000068C0F3404000286AD06068002867D186
:105600000120DAE700BF6068B0F5803F08D1ED48BF
:105610001038006840F48030EA49103908602EE004
:10562000606868B9E7481038006820F48030E549C0
:10563000103908600846006820F4802008601EE0E9
:105640006068B0F5A02F0DD1DE481038006840F436
:105650008020DC49103908600846006840F480303A
:1056600008600CE0D7481038006820F48030D54935
:10567000103908600846006820F48020086000BFE8
:10568000606898B1FEF74CF9054606E0FEF748F968
:10569000401B642801D903208FE7CA4810380068EE
:1056A000C0F340400028F1D012E012E0FEF738F9D4
:1056B000054606E0FEF734F9401B642801D90320B3
:1056C0007BE7C04810380068C0F340400028F1D1A3
:1056D00000BF207800F0020002287BD1B9480068A2
:1056E00000F03808B7481830D0F80090B8F1000F33
:1056F00005D0B8F1180F3AD109F00300B0BBB1489A
:1057000010380068C0F3800018B1E06808B90120C3
:1057100053E700BFFEF7FEF841F20301884219D8B3
:10572000206940280AD1A7480C38006820F47C3052
:1057300040F40030A3490C39086016E0A1480C3849
:10574000006820F47C30216940EA01309D490C3921
:1057500008600AE09B480C38006820F0FE40217C7D
:1057600040EA016097490C39086067E0FFE7E068AC
:1057700088B394481038006820F01900E1680843A5
:10578000904910390860FEF7CBF8054606E0FEF7B1
:10579000C7F8401B022801D903200EE789481038BA
:1057A0000068C0F380000028F1D000BFFEF7B2F817
:1057B00041F2030188421BD8206940280CD181485E
:1057C0000C38006820F47C3040F400307D490C39FE
:1057D000086018E033E017E07A480C38006820F4DD
:1057E0007C30216940EA013076490C3908600AE0D2
:1057F00074480C38006820F0FE40217C40EA0160CB
:1058000070490C39086019E06E481038006820F0C3
:1058100001006C4910390860FEF782F8054606E081
:10582000FEF77EF8401B022801D90320C5E6654833
:1058300010380068C0F380000028F1D100BF207844
:1058400000F0100010287CD15E48006800F0380895
:105850005C481830D0F80090B8F1080F06D0B8F1C5
:10586000180F3DD109F00300012839D155481038EF
:105870000068C0F3002020B1E069802801D0012039
:105880009BE600BFFEF746F841F2030188421AD8B2
:10589000206A20280AD14B480C38006820F0F840D4
:1058A00040F0804047490C39086018E045480C3802
:1058B000006820F0F84094F8201040EA81604149E7
:1058C0000C3908600BE03F48001F006820F07C5056
:1058D00094F8201040EA01603A49091F086066E028
:1058E000E06978B337481038006840F080003549E7
:1058F00010390860FEF714F8054606E0FEF710F8C8
:10590000401B022801D9032057E62E4810380068B2
:10591000C0F300200028F1D000BFFDF7FBFF41F2EB
:10592000030188421CD8206A20280CD125480C3855
:10593000006820F0F84040F0804022490C390860AF
:105940001AE035E019E01F480C38006820F0F840F4
:1059500094F8201040EA81601A490C3908600BE085
:105960001848001F006820F07C5094F8201040EA8E
:1059700001601449091F086019E0124810380068D6
:1059800020F080000F4910390860FDF7C9FF054677
:1059900006E0FDF7C5FF401B022801D903200CE6F5
:1059A000084810380068C0F300200028F1D100BF7B
:1059B000207800F00800082834D16069D8B1014887
:1059C000643001E010440258006840F00100EF49E3
:1059D0000860FDF7A5FF054606E0FDF7A1FF401BA7
:1059E000022801D90320E8E5E8480068C0F3400038
:1059F0000028F2D016E0E548006820F00100E349F5
:105A00000860FDF78DFF054606E0FDF789FF401BA6
:105A1000022801D90320D0E5DC480068C0F340002B
:105A20000028F2D1207800F02000202836D1A0698B
:105A3000D0B1D6487438006840F48050D3497439E6
:105A40000860FDF76DFF054606E0FDF769FF401BA6
:105A5000022801D90320B0E5CC4874380068C0F3AF
:105A600040300028F1D019E0C8487438006820F4AC
:105A70008050C64974390860FDF752FF054606E0BC
:105A8000FDF74EFF401B022801D9032095E5BF48D2
:105A900074380068C0F340300028F1D1207800F05D
:105AA000040004287DD1BA48006840F48070B849E9
:105AB0000860FDF735FF054606E0FDF731FF401BA6
:105AC000642801D9032078E5B148006800F48070AB
:105AD0000028F2D000BFA068012808D1AB48001F01
