:0200000490006A
:10000000A0AD0024AD0200901F520090114C009052
:100010001D52009093030090C96F009000000000F3
:100020000000000000000000000000005D5700908C
:10003000610B0090000000001B5500905F5700907E
:10004000C7020090C7020090C7020090C70200904C
:10005000C7020090C7020090C7020090C70200903C
:10006000C7020090C7020090C70200907D06009072
:10007000C7020090C7020090C7020090C70200901C
:10008000C7020090C7020090C7020090C70200900C
:10009000C7020090C7020090C7020090C7020090FC
:1000A000C7020090C7020090C7020090C7020090EC
:1000B000C7020090C7020090C7020090C7020090DC
:1000C000C7020090C7020090C7020090C7020090CC
:1000D000C7020090C7020090C7020090C7020090BC
:1000E000C7020090C702009000000000C702009005
:1000F000C7020090C7020090C7020090C70200909C
:10010000C7020090C7020090C7020090C70200908B
:10011000C7020090C7020090C7020090C70200907B
:10012000C7020090C7020090C7020090C70200906B
:10013000C7020090C7020090C7020090C70200905B
:1001400000000000000000000000000000000000AF
:10015000C7020090C7020090C7020090C70200903B
:10016000C7020090C7020090C7020090C70200902B
:10017000C7020090C702009071060090C70200906D
:10018000C7020090C7020090C7020090C70200900B
:10019000C7020090C7020090C7020090C7020090FB
:1001A000C7020090C7020090C7020090C7020090EB
:1001B000C7020090C7020090C7020090C7020090DB
:1001C000C7020090C7020090C7020090C7020090CB
:1001D000C702009021520090C7020090C702009011
:1001E000C7020090C7020090C7020090C7020090AB
:1001F000C7020090C7020090C7020090C70200909B
:10020000C7020090C7020090C7020090C70200908A
:10021000C7020090C7020090C7020090C70200907A
:10022000C7020090C7020090C702009000000000C3
:10023000C7020090C702009000000000C7020090B3
:10024000C7020090C7020090C7020090C70200904A
:10025000C7020090C7020090C7020090C70200903A
:10026000C7020090C7020090C7020090C70200902A
:10027000C7020090C7020090C70200900000000073
:10028000C7020090C7020090C70200900000000063
:1002900000000000C7020090DFF80CD000F03CF82E
:1002A0000048004725710090A0AD00240648804713
:1002B00006480047FEE7FEE7FEE7FEE7FEE7FEE74B
:1002C000FEE7FEE7FEE7FEE74D580090990200903A
:1002D00040EA01039B0703D009E008C9121F08C0C8
:1002E000042AFAD203E011F8013B00F8013B521E48
:1002F000F9D27047D2B201E000F8012B491EFBD2BF
:1003000070470022F6E710B513460A460446194620
:10031000FFF7F0FF204610BD064C074D06E0E068F1
:1003200040F0010394E8070098471034AC42F6D33C
:10033000FFF7B6FFA4760090C476009070B58C18D5
:1003400010F8015B15F0070301D110F8013B2A11E9
:1003500006D110F8012B03E010F8016B01F8016BD6
:100360005B1EF9D12B0705D40023521E0DD401F8D2
:10037000013BFAE710F8013BCB1A921C03E013F89B
:10038000015B01F8015B521EF9D5A142D8D30020D0
:1003900070BDFEE7F0B5BFF34F8FBFF36F8F1A4903
:1003A00000200860BFF34F8FBFF36F8F174A1168AB
:1003B00041F400311160BFF34F8FBFF36F8F1349CA
:1003C00070310860BFF34F8F081F43F6FF74006859
:1003D0000D4D1035C0F34E31C0F3C90304EA411688
:1003E000184600BF46EA80772F60401EFAD2491EA9
:1003F000F4D2BFF34F8F106840F480301060BFF329
:100400004F8FBFF36F8FF0BD50EF00E014ED00E0B1
:100410007047000070B50C4C05462069401C2061F7
:1004200002F0F2FA6169401AB0F57A7F07D302F060
:10043000EBFA6061D4E90310411AC4E902104FF4E9
:1004400016402860014870BD580100248C0B002420
:10045000AFF3008070B5164C422264212060204624
:100460002271A16000F089F8A08947F6A275A84220
:1004700004D1E089A0F5EC41733911D060202071DE
:100480000B4800F07AF8A089A8420DD1E0896FF4FA
:1004900019510844022807DCBDE8704006F0A6BEEA
:1004A000BDE8704004F0D8BEBDE8704000F059BB14
:1004B0008CA300240A480021C278012A08D00279BE
:1004C000012A0CD10171821C4178064800F028B83D
:1004D000034AC1704178921C024800F03CB8704752
:1004E000580100248CA30024034810B500F002FD3D
:1004F00002490020087010BDAC01002458010024FE
:1005000004490120044A4FF416530870002103489F
:1005100000F07ABC580100248C0B0024AC010024AC
:1005200037B582B00446806801231546009003AABF
:1005300021792068491C02F0B1FBA06801230090DA
:100540002A4621792068491C02F016FB002800D0B9
:10055000012005B030BD1CB502238DF804101178C0
:1005600001AA8DF80510816800910179006802F0F8
:1005700095FB002800D001201CBD38B504466A4612
:100580000120FF218DF800002046FFF7E4FF1C2129
:100590006A462046FFF7C4FF6D4620461D216A1CAF
:1005A000FFF7BEFFBDF800000A216A4640BAA081ED
:1005B0002046FFF7B5FF6A1C20460B21FFF7B0FF6E
:1005C000BDF8000040BAE081002038BD10B5806B56
:1005D000816C496D022906D0012180F83510C16C6B
:1005E00041F04001C16400F0C2FA10BD10B5816B4A
:1005F0000C468A6B886C0168CAB10A68A36B02F466
:100600000022DB0706D12AB1C968E26B01EBC20107
:10061000002207E00A68120319D40969E26B01EBB2
:10062000C201012200F0A2FCA06B401E0EE008688F
:10063000000302D5606CC86009E00868000306D4B6
:10064000E26B606C00EB82000861206CA063A06B21
:10065000216C88420BD12068C16841F00101C16062
:1006600020680068800702D5012084F8350010BD9D
:10067000014800F07FBA0000AC010024014801F0FD
:10068000E5B90000FC010024294A016891423AD0F2
:10069000274A1832914236D0254A3032914232D020
:1006A000234A483291422ED0214A603291422AD0C8
:1006B0001F4A7832914226D01D4A9032914222D070
:1006C0001B4AA83291421ED01A4A91421BD0194AA5
:1006D0001832914217D0174A3032914213D0154A3E
:1006E000483291420FD0134A603291420BD0114AE6
:1006F0007832914207D00F4A9032914203D00D4A8E
:10070000A832914211D1CAB21823103AB2FBF3F2C7
:100710006FF30901032A02F00703074AD25CC2659E
:1007200000D9091D81650846704721F0FF01F9E7EE
:1007300010000240100402409872009030B5224A26
:10074000012301689142CAB21BD01F4C1434A1424C
:1007500017D01D4C2834A14213D01B4C3C34A1426D
:100760000FD0194C5034A1420BD0174C6434A14225
:1007700007D0154C7834A14203D0134C8C34A142DD
:100780000CD11421114C083AB2FBF1F10F4A80321E
:1007900001F01F0504EB8101AB4010E00C4D182463
:1007A000103A0D44B2FBF4F1A82D00D80831094AE3
:1007B00001F01F0402EB8101064AA3408032603041
:1007C00080E80E0030BD000008540258005802585E
:1007D000F0FBFDBF0008024010B50279531E072B45
:1007E0002DD8174C0168A1421BD0154C1434A142DE
:1007F00017D0134C2834A14213D0114C3C34A142E1
:100800000FD00F4C5034A1420BD00D4C6434A14298
:1008100007D00B4C7834A14203D0094C8C34A14250
:1008200003D10849074C443102E00749064C4431E2
:1008300004EB8202C0E91B2101219940416710BDF0
:1008400008540258FC580258FC08024010B583694D
:100850004FF0C074826A0146002053B1B3F5005FC7
:1008600015D072B1012A0CD0022A0AD0032A09D16C
:1008700004E01AB1012A06D0022A03D1C96AC901CB
:1008800000D5012010BDC96AA142FAD010BD002ACE
:10089000F7D0012AF2D0022AF3D0032AF3D010BDF8
:1008A00030B5254D0468AC4238D0234D1835AC42E4
:1008B00034D0214D3035AC4230D01F4D4835AC429C
:1008C0002CD01D4D6035AC4228D01B4D7835AC4244
:1008D00024D0194D9035AC4220D0174DA835AC42EC
:1008E0001CD0164DAC4219D0144D1835AC4215D061
:1008F000124D3035AC4211D0104D4835AC420DD0C0
:100900000E4D6035AC4209D00C4D7835AC4205D067
:100910000A4D9035AC4201D0084DA835636083681C
:10092000402B036803D099600068C26030BD9A60B4
:100930000068C16030BD0000100002401004024099
:100940002DE9F04F804E804FDFF8FC911836DFF82C
:10095000F8A148370468856D0AF1300ADFF8ECB178
:100960004C45DFF8ECC1DFF8ECE16DD0B4426BD060
:10097000544569D0BC4267D0DFF8D081A8F118088F
:10098000444561D05C455FD064455DD074455BD023
:10099000DFF8C481444557D0DFF8BC8108F118085E
:1009A000444551D0DFF8B08108F1300844454BD0C0
:1009B000DFF8A48108F14808444545D0DFF8988164
:1009C00008F1600844453FD0DFF88C8108F17808D1
:1009D000444539D0DFF8808108F19008444533D090
:1009E000DFF8748108F1A80844452DD0DFF86C8148
:1009F000444529D0DFF8648108F11408444523D028
:100A0000DFF8588108F1280844451DD0DFF84C81F3
:100A100008F13C08444517D0DFF8408108F1500840
:100A2000444511D0DFF8348108F1640844450BD007
:100A3000DFF8288108F17808444505D0DFF81C81EB
:100A400008F18C08444509D1D0E91948C4F804805C
:100A5000C46E1CB1D0E91C48C4F8048004684C453D
:100A60002ED0B4422CD054452AD0BC4228D0374E88
:100A7000183EB44224D05C4522D0644520D0744551
:100A80001ED0354EB4421BD0334E1836B44217D068
:100A9000314E3036B44213D02F4E4836B4420FD0C8
:100AA0002D4E6036B4420BD02B4E7836B44207D070
:100AB000294E9036B44203D0274EA836B44215D101
:100AC00090F85C603F2406F01F06B440AC600468F8
:100AD000256825F4802525602EE09A600068C160B5
:100AE000BDE8F08F99600068C260F9E71B4EB44220
:100AF0001BD01A4E1436B44217D0184E2836B442C2
:100B000013D0164E3C36B4420FD0144E5036B44279
:100B10000BD0124E6436B44207D0104E7836B44231
:100B200003D00E4E8C36B442DAD190F85C600124CA
:100B300006F01F06B4406C60046863608368402B55
:100B40000368CFD1C9E700001000024088000240CE
:100B5000A0000240B80002401004024008540258AD
:100B600070474FF4FA74204604F080F9FBE77047B1
:100B7000704700002DE9F04104460068234F042629
:100B8000056969070BD54661E06C40F00200E0643E
:100B900084F83560A06C0765A06C00F015FEA8070E
:100BA0000DD5216802204861E06C40F00100E0644E
:100BB00084F83560A06C0765A06C00F005FEE806BF
:100BC00005D5216810204861204600F06FF82807FD
:100BD00005D5216808204861204600F0C5F9E807DE
:100BE00012D020680168890703D5C16821F01E0171
:100BF000C16020680121C26822F00102C260206841
:100C000041612046FFF7B4FFBDE8F081CD050090BB
:100C10002DE9F041040003D094F8350018B105E047
:100C20000120BDE8F081204600F042F8A1690220D1
:100C30004FF0000E84F8350009B1C4F824E02068B4
:100C4000194A016811400160D4E90452E168D4E90D
:100C5000010C29431043A269084354F8201B40EAC1
:100C60000C001043B4E8E8100A68184328433043E6
:100C7000384340EA0C001043086054F8300C343C10
:100C8000102805D12268E17FE06961F31F6090615F
:100C900020680121C26842F01E02C260C4F84CE024
:100CA00084F835100020BCE707F0E0FF7047000033
:100CB0002DE9F04186B0804614216846FFF721FBFC
:100CC0004849D8F8000088427ED14748016841F081
:100CD00001010160006800F0010005904248001D1C
:100CE000016841F010010160016801F010010591F7
:100CF000016841F001010160016801F00101059105
:100D0000016841F004010160016801F004010591EE
:100D1000016841F008010160016801F008010591D6
:100D2000016841F002010160006802240025694663
:100D300000F00200059073200D268DE831002B484D
:100D4000CDE9035601F03CFD502069468DE83100A5
:100D50002748CDE9035601F033FDC02069468DE8F0
:100D600031002448CDE9035601F02AFD08206946E8
:100D70008DE831002048CDE9035601F021FD8020A7
:100D800069468DE831001D48CDE9035601F018FD94
:100D90001C484B211A4C0215831420608715C4E9A6
:100DA00001159001C4E9035204F11401C4E90805D6
:100DB0001601204681E8C80001F0C0F908B1FFF72C
:100DC000D0FEC8F8484000E009E00022C4F83880AE
:100DD0004E20114602F0E8F84E2002F0D7F806B097
:100DE000BDE8F08100000248DC44025800100258BF
:100DF0000000025800080258000C02580004025873
:100E0000FC010024100002402DE9F843044690F84C
:100E10003400012833D0354802274FF0010884F808
:100E20003480002584F8357026684FF4803C634593
:100E3000376847F48047376026684FF040093768C5
:100E400027F0020737602668376847EA01073760EE
:100E5000A16CC863A66C2649F164A16C0D65A563FD
:100E60002564E56365640DD22168A06C283101F02A
:100E700047FB80B3C4F84C9084F8358027E002200B
:100E8000BDE8F883A16C46464864C4F83880E36343
:100E9000626405E0E06B4008E063A06B4000A06383
:100EA000E06B6045F6D2A06B801EA063A36BE16B84
:100EB000E06B2364009002EB81032168A06C283171
:100EC00000F09CF838B1C4F84C9084F835600120EB
:100ED00084F83450D4E7FFE72068016841F001014D
:100EE0000160002084F83450CAE70000ED0500904E
:100EF000CD05009070B51B4B04464FF4FA50002509
:100F0000C21094F834101B680129B3FBF0F000FB09
:100F100002F01FD0012684F83460022184F83510D5
:100F200021680A6822F001020A602168401E13D07D
:100F30000A68D207FAD1086820F480400860A06CE3
:100F4000343400F08FFAA1690020A161667020702E
:100F5000284670BD022070BDE06C032540F02000E3
:100F6000E064E8E710000024704700000068214BAF
:100F7000984238D01F4B1833984234D01D4B303331
:100F8000984230D01B4B483398422CD0194B6033D9
:100F9000984228D0174B7833984224D0154B903381
:100FA000984220D0134BA83398421CD0124B984241
:100FB00019D0114B1833984215D00F4B303398424B
:100FC00011D00D4B483398420DD00B4B60339842F3
:100FD00009D0094B7833984205D0074B903398429B
:100FE00001D0054BA83312B1016100207047C160E8
:100FF000FBE7000010000240100402402DE9FF4F03
:1010000081B081689646044600200E9A802900909F
:1010100012D094F83400012813D094F8350001213F
:1010200084F8341001280ED0C902012000906165B7
:10103000009805B0BDE8F08F4FF480706065012026
:10104000F7E70220F5E7FE4D02272068002684F826
:101050003570A842FB4D6665FB4EFC4FDFF8F09300
:10106000DFF8F0A3DFF8F0B33FD0A8423DD0B042A4
:101070003BD0B84239D0484537D0504535D0584597
:1010800033D0DFF8D4C30CF1180C60452DD0DFF855
:10109000CCC3604529D0DFF8C4C30CF1180C6045FF
:1010A00023D0DFF8B8C30CF1300C60451DD0DFF859
:1010B000ACC30CF1480C604517D0DFF8A0C30CF1AD
:1010C000600C604511D0DFF894C30CF1780C6045DA
:1010D0000BD0DFF888C30CF1900C604505D0DFF829
:1010E0007CC30CF1A80C604510D1D0F800C03F21A2
:1010F0004CF4802CC0F800C02068036194F85C3088
:10110000A06D03F01F039940816010E0D0F800C08B
:1011100048F220084CEA080CC0F800C020680361BF
:1011200094F85C30A06D03F01F03994041601346B2
:10113000029972462046FFF7B3FBC94AC84BDFF855
:1011400020E31432DFF8F882283320680EF13C0ED9
:10115000C34940455FD0A8425DD0B0425BD0B842A1
:1011600059D0484557D0504555D0584553D0DFF851
:10117000E8C20CF1180C60454DD0DFF8E0C26045C4
:1011800049D0DFF8D8C20CF1180C604543D0DFF825
:10119000CCC20CF1300C60453DD0DFF8C0C20CF180
:1011A000480C604537D0DFF8B4C20CF1600C6045E4
:1011B00031D0DFF8A8C20CF1780C60452BD0DFF8F5
:1011C0009CC20CF1900C604525D0DFF890C20CF168
:1011D000A80C60451FD088421DD090421BD0984279
:1011E00019D0704517D0DFF878C20CF1500C60456B
:1011F00011D0DFF86CC20CF1640C60450BD0DFF845
:1012000060C20CF1780C604505D0DFF854C20CF1D7
:101210008C0C604509D1D4E9190CC0F804C0E06E0B
:1012200018B1D4E91C0CC0F804C0C446206860455D
:101230003FD0A8423DD0B0423BD0B84239D048451B
:1012400037D0504535D0584533D0DFF80C8208F1FF
:10125000180840452DD0DFF80482404529D0DFF83A
:10126000FC8108F11808404523D0DFF8F08108F12F
:10127000300840451DD0DFF8E48108F148084045BA
:1012800017D0DFF8D88108F16008404511D0DFF8A9
:10129000CC8108F1780840450BD0DFF8C08108F117
:1012A0009008404505D0DFF8B48108F1A808404512
:1012B00018D1D0F8008028F01E0848F01608C0F8B1
:1012C00000802068D0F8148048F08008C0F81480AE
:1012D000206C08B9A06CC0B12068D0F8008048F03C
:1012E000080810E0D0F8008028F00E0848F00A083E
:1012F000C0F80080206C08B9A06C30B12068D0F82C
:10130000008048F00408C0F800802068E0464045AE
:1013100057D0A84255D0B04253D0B84251D04845DA
:101320004FD050454DD058454BD0DFF82CC10CF173
:10133000180C604545D0DFF824C1604541D0DFF886
:101340001CC10CF1180C60453BD0DFF810C10CF14A
:10135000300C604535D0DFF804C10CF1480C604515
:101360002FD0DFF8F8C00CF1600C604529D0DFF811
:10137000ECC00CF1780C604523D0DFF8E0C00CF134
:10138000900C60451DD0DFF8D4C00CF1A80C60456E
:1013900017D0884215D0904213D0984211D0704592
:1013A0000FD02F49503188420BD02D4964318842EB
:1013B00007D02B497831884203D029498C318842A3
:1013C0000DD1206E0168C90303D5016841F4807115
:1013D0000160E06E18B1016841F48071016020681D
:1013E000404528D0A84226D0B04224D0B84222D0CE
:1013F000484520D050451ED058451CD016491831BC
:10140000884218D01549884215D0144918318842AD
:1014100011D01249303188420DD0104948318842EC
:1014200009D00E496031884205D00C497831884294
:1014300001D00A499031016841F001010160F7E5EE
:1014400010000240280002404000024058000240C4
:101450007000024088000240A000024010040240D8
:10146000085402582DE9F84F044601F0CDFA002C3B
:10147000009008D094F83500022805D080216165DD
:10148000002084F83400E3E0C84DC84EC749183541
:1014900020683036DFF81883DFF818938842DFF8C9
:1014A00018A3DFF818B32ED0A8422CD0B0422AD00F
:1014B000404528D0484526D0504524D0584522D014
:1014C000BE4A183290421ED0BD4A90421BD0BC4A40
:1014D0001832904217D0BA4A3032904213D0B84AEC
:1014E000483290420FD0B64A603290420BD0B44A94
:1014F0007832904207D0B24A9032904203D0B04A3C
:10150000A832904209D1026822F01E0202602068CF
:10151000426922F08002426103E0026822F00E027A
:10152000026027688F4238464DD0A8424BD0B04267
:1015300049D0404547D0484545D0504543D058450F
:1015400041D09E4A183290423DD09D4A90423AD0B6
:101550009B4A1832904236D0994A3032904232D06B
:10156000974A483290422ED0954A603290422AD013
:10157000934A7832904226D0914A9032904222D0BB
:101580008F4AA83290421ED08E4A90421BD08D4A7C
:101590001432904217D08B4A2832904213D0894A95
:1015A0003C3290420FD0874A503290420BD0854A4D
:1015B0006432904207D0834A7832904203D0814A05
:1015C0008C32974204D1206E026822F4807202604D
:1015D00076492068884228D0A84226D0B04224D03C
:1015E000404522D0484520D050451ED058451CD0FB
:1015F00072491831884218D07149884215D0704913
:101600001831884211D06E49303188420DD06C4972
:101610004831884209D06A496031884205D068491A
:101620007831884201D066499031016821F001018A
:10163000016010E001F0E8F90099401A05280AD984
:10164000202262650020032184F8340084F83510DC
:101650000120BDE8F88F3868C007EBD1534A01215B
:10166000206890422ED0A8422CD0B0422AD04045CB
:1016700028D0484526D0504524D0584522D04F4B3D
:10168000183398421ED04E4B98421BD04C4B183307
:10169000984217D04A4B3033984213D0484B4833C6
:1016A00098420FD0464B603398420BD0444B78336E
:1016B000984207D0424B9033984203D0404BA83316
:1016C000984208D194F85C703F23A06D07F01F0783
:1016D000BB40836007E094F85C30A06D03F01F030B
:1016E00001FA03F34360206890424DD0A8424BD0EA
:1016F000B04249D0404547D0484545D0504543D0F9
:10170000584541D02D4A183290423DD02C4A904243
:101710003AD02B4A1832904236D0294A3032904281
:1017200032D0274A483290422ED0254A6032904229
:101730002AD0234A7832904226D0214A90329042D1
:1017400022D01F4AA83290421ED01E4A90421BD07F
:101750001C4A1432904217D01A4A2832904213D0B1
:10176000184A3C3290420FD0164A503290420BD069
:10177000144A6432904207D0124A7832904203D021
:10178000104A8C3290420BD1D4E919024260E06ECB
:1017900030B1026822F480720260D4E91C02426017
:1017A000002084F8340084F8351052E7100002401D
:1017B000580002407000024088000240A000024031
:1017C00010040240085402582DE9F05F28B190F847
:1017D0003510022904D0802141650120BDE8F09F29
:1017E000904C904B0168183C18338E4ADFF83C92BD
:1017F000A1428D4CDFF838E28E4FDFF83CB2DFF8C3
:101800003CA28F4D8F4E31D091422FD099422DD096
:10181000A1422BD0494529D0714527D0B94225D0C6
:10182000DFF810C20CF1180C61451FD0DFF808C2B8
:10183000ACF1600C614519D0DFF8FCC1ACF1480C8B
:10184000614513D0DFF8F0C1ACF1300C61450DD02B
:10185000DFF8E4C1ACF1180C614507D0594505D05B
:10186000514503D0A94201D0B1422CD1DFF8B4C117
:101870004FF0040880F83580ACF1180C61451DD09C
:1018800091421BD0994219D0A14217D0494515D099
:10189000714513D0B94211D06648183081420DD03D
:1018A00065486038814209D063484838814205D094
:1018B00061483038814201D05F481838086820F00C
:1018C00001000860ABE0D1F800C02CF00E08DFF892
:1018D00054C1C1F80080ACF1180C0168614527D0F3
:1018E000914225D0994223D0A14221D049451FD011
:1018F00071451DD0B9421BD0DFF838C10CF1180C6E
:10190000614515D0DFF830C1ACF1600C61450FD0F6
:10191000DFF824C1ACF1480C614509D0DFF818C1EB
:10192000ACF1300C614503D0DFF80CC1ACF1180C00
:10193000D1F800C02CF0010CC1F800C0DFF8E48041
:101940004FF0010C0168A8F11808414546D09142BA
:1019500044D0994242D0A14240D049453ED0714541
:101960003CD0B9423AD0334A1832914236D0324A4A
:10197000603A914232D0304A483A91422ED02E4AB3
:10198000303A91422AD02C4A183A914226D05945F1
:1019900024D0514522D0A94220D0B1421ED02A4A9B
:1019A00091421BD0284A1432914217D0264A28323D
:1019B000914213D0244A3C3291420FD0224A5032F5
:1019C00091420BD0204A6432914207D01E4A7832AD
:1019D000914203D01C4A8C32914218D1016E0A68A0
:1019E00022F480720A6090F85C20816D02F01F0280
:1019F0000CFA02F24A60D0E919124A60C16E31B1A4
:101A00000A6822F480720A60D0E91C124A6000223F
:101A1000016D80F8342080F835C001B1884700207E
:101A2000DCE600002800024058000240700002403E
:101A300088000240A0000240700402408804024076
:101A4000A0040240B8040240085402582DE9FC5F8B
:101A50000446FA4E0020DFF8E48300904FF416525B
:101A6000F74808F11808A56DDFF8D0A3DFF8CCB36C
:101A700001680AF1300A20680BF1480BB1FBF2F162
:101A8000B04201912F68D5F800C0DFF8B89336D086
:101A90004146884233D0504531D058452FD0E74990
:101AA000603188422BD0E5497831884227D0E3491C
:101AB0009031884223D0E149A83188421FD048455F
:101AC0001DD0E0491831884219D0DE4930318842B2
:101AD00015D0DC4A4832904211D0DA496031884250
:101AE0000DD0DFF860E30EF1780E704507D0D54BCE
:101AF0009033984203D0D349A83188427ED194F8DC
:101B00005C20082102F01F0201FA02F23A424BD097
:101B1000B04233D0404531D050452FD058452DD01C
:101B2000C64A6032904229D0C44A7832904225D0C9
:101B3000C24A9032904221D0C04AA83290421DD071
:101B400048451BD0BF4A1832904217D0BD4A3032A8
:101B5000904213D0BB4A483290420FD0B94A60320B
:101B600090420BD0B74A7832904207D0B54A9032B3
:101B7000904203D0B34AA832904203D1026802F0E7
:101B8000040202E0026802F008026AB1026822F070
:101B90000402026094F85C0000F01F008140A9601C
:101BA000606D40F00100606594F85C00012100F078
:101BB0001F008140394241D02068B04235D04045B5
:101BC00033D0504531D058452FD09C4A6032904296
:101BD0002BD09A4A7832904227D0984A903290423D
:101BE00023D0964AA83290421FD048451DD0954A2E
:101BF0001832904219D0934A303200E0B2E190425C
:101C000013D0904A483290420FD08E4A60329042B0
:101C10000BD08C4A7832904207D08A4A9032904258
:101C200003D0884AA83290427ED1406910F0800FDC
:101C300004D0A960606D40F00200606594F85C001B
:101C4000042100F01F00814039423FD02068B0429B
:101C500033D0404531D050452FD058452DD0774A0C
:101C60006032904229D0754A7832904225D0734A2A
:101C70009032904221D0714AA83290421DD04845FE
:101C80001BD0704A1832904217D06E4A30329042C0
:101C900013D06C4A483290420FD06A4A6032904268
:101CA0000BD0684A7832904207D0664A9032904210
:101CB00003D0644AA83290424FD1006810F0020F5E
:101CC00004D0A960606D40F00400606594F85C0089
:101CD000102100F01F008140394259D02068B042E5
:101CE00035D0404533D0504531D058452FD0534A98
:101CF000603290422BD0514A7832904227D04F4ADE
:101D00009032904223D04D4AA83290421FD048458D
:101D10001DD04C4A1832904219D04A4A3032904273
:101D200015D0484A483200E015E090420FD0454AAD
:101D3000603290420BD0434A7832904207D0414AF9
:101D40009032904203D03F4AA832904207D10068B7
:101D500000F0080006E0006870E70068B6E7006879
:101D600000F00400A0B1A96020680168490304D50F
:101D70000068000308D5A16C07E00168C90503D419
:101D8000016821F008010160216C09B120468847F3
:101D900094F85C00202100F01F008140394278D087
:101DA0002068B04233D0404531D050452FD05845FF
:101DB0002DD0224A6032904229D0204A7832904277
:101DC00025D01E4A9032904221D01C4AA83290421F
:101DD0001DD048451BD01B4A1832904217D0194AD3
:101DE0003032904213D0174A483290420FD0154AF1
:101DF000603290420BD0134A7832904207D0114A99
:101E00009032904203D00F4AA832904203D100682A
:101E100000F0100002E0006800F00200A0B3A9602A
:101E200094F835000428206801680DD049037DD559
:101E30000068000329D4616C28E000001000024013
:101E4000100000241004024021F0160101602068F7
:101E5000416921F080014161206C08B9A06C20B17A
:101E60002068016821F00801016094F85C303F218E
:101E7000002203F01F0301209940A96084F8342058
:101E800084F83500216D66E003E0E16B09B120467E
:101E90008847606D00287DD0606DC0075AD02068EB
:101EA000042184F83510B0422BD0404529D050454C
:101EB00027D0584525D09E49884222D09C491831C8
:101EC00088421ED09A49303188421AD09849483108
:101ED000884216D0484514D09649884211D0954979
:101EE000183188420DD093493031884209D0914948
:101EF0004831884205D08F496031884201D08D49F0
:101F00007831016821F00101016020680099019A8F
:101F1000491C0091914202D80168C907F6D10021FD
:101F200084F834100068C00711D000E001E00320FD
:101F30000EE00168C905A8D403680022012123F03E
:101F40001003036084F8342084F835109DE70120E5
:101F500084F83500E16C00291CD002B02046BDE8B1
:101F6000F05F0847744988421DD073491431884294
:101F700019D071492831884215D06F493C318842C7
:101F800011D06D49503188420DD06B49643188427F
:101F900009D000E086E068497831884203D066497C
:101FA0008C3188427ED194F85C800427016808F067
:101FB0001F0807FA08F717EA0C0F009746D04F07DB
:101FC00044D500980F04686003D5C8033CD4A16CC5
:101FD000C1E7880638D42068B0422DD0544948392A
:101FE000884229D0504527D0584525D050498842AD
:101FF00022D04F49183188421ED04D493031884295
:102000001AD04B494831884216D0484514D0494926
:10201000884211D04749183188420DD090420BD0E8
:1020200044494831884207D0704505D0984203D0D2
:1020300040499031884203D1016821F0080102E053
:10204000016821F004010160216C84E7022707FA8E
:1020500008F717EA0C0F00974ED08F074CD5009861
:102060000F04686003D5C80344D4616C73E7880625
:1020700040D42068B0422FD02D49483988422BD017
:10208000504529D0584527D02949884224D028498D
:102090001831884220D02649303188421CD024494A
:1020A000483100E041E0884216D0484514D021492B
:1020B000884211D01F49183188420DD090420BD070
:1020C0001C494831884207D0704505D0984203D05A
:1020D00018499031884203D1016821F0140102E0CF
:1020E000016821F00A010160002184F83410012008
:1020F00084F83500E16B2EE7082202FA08F212EAB2
:102100000C0F12D0090710D5016821F00E010160F3
:1021100094F85C100120002201F01F0100FA01F187
:102120006960606584F8342012E7BDE8FC9F000018
:102130007000024028040240085402582DE9F05F64
:10214000044600F061FC002C07467DD0E34E0221DE
:1021500020684FF00308DFF888934FF00005DFF8A0
:1021600084A3B042DFF880B334D0DC4A1832904206
:1021700030D048452ED050452CD058452AD0DA4A88
:102180001832904226D0D84A3032904222D0D64AD5
:10219000483290421ED0D54A90421BD0D34A1832C2
:1021A000904217D0D14A3032904213D0CF4A4832B1
:1021B00090420FD0CD4A603290420BD0CB4A783259
:1021C000904207D0C94A9032904203D0C74AA83201
:1021D00090427DD184F8345084F83510B0422ED02E
:1021E000BE49183188422AD0484528D0504526D0CB
:1021F000584524D0BC491831884220D0BA493031E2
:1022000088421CD0B8494831884218D0B749884222
:1022100015D0B6491831884211D0B44930318842BE
:102220000DD0B2494831884209D0B0496031884266
:1022300005D0AE497831884201D0AC49903101686F
:1022400021F00101016008E027E100BF00F0DCFBA4
:10225000C01B052801D920211CE120680068C007A7
:10226000F4D104F108002168D4E9053C8E4685C804
:1022700009681043D4E907281F43636A38439C4F19
:1022800040EA0C001043394040EA0800042B40EAC1
:10229000010003D1D4E90B121143084395490968A1
:1022A0006FF30F01B1F1005F0FD36168A1F1290253
:1022B000052A08D9163A032A05D9083A012A02D96B
:1022C0004F39032901D840F48010CEF8000000E017
:1022D00023E02068676A4069042F20F0070047EA7E
:1022E00000070DD1D4E90A01074349B12046FEF7A2
:1022F000ADFA28B140206065012184F83510CCE0AA
:10230000206847612046FEF7BFF994F85C203F2122
:1023100002F01F029140816054E0774A90421BD046
:10232000754B1433984217D0734B2833984213D00F
:10233000714B3C3398420FD06F4B503398420BD0C7
:102340006D4B6433984207D06B4B7833984203D07F
:10235000694B8C3398427DD1684B84F8345084F8B3
:1023600035100168A26801EA030E402A73D0802A62
:1023700072D00022D4E90378D4E9053142EAD702C9
:1023800042EAD8085C4AD4E9077C48EAD30848EA1C
:10239000D10141EAD701524241EA1C11142341EA1A
:1023A0000E01016020681044B0FBF3F08000E0658E
:1023B0002046FEF769F994F85C20012102F01F0223
:1023C000914041602068B04257D04449183188425A
:1023D00053D0484551D050454FD058454DD0424933
:1023E0001831884249D040493031884245D03E4971
:1023F0004831884241D03D4988423ED03B4918315E
:1024000088423AD039493031884236D0374948314C
:10241000884232D03549603188422ED033497831F4
:1024200088422AD031499031884226D02F49A8319C
:10243000884222D0304988421FD02F491431884227
:102440001BD02D492831884217D02B493C31884276
:1024500013D002E01DE017E018E027495031884210
:102460000BD025496431884207D02349783188420E
:1024700003D021498C31884229D12046FEF75EF9EC
:10248000A06880280CD00CE0102273E74FF4804243
:1024900070E74021616584F835800120BDE8F09F38
:1024A0006560216E20790860D4E919014160606897
:1024B000401E072808D82046FEF78EF9E06E05601A
:1024C000D4E91C01416002E0E566256765670120EB
:1024D000656584F835000020E0E700001000024048
:1024E00040000240580002407000024010040240C8
:1024F0003F8010FE0010005C085402580F00FEFFE1
:102500002DE9F84F04008C464FF00000009013D0E6
:1025100094F83400012811D094F83550012000219E
:1025200084F83400012D0BD084F83410C2020090DE
:1025300062650098BDE8F88F0120FBE70220F9E70B
:102540008C4D0226206884F83560A8428A4D61656A
:102550008A4E8B4FDFF82C82DFF82C92DFF82CA20A
:10256000DFF82CB226D0A84224D0B04222D0B84204
:1025700020D040451ED048451CD050451AD0584563
:1025800018D08449884215D082491831884211D028
:102590008049303188420DD07E494831884209D087
:1025A0007C496031884205D07A497831884201D02F
:1025B00078499031016821F00101016061462046AF
:1025C000FEF7BEF96B49206888422CD0A8422AD079
:1025D000B04228D0B84226D0404524D0484522D029
:1025E000504520D058451ED06A4A90421BD0694AB7
:1025F0001832904217D0674A3032904213D0654A61
:10260000483290420FD0634A603290420BD0614A08
:102610007832904207D05F4A9032904203D05D4AB0
:10262000A83290420CD1026822F01E0242F016023B
:102630000260206C88B12068026842F008020BE05A
:10264000026822F00E0242F00A020260206C20B101
:102650002068026842F004020260206888424BD081
:10266000A84249D0B04247D0B84245D0404543D0B7
:10267000484541D050453FD058453DD0454A90420D
:102680003AD0444A1832904236D0424A30329042D0
:1026900032D0404A483290422ED03E4A6032904278
:1026A0002AD03C4A7832904226D03A4A9032904220
:1026B00022D0384AA83290421ED0374A90421BD0CE
:1026C000354A1432904217D0334A2832904213D000
:1026D000314A3C3290420FD02F4A503290420BD0B8
:1026E0002D4A6432904207D02B4A7832904203D070
:1026F000294A8C3290420DD1206E0268D20303D554
:10270000026842F480720260E06E18B1026842F41E
:10271000807202602068884226D0A84224D0B0424D
:1027200022D0B84220D040451ED048451CD050454C
:102730001AD0584518D01749884215D01549183174
:10274000884211D01349303188420DD011494831A7
:10275000884209D00F496031884205D00D4978314F
:10276000884201D00B499031016841F001010160BC
:10277000DFE6000010000240280002404000024056
:10278000580002407000024088000240A000024051
:10279000B8000240100402400854025870B50446C4
:1027A00000F032F90546601C02D004480078044469
:1027B00000F02AF9401BA042FAD370BD04000024A7
:1027C0002DE9FC4F01257E4C00234FF0030A4FF00A
:1027D000B04E4FF00F0BEBE005FA03F637403A002E
:1027E00077D04F68012F05D0022F03D0112F01D0D1
:1027F000122F1AD187684FEA4308D1F80CC00AFAA1
:1028000008F927EA09070CFA08FC4CEA070CC0F89B
:1028100008C0476891F804C0B743CCF3001C0CFA19
:1028200003FC4CEA070CC0F804C0C6684FEA430C2E
:10283000D1F80880E1460AFA0CF7BE43019708FA7E
:1028400009F848EA0608C0F80C804E68022E01D04C
:10285000122E12D1DE084FEA437C00EB860600966A
:102860000F69366A4FEADC6C0BFA0CF807FA0CF7C2
:1028700026EA08063743009E37620E790768DDF8BE
:1028800004C006F0030606FA09F627EA0C073E43E1
:1028900006604E68F6001CD54A4E376847F00207BE
:1028A000376036689F0706F00206009623F003069D
:1028B00006F1B046B1463F0FD6F80864DFF808814C
:1028C0000BFA07FC404526EA0C0603D14FF0000C3A
:1028D00041E06CE0DFF8F4C0604502D14FF0010C3C
:1028E00039E0DFF8ECC0604502D14FF0020C32E075
:1028F000DFF8E0C0604502D14FF0030C2BE0DFF8B9
:10290000D8C0604502D14FF0040C24E0DFF8CCC001
:10291000604502D14FF0050C1DE0DFF8C4C06045F2
:1029200002D14FF0060C16E0DFF8B8C0604502D1C6
:102930004FF0070C0FE0DFF8B0C0604502D14FF058
:10294000080C08E0DFF8A4C0604502D14FF0090C84
:1029500001E04FF00A0C0CFA07FC4CEA060CC9F82F
:1029600008C426684F6826EA0206FF0300D516430E
:10297000266066684F6826EA0206BF0300D5164344
:102980006660D1F804C07646DEF800705FEACC2CB1
:1029900027EA020700D517433760D1F804C07768EB
:1029A0005FEA8C2C27EA020700D5174377605B1C8F
:1029B0000A681746DA407FF40FAFBDE8FC8F0000CD
:1029C00080000058F44402580000025800040258E5
:1029D00000080258000C0258001002580014025857
:1029E00000180258001C0258002002580024025807
:1029F0000AB1816170470904FBE7000001480068E3
:102A0000000C70470010005C0148806870470000AF
:102A10000400002430B590F84120202A24D190F8F9
:102A20004020012A20D0012380F84030242280F861
:102A30004120202300240268156825F00105156057
:102A40000268156825F480551560026815680D4305
:102A5000156001680A6842F001020A6080F841309E
:102A600080F84040002030BD022030BD30B590F8E5
:102A70004120202A22D190F84020012A1ED0012393
:102A800080F84030242280F841202024002502686C
:102A9000136823F0010313600268136823F4706362
:102AA00043EA0121116001680A6842F001020A60EC
:102AB00080F8414080F84050002030BD022030BDF9
:102AC00070B5040004D094F84100002510B106E070
:102AD000012070BD204684F8405000F071F9242098
:102AE00084F841002068016821F001010160D4E907
:102AF000001020F0706008612068816821F40041B6
:102B00008160E06821680128A06806D040F4044094
:102B10008860E068022803D006E040F40040F7E750
:102B200021684FF40060486020212068114A436802
:102B3000134343602068C26822F40042C26054F824
:102B4000106B0DCC104340EA0320F06054F81C3C9D
:102B5000D4E900021043186054F81C0D026842F0DA
:102B600001020260656484F84110256384F84250D4
:102B7000002070BD008000022DE9F84F044690F857
:102B800041001F469046DDF828A08B4620287ED1C4
:102B900094F8400001287AD0012084F84000FFF723
:102BA00033FF0122064619230090D103204602F08C
:102BB0009BF8E0BB0025222184F84110102084F806
:102BC000420065646785618DFF2732484FF00079C8
:102BD000C4F82480FF294FF08078656303D92785E6
:102BE0003A46009039E0618D218500903AE05946DF
:102BF000204602F063F813E002F0A4F8B8B92068A8
:102C0000616A406A0870606A401C6062208D401EE4
:102C100081B22185608D401E6085608D00B169B1F3
:102C2000608D3246514600282046E5D100E002E0A2
:102C300002F0CCF8D0B10120BDE8F88F0022534655
:102C400080212046009602F04FF80028F3D1608DD5
:102C5000FF2804D927853A4600954346C7E7608D8B
:102C6000208500954B4694F82820C0E72068202155
:102C7000094AC161206843681340436084F84110E9
:102C800084F84250002084F84050D5E7FFE7022046
:102C9000D2E700000024008000E800FE2DE9F84F94
:102CA000044690F841001F469046DDF828A08B4668
:102CB00020287ED194F8400001287AD0012084F8A1
:102CC0004000FFF7A1FE0122064619230090D10320
:102CD000204602F009F8E0BB0025212184F84110CC
:102CE000102084F8420065646785618DFF273248B3
:102CF0004FF00079C4F82480FF294FF08078656395
:102D000003D927853A46009039E0618D21850090EE
:102D10003AE05946204601F0D1FF13E002F07DF879
:102D2000B8B9606A216800788862606A401C606295
:102D3000608D401E6085208D401E80B22085618D93
:102D400001B168B1608D3246514600282046E5D178
:102D500000E002E002F03AF8D0B10120BDE8F88FBF
:102D60000022534680212046009601F0BDFF002836
:102D7000F3D1608DFF2804D927853A460095434654
:102D8000C7E7608D208500954B4694F82820C0E762
:102D900020682021094AC1612068436813404360CC
:102DA00084F8411084F84250002084F84050D5E760
:102DB000FFE70220D2E700000020008000E800FECC
:102DC00010B586B0044614216846FDF79AFA1349F7
:102DD0002068884220D11248016841F00201016058
:102DE00000680423122200F00200059000204FF436
:102DF000407100916946CDE90120CDE903030948FE
:102E0000FFF7DEFC06480830016841F4001101605C
:102E1000006800F40010059006B010BD005400409A
:102E2000E0440258000402580248816802781144C4
:102E30008160704704000024032010B500F0D4F82E
:102E400001F078FB0F4A104914681368C4F3032299
:102E500003F00F038A5CC95C02F01F0201F01F013E
:102E6000D0400A4A20FA01F11160094908600020A7
:102E700000F010F808B1012010BD00F079F8002032
:102E800010BD000018440258A072009014000024E5
:102E90001000002470B50D4D04462878A0B14FF401
:102EA0007A71B1FBF0F00A490968B1FBF0F001F06A
:102EB0009CFE48B9102C07D200222146501E00F07B
:102EC00073F800206C6070BD012070BD0400002408
:102ED00010000024F0B5154C4378211D0A1D236015
:102EE0000378F3B143680B60057BC67A817A437B34
:102EF0002D07847B45EA0665C77B90F809C0067AF2
:102F000090F800E045EAC14040EA834040EA44408E
:102F100040EA074040EA0C2040EA460040EA0E0042
:102F200001E0002008601060F0BD000098ED00E0B6
:102F3000BFF35F8F044800210368034A23F4803302
:102F4000036070321160704724ED00E0074A40F0E2
:102F50000100064970321060086840F48030086053
:102F6000BFF34F8FBFF36F8F7047000024ED00E079
:102F7000054808B5016841F002010160006800F0F1
:102F80000200009008BD0000F4440258002809DB4C
:102F9000410900F01F028900012001F1E021904069
:102FA000C1F80001704700000E4BF0B41B680D46DD
:102FB000C3F30223C3F10706042E00D90426191D0A
:102FC000072901D2002300E0DB1E012404FA06F1E8
:102FD0009C40491E2940641E994014402143F0BC86
:102FE00003F0F3BF0CED00E0064900F0070210B556
:102FF0004FF6FF040868044B204040EA02201843C3
:10300000086010BD0CED00E00000FA050168012326
:10301000C0F8FC33002280F8F4238869044A40F0A9
:1030200000608861486D10434865002070470000CB
:103030000300001070470068416200207047F0B53F
:1030400003685D6A39B19F6A4C1E00204FF4827696
:1030500005EB17450BE045EA0240986210E0471C7B
:1030600006EB800053F800C0F8B205EB1C45A04207
:10307000F5D34FF4807000EB810045EA02421A500C
:103080000020F0BDD0F8040402F063BEC1EBC10221
:1030900000EB8202D0F80404926C02F0B8BDC1EBE0
:1030A000C10200EB8202D0F80404D2F8082202F038
:1030B0000FBED0F8040402F04EBE01F00F020B0662
:1030C00070B5C2EBC20104464FF001004FF000059D
:1030D00004EB810103D581F83D003C3103E081F828
:1030E000FD5101F5FE710A7094F8BC23012A08D045
:1030F00084F8BC03206803F0FDFA002084F8BC5378
:1031000070BD022070BD70B54268044601F00F002A
:10311000904201D9012070BD01F00F024FF000056F
:103120000B06C2EBC2014FF0010204EB810103D593
:1031300081F83D203C3103E081F8FD5101F5FE713D
:103140008D70087094F8BC03012808D084F8BC2363
:10315000206803F0A3FC002084F8BC5370BD02205B
:1031600070BD2DE9F04101F00F0604460D064FF049
:103170000100C6EBC6014FF0000504EB810103D549
:1031800081F83D003C3103E081F8FD5101F5FE710D
:103190004F788A60CB700E7007B1CE80022B00D1C1
:1031A0000D7194F8BC23012A09D084F8BC0320686F
:1031B00003F0DCF9284684F8BC53BDE8F081022016
:1031C000FBE770B501F00F050C460026C5EBC50105
:1031D00000EB8101C1F80822C1E9843681F8FD6164
:1031E00081F8FC5101F5FE710369012B00D10A61E0
:1031F0002207027C006803D003F0A8FC002070BD09
:1032000003F092FBFAE770B50D464168044605F0FD
:103210000F00884201D9012070BD29064FF0000639
:103220004FF0010207D5C0EBC00104EB810181F82A
:103230003D203C3107E0C5EBC50104EB810181F87D
:10324000FD6101F5FE718A70087094F8BC030128D5
:1032500007D084F8BC23206803F04CFC280702D078
:1032600007E0022070BD217C04F57172206803F034
:10327000E9FB002084F8BC6370BD2DE9F04101F04A
:103280000F050C460026C5EBC501012700EB8101A7
:103290008A64C1E9143681F83D7001F83C5F036926
:1032A000012B00D10A612207027C006804D003F0E0
:1032B0004DFC0020BDE8F08103F036FBF9E700008B
:1032C0002DE9FC5F05680446284603F068FD0028E8
:1032D0007ED1206803F08FFD002879D0206803F0AC
:1032E0008AFD800704D52068416901F0020141612F
:1032F000206803F080FDC10604F57170009034D59C
:103300002068816921F0100181612F6A07F00F01A7
:10331000C7F34340C1EBC101022804EB810606F567
:10332000FE7602D0062811D01AE047F6F070074268
:1033300016D0C7F30A12F1681746284603F05FFD5E
:10334000F168B0693944F160384408E00099082216
:10335000284603F054FDB069C7F30A110844B06170
:103360002068816941F010018161206803F043FD0C
:1033700000034FF001094FF0080B5BD520680026D1
:1033800003F018FDDFF8A8A3074651E0F8074DD079
:103390002068F1B203F027FD8046C00707D005EB97
:1033A0004611C1F8089B3146204601F0FFFF5FEA55
:1033B000087022D505EB4611C1F808BB2068016CE6
:1033C00000EB461001915145D0F8081B07D900E0E9
:1033D000ABE1090403D54FF40041C0F8081B2046B7
:1033E00000F098FA0198504507D92069012804D1C6
:1033F00020680121009A03F025FB5FEAC86004D52C
:1034000005EB46111020C1F8080B5FEA886004D56F
:1034100005EB46102021C0F8081B5FEA884005D55F
:1034200005EB46114FF40050C1F8080B7F08761CDD
:10343000002FABD1206803F0DEFC40034FF0000A00
:103440005CD5206803F0AFFC0026074654E0F8077F
:1034500050D02068F1B203F0B4FC8046C00723D0FE
:10346000D5F8342806F00F0C05EB461309FA0CF0DA
:103470008243C5F83428C3F80899206901280FD180
:10348000C6EBC60004EB8000D0E911121144816440
:1034900036B9206D20B920680121009A03F0D2FAD4
:1034A0002046F1B2FFF7F2FD5FEA087003D505EBA5
:1034B0004611C1F808B95FEAC86004D505EB4611AA
:1034C0001020C1F808095FEA486004D505EB4611F1
:1034D0004020C1F808095FEA887004D505EB461161
:1034E0000220C1F808095FEA086003D5314620468A
:1034F00001F0C2FF7F08761C002FA8D1206803F0DE
:103500007AFC002811DAD5F8040820F00100C5F88B
:10351000040894F8F403012839D0204600F0DEF9BD
:103520002068416901F000414161206803F063FCBB
:1035300000050BD5D5F80808C00702D0204600F0DA
:1035400011FA2068416901F400614161206803F0CB
:1035500052FC00010AD52068416901F00061416117
:1035600094F8F403D0B1204600F0FCF9206803F091
:1035700042FCC00476D5D5F8040820F00100C5F857
:1035800004082068102103F0EBFB002135E0002146
:10359000204684F8F4A3FFF74DFDC1E784F8F493C7
:1035A0002068406D0121C0F38300C4F8F803204671
:1035B000FFF740FDDAE700BF05EB41104FF67F3221
:1035C000C0F80829D0F8003923F40013C0F80039F6
:1035D000D0F8003943F00063C0F80039C0F8082B78
:1035E000D0F8002B22F40012C0F8002BD0F8002BEA
:1035F00042F00062C0F8002B491C60688842DBD8AA
:10360000D5F81C0840F00110C5F81C08206B60B10B
:10361000D5F8840840F00B00C5F88408D5F84408B4
:1036200040F00B00C5F844080CE0D5F8140842F24D
:103630002B010843C5F81408D5F8100840F00B001A
:10364000C5F81008D5F8000820F4FE60C5F8000899
:10365000217C2068009A03F0F5F92068416901F4A3
:1036600080514161206803F0C6FB800417D52068B3
:1036700002F0BCFF206803F085FBE06000F038FF3B
:103680000146207B2368C2B2184603F0EFFB2046B8
:1036900000F00EF92068416901F400514161206891
:1036A00003F0A9FB000707D5204600F01BF92068AE
:1036B000416901F008014161206803F09CFBC002F0
:1036C00008D50021204600F035F82068416901F452
:1036D00080114161206803F08EFB800208D5002133
:1036E000204600F02BF82068416901F40011416187
:1036F000206803F080FB400007D52046FFF7C2FC9E
:103700002068416901F080414161206803F073FB4A
:1037100040070AD520684568680702D52046FFF7AC
:10372000C8FC2168486828434860BDE8FC9F000049
:103730000A30544FD0F8040402F05ABBD0F8040405
:1037400002F058BB2DE9F04104008AB005D094F88E
:10375000BD030025266820B108E001200AB0BDE8BD
:10376000F081204684F8BC5300F066F8032084F80A
:10377000BD03F06BC00500D42561206803F0CEF8CE
:1037800004F11001684628228846FCF7A1FD94E860
:103790000F0002F039FF0227D8BB2068002103F098
:1037A0003CFB0020012610E0C0EBC001421C04EBF2
:1037B000810181F83D6081F83F504D648D640D6555
:1037C00081F83C00A1F84200D0B261688142EBD898
:1037D000002011E0C0EBC001421C04EB810181F824
:1037E000FD5181F8FF51C1F80452C1F80852C1F8E7
:1037F000105281F8FC01D0B261688142EAD82822D7
:1038000041466846FCF764FD94E80F0002F0CAFFE9
:1038100010B184F8BD73A0E7606A84F8385084F86A
:10382000BD63012802D12046FFF7F0FB206802F0BB
:10383000ADFF002092E7000010B586B004461421C9
:103840006846FCF75EFD17492068884228D1164873
:10385000016841F00101016000680A23022200F0C2
:103860000100059000204FF4C05100916946CDE958
:103870000120CDE903030D48FEF7A2FF0A480838EE
:10388000016841F00061016000680022114600F00B
:10389000006005906520FFF787FB6520FFF776FB4A
:1038A00006B010BD00000840E04402580000025875
:1038B00070B50446C068012570B1022801D0FDF73B
:1038C00050F9D4F80404294602F0E9FAD4F80404C3
:1038D000BDE8704002F0A5BA0025F2E7D0F8040474
:1038E00002F0C7BAD0F8040402F0CDBA10B504460D
:1038F00090F8BC0301280BD0012084F8381084F81C
:10390000BC03206803F0A0FA002084F8BC0310BDBB
:10391000022010BDD0F8042400F57171104602F0A9
:10392000CABA10B590F8BC1304460068012906D045
:10393000A26A012184F8BC13012A02D008E0022007
:1039400010BDA169012903D0816B41F480318163ED
:10395000206802F00FFF206803F0ECF9002084F8E3
:10396000BC0310BD10B50446D0F8040402F0E0FA20
:103970002068D0F8001E41F00101C0F8001E206A46
:10398000002804D00248016841F00601016010BD22
:1039900010ED00E0134970B50A68D243520705D50F
:1039A000096801F00701814213D118E00A6822F08A
:1039B000070202430A60FFF727F80A4D4FF47A76B0
:1039C0000446083D07E000BFFFF71EF8001BB042A9
:1039D00001D9012070BD2868C0438004F4D40020C0
:1039E00070BD00000C4802580248016841F0807127
:1039F000016070470C4802582DE9FC5F044650F8FE
:103A0000241B002500902E460801FE4FDFF8F883A6
:103A10001DD5606E50B1B0F5801F0CD0B0F5001F01
:103A20000ED0B0F5401F1DD001250FE0386840F4DE
:103A30000030386016E00221201D01F06FFD03E028
:103A40000098022101F0FAFD05000BD02E462088D7
:103A5000C00523D5606D05281ED2DFE800F00C11EB
:103A6000161B1B00626ED8F8001021F440111143A0
:103A7000C8F80010EBE7386840F40030386009E01F
:103A80000021201D01F04AFD03E00098002101F013
:103A9000D5FD05466DB100E001252E462088800544
:103AA00028D5A06D80281ED00CDC90B140280ED106
:103AB00014E0626DD8F8001021F007011143C8F836
:103AC0000010EBE7C02813D0B0F5807F10D001259F
:103AD0000FE0386840F40030386009E00021201D14
:103AE00001F01CFD03E00098002101F0A7FD054650
:103AF00095B12E462088DFF81093400509F108099A
:103B00002CD5D4F8A400B0F5800F20D00DDCA0B1E6
:103B1000B0F5001F0FD115E0A26DD8F8001021F408
:103B2000E0711143C8F80010E4E7B0F5C00F13D0FE
:103B3000B0F5000F10D001250FE0386840F40030D8
:103B4000386009E00021201D01F0E8FC03E0009846
:103B5000002101F073FD054675B12E462088000551
:103B60002DD5D4F8A800B0F1007F21D00EDCA8B18B
:103B7000B0F1807F10D116E0D4F8A420D9F800105D
:103B800021F460011143C9F80010E7E7B0F1407F6C
:103B900013D0B0F1806F10D001250FE0386840F4E9
:103BA0000030386009E00021201D01F0B7FC03E07F
:103BB0000098002101F042FD05468DB12E46206897
:103BC000DFF844B28001ABF1040B1FD5A06CD8B173
:103BD00010280FD0202812D0302815D0012514E04D
:103BE000D4F8A820D9F8001021F0E0611143C9F8F9
:103BF0000010E4E7386840F40030386004E0022147
:103C0000201D01F08BFC05466DB12E462088C004B6
:103C10002BD5E06DB0F5005F20D00DDCA0B1B0F584
:103C2000805F0FD115E0A26CDBF8001021F03001AD
:103C30001143CBF80010E9E7B0F5405F13D0B0F5C1
:103C4000804F10D001250FE0386840F40030386014
:103C500009E00021201D01F061FC03E00098002133
:103C600001F0ECFC054685B12E462088800429D55C
:103C7000206EB0F5403F23D010DC08B3B0F5803F94
:103C800014D0B0F5003F0FD115E0E26DD8F8001068
:103C900021F4E0411143C8F80010E6E7B0F5802FA9
:103CA0000ED0B0F5A02F0BD001250AE00121201D78
:103CB00001F034FC03E00098012101F0BFFC05464F
:103CC0008DB12E46208840042AD5D4F8AC00B0F13E
:103CD000405F23D010DC08B3B0F1805F14D0B0F1A6
:103CE000005F0FD115E0226ED8F8001021F4E0211A
:103CF0001143C8F80010E5E7B0F1804F0ED0B0F1E5
:103D0000A04F0BD001250AE00121201D01F006FC87
:103D100003E00098012101F091FC05466DB12E46AB
:103D2000208800041FD5E06ED8B1B0F1805F0ED0BE
:103D3000B0F1005F10D0012514E0D4F8AC20D9F820
:103D4000001021F0E0411143C9F80010E8E738689D
:103D500040F40030386004E00121201D01F0DEFB5A
:103D600005466DB12E462068C0011ED5606CD0B1ED
:103D700001280ED0022811D0032814D0012513E009
:103D8000E26ED8F8001021F040511143C8F800103D
:103D9000E9E7386840F40030386004E00221201D73
:103DA00001F0BCFB054665B12E462068400257D5A0
:103DB0001648016841F480710160FEF725FE8246D5
:103DC0000EE0626CDBF8001021F003011143CBF828
:103DD0000010EAE7FEF718FEA0EB0A0064283DD8C1
:103DE0000A480068C005F5D57DBBDFF81CA0B4F813
:103DF000B0100AF1200ADAF8000001F4407100F472
:103E0000407005E02C4402585044025800480258C3
:103E1000884211D0DAF80010DAF8002021F440715D
:103E200042F48032CAF80020DAF8002022F480320E
:103E3000CAF80020CAF80010D4F8B000B0F5807FAE
:103E400021D1FEF7E1FD019019E008E0FEF7DCFD6D
:103E50000199411A41F28830814210D903252E463A
:103E60002078DFF80CA4C0073DD0A06F182838D008
:103E700026DC80B3082829D0102825D12CE0DAF8D8
:103E800000008007E2D5D4F8B010C1F30120032868
:103E9000F8480DD0016821F47C510160B4F8B020DD
:103EA000DAF80010C2F30B021143CAF80010D7E78A
:103EB000F14A036802EA111223F47C511143ECE742
:103EC00020280ED028280CD001250BE00121201D30
:103ED00001F024FB04E004E00098012101F0AEFBB6
:103EE00005465DB12E46207880071ED5606F0628F6
:103EF00019D2DFE800F0160C11161616A26FDAF8C8
:103F0000001021F038011143CAF80010EBE701213D
:103F1000201D01F003FB03E00098012101F08EFB5E
:103F2000054675B100E001252E46207840071FD5D3
:103F3000D4F89000062819D2DFE800F0160C11160C
:103F40001616626FDAF8001021F007011143CAF863
:103F50000010EAE70121201D01F0E0FA03E00098DB
:103F6000012101F06BFB05469DB100E001252E46C5
:103F7000207880062BD5D4F88C00B0F1405F24D097
:103F800011DC10B3B0F1805F15D0B0F1005F10D13B
:103F900016E0D4F89020D9F8001021F00701114361
:103FA000C9F80010E4E7B0F1804F0ED0B0F1A04F97
:103FB0000BD001250AE00021201D01F0AFFA03E03B
:103FC0000098022101F03AFB05468DB12E4620787B
:103FD00040062BD5D4F89800B0F5406F24D011DC02
:103FE00010B3B0F5806F15D0B0F5006F10D116E0AA
:103FF000D4F88C20DAF8001021F0E0411143CAF81F
:104000000010E4E7B0F5805F0ED0B0F5A05F0BD0F4
:1040100001250AE00021201D01F080FA03E000984C
:10402000022101F00BFB05468DB12E4620780006DB
:104030002BD5D4F89C00B0F5C04F24D011DC10B3C0
:10404000B0F5005F15D0B0F5804F10D116E0D4F870
:104050009820D9F8001021F4E0511143C9F800105C
:10406000E4E7B0F5004F0ED0B0F5204F0BD001259E
:104070000AE00021201D01F051FA03E0009802211E
:1040800001F0DCFA05464DB12E46207800071ED51A
:10409000D4F88000B0F5805F0AD00FE0D4F89C20FF
:1040A000D9F8001021F460411143C9F80010ECE781
:1040B0000098022101F0C2FA00B10126D4F8802054
:1040C000DAF8001021F440511143CAF800102078AA
:1040D000C00613D5D4F89400B0F5807F05D10098C0
:1040E000022101F0ABFA00B10126D4F89420D9F8EE
:1040F000001021F440711143C9F80010206800033A
:1041000016D5D4F8A00038B1B0F5803F09D0B0F58D
:10411000003F0BD001250AE00021201D01F0FEF92F
:1041200003E00098022101F089FA054685B12E4688
:104130002068400322D5D4F88400B0F5801F11D048
:10414000B0F5001F13D0B0F5401F15D0012514E0C5
:10415000D4F8A020D9F8001021F440311143C9F857
:104160000010E5E7386840F40030386004E000985B
:10417000012101F063FA054655B12E462068C003BF
:104180001CD5E06C70B1B0F5803F10D0012514E073
:10419000D4F88420DAF8001021F440111143CAF851
:1041A0000010EBE7386840F40030386004E002218A
:1041B000201D01F0B3F90546CDB12E4620688000E0
:1041C00005D50098022101F039FA00B101262068D6
:1041D00080031BD5E06FB8B1B0F5807F10D0B0F58B
:1041E000007F11D0B0F5407F0ED001250DE0E26CCC
:1041F000DBF8001021F480311143CBF80010DDE72B
:10420000386840F400303860C5B32E462068C002DC
:1042100007D5226FD8F8001021F000411143C8F8EB
:1042200000102068800207D5A26ED8F8001021F097
:1042300080711143C8F800102068400009D50D486E
:10424000016821F4004101600168D4F8B8201143ED
:1042500001602068002807DA226DDBF8001021F0E9
:1042600040511143CBF8001096B10120BDE8FC9FEE
:104270005444025810440258CFFFFF00FFE7E26F9A
:10428000DAF8001021F440711143CAF80010BDE7BC
:104290000020EBE72DE9F05F04000F467ED0DFF849
:1042A0003882D8F8000000F00F00B8420CD2D8F8DD
:1042B000001021F00F013943C8F80010D8F80000B1
:1042C00000F00F00B84269D12078844D40070AD52C
:1042D0002069296801F07001884204D9296821F019
:1042E00070010143296020787C4E361D00070AD5F5
:1042F0006069316801F07001884204D9316821F0A9
:104300007001014331602078C0060AD5A069316888
:1043100001F4E061884204D9316821F4E06101438D
:1043200031602078DFF8B4B180060BF1080B0CD5B2
:10433000E1695846DBF8002002F07002914204D98E
:10434000026822F070020A430260207880070AD5D2
:10435000E068296801F00F01884204D9296821F03A
:104360000F01014329602078C0073ED05B49A26855
:104370002868183920F470601043286060680228AB
:1043800018D0032819D00968012819D04907002935
:104390004ADADFF848A1AAF1080A00E044E0DAF8B6
:1043A000002022F007020243CAF80020FEF72CFB8F
:1043B000814612E009688903E9E709688901E6E7AF
:1043C000C905E4E7FEF720FBA0EB090141F28830C4
:1043D000814202D90320BDE8F09F6168DAF800004D
:1043E00000F03800B0EBC10FECD1207880070AD57F
:1043F000E068296801F00F01884204D2296821F0A1
:104400000F0101432960D8F80010404601F00F0168
:10441000B9420BD9016821F00F01394301600068EE
:1044200000F00F00B84201D00120D4E72078400707
:104430000AD52069296801F07001884204D22968F0
:1044400021F0700101432960207800070AD56069D6
:10445000316801F07001884204D2316821F07001A6
:10446000014331602078C0060AD5A069316801F4A3
:10447000E061884204D2316821F4E0610143316097
:10448000207880060CD5E1695846DBF8002002F060
:104490007002914204D2026822F070020A43026064
:1044A00000F048F80E492A682B68C2F3032203F093
:1044B0000F038A5CC95C02F01F0201F01F01D040AB
:1044C000084A20FA01F111600749086007480068AE
:1044D000BDE8F05FFEF7DEBC002000521844025831
:1044E000A072009014000024100000240800002492
:1044F00030B500F01FF80B4A0B490C4B15681468D7
:10450000C5F3032204F00F048A5C095D02F01F0268
:1045100001F01F01D040064A20FA01F11960106035
:10452000084630BD18440258A072009014000024C0
:1045300010000024454970B545480968434B103BBD
:1045400011F0380208D00111082A03D0102A0BD02C
:10455000182A0BD0084670BD19688906FBD5196862
:10456000C1F3C101C84070BD3A4870BD3749374DED
:1045700018310C1D24350A68096826682D6802F078
:10458000030406F00102C1F30511C5F3CC0515FBC8
:1045900002F200EE102AB8EE400AE9B32F4ADFED2E
:1045A0002E0AB7EE001A6CB1DFED2D1A012C01D0E6
:1045B000022C43D002EE101A1068F8EE422A81EE67
:1045C000A22A1EE01C68A40611D51B6801EE901AF1
:1045D0001168C3F3C103F8EE612AD84001EE900AD6
:1045E000C1F30800F8EE611A81EEA22A0BE001EE99
:1045F000901ADFED1C2A00BFF8EE611A106882EEF7
:10460000A12AC0F3080001EE900AF8EE611A40EE0C
:10461000201A31EE810A00E015E022EE000A10684F
:10462000C0F34620401C00EE900AF8EE600A80EECF
:10463000201ABCEEC10A10EE100A70BD01EE901AED
:10464000DFED092AD8E7002070BD000010440258B1
:104650000090D00340787D010000003930440258BA
:104660000024744A0024744C20BCBE4BF0B50D46A7
:104670001F49204C002887B016464FF000004FF02D
:1046800002020F684FF0030319D047F004070F60D0
:10469000096801F00401059111020091CDE90120A2
:1046A000CDE9033014486946FEF78AF8206845EAE8
:1046B000C61120F07E400843206007B0F0BD47F0EF
:1046C00001070F60096801F0010105914FF4807145
:1046D0000091CDE90120CDE9033008486946FEF795
:1046E0006FF82068354320F0FE702843E4E70000AF
:1046F000E0440258104402580008025800000258D2
:104700002DE9F05F04007CD0FF4F2078FE4D183774
:10471000DFF8F493103DC00748D0D9F8000039689D
:1047200000F03800102815D0182803D101F003003C
:1047300002280FD06068B0F5803F12D010B1B0F5FC
:10474000A02F18D0286820F480302860286820F432
:10475000802009E02868800328D560680028D2D02E
:1047600024E0286840F480302860606888B1FEF753
:104770004BF9064609E0286840F480202860F0E7FD
:10478000FEF742F9801B64287ED828688003F7D59D
:104790000CE0FEF739F9064605E000BFFEF734F9F4
:1047A000801B6428F0D828688003F7D4207841F271
:1047B0000308D54E0C3E80074BD5D9F80000396868
:1047C00010F038000ED0182801D188070AD0E06810
:1047D00068B3296821F0190101432960FEF714F933
:1047E000824619E02868400702D5E06800288AD090
:1047F000FEF704F9404513D82069316821F47C3173
:1048000000E0BEE041EA0030306022E0FEF7FCF854
:10481000A0EB0A000228B7D828684007F6D5E7E7DA
:10482000207C316821F0FE4141EA0060ECE7286815
:1048300020F001002860FEF7E7F8824606E000BF9E
:10484000FEF7E2F8A0EB0A0002289DD8286840078E
:10485000F6D42078C00659D5D9F80000DFF8A8B200
:10486000396800F03800ABF1040B082812D0182882
:1048700003D101F0030001280CD0E069002828686A
:1048800034D040F0800000E0DCE02860FEF7BCF8A7
:10489000824623E02868C00523D5E069802870D1CE
:1048A0001FE000BF94F82000316821F0F84141EA90
:1048B000806030602AE000BF94F82010DBF8002010
:1048C00022F07C5242EA0161CBF800101EE000BFEA
:1048D000FEF79AF8A0EB0A0002289CD82868C005C9
:1048E000F6D5FEF78BF84045E6D8DBE720F08000F0
:1048F0002860FEF789F8064605E000BFFEF784F859
:10490000801B022887D82868C005F7D420780007C4
:1049100029D57D486169643000298046016811D03D
:1049200041F001010160FEF76FF8064605E000BFA7
:10493000FEF76AF8801B022887D8D8F800008007A5
:10494000F6D510E021F001010160FEF75DF80646A2
:1049500005E000BFFEF758F8801B022872D8D8F88F
:1049600000008007F6D42078800623D5A0690028AF
:10497000286810D040F480502860FEF745F80646BD
:1049800005E02EE1FEF740F8801B02285AD828687F
:104990008004F7D50EE020F480502860FEF734F84C
:1049A000064604E0FEF730F8801B02284AD8286843
:1049B0008004F7D4207840074FD5DFF85081D8F82D
:1049C000001041F48071C8F80010FEF71DF806468B
:1049D00005E000BFFEF718F8801B642832D8D8F82D
:1049E0000000C005F6D5484EA068603601280AD000
:1049F00008B1052813D0306820F00100306030681D
:104A000020F0040002E0306840F001003060A0684F
:104A100041F2883A90B1FDF7F7FF80460AE030682E
:104A200040F004003060EEE7FDF7EEFFA0EB080178
:104A3000514507D830688007F6D50EE0FDF7E4FF52
:104A4000804607E084E000BFFDF7DEFFA0EB080131
:104A500051457DD830688007F6D4606AF0B3DFF83E
:104A6000A880D9F8001008F12008C1F3C201032979
:104A70006FD00228286820F08070286003D0FDF7EE
:104A8000C3FF044682E0FDF7BFFF064605E000BF16
:104A9000FDF7BAFF801B022875D828688001F7D47B
:104AA000E26A40F2F331386854F8283F884340EA1C
:104AB000021018433860217B4FF4FE0C22894FF01E
:104AC000FE47208A4902267D521E401EA1F5007134
:104AD00089B20CEA0040C2F3080200E083E011430F
:104AE000761E0143084807EA06621143064A1C3055
:104AF000C8F800102432016821F00101016011683A
:104B00004FF6F876B14303E01044025800480258CB
:104B1000236A41EAC30111600168A26921F00C0116
:104B2000114301600168E26921F002011143016053
:104B3000016841F480310160016841F40031016095
:104B4000016841F480210160016841F0010101E048
:104B500019E01FE00160286840F080702860FDF7D0
:104B600053FF044605E000BFFDF74EFF001B02287F
:104B700009D828688001F7D535E000BFFDF744FF6C
:104B8000001B022802D90320BDE8F09F286880019D
:104B9000F4D428E039680128D8F8000021D0A26AAE
:104BA00001F0030393421CD1E26AC1F305118A426A
:104BB00017D1216BC0F30802491E8A4211D1616BE3
:104BC000C0F34622491E91420BD1A16BC0F30642AD
:104BD000491E914205D1E16BC0F30660491E814236
:104BE00001D00120D0E70020CEE7401EB0F1807F49
:104BF00010B501D3012010BD4FF0E02460610F21FA
:104C0000601702F0E2F90020A0610721216110BDC8
:104C1000FEE701688A69D243920701D400228A62C2
:104C200000688169C943C90703D0816941F0010166
:104C3000816170472DE9F0410446006890460E46B8
:104C40008069C043C00635D40025202720688069CC
:104C5000C043800616D5701CF8D0FDF7D5FEA0EB3A
:104C60000800B04201D8002EF0D1606C84F84050AA
:104C700040F02000606484F8417084F842500120C4
:104C8000BDE8F08121681020C8612068C761204616
:104C9000FFF7BFFF2068084942680A404260606C25
:104CA00040F00400606484F8417084F8425084F855
:104CB0004050E4E70020E3E700E800FE70B500683C
:104CC000C1F30901074E41EA0241049C4FF480659B
:104CD0004268194305EA54553543AA4321430A4320
:104CE000426070BDFF63FF032DE9F0411D4617468A
:104CF0000E460446DDF8188008E0681C06D0FDF773
:104D000083FEA0EB0800A8420BD855B1206880694B
:104D100036EA000013D00020B842EED00020BDE8F3
:104D2000F081626C002084F84000202142F02002D3
:104D3000626484F8411084F842000120EFE701200A
:104D4000EAE700002DE9F0410025904620260F46B5
:104D5000044626E0424639462046FFF76BFF80BBFB
:104D600020688069C043800614D420688169C943E3
:104D7000490701D4218DC9B91349C6612068426829
:104D80000A404260656484F8416084F8425084F8C7
:104D9000405016E0FDF738FEA0EB0800B84208D8F6
:104DA0003FB120688069C0434007D3D40020BDE8EC
:104DB000F081606C84F8405040F02000606484F81A
:104DC00041600120F3E7000000E800FE70B51646E0
:104DD0000D4604460DE0324629462046FFF72AFFDD
:104DE00008B1012070BDFDF70FFE801BA84207D857
:104DF00035B120688069C0438006ECD4002070BDC6
:104E0000626C002084F84000202142F0200262649D
:104E100084F8411084F84200E3E770B516460D4669
:104E200004460FE0324629462046FFF703FF08B14B
:104E3000012070BD681C05D0FDF7E6FD801BA8426F
:104E400007D835B120688069C0438007EAD40020C4
:104E500070BD626C002084F84000202142F02002E6
:104E6000626484F8411084F84200E1E770B50A4DAD
:104E70000122082104462846FDF7BAFD601EFDF711
:104E80008DFC002228460821FDF7B2FDBDE87040E8
:104E900040F2F310FDF782BC001002582DE9FF47E5
:104EA00000240094019402940394FEF741F8012534
:104EB0004FF014088DF8088068468DF80F40EF0613
:104EC0008DF80B408DF80E408DF800508DF80D4098
:104ED0008DF80A4001978DF801408DF809408DF852
:104EE0000C50FDF7F7FF4FF010098DF808908DF882
:104EF0000F5003268DF80B6068468DF80E508DF824
:104F000000508DF80D408DF80A4001978DF8015042
:104F10008DF809408DF80C40FDF7DCFF17208DF867
:104F200008008DF80F4002208DF80B604FF01047FD
:104F30008DF80E508DF800508DF80D408DF80A4018
:104F400001978DF8010068468DF809408DF80C50E6
:104F5000FDF7C0FF8DF8088068468DF80F408DF88A
:104F60000B608DF80E508DF800508DF80D408DF8C7
:104F70000A4001978DF801608DF809408DF80C40CA
:104F8000FDF7A8FF12218DF808108DF80F50B80812
:104F90008DF80B608DF80E508DF8005001900420B4
:104FA0008DF80D508DF80A408DF8010068468DF897
:104FB00009408DF80C40FDF78DFF11218DF8081088
:104FC0008DF80F5028078DF80B608DF80E508DF876
:104FD0000050019005208DF80D508DF80A408DF895
:104FE000010068468DF809408DF80C40FDF772FF0E
:104FF0000F218DF808108DF80F504FF060508DF88C
:105000000B608DF80E508DF80050019006208DF841
:105010000D508DF80A408DF8010068468DF8094062
:105020008DF80C40FDF756FF8DF8089069078DF854
:105030000F5007228DF80B6068468DF80E508DF8E2
:1050400000508DF80D508DF80A4001918DF8012027
:105050008DF809408DF80C40FDF73CFF0420FDF76A
:1050600075FFBDE8FF8700000D4820220B4B002193
:1050700010B50360C0E90112C16001614161816145
:10508000016241628162C1620163FBF7C1FD0028D8
:1050900003D0BDE81040FBF764BD10BD000002481E
:1050A000AC010024094808B5016841F00101016024
:1050B00000680022114600F0010000900B20FDF76F
:1050C00073FFBDE808400B20FDF760BFD8440258CD
:1050D00030B587B014216846FBF713F926480168FC
:1050E00041F010010160016801F0100105910168B3
:1050F00041F080010160016801F0800105910168C3
:1051000041F001010160016801F0010105910168B0
:1051100041F004010160016801F00401059101689A
:1051200041F008010160016801F008010591016882
:1051300041F00201016000680022104D082100F0DA
:10514000020005902846FDF753FC002408200121A9
:105150008DE81300694628460394FDF731FB0221D0
:105160004FF480708DE81300054869460394049459
:10517000FDF726FB07B030BDE0440258001002588E
:10518000000002581348002110B5114C0123124AA7
:105190000460C0E90121C0E9033141618161C1615D
:1051A0000162FDF78DFC08B1FBF7DBFC094800212B
:1051B000FDF730FC08B1FBF7D4FC06480021FDF7F1
:1051C00055FC002803D0BDE81040FBF7CABC10BD59
:1051D00000540040740200248A5E80400E48002182
:1051E00070B502220B4DC0E9032101238261C0E9A1
:1051F0000731416209248162C1620163C0E9005440
:10520000FEF7A0FA002803D0BDE87040FBF7A9BC68
:1052100070BD000000000840C0020024FEE7704797
:105220000148FEF74DB80000C002002408B56A46E8
:1052300001460348FBF774F99DF8000008BD000023
:105240008CA3002413B501AA01460248FBF783F999
:1052500000201CBD8CA300243EB500F06BF8002894
:1052600044D1234800F090F800283FD104208DF865
:1052700008000C2002A900F071F8002836D11D4862
:1052800000F082F8002831D11B4800F07DF800289A
:105290002CD10024694611208DF8004000F02EF832
:1052A000002823D19DF80000694600F080008DF8A9
:1052B0000000112000F052F8002817D16B208DF863
:1052C000044001A900F01AF800280FD19DF804004D
:1052D00001A900F03F008DF804006B2000F03EF8BB
:1052E000002803D16420FDF759FA00203EBD0000DC
:1052F0009F750090717500908575009033B50C4CCA
:1053000081B00D46012301AAA06800902179206890
:10531000491CFDF7C3FCA068012300902A462179AF
:105320002068491CFDF728FC002800D001203EBD64
:105330008CA30024642008B5FDF730FA802069466C
:105340008DF80000122000F009F808B1012008BD16
:105350006420FDF723FA002008BD00001CB50223DD
:1053600001AA8DF80400074809788DF805108168B6
:10537000009101790068FDF791FC002800D0012020
:105380001CBD00008CA3002410B5044605E0611C80
:10539000FFF7E4FF002807D1A41C2078FF2802D0E3
:1053A0006178FF29F3D1002010BD00002DE9F04104
:1053B000044600690D462027236801284FF4004663
:1053C00004F5717203EB4511D3F840C0D1F8080B16
:1053D00009D0DFF89CE0F4453AD1020433D500BF90
:1053E000C1F8086B40E0234B5FEA007E04D59C4582
:1053F0003AD90004F4D437E05FEA806E02D5C1F8F0
:10540000087B31E010F0280F2ED19C4501D9000413
:10541000E6D4D1F8103BC5EBC50004EB8000C3F324
:105420001203D0F80412A1EB0303C0F81432D0F831
:1054300008321944C0F8081295B9D4F8100278B9A6
:10544000206801210AE080060AD5C1F8087B07E040
:1054500035B9D4F8100218B90021184601F0F2FA53
:105460002046E9B2FDF71BFE0020BDE8F0810000F8
:105470000A31544F0A30544F2DE9F84F0E46056853
:105480008146C1EBC60100EB8104D4E914203C3411
:10549000904202D90120BDE8F88FA168101A81421C
:1054A00000D20846C01C05EB461887081BE000BF69
:1054B000A268A0EB010A524500D2924699F810105A
:1054C0000AF1030000911FFA8AF3E1688708284671
:1054D000F2B201F03FFDE16801EB0A00E060A16972
:1054E00001EB0A00A061D8F8180980B2B84205D3D0
:1054F000D4E90501814201D20028D9D1D4E90501BE
:10550000884208D8D5F83418012006F00F029040E0
:105510008143C5F834180020BDE770472DE9F047F6
:10552000454D044689464FF0000A2868C04380076D
:105530000AD0414E283E306820F080603060FDF790
:1055400063FA0746B04608E00120BDE8F08700BFD7
:10555000FDF75AFAC01B022867D8D8F800000001EE
:10556000F6D4206829684FF4FE0721F47C313E020E
:1055700041EA00302860207AA389B4F804C04002D0
:105580002D4D2D495B1E227CACF1010C1035091DFF
:10559000A0F5007080B2521ECCF3080C07EA03435A
:1055A00040EA0C00184306EA0262104328600868CB
:1055B000626920F0C000104308600A68A06922F008
:1055C000200202430A60281D0A6822F010020A60C5
:1055D00002684FF6F873E4699A4342EAC402026033
:1055E0000868B9F1000F40F010020A6011D0086895
:1055F000B9F1010F11D040F400100860D8F8000094
:10560000444640F08060C8F80000FDF7FDF905460B
:105610000DE0086840F40020EFE740F48010ECE76C
:10562000FDF7F2F9401B022801D903208DE720681D
:105630000001F5D5504688E7284402582DE9F04787
:10564000454D044689464FF0000A2868C04380074C
:105650000AD0414E283E306820F080503060FDF77F
:10566000D3F90746B04608E00120BDE8F08700BF47
:10567000FDF7CAF9C01B022867D8D8F800008000DF
:10568000F6D4208829684FF4FE0721F07C713E0291
:1056900041EA00502860207AA389B4F804C040028F
:1056A0002D4D2D495B1E227CACF1010C1835091DD6
:1056B000A0F5007080B2521ECCF3080C07EA034339
:1056C00040EA0C00184306EA0262104328600868AA
:1056D000626920F44060104308600A68A06922F4FF
:1056E000007202430A60281D0A6822F480720A6070
:1056F00002684FF6F873E4699A4342EAC402026012
:105700000868B9F1000F40F480720A6011D008688F
:10571000B9F1010F11D040F080700860D8F8000096
:10572000444640F08050C8F80000FDF76DF905468A
:105730000DE0086840F48000EFE740F40000ECE77B
:10574000FDF762F9401B022801D903208DE720688C
:105750008000F5D5504688E7284402587047FDF789
:1057600063BB0000F0B5CBB04C212FA8FAF7C9FD00
:10577000202142A8FAF7C5FDBC216846FAF7C1FD11
:105780000220FEF707F92E492E480A6822F001028E
:105790000A6009680168002421F4404141F4004195
:1057A0000160016801F440414A9101688904FCD517
:1057B00002202121C20301230526CDE92F1239AA97
:1057C0003593602738900A2182E8C10008253E9071
:1057D000CDE93C01CDE93F542FA84194FEF790FF5D
:1057E0004FF4FA7618B13046FFF740FBFBE742AAC8
:1057F0003F20032182E833000121469442A84794C8
:1058000048944994FEF746FD18B13046FFF72EFB49
:10581000FBE70D48009041046846CDE92041FEF7C2
:10582000EBF818B13046FFF721FBFBE74FF40022FD
:1058300000205101FEF71AFFFEF7D6F84BB0F0BD7D
:105840002C0400581848025808000400214A30B5BA
:10585000214914680020204B44F470041460103374
:105860000A681E4D42F001020A6018600A681A4B6D
:105870002A400A6018331C1D251D174A186028325B
:105880002060131D28601C1D251D10602A1D186036
:10589000131D20601C1D2860251D106018602060ED
:1058A00028600A680C4B0E4C22F4802260330A6098
:1058B000186020686FF30F00B0F1005F03D2094950
:1058C0000120C1F808014FF00060024980390860EA
:1058D00030BD000088ED00E0004402587FEDF6EA9C
:1058E0000010005C0080005110B5D0F8B42252685E
:1058F0009047002010BD13460A46002110B500F065
:1059000087FA002010BD13460A46002110B500F0AA
:1059100018FB002010BD10B58021044600F0F6FAF7
:105920002046BDE81040002100F0F0BA10B5C0F8E4
:105930005C210323C0F894321346C0F860210A4664
:10594000002100F065FA002010BD0521002310B5EC
:105950001A46C0F89412194600F05AFA002010BDF9
:1059600010B5C2610223C0F89432134602620A469F
:10597000002100F0E6FA002010BD0421002310B53C
:105980001A46C0F89412194600F0DBFA002010BD48
:1059900004A00A46024910B500F0E1F8004810BD25
:1059A0008CA1002455564320436F6E666967000042
:1059B00012200880004870479001002404A00A4685
:1059C000024910B500F0CBF8004810BD8CA10024AE
:1059D00055564320496E7465726661636500000028
:1059E00004200880004870478C01002404A00A4667
:1059F000024910B500F0B3F8004810BD8CA1002496
:105A000053544D6963726F656C656374726F6E6930
:105A10006373000004A00A46024910B500F09FF825
:105A2000004810BD8CA1002453544D3332205553EF
:105A30004220566964656F20436C617373000000F7
:105A400004A00A46024910B500F089F8004810BDCC
:105A50008CA10024303030303030303030303141A3
:105A600000000000F8B504460D460020ADF8000027
:105A70004888010A082951D2DFE801F050040917CB
:105A80005050454ED4F8B012207C0A6819E0207CB2
:105A900002260028D4F8B40205D0C16A68468847B7
:105AA0000146467047E0816AF8E7C1B2062921D273
:105AB000DFE801F0030A1014181CD4F8B0024268A1
:105AC00005E06946904725E0D4F8B00282682AB321
:105AD000207CF6E7D4F8B002C268F8E7D4F8B00248
