:020000040800F2
:1000000068AE0024AD020008396D000833620008B4
:10001000790810083F0010089583000800000000D0
:10002000000000000000000000000000077E000843
:10003000150210080000000061091008097E000880
:10004000C7020008C7020008C7020008C70200086C
:10005000C7020008C7020008C7020008C70200085C
:10006000C7020008C7020008C702000855050008BB
:10007000C7020008C7020008C7020008C70200083C
:10008000C7020008C7020008C7020008C70200082C
:10009000C7020008C7020008C7020008C70200081C
:1000A000C7020008C7020008C7020008C70200080C
:1000B000C7020008C7020008C7020008C7020008FC
:1000C000C7020008C7020008C7020008C7020008EC
:1000D000C7020008C7020008C7020008C7020008DC
:1000E000C7020008C702000800000000C70200089D
:1000F000C7020008C7020008C7020008C7020008BC
:10010000C7020008C7020008C7020008C7020008AB
:10011000C7020008C7020008C7020008C70200089B
:10012000C7020008C7020008C7020008C70200088B
:10013000C7020008C7020008C7020008C70200087B
:1001400000000000000000000000000000000000AF
:10015000C7020008C7020008C7020008C70200085B
:10016000C7020008C7020008C7020008C70200084B
:10017000C7020008C70200086D0110080000000057
:10018000C7020008C7020008C7020008C70200082B
:10019000C7020008C7020008C7020008C70200081B
:1001A000C7020008C7020008C7020008C70200080B
:1001B000C7020008C7020008C7020008C7020008FB
:1001C000C7020008C7020008C7020008C7020008EB
:1001D000C7020008C7020008C7020008C7020008DB
:1001E000C7020008C7020008C7020008C7020008CB
:1001F000C7020008C7020008C7020008C7020008BB
:10020000C7020008C7020008C7020008C7020008AA
:10021000C7020008C90C1008C7020008C70200087E
:10022000C7020008C7020008C7020008000000005B
:10023000C7020008C702000800000000C70200084B
:10024000C7020008C7020008C7020008C70200086A
:10025000C7020008C7020008C7020008C70200085A
:10026000C7020008C7020008C7020008C70200084A
:10027000C7020008C7020008C7020008000000000B
:10028000C7020008C7020008C702000800000000FB
:1002900000000000C7020008DFF80CD000F05CF896
:1002A00000480047D589000868AE0024064880470A
:1002B00006480047FEE7FEE7FEE7FEE7FEE7FEE74B
:1002C000FEE7FEE7FEE7FEE7117F0008990200085F
:1002D000D2B201E000F8012B491EFBD27047002288
:1002E000F6E710B513460A4604461946FFF7F0FF35
:1002F000204610BD2DE9F05F0546002092469B4642
:1003000088460646814640241BE02846414647462B
:100310002246FFF084FE53465A46C01A914110D33C
:10032000114618462246FFF06BFE2D1A67EB0108B6
:100330004F46224601200021FFF062FE17EB000924
:100340004E41201EA4F10104DFDC484631462A4616
:100350004346BDE8F09F0000064C074D06E0E0680C
:1003600040F0010394E8070098471034AC42F6D3FC
:10037000FFF796FFBCB90008DCB9000870B5044669
:100380000D462E48046042202C4908716420886084
:100390000846FFF0A5FE2948808947F6A2718842E9
:1003A00008D12648C08947F27361884202D106F01D
:1003B000D1FC41E06020214908710846FFF090FE21
:1003C0001E48808947F6A27188420AD11B48C0891D
:1003D00042F24161401A022803DC284608F000FC82
:1003E0002AE04220154908710846FFF079FE1348BB
:1003F000808947F6A27188420AD11048C089A0F5C9
:10040000EE402138022803DC284608F0D7FF13E02D
:1004100078200A4908710846FFF062FE0748C08943
:1004200045F24061884203D1284600F179FD03E09E
:10043000002002490871C88170BD00000CA300248F
:10044000FEB504460D4616460121A068CDE90061BF
:1004500002902279511C02232A46206802F05AFF9A
:1004600008B90020FEBD0120FCE770B50546AC6B65
:10047000A06C406D022806D0012084F83500E06CA5
:1004800040F04000E0642046FFF0C5FE70BD70B54E
:100490000646B46BA06B68B3A06C0068006800F4FB
:1004A0000025A06B00F0010078B975B1A06C006860
:1004B000C568E26B082303FB02510022A06C00F028
:1004C00073FDA06B401EA0632FE0A06C0068006865
:1004D00000F4002048BBA06C00680569E26B0823AB
:1004E00003FB02510122A06C00F05EFDA06B401ED8
:1004F000A0631AE0A06C0068006800F4002020B13E
:10050000D4E911010968C8600FE0A06C00680068B8
:1005100000F4002048B9656CE06B042101FB005039
:10052000A16C09680861206CA063A06B216C8842F3
:100530000ED12068C06840F001002168C8602068C2
:10054000006800F00200022802D1012084F8350082
:1005500070BD000010B5024801F0F6F910BD0000B2
:1005600028A100240146374A0868904249D0354AFC
:1005700018320868904244D0324A303208689042BB
:100580003FD0304A4832086890423AD02D4A603213
:100590000868904235D02B4A78320868904230D0B3
:1005A000284A9032086890422BD0264AA832086820
:1005B000904226D0244A0868904222D0224A18321B
:1005C000086890421DD0204A30320868904218D006
:1005D0001D4A48320868904213D01B4A60320868AE
:1005E00090420ED0184A78320868904209D0164AD4
:1005F00090320868904204D0134AA83208689042AA
:1006000001D1012000E00020B0B10A78103A18238F
:10061000B2FBF3F000F007020C4B9A5CCA650328AA
:1006200005D90A686FF30902121D8A6503E00A689A
:100630006FF309028A6503E0086820F0FF0088650F
:10064000886D7047100002401004024038111008F5
:1006500010B502682B4C0368A34222D0294C1434F5
:100660000368A3421DD0274C28340368A34218D046
:10067000244C3C340368A34213D0224C503403680A
:10068000A3420ED01F4C64340368A34209D01D4C12
:1006900078340368A34204D01A4C8C340368A34214
:1006A00001D1012300E000238BB10378083B14241F
:1006B000B3FBF4F1144B03EB81030366124B80335D
:1006C000436601F01F040123A340836618E003780A
:1006D000103B1824B3FBF4F10C4B9A4204D80B4B9B
:1006E000A83B9A4200D30831094B03EB8103036610
:1006F000074B8033436601F01F040123A340836648
:1007000010BD00000854025800580258B8040240B6
:1007100000080240014600208A69D2B98A6A32B1D3
:10072000012A0DD0022A03D0032A10D10EE000BF07
:10073000CA6A02F08072B2F1807F00D1012007E026
:10074000CA6AB2F1C07F00D1012001E000E000BF21
:1007500036E08A69B2F5005F1BD18A6A32B1012A9C
:1007600007D0022A03D0032A11D10AE000BF0120DA
:100770000EE0CA6A02F08072B2F1807F00D10120DF
:1007800006E0CA6AB2F1C07F00D1012000E000BFDC
:1007900016E08A6A32B1012A05D0022A04D0032A5F
:1007A0000CD103E000BF00BF012008E0CA6A02F0DC
:1007B0008072B2F1807F00D1012000E000BF00BF55
:1007C0007047000030B5384D0468AC4249D0364D12
:1007D00018350468AC4244D0334D30350468AC421F
:1007E0003FD0314D48350468AC423AD02E4D60358B
:1007F0000468AC4235D02C4D78350468AC4230D01A
:10080000294D90350468AC422BD0274DA83504689B
:10081000AC4226D0254D0468AC4222D0234D183579
:100820000468AC421DD0214D30350468AC4218D06C
:100830001E4D48350468AC4213D01C4D6035046829
:10084000AC420ED0194D78350468AC4209D0174D32
:1008500090350468AC4204D0144DA8350468AC420D
:1008600001D1012400E0002474B10468636084684D
:10087000402C04D10468A2600468E16012E00468BE
:10088000A1600468E2600DE0046863608468402C45
:1008900004D10468A2600468E16003E00468A16018
:1008A0000468E26030BD0000100002401004024005
:1008B000F0B5856D846D984F0668BE4270D0964F36
:1008C00018370668BE426BD0934F30370668BE4279
:1008D00066D0914F48370668BE4261D08E4F603770
:1008E0000668BE425CD08C4F78370668BE4257D04F
:1008F000894F90370668BE4252D0874FA8370668A6
:10090000BE424DD0854F0668BE4249D0834F18374E
:100910000668BE4244D0814F30370668BE423FD0A1
:100920007E4F48370668BE423AD07C4F6037066833
:10093000BE4235D0794F78370668BE4230D0774F07
:1009400090370668BE422BD0744FA8370668BE4267
:1009500026D0734F0668BE4222D0714F1437066806
:10096000BE421DD06E4F28370668BE4218D06C4F6D
:100970003C370668BE4213D0694F50370668BE4206
:100980000ED0674F64370668BE4209D0644F78378F
:100990000668BE4204D0624F8C370668BE4201D161
:1009A000012600E000263EB1D0E919767E60C66ED1
:1009B00016B1D0E91C767E60574F0668BE4249D01A
:1009C000554F18370668BE4244D0534F303706683B
:1009D000BE423FD0504F48370668BE423AD04E4FD5
:1009E00060370668BE4235D04B4F78370668BE4246
:1009F00030D0494F90370668BE422BD0464FA837BB
:100A00000668BE4226D0454F0668BE4222D0434FFC
:100A100018370668BE421DD0404F30370668BE42C8
:100A200018D03E4F48370668BE4213D03B4F603760
:100A30000668BE420ED0394F78370668BE4209D0EC
:100A4000364F90370668BE4204D0344FA837066848
:100A5000BE4201D1012600E00026DEB190F85C60C4
:100A600006F01F073F26BE40AE600668366826F4D3
:100A7000802607683E60066873608668402E04D151
:100A80000668B2600668F16044E00668B160066816
:100A9000F2603FE0224F0668BE4222D0204F14375A
:100AA0000668BE421DD01E4F28370668BE4218D0C9
:100AB0001B4F3C370668BE4213D0194F50370668AB
:100AC000BE420ED0164F64370668BE4209D0144F9E
:100AD00078370668BE4204D0114F8C370668BE4294
:100AE00001D1012600E00026A6B190F85C6006F076
:100AF0001F070126BE406660066873608668402E48
:100B000004D10668B2600668F16003E00668B1606F
:100B10000668F260F0BD00001000024010040240C0
:100B20000854025803E0FA21052005F04BFFFAE7CC
:100B300010B50446FFF080FB0C490968401AB0F577
:100B40007A7F0AD3FFF078FB0849086008480068FC
:100B50000849086000200649086005480068401CF4
:100B60000349086001200449086010BD0C000024FE
:100B700008000024040000240000002470B504468E
:100B80002068056905F0040004280ED12168486139
:100B9000E06C40F00200E064042084F83500234853
:100BA000A16C0865A06C00F003FD05F002000228AE
:100BB0000ED121684861E06C40F00100E06404203F
:100BC00084F835001948A16C0865A06C00F0F0FCB1
:100BD00005F01000102804D121684861204600F07B
:100BE00077F805F00800082804D1216848612046FC
:100BF000FFF012FB05F00100B8B12068006800F0BA
:100C00000200022805D12068C06820F01E0021687B
:100C1000C8602068C06820F001002168C860012019
:100C2000216848612046FFF783FF70BD6B04000810
:100C300010B504460CB9012010BD94F8350010B968
:100C4000204600F047F8022084F83500A06908B17A
:100C500000216162206800681C4908402168086022
:100C6000616960680843E168084321690843A16835
:100C70000843A1690843216A0843616A0843A16ADD
:100C80000843E16A0843216B084321680968084367
:100C900021680860606810280BD1217F607F41EADD
:100CA0000021A07F41EA0041E07F41EA0060216825
:100CB00088612068C06840F01E002168C86000207C
:100CC000E064012084F835000020B5E707F0E0FF7C
:100CD0007047000010B586B00446142101A8FFF744
:100CE000FEFA6049206888427ED100BF5E480068F5
:100CF00040F001005C4908600846006800F001000F
:100D0000009000BF00BF00BF081D006840F0100049
:100D1000091D08600846006800F01000009000BF40
:100D200000BF00BF0846006840F0010008600846A8
:100D3000006800F00100009000BF00BF00BF08463F
:100D4000006840F0040008600846006800F00400F5
:100D5000009000BF00BF00BF0846006840F00800D8
:100D600008600846006800F00800009000BF00BF5F
:100D700000BF0846006840F00200086008460068AE
:100D800000F00200009000BF00BF7320019002201D
:100D900002900020039004900D20059001A9334893
:100DA00001F0E2FF50200190022002900020039009
:100DB00004900D20059001A92D4801F0D5FFC02019
:100DC0000190022002900020039004900D200590D5
:100DD00001A9284801F0C8FF0820019002200290D4
:100DE00000200390049000E039E00D20059001A957
:100DF000214801F0B9FF80200190022002900020DC
:100E0000039004900D20059001A91C4801F0ACFF4F
:100E10001B481C4908604B2048600021194881602C
:100E2000C1604FF480610161890041618900816185
:100E30008911C16100210162416201F001FB08B129
:100E4000FFF770FE00BF0F48A064846300BF00225C
:100E500011464E2002F0AAFC4E20FFF0CBFA06B05D
:100E600010BD000000000248DC4402580010025887
:100E70000000025800080258000C025800040258F2
:100E80001000024028A100242DE9F84304460F4633
:100E900015461E4600BF94F83400012802D10220F6
:100EA000BDE8F883012084F8340000BF022084F8F4
:100EB00035002068006840F48040216808602068A0
:100EC000006820F00200216808602068006838434C
:100ED000216808603248A16CC8633248A16CC864BC
:100EE0000020A16C0865A0632064E0636064B6F52F
:100EF000803F15D2226802F1280133462A46A06CB1
:100F000001F02EFD00283DD04020E064012084F84F
:100F1000350000BF002084F8340000BF0120BFE787
:100F20001F48A16C48640120A063E663656405E086
:100F3000E06B4008E063A06B4000A063E06BB0F59D
:100F4000803FF5D2A06B801EA063A06B2064E06B95
:100F5000042101FB0058E06B0090226802F1280197
:100F600043462A46A06C00F087F858B14020E06460
:100F7000012084F8350000BF002084F8340000BF51
:100F800001208DE72068006840F0010021680860BA
:100F900000BF002084F8340000BF00BF80E70000DD
:100FA0008F0400086B04000810B50346304C186825
:100FB000A04249D02E4C18341868A04244D02C4C82
:100FC00030341868A0423FD0294C48341868A042F9
:100FD0003AD0274C60341868A04235D0244C78347D
:100FE0001868A04230D0224C90341868A0422BD010
:100FF0001F4CA8341868A04226D01E4C1868A04286
:1010000022D01C4C18341868A0421DD0194C303422
:101010001868A04218D0174C48341868A04213D062
:10102000144C60341868A0420ED0124C7834186802
:10103000A04209D00F4C90341868A04204D00D4C47
:10104000A8341868A04201D1012000E0002030B18E
:1010500012B91868C16008E01868016105E012B9AA
:101060001868C16001E018680161002010BD00002F
:1010700010000240100402402DE9F04704460F46DC
:1010800090461E46DDF820904FF0000AA0688028A8
:1010900004D1400060650120BDE8F08700BF94F8EE
:1010A0003400012801D10220F6E7012084F8340041
:1010B00000BF94F8350001287ED1022084F8350065
:1010C00000206065F9492068884249D0F749183105
:1010D0002068884244D0F5493031206888423FD0AA
:1010E000F2494831206888423AD0F049603120689E
:1010F000884235D0ED4978312068884230D0EB49BC
:101100009031206888422BD0E849A8312068884275
:1011100026D0E7492068884222D0E5491831206866
:1011200088421DD0E24930312068884218D0E04919
:1011300048312068884213D0DD49603120688842F8
:101140000ED0DB4978312068884209D0D8499031E7
:101150002068884204D0D649A8312068884201D14D
:10116000012000E0002090B12068006840F4802059
:101170002168086020680661A06D00F1080594F8F8
:101180005C0000F01F013F208840286011E02068CB
:10119000006848F220010843216808602068066161
:1011A000A06D051D94F85C0000F01F01012088402F
:1011B00028604B46424600E0EFE139462046FFF703
:1011C00001FBBA492068884270D0B84918312068BC
:1011D00088426BD0B54930312068884266D0B34927
:1011E00048312068884261D0B04960312068884227
:1011F0005CD0AE4978312068884257D0AB499031F5
:101200002068884252D0A949A831206888424DD030
:10121000A7492068884249D0A549183120688842EA
:1012200044D0A3493031206888423FD0A04948319A
:10123000206888423AD09E4960312068884235D083
:101240009B4978312068884230D099499031206894
:1012500088422BD09649A8312068884226D09549EB
:101260002068884222D093491431206888421DD0DA
:10127000904928312068884218D08E493C31206836
:10128000884213D08B495031206888420ED089495A
:1012900064312068884209D08649783120688842C4
:1012A00004D084498C312068884201D1012000E0BB
:1012B000002038B1D4E919104860E06E10B1D4E9CB
:1012C0001C10486079492068884249D07749183114
:1012D0002068884244D075493031206888423FD028
:1012E00072494831206888423AD07049603120689C
:1012F000884235D06D4978312068884230D06B49BA
:101300009031206888422BD06849A83120688842F3
:1013100026D067492068884222D065491831206864
:1013200088421DD0624930312068884218D0604917
:1013300048312068884213D05D4960312068884276
:101340000ED05B4978312068884209D058499031E5
:101350002068884204D05649A8312068884201D1CB
:10136000012000E00020C0B12068006820F01E00CD
:1013700040F01600216808602068406940F0800055
:1013800021684861206C08B9A06CC0B12068006871
:1013900040F008002168086011E02068006820F033
:1013A0000E0040F00A0021680860206C08B9A06CAB
:1013B00028B12068006840F00400216808603B49BB
:1013C0002068884270D039491831206888426BD033
:1013D000364930312068884266D034494831206827
:1013E000884261D031496031206888425CD02F4901
:1013F00078312068884257D02C4990312068884243
:1014000052D02A49A831206888424DD02849206806
:10141000884249D0264918312068884244D024495E
:101420003031206888423FD02149483120688842C5
:101430003AD01F4960312068884235D01C49783144
:101440002068884230D01A499031206888422BD0D9
:101450001749A8312068884226D01649206888425A
:1014600022D014491431206888421DD011492831F6
:101470002068884218D00F493C312068884213D038
:101480000C495031206888420ED00A4964312068E6
:10149000884209D0074978312068884204D005493C
:1014A0008C312068884207D1012006E010000240FC
:1014B0001004024008540258002090B1206E0068C9
:1014C00000F4803028B1206E006840F48070216EF6
:1014D0000860E06E28B1E06E006840F48070E16E54
:1014E000086031492068884249D02F491831206866
:1014F000884244D02C493031206888423FD02A4964
:101500004831206888423AD02749603120688842B3
:1015100035D0254978312068884230D02249903131
:10152000206888422BD02049A8312068884226D0E4
:101530001E492068884222D01C4918312068884200
:101540001DD01A4930312068884218D017494831D7
:101550002068884213D015496031206888420ED037
:10156000124978312068884209D0104990312068AA
:10157000884204D00D49A8312068884206D12068ED
:10158000006840F00100216808600BE020680068F6
:1015900040F001002168086004E04FF400606065DD
:1015A0004FF0010A504677E5100002401004024057
:1015B00070B504460CB9012070BD94F835000228BE
:1015C00003D0802060650120F6E7DC49206888426E
:1015D00049D0DA4918312068884244D0D74930319F
:1015E000206888423FD0D5494831206888423AD0A7
:1015F000D24960312068884235D0D049783120689E
:10160000884230D0CD499031206888422BD0CB49D8
:10161000A8312068884226D0C9492068884222D053
:10162000C7491831206888421DD0C549303120682B
:10163000884218D0C24948312068884213D0C04936
:101640006031206888420ED0BD49783120688842D8
:1016500009D0BB4990312068884204D0B849A831EC
:101660002068884201D1012000E00020F0B304206E
:1016700084F83500B149206888424BD0AF49183111
:101680002068884246D0AD4930312068884241D038
:10169000AA494831206888423CD0A8496031206876
:1016A000884237D0A54978312068884232D0A34992
:1016B0009031206888422DD0A049A8312068884206
:1016C00028D09F492068884224D09D49183120683D
:1016D00088421FD09A493031206888421AD09849F0
:1016E00048312068884215D0954900E020E06031FB
:1016F000206888420ED0924978312068884209D00B
:101700008F4990312068884204D08D49A8312068E3
:10171000884206D12068006820F001002168086036
:1017200009E12068006820F001002168086002E1FA
:101730002068006820F00E00216808607F4920685A
:10174000884249D07D4918312068884244D07B497D
:101750003031206888423FD078494831206888423B
:101760003AD0764960312068884235D07349783163
:101770002068884230D071499031206888422BD04F
:101780006E49A8312068884226D06D492068884279
:1017900022D06B491831206888421DD06849303109
:1017A0002068884218D0664948312068884213D0A2
:1017B00063496031206888420ED0614978312068E1
:1017C000884209D05E4990312068884204D05C4943
:1017D000A8312068884206D12068006820F0010006
:1017E0002168086005E02068006820F00100216899
:1017F000086052492068884270D0504918312068EA
:1018000088426BD04D4930312068884266D04B49C0
:1018100048312068884261D0484960312068884258
:101820005CD0464978312068884257D0434990318E
:101830002068884252D04149A831206888424DD062
:101840003F492068884249D03D4918312068884284
:1018500044D03B493031206888423FD03849483134
:10186000206888423AD0364960312068884235D0B5
:10187000334978312068884230D03149903120682E
:1018800088422BD02E49A8312068884226D02D4985
:101890002068884222D02B491431206888421DD00C
:1018A000284928312068884218D026493C312068D0
:1018B000884213D023495031206888420ED02149F4
:1018C00064312068884209D01E49783120688842F6
:1018D00004D01C498C312068884201D1012000E0ED
:1018E0000020D8B1206E006820F48070216E08605E
:1018F000A56D94F85C0000F01F010120884068602D
:10190000D4E919104860E06E40B1E06E006820F440
:101910008070E16E0860D4E91C10486000BF0020B0
:1019200084F8340000BF012084F83500206D10B128
:101930002046216D884700203EE60000100002404E
:1019400010040240085402582DE9F84F04460020C4
:101950000090FE4800684FF41651B0FBF1FAA66DF6
:10196000D4F858803768D8F80090F9492068884240
:1019700049D0F74918312068884244D0F4493031C1
:10198000206888423FD0F2494831206888423AD0E6
:10199000EF4960312068884235D0ED4978312068C0
:1019A000884230D0EA499031206888422BD0E849FB
:1019B000A8312068884226D0E6492068884222D093
:1019C000E4491831206888421DD0E249303120684E
:1019D000884218D0DF4948312068884213D0DD4959
:1019E0006031206888420ED0DA4978312068884218
:1019F00009D0D84990312068884204D0D549A8310F
:101A00002068884201D1012000E0002000287DD01C
:101A100094F85C0000F01F0108208840384000283E
:101A200068D0CB492068884249D0C949183120681C
:101A3000884244D0C6493031206888423FD0C449EA
:101A40004831206888423AD0C149603120688842D4
:101A500035D0BF4978312068884230D0BC499031B8
:101A6000206888422BD0BA49A8312068884226D005
:101A7000B8492068884222D0B64918312068884287
:101A80001DD0B44930312068884218D0B14948315E
:101A90002068884213D0AF496031206888420ED058
:101AA000AC4978312068884209D0AA499031206831
:101AB000884204D0A749A8312068884204D1206810
:101AC000006800F0040003E02068006800F00800EF
:101AD00080B12068006820F004002168086094F854
:101AE0005C0000F01F0108208840B060606D40F08D
:101AF0000100606594F85C0000F01F01012088403F
:101B00003840E8B392492068884200E0B8E24BD000
:101B10008F4918312068884246D08D49303120687D
:101B2000884241D08A494831206888423CD088495F
:101B300060312068884237D08549783120688842F2
:101B400032D083499031206888422DD08049A83115
:101B50002068884228D07F492068884224D07D4967
:101B60001831206888421FD07A4930312068884275
:101B70001AD0784948312068884215D0754900E06C
:101B800026E06031206888420ED0724978312068A2
:101B9000884209D06F4990312068884204D06D494D
:101BA000A8312068884204D12068406900F0800094
:101BB00002E020680068002050B194F85C0000F05A
:101BC0001F0101208840B060606D40F00200606538
:101BD00094F85C0000F01F01042088403840E8B30E
:101BE0005B49206888424BD05949183120688842A7
:101BF00046D0574930312068884241D05449483155
:101C0000206888423CD0524960312068884237D0F1
:101C10004F4978312068884232D04D499031206850
:101C200088422DD04A49A8312068884228D04949A5
:101C30002068884224D047491831206888421FD044
:101C400044493031206888421AD0424948312068DE
:101C5000884215D03F496031206800E024E0884286
:101C60000ED03C4978312068884209D039499031FA
:101C70002068884204D03749A8312068884204D1BE
:101C80002068006800F0020002E020680068002080
:101C900050B194F85C0000F01F0104208840B0604F
:101CA000606D40F00400606594F85C0000F01F0176
:101CB000102088403840E8B325492068884251D038
:101CC00023491831206888424CD02149303120689E
:101CD000884247D01E4948312068884242D01C497A
:101CE0006031206888423DD01949783120688842A7
:101CF00038D0174990312068884233D01449A83130
:101D0000206888422ED01349206888422AD0114981
:101D100018312068884225D00E4930312068884229
:101D200020D00C494831206888421BD009496031D5
:101D3000206800E04DE0884214D0064978312068E0
:101D400088420FD003499031206805E01C00002430
:101D50001000024010040240884203D0FE4920686F
:101D6000884204D12068006800F0080003E0206881
:101D7000006800F0040060B394F85C0000F01F01FC
:101D800010208840B0602068006800F4802080B196
:101D90002068006800F4002028B9206CC8B12046F3
:101DA000216C884715E0A06C98B12046A16C88474B
:101DB0000FE02068006800F4807028B9206800688F
:101DC00020F0080021680860206C10B12046216CCA
:101DD000884794F85C0000F01F01202088403840BC
:101DE00000287DD0DD492068884249D0DB49183180
:101DF0002068884244D0D9493031206888423FD099
:101E0000D6494831206888423AD0D44960312068A8
:101E1000884235D0D14978312068884230D0CF49C6
:101E20009031206888422BD0CC49A8312068884264
:101E300026D0C949A8392068884221D0C64990399E
:101E4000206888421CD0C44978392068884217D05D
:101E5000C14960392068884212D0BF49483920689A
:101E600088420DD0BC4930392068884208D0BA4930
:101E700018392068884203D0B7492068884204D1C5
:101E80002068006800F0100003E02068006800F09F
:101E9000020028B394F85C0000F01F012020884065
:101EA000B06094F8350004282DD12068006820F037
:101EB0001600216808602068406920F080002168D1
:101EC0004861206C08B9A06C28B12068006820F037
:101ED00008002168086094F85C0000F01F0100E031
:101EE0003FE03F208840B06000BF002084F834000D
:101EF00000BF012084F83500206D10B12046216D0F
:101F00008847BDE8F88F2068006800F4802080B121
:101F10002068006800F4002028B9606C08B32046EF
:101F2000616C88471DE0E06BD8B12046E16B8847C3
:101F300017E02068006800F4807068B920680068C5
:101F400020F010002168086000BF002084F83400F1
:101F500000BF012084F83500E06B10B12046E16B32
:101F60008847606D00287DD0606D00F00100E8B307
:101F7000042084F835007949206888424BD077499D
:101F800018312068884246D0744930312068884230
:101F900041D072494831206888423CD06F49603155
:101FA0002068884237D06D4978312068884232D025
:101FB0006A499031206888422DD06849A83120684C
:101FC000884228D06449A8392068884223D06249D1
:101FD0009039206888421ED05F497839206888424D
:101FE00019D05D4960392068884200E041E012D094
:101FF00059494839206888420DD0574930392068FE
:10200000884208D0544918392068884203D0524980
:102010002068884206D12068006820F0010021680D
:10202000086005E02068006820F001002168086071
:1020300000BF0098401C0090504500D905E0206882
:10204000006800F001000028F3D100BF00BF0020AD
:1020500084F8340000BF2068006800F0010028B157
:10206000032000E00BE084F8350002E0012084F852
:102070003500E06C002802D02046E16C8847D9E1A9
:1020800037492068884222D0354914312068884277
:102090001DD0334928312068884218D030493C315E
:1020A0002068884213D02E495031206888420ED0D3
:1020B0002B4964312068884209D029497831206849
:1020C000884204D026498C312068884201D1012001
:1020D00000E000200028D2D02068056894F85C0059
:1020E00000F01F010420884000EA0900D0B305F089
:1020F0000400B8B394F85C0000F01F01042088408D
:10210000C8F8040005F4004080B105F4803030B90F
:10211000A06C0028B3D02046A16C88478AE1206CCF
:102120000028ACD02046216C884783E105F02000D0
:10213000F0BB0A492068884252D00849183120680B
:1021400088424DD0054930312068884248D0034943
:1021500048312068884206E0B8040240100002407E
:10216000085402584FE03BD0B3492068884237D02A
:10217000B14918312068884232D0AF4930312068E7
:1021800088422DD0AC4948312068884228D0AB49DC
:102190002068884224D0A9491831206888421FD07D
:1021A000A6493031206888421AD0A449483100E05D
:1021B00023E02068884213D0A0496031206888421B
:1021C0000ED09E4978312068884209D09B499031D1
:1021D0002068884204D09949A8312068884206D1F5
:1021E0002068006820F008002168086005E0206889
:1021F000006820F0040021680860206C10B32046BD
:10220000216C884716E194F85C0000F01F01022061
:10221000884000EA0900E8B305F00200D0B394F862
:102220005C0000F01F0102208840C8F8040005F49B
:10223000004070B105F4803028B9606C10B12046C0
:10224000616C8847F6E0E06BF0B32046E16B8847AD
:10225000F0E005F02000C0BB774960392068884273
:102260004DD0754948392068884248D07249303984
:102270002068884243D070491839206888423ED08F
:102280006D49206888423AD06B49183120688842ED
:1022900035D000E04EE068493031206888422ED0C9
:1022A000654948312068884229D0644920688842BD
:1022B00025D0624918312068884220D05F493031EA
:1022C000206888421BD001E06EE02DE05B49483178
:1022D0002068884213D059496031206888420ED066
:1022E000564978312068884209D054499031206895
:1022F000884204D05149A8312068884206D120681C
:10230000006820F014002168086005E0206800687B
:1023100020F00A002168086000BF002084F8340023
:1023200000BF012084F83500E06BE8B32046E16B84
:1023300088477FE094F85C0000F01F010820884087
:1023400000EA090080B305F0080068B33A49603933
:10235000206888424AD0384948392068884245D0A8
:10236000354930392068884240D0334918392068CF
:1023700088423BD030492068884237D02E491831F6
:102380002068884232D02C493031206888422DD0D4
:10239000294948312068884228D028492068884245
:1023A00024D02649183100E044E0206888421DD03E
:1023B000224930312068884218D0204948312068AD
:1023C000884213D01D496031206888420ED01B49D5
:1023D00078312068884209D01849903120688842B5
:1023E00004D01649A8312068884206D120680068C8
:1023F00020F01C002168086005E02068006820F0DB
:102400000E002168086094F85C0000F01F010120B4
:102410008840C8F804000120606500BF002084F8EF
:10242000340000BF012084F83500E06C10B1204674
:10243000E16C884700BF64E5700002401004024070
:102440002DE9F0410446FDF0F7FE804614B9012065
:10245000BDE8F081FE492068884249D0FC49183126
:102460002068884244D0FA493031206888423FD001
:10247000F7494831206888423AD0F54960312068F0
:10248000884235D0F24978312068884230D0F0490E
:102490009031206888422BD0ED49A83120688842CD
:1024A00026D0EC492068884222D0EA4918312068B9
:1024B00088421DD0E74930312068884218D0E5496C
:1024C00048312068884213D0E24960312068884250
:1024D0000ED0E04978312068884209D0DD4990313A
:1024E0002068884204D0DB49A8312068884201D1A5
:1024F000012000E00020002873D0606A00B100BF16
:1025000000BF002084F8340000BF022084F83500AA
:10251000CF492068884249D0CD4918312068884287
:1025200044D0CB493031206888423FD0C849483137
:10253000206888423AD0C64960312068884235D048
:10254000C34978312068884230D0C1499031206831
:1025500088422BD0BE49A8312068884226D0BD4988
:102560002068884222D0BB491831206888421DD09B
:10257000B84930312068884218D0B64948312068BF
:10258000884213D0B3496031206888420ED0B149E7
:1025900078312068884209D0AE499031206888425D
:1025A00004D0AC49A8312068884206D12068006870
:1025B00020F001002168086005E02068006820F034
:1025C0000100216808600DE0FDF036FEA0EB080078
:1025D000052807D920206065032084F835000120F4
:1025E00036E76AE02068006800F001000028EBD1BF
:1025F0002068056898480540D4E90201084321692C
:10260000084361690843A1690843E1690843216AF5
:1026100008430543606A042803D1D4E90B01084349
:1026200005438E4800686FF30F00B0F1005F1DD3C3
:102630006068292802D360682E2811D960683F2875
:1026400002D3606842280BD96068472802D36068CB
:10265000482805D960684F2804D36068522801D8FB
:10266000012000E0002008B145F4801520680560D5
:102670002068456925F00705606A0543606A0428FB
:102680000DD1A06A0543E06A48B12046FEF742F842
:1026900028B140206065012084F83500D8E6206824
:1026A00045612046FDF75EFF064694F85C0000F0A9
:1026B0001F013F208840B0609EE069492068884241
:1026C00022D067491431206888421DD064492831DE
:1026D0002068884218D062493C312068884213D073
:1026E0005F495031206888420ED05D4964312068CE
:1026F000884209D05A4978312068884204D0584924
:102700008C312068884201D1012000E00020E0B334
:1027100053492068884222D05149143120688842A8
:102720001DD04F4928312068884218D04C493C318F
:102730002068884213D04A495031206888420ED020
:10274000474964312068884209D04549783120687A
:10275000884204D042498C312068884201D101204E
:1027600000E0002000B100BF00BF002084F834006A
:1027700000BF022084F8350020680568394805400C
:10278000A068402802D1102106E02EE0A068802831
:1027900001D1C10100E00021E06841EAD0012069D7
:1027A00041EAD001606941EAD001A06941EAD00163
:1027B000E06941EAD001206A41EA1010054320682F
:1027C000056027492068401A1421B0FBF1F0800011
:1027D000E0652046FDF7C6FE074694F85C0000F071
:1027E0001F0101208840786006E0402060650320DA
:1027F00084F8350001202BE61549206888427FD0F7
:1028000013491831206888427AD011493031206844
:10281000884275D00E4948312068884270D00C49F2
:102820006031206888426BD009497831206888423D
:1028300066D0074990312068884261D00449A831A8
:10284000206888425CD003492068884258D00BE059
:1028500010000240100402403F8010FE0010005C97
:10286000085402580F00FEFF3B4918312068884287
:1028700046D0394930312068884241D03649483104
:10288000206888423CD0344960312068884237D083
:10289000314978312068884232D02F499031206800
:1028A00088422DD02C49A8312068884228D02B4955
:1028B0002068884224D029491431206888421FD0DA
:1028C00026492831206888421AD024493C312068A2
:1028D000884215D0214950312068884210D01F49C4
:1028E0006431206888420BD01C49783120688842C6
:1028F00006D01A498C312068884200E000E001D1FE
:10290000012000E0002000B32046FDF7A1FEA068F2
:10291000802801D1002060602079216E0860D4E910
:1029200019104860606860B16068082809D82046BE
:10293000FDF024FC0020E16E0860D4E91C10486022
:1029400003E00020E06620676067002060650120EA
:1029500084F8350000207BE510040240085402583A
:102960002DE9F04104460D4616461F464FF000087B
:1029700014B90120BDE8F08100BF94F834000128AB
:1029800001D10220F6E7012084F8340000BF94F85A
:10299000350001287ED1022084F8350000206065D2
:1029A000E4492068884249D0E249183120688842C9
:1029B00044D0E0493031206888423FD0DD49483179
:1029C000206888423AD0DB4960312068884235D09F
:1029D000D84978312068884230D0D6499031206873
:1029E00088422BD0D349A8312068884226D0D249CA
:1029F0002068884222D0D0491831206888421DD0F2
:102A0000CD4930312068884218D0CB494831206800
:102A1000884213D0C8496031206888420ED0C64928
:102A200078312068884209D0C349903120688842B3
:102A300004D0C149A8312068884206D120680068C6
:102A400020F001002168086005E02068006820F09F
:102A50000100216808603B46324629462046FDF7C2
:102A600027FFB449206888424BD0B249183120680A
:102A7000884246D0AF4930312068884241D0AD49C4
:102A80004831206888423CD0AA4960312068884299
:102A900037D000E042E1A74978312068884230D041
:102AA000A4499031206888422BD0A249A8312068DF
:102AB000884226D0A0492068884222D09E491831F9
:102AC000206888421DD09C4930312068884218D047
:102AD000994948312068884213D09749603120686D
:102AE00088420ED0944978312068884209D09249B2
:102AF00090312068884204D08F49A83120688842EC
:102B000001D1012000E0002080B12068006820F0A1
:102B10001E0040F0160021680860206CB0B12068EB
:102B2000006840F00800216808600FE02068006835
:102B300020F00E0040F00A0021680860206C28B1E7
:102B40002068006840F00400216808607949206826
:102B5000884270D077491831206888426BD0754917
:102B600030312068884266D07249483120688842F6
:102B700061D070496031206888425CD06D497831FD
:102B80002068884257D06B4990312068884252D0E3
:102B90006849A831206888424DD06749206888423A
:102BA00049D0654918312068884244D062493031A3
:102BB000206888423FD060494831206888423AD036
:102BC0005D4960312068884235D05B4978312068A2
:102BD000884230D058499031206888422BD05649DD
:102BE000A8312068884226D054492068884222D0E3
:102BF00052491431206888421DD05049283120683C
:102C0000884218D04D493C312068884213D04B4946
:102C10005031206888420ED048496431206888428B
:102C200009D0464978312068884204D043498C3124
:102C30002068884201D1012000E0002090B1206E80
:102C4000006800F4803028B1206E006840F4807085
:102C5000216E0860E06E28B1E06E006840F480707C
:102C6000E16E086033492068884249D03149183103
:102C70002068884244D02F493031206888423FD0B4
:102C80002C494831206888423AD02A49603120686E
:102C9000884235D0274978312068884230D025498C
:102CA0009031206888422BD02249A8312068884280
:102CB00026D021492068884222D01F491831206837
:102CC00088421DD01C4930312068884218D01A49EA
:102CD00048312068884213D0174960312068884203
:102CE0000ED0154978312068884209D012499031B8
:102CF0002068884204D01049A8312068884206D153
:102D00002068006840F001002168086010E0206839
:102D1000006840F001002168086009E000BF002061
:102D200084F8340000BF4FF4006060654FF0010884
:102D300040461FE6100002401004024008540258AA
:102D400070B50446FDF078FA06462546681C10B1B9
:102D500004480078054400BFFDF06EFA801BA842CD
:102D6000FAD370BD18000024F8B502460023734D55
:102D7000DEE001279F400E6806EA0704002C71D0B0
:102D80004E68012E08D04E68022E05D04E68112ED6
:102D900002D04E68122E13D190685F000326BE4009
:102DA000B0435F00CE68BE4030439060506801265B
:102DB0009E40B0430E79C6F300169E4030435060EB
:102DC000D0685F000326BE40B0435F008E68BE40FF
:102DD0003043D0604E68022E02D04E68122E13D1BE
:102DE000DF0802F1200656F827005E07F70E0F26CF
:102DF000BE40B0435F07FF0E0E69BE403043DF08A0
:102E000002F1200646F8270010685F000326BE4046
:102E1000B0430E7906F003065F00BE4030431060F9
:102E20004E6806F08056B6F1805F1BD100BF444E5D
:102E3000366846F00206424F3E603E46366806F06F
:102E40000206009600BF00BF3E4E9F0856F82700BE
:102E50009E07370F0F26BE40B0433B4EB24202D111
:102E600000262EE063E0394EB24201D1012628E06F
:102E7000374EB24201D1022623E0364EB24201D192
:102E800003261EE0344EB24201D1042619E0334E2F
:102E9000B24201D1052614E0314EB24201D10626DC
:102EA0000FE0304EB24201D107260AE02E4EB24268
:102EB00001D1082605E02D4EB24201D1092600E0DD
:102EC0000A269F073F0FBE4030431E4E9F0846F81C
:102ED00027002868A0434E6806F48036B6F5803F88
:102EE00000D1204328606868A0434E6806F400368D
:102EF000B6F5003F00D1204368604FF0B04630681F
:102F0000A0434E6806F48016B6F5801F00D120431A
:102F10004FF0B04630607068A0434E6806F400166B
:102F2000B6F5001F00D120434FF0B04670605B1C27
:102F30000E68DE40002E7FF41CAFF8BD8000005804
:102F4000F4440258080400580000025800040258D3
:102F500000080258000C02580010025800140258D1
:102F600000180258001C0258002002580024025881
:102F700002480068C0F30B00704700000010005CBE
:102F800001480068000C70470010005C10B5044652
:102F90000CB9012010BD94F8410028B9002084F834
:102FA0004000204600F052FB242084F841002068B5
:102FB000006820F0010021680860606820F07060FF
:102FC000216808612068806820F4004021688860DA
:102FD000E068012805D1A06840F4004021688860BD
:102FE00004E0A06840F4044021688860E06802289A
:102FF00002D1800221684860206840681349084374
:10300000216848602068C06820F400402168C860DA
:10301000D4E904010843A16940EA01202168C8609D
:10302000D4E907010843216808602068006840F07F
:1030300001002168086000206064202084F84100BD
:103040000020206384F8420000BFA3E70080000254
:103050002DE9F8430446894616461F46DDF82080D0
:1030600094F84100202873D100BF94F84000012853
:1030700002D10220BDE8F883012084F8400000BF9F
:10308000FDF0DAF8054619230122D1032046009508
:1030900003F05CF908B10120ECE7222084F841003C
:1030A000102084F8420000206064666267856063D7
:1030B000608DFF280CD9FF2020853C48009094F8B3
:1030C00028204FF0807349462046FDF0C1FA0BE0FE
:1030D000608D20853548009094F828204FF00073CB
:1030E00049462046FDF0B4FA3FE02A4641462046D4
:1030F00003F05CF908B10120BCE72068406A616A0E
:103100000870606A401C6062208D401E2085608DC2
:10311000401E6085608D40B3208D30BB4346002249
:1031200080212046009503F011F908B10120A1E7A4
:10313000608DFF280DD9FF2020850020009094F895
:1031400028204FF0807349462046FDF081FA0CE0BC
:103150002AE0608D20850020009094F828204FF010
:10316000007349462046FDF073FA608D0028BCD1FB
:103170002A4641462046FDF085FA08B1012079E74C
:1031800020202168C86120684068094908402168FA
:103190004860202084F84100002084F8420000BFED
:1031A00084F8400000BF65E7022063E70024008048
:1031B00000E800FE2DE9F8430446894616461F46FE
:1031C000DDF8208094F84100202871D100BF94F8E8
:1031D0004000012802D10220BDE8F883012084F8D4
:1031E000400000BFFDF028F8054619230122D10355
:1031F0002046009503F0AAF808B10120ECE7212051
:1032000084F84100102084F8420000206064666267
:1032100067856063608DFF280BD9FF2020853B48C0
:10322000009094F82820C30249462046FDF010FA89
:103230000AE0608D20853548009094F8282003032B
:1032400049462046FDF004FA3FE02A464146204622
:10325000FDF043FA08B10120BEE7606A00782168FA
:103260008862606A401C6062608D401E6085208DAF
:10327000401E2085608D40B3208D30BB4346002228
:1032800080212046009503F061F808B10120A3E7F2
:10329000608DFF280DD9FF2020850020009094F834
:1032A00028204FF0807349462046FDF0D1F90CE00C
:1032B0002AE0608D20850020009094F828204FF0AF
:1032C000007349462046FDF0C3F9608D0028BCD14B
:1032D0002A4641462046FDF0D5F908B101207BE79A
:1032E00020202168C8612068406809490840216899
:1032F0004860202084F84100002084F8420000BF8C
:1033000084F8400000BF67E7022065E700200080E6
:1033100000E800FE2DE9FC5F0446894692469B4684
:10332000DDE90C780E9E94F8410020287ED117B17B
:10333000B8F1000F05D14FF4007060640120BDE8C2
:10334000FC9F00BF94F84000012801D10220F6E75D
:10335000012084F8400000BFFCF06EFF05461923F1
:103360000122D1032046009502F0F0FF08B10120B0
:10337000E5E7222084F84100402084F84200002044
:1033800060646762A4F82A8060635B4652464946DF
:103390002046CDE90065FDF01DF930B100BF0020E9
:1033A00084F8400000BF0120C9E7608DFF280CD9D8
:1033B000FF2020853D48009094F828204FF080732E
:1033C00049462046FDF044F90BE0608D20853748E2
:1033D000009094F828204FF0007349462046FDF0F5
:1033E00037F900BF3346002204212046009502F041
:1033F000ADFF08B10120A2E72068406A616A087049
:10340000606A401C6062208D401E2085608D401ED9
:103410006085608D48B3208D38BB33460022802103
:103420002046009502F092FF18B100E03CE0012038
:1034300085E7608DFF280CD9FF20208500200090B3
:1034400094F828204FF0807349462046FDF000F99B
:103450000BE0608D20850020009094F828204FF02C
:10346000007349462046FDF0F3F8608D0028B9D17D
:103470002A4631462046FDF005F908B101205EE7F5
:1034800020202168C86120684068094908402168F7
:103490004860202084F84100002084F8420000BFEA
:1034A00084F8400000BF4AE7022048E7002400807B
:1034B00000E800FE2DE9FC5F0446894692469B46E3
:1034C000DDE90C780E9E94F8410020287DD117B1DB
:1034D000B8F1000F05D14FF4007060640120BDE821
:1034E000FC9F00BF94F84000012801D10220F6E7BC
:1034F000012084F8400000BFFCF09EFE0546192321
:103500000122D1032046009502F020FF08B10120DE
:10351000E5E7212084F84100402084F842000020A3
:1035200060646762A4F82A8060635B46524649463D
:103530002046CDE9006502F0CBFE30B100BF00208F
:1035400084F8400000BF0120C9E7608DFF280CD936
:10355000FF2020850020009094F828204FF08073F1
:1035600049462046FDF074F80BE0608D2085002070
:10357000009094F828204FF0007349462046FDF053
:1035800067F800BF2A4631462046FDF0A6F808B18C
:103590000120A4E7606A007821688862606A401CA4
:1035A0006062608D401E6085208D401E2085608D8C
:1035B00040B3208D30BB3346002280212046009549
:1035C00002F0C4FE10B1012089E73AE0608DFF28C7
:1035D0000CD9FF2020850020009094F828204FF07F
:1035E000807349462046FDF033F80BE0608D20855E
:1035F0000020009094F828204FF0007349462046A0
:10360000FDF026F8608D0028BCD12A4631462046C0
:10361000FDF038F808B1012061E720202168C86179
:10362000206840680849084021684860202084F8E4
:103630004100002084F8420000BF84F8400000BF31
:103640004DE702204BE7000000E800FE10B586B011
:103650000446142101A8FCF742FE1949206888425B
:103660002BD100BF1748006840F0020015490860E0
:103670000846006800F00200009000BF00BF4FF451
:1036800040700190122002900020039004900420CA
:10369000059001A90C48FFF767FB00BF09480830F7
:1036A000006840F4001007490831086008460068C7
:1036B00000F40010009000BF00BF06B010BD000075
:1036C00000540040E04402580004025870B504461B
:1036D0001148007808B9012070BD0F4800784FF4F8
:1036E0007A71B1FBF0F00D490968B1FBF0F528469D
:1036F00002F0E8FA08B10120EEE7102C07D2002210
:103700002146501E00F052F80548046001E00120F7
:10371000E2E70020E0E70000180000241C0000247D
:10372000140000244178154A11600178F9B1121D86
:1037300041681160017B0907C27A41EA0261827A1D
:1037400041EAC241427B41EA8241827B41EA4241F5
:10375000C27B41EA0241427A41EA0221027A41EA0D
:10376000420102781143054A0832116005E0002148
:10377000024A121D1160121D1160704798ED00E0A1
:1037800000BF00BF00BFBFF35F8F00BF00BF00BF1F
:103790000548006820F48030034908600020024991
:1037A000703108607047000024ED00E02DE9F05F03
:1037B00080460D46164604F0EFFD074639462A4678
:1037C000334601F00700C0F1070ABAF1040F02D92D
:1037D0004FF0040A01E0C0F1070AD14600F1040AE3
:1037E000BAF1070F02D24FF0000A01E0A0F1030A7C
:1037F000D4464FF0010A0AFA09FAAAF1010A0AEAC4
:10380000020A0AFA0CFA4FF0010B0BFA0CFBABF1AF
:10381000010B0BEA030B4AEA0B0421464046FDF07C
:10382000A5FABDE8F09F000000BF00F00702064BBC
:1038300019684FF6FF031940044B0B4343EA02217A
:10384000014B196000BF70470CED00E00000FA0565
:1038500070B5044615480068C0F3800048B91348A5
:10386000006800F00700A04201D0012070BD0020D8
:10387000FCE70E48006820F0070020430B49086071
:10388000FCF0DAFC054607E0FCF0D6FC401BB0F586
:103890007A7F01D90120E9E7044808380068C0F3BD
:1038A00040300028F0D00020E0E700000C4802582B
:1038B0002DE9F04104460025A846206800F000608C
:1038C000B0F1006F30D1606E48B1B0F5801F0DD0FF
:1038D000B0F5001F10D0B0F5401F15D113E0F94826
:1038E000006840F40030F74908600FE00221201D15
:1038F00003F094FA054609E0022104F1240003F0E4
:103900003FFB054602E001E0012500BF00BF55B9BD
:10391000EC482430006820F44010616E0843E94907
:103920002431086000E0A846208800F48070B0F5DB
:10393000807F2DD1606D05281AD2DFE800F0030AE0
:1039400010171800DF48006840F40030DD490860B7
:1039500010E00021201D03F061FA05460AE0002175
:1039600004F1240003F00CFB054603E002E001E053
:10397000012500BF00BF55B9D2482430006820F0AF
:103980000700616D0843CF492431086000E0A84674
:10399000208800F40070B0F5007F33D1A06D80283E
:1039A00017D003DC40B140281CD10CE0C02817D050
:1039B000B0F5807F16D114E0C248006840F40030B2
:1039C000C049086010E00021201D03F027FA0546D9
:1039D0000AE0002104F1240003F0D2FA054603E0D6
:1039E00002E001E0012500BF00BF55B9B548243011
:1039F000006820F4E070A16D0843B24924310860EA
:103A000000E0A846208800F48060B0F5806F38D1CF
:103A1000D4F8A400B0F5800F19D004DC50B1B0F593
:103A2000001F1DD10DE0B0F5C00F17D0B0F5000F8D
:103A300016D114E0A348006840F40030A1490860A2
:103A400010E00021201D03F0E9F905460AE00021FD
:103A500004F1240003F094FA054603E002E001E0DB
:103A6000012500BF00BF5DB996482C30006820F4E6
:103A70006000D4F8A410084392492C31086000E09B
:103A8000A846208800F40060B0F5006F38D1D4F863
:103A9000A800B0F1007F19D004DC50B1B0F1807FF4
:103AA0001DD10DE0B0F1407F17D0B0F1806F16D17D
:103AB00014E08448006840F400308249086010E057
:103AC0000021201D03F0AAF905460AE0002104F1B7
:103AD000240003F055FA054603E002E001E0012569
:103AE00000BF00BF5DB977482C30006820F0E0606F
:103AF000D4F8A810084373492C31086000E0A846A8
:103B0000206800F00070B0F1007F27D1A06CA0B158
:103B1000102804D0202809D030280FD10CE06948A3
:103B2000006840F400306749086009E00221201D68
:103B300003F074F9054603E002E001E0012500BF4F
:103B400000BF55B95F482030006820F03000A16CFC
:103B500008435C492031086000E0A846208800F452
:103B60008050B0F5805F36D1E06DB0F5005F19D0C0
:103B700004DC50B1B0F5805F1DD10DE0B0F5405FC1
:103B800017D0B0F5804F16D114E04E48006840F4CD
:103B900000304C49086010E00021201D03F03EF980
:103BA00005460AE0002104F1240003F0E9F9054686
:103BB00003E002E001E0012500BF00BF55B9414824
:103BC0002430006820F4E040E16D08433D49243191
:103BD000086000E0A846208800F40050B0F5005FBF
:103BE00034D1206EB0F5403F1DD007DC68B1B0F590
:103BF000803F0BD0B0F5003F18D10DE0B0F5802F1D
:103C000012D0B0F5A02F11D10FE011E00121201D3D
:103C100003F004F905460BE0012104F1240003F050
:103C2000AFF9054604E003E002E001E0012500BF32
:103C300000BF55B923482430006820F4E020216EED
:103C4000084320492431086000E0A846208800F499
:103C50008040B0F5804F38D1D4F8AC00B0F1405F6F
:103C60001DD007DC68B1B0F1805F0BD0B0F1005F10
:103C700018D10DE0B0F1804F12D0B0F1A04F11D1AA
:103C80000FE011E00121201D03F0C8F805460BE00C
:103C9000012104F1240003F073F9054604E003E078
:103CA00002E001E0012500BF00BF6DB905482C30DE
:103CB000006820F0E040D4F8AC10084301492C31F2
:103CC000086002E02C440258A846208800F4004016
:103CD000B0F5004F26D1E06E98B1B0F1805F03D00F
:103CE000B0F1005F0ED106E0F948006840F4003002
:103CF000F749086008E00121201D03F08FF8054610
:103D000002E001E0012500BF00BF55B9F0482430B2
:103D1000006820F04050E16E0843ED49243108600E
:103D200000E0A846206800F08070B0F1807F27D1C5
:103D3000606CA0B1012804D0022809D003280FD15B
:103D40000CE0E348006840F40030E149086009E015
:103D50000221201D03F062F8054603E002E001E0C5
:103D6000012500BF00BF55B9D9482030006820F0B8
:103D70000300616C0843D6492031086000E0A84682
:103D8000206800F48000B0F5800F7DD1D148006834
:103D900040F48070CF490860FCF04EFA064606E019
:103DA000FCF04AFA801B642801D9032505E0C948C4
:103DB000006800F480700028F2D000BF85BBC448C2
:103DC0004430006800F44070B4F8B01001F4407161
:103DD000884213D0BE484430006820F44077BC4885
:103DE0004430006840F48030B949443108600846E6
:103DF000006820F48030086008460760D4F8B000FE
:103E0000B0F5807F15D1FCF017FA064609E0FCF00A
:103E100013FA801B41F28831884202D9032507E05A
:103E200038E0AB4844300068C0F340000028EED0D2
:103E300000BF55BB00BFB4F8B00000F44070B0F54F
:103E4000407F0ED1A2481C38006820F47C51A24A61
:103E5000D4F8B000104041EA10109D491C390860A8
:103E600007E09B481C38006820F47C5098491C39B6
:103E70000860974844300068B4F8B010C1F30B01F3
:103E800008439349443101E005E001E0086002E0A5
:103E9000A84600E0A846207800F0010068B3A06FB3
:103EA000182819D005DC48B1082808D0102816D1E8
:103EB0000BE0202811D0282811D10FE011E00121BA
:103EC000201D02F0ABFF05460BE0012104F12400A8
:103ED00003F056F8054604E003E002E001E00125A6
:103EE00000BF00BF55B97A482830006820F038007C
:103EF000A16F084376492831086000E0A846207881
:103F000000F00200022828D1606F062815D2DFE8F1
:103F100000F003040A11121311E00121201D02F028
:103F20007DFF05460BE0012104F1240003F028F891
:103F3000054604E003E002E001E0012500BF00BF08
:103F400055B963482830006820F00700616F0843C6
:103F50005F492831086000E0A846207800F004009E
:103F600004282AD1D4F89000062815D2DFE800F002
:103F700003040A11121311E00121201D02F04EFF6B
:103F800005460BE0012104F1240002F0F9FF05468B
:103F900004E003E002E001E0012500BF00BF5DB9DD
:103FA0004B482C30006820F00700D4F890100843EC
:103FB00047492C31086000E0A846207800F0200036
:103FC000202836D1D4F88C00B0F1405F1DD007DC3A
:103FD00068B1B0F1805F0BD0B0F1005F18D10DE097
:103FE000B0F1804F12D0B0F1A04F11D10FE011E02D
:103FF0000021201D02F012FF05460BE0022104F112
:10400000240002F0BDFF054604E003E002E001E009
:10401000012500BF00BF5DB92D482830006820F0A1
:10402000E040D4F88C10084329492831086000E0AA
:10403000A846207800F04000402836D1D4F89800F7
:10404000B0F5406F1DD007DC68B1B0F5806F0BD0C4
:10405000B0F5006F18D10DE0B0F5805F12D0B0F56B
:10406000A05F11D10FE011E00021201D02F0D6FE6B
:1040700005460BE0022104F1240002F081FF054611
:1040800004E003E002E001E0012500BF00BF5DB9EC
:104090000F482C30006820F4E050D4F89810084302
:1040A0000B492C31086000E0A846207800F0800021
:1040B00080283AD1D4F89C00B0F5C04F23D00DDC55
:1040C00098B1B0F5005F11D0B0F5804F1ED113E06C
:1040D0002C44025800480258FFFCFF0FB0F5004F77
:1040E00012D0B0F5204F11D10FE011E00021201DBA
:1040F00002F094FE05460BE0022104F1240002F0D8
:104100003FFF054604E003E002E001E0012500BFB7
:1041100000BF4DB9B548006820F46040D4F89C1049
:104120000843B249086000E0A846207800F0080083
:10413000082817D1D4F88000B0F5805F07D102219C
:1041400004F1240002F01CFF08B14FF00108A74859
:10415000001F006820F44050D4F880100843A349A1
:10416000091F0860207800F01000102815D1D4F83D
:104170009400B0F5807F07D1022104F1240002F001
:10418000FFFE08B14FF001089848006820F4407025
:10419000D4F89410084395490860206800F4002082
:1041A000B0F5002F26D1D4F8A00030B1B0F5803F93
:1041B00009D0B0F5003F0ED10CE00021201D02F027
:1041C0002DFE054609E0022104F1240002F0D8FE8C
:1041D000054602E001E0012500BF00BF4DB983485C
:1041E000006820F44030D4F8A01008437F490860EC
:1041F00000E0A846206800F48020B0F5802F2DD183
:10420000D4F88400B0F5801F06D0B0F5001F0CD0A4
:10421000B0F5401F11D10FE074482C38006840F40D
:10422000003072492C39086009E0012104F12400B2
:1042300002F0A6FE054602E001E0012500BF00BF36
:104240005DB96A48001F006820F44010D4F884105B
:1042500008436649091F086000E0A846206800F48A
:104260008030B0F5803F24D1E06C18B1B0F5803FCC
:104270000FD108E05D482C38006840F400305B49FD
:104280002C39086007E00221201D02F0C7FD054619
:1042900001E0012500BF00BF55B954480C38006843
:1042A00020F48030E16C084350490C39086000E08C
:1042B000A846206800F00050B0F1005F07D102214D
:1042C00004F1240002F05CFE08B14FF00108206800
:1042D00000F40030B0F5003F27D1E06FA0B1B0F599
:1042E000807F06D0B0F5007F0CD0B0F5407F0CD1B8
:1042F00009E03E482C38006840F400303B492C3936
:10430000086004E003E002E001E0012500BF00BF17
:1043100055B93648001F006820F44070E16F08432B
:104320003249091F086000E0A846206800F48010A8
:10433000B0F5801F09D12D480838006820F00040F2
:10434000216F0843294908390860206800F080502F
:10435000B0F1805F0AD125484838006820F48040D9
:10436000D4F8B4100843214948390860206800F4A3
:104370000010B0F5001F09D11C480838006820F073
:104380008070A16E0843194908390860206800F060
:104390008040B0F1804F11D100BF14484838006808
:1043A00020F4004011494839086008460068D4F8F4
:1043B000B81008430D494839086000BF206800F074
:1043C0000040B0F1004F09D108480C38006820F0D7
:1043D0004050216D084305490C390860B8F1000FC1
:1043E00002D10020BDE8F0810120FBE758440258CB
:1043F0002DE9F04104460D4614B90120BDE8F081D5
:10440000BD48006800F00F00A8420ED2BA4800680C
:1044100020F00F002843B84908600846006800F003
:104420000F00A84201D00120E8E7207800F0040046
:1044300004280ED1B1492069096801F07001884251
:1044400007D9AE48006820F0700021690843AB49E5
:104450000860207800F00800082811D1A749091D3C
:104460006069096801F07001884209D9A348001DFC
:10447000006820F0700061690843A049091D0860C8
:10448000207800F01000102811D19C49091DA06966
:10449000096801F4E061884209D99848001D006864
:1044A00020F4E060A16908439449091D0860207860
:1044B00000F02000202811D190490831E0690968F6
:1044C00001F07001884209D98C480830006820F05A
:1044D0007000E1690843894908310860207800F0DC
:1044E000020002280ED18549E068096801F00F0139
:1044F000884207D98148006820F00F00E16808432E
:104500007E490860207800F00100002850D07B48E8
:10451000006820F47060A16808437849086060680A
:10452000022807D1754818380068C0F34040F8B930
:10453000012063E76068032807D1704818380068D5
:10454000C0F34060A0B9012058E76068012807D196
:104550006A4818380068C0F3002048B901204DE7C8
:10456000664818380068C0F3800008B9012045E7A4
:1045700062480838006820F00700616808435F4916
:1045800008390860FBF058FE064608E0FBF054FED0
:10459000801B41F28831884201D903202EE7574819
:1045A0000838006800F038006168B0EBC10FEDD149
:1045B000207800F0020002280ED15049E068096816
:1045C00001F00F01884207D24C48006820F00F002C
:1045D000E1680843494908604748006800F00F0057
:1045E000A8420ED94448006820F00F0028434249F1
:1045F00008600846006800F00F00A84201D00120C2
:10460000FCE6207800F0040004280ED13B49206924
:10461000096801F07001884207D23848006820F02C
:1046200070002169084335490860207800F00800CF
:10463000082811D13149091D6069096801F070012C
:10464000884209D22D48001D006820F07000616981
:1046500008432A49091D0860207800F0100010283E
:1046600011D12649091DA069096801F4E061884259
:1046700009D22248001D006820F4E060A1690843C7
:104680001E49091D0860207800F02000202811D163
:104690001A490831E069096801F07001884209D2BD
:1046A00016480830006820F07000E169084313499B
:1046B0000831086000F02CF810490968C1F30321A3
:1046C0000F4A515C01F01F0120FA01F70B48006806
:1046D00000F00F001146085C00F01F0027FA00F000
:1046E000084908600848076008480068FEF7EEFFC0
:1046F0008046404682E600000020005218440258DE
:1047000040111008200000241C0000241400002484
:10471000F0B5824E366806F0380636B1082E15D050
:10472000102E15D0182E7DD114E07C4E103E366828
:10473000C6F3401646B1794E103E3668C6F3C1073F
:10474000774E26FA07F000E07548E5E07548E3E0AB
:104750007548E1E0714E1836366806F003046F4E76
:1047600018363668C6F305116C4E1C36366806F0EE
:1047700001056A4E24363668C6F3CC0616FB05F6EC
:1047800001EE106AB8EE410A002971D024B1012C63
:1047900050D0022C6DD16DE0604E103E3668C6F3ED
:1047A00040163EB35D4E103E3668C6F3C1075C4E00
:1047B00026FA07F301EE103AF8EE411A01EE101A4C
:1047C000B8EE411A81EE812A9FED581AC0EE011A07
:1047D000524E20363668C6F3080601EE106AB8EE6F
:1047E000411A31EE811AF7EE001A31EE211A62EE0B
:1047F000010A1EE001EE101AB8EE411ADFED4C1A64
:1048000081EE812A9FED491AC0EE011A434E2036EF
:104810003668C6F3080601EE106AB8EE411A31EEAA
:10482000811A00E076E0F7EE001A31EE211A62EE0E
:10483000010A5BE001EE101AB8EE411A9FED3D2A25
:10484000C2EE011A9FED391A80EE012A334E20364E
:104850003668C6F3080601EE106AB8EE411A32EE69
:10486000011AB7EE002A31EE021A61EE810A3DE02C
:104870004EE01DE001EE101AB8EE411ADFED2E1ADF
:1048800081EE812A9FED291AC0EE011A234E2036AF
:104890003668C6F3080601EE106AB8EE411A31EE2A
:1048A000811AF7EE001A31EE211A62EE010A1DE0BC
:1048B00001EE101AB8EE411A9FED1E2AC2EE011A3F
:1048C0009FED1A1A80EE012A144E20363668C6F380
:1048D000080601EE106AB8EE411A32EE011AB7EE80
:1048E000002A31EE021A61EE810A00BF00BF0B4EB2
:1048F00020363668C6F34626721C01EE102AB8EE42
:10490000411AC0EE811ABCEEE11A11EE100A00E065
:10491000002001E0034800BF00BFF0BD1044025872
:104920000090D00300093D0040787D010000004662
:104930000024744C0024744A20BCBE4B70B586B071
:1049400006460C4615463EBB00BF2848006840F0AE
:104950000100264908600846006800F00100009048
:1049600000BF00BF4FF4807001900220029003202E
:10497000049000200390059001A91D48FEF7F4F96A
:104980001A48D038006820F0FE7044EA0501084358
:104990001649D039086026E000BF1448006840F08E
:1049A0000400124908600846006800F00400009006
:1049B00000BF00BF4FF4007001900220029003205E
:1049C000049000200390059001A90A48FEF7CCF955
:1049D0000648D038006820F07E4044EAC5110843FC
:1049E0000249D039086006B070BD0000E0440258AA
:1049F00000000258000802582DE9F047044614B997
:104A00000120BDE8F087207800F00100002870D078
:104A1000FE48006800F03808FC481830D0F80090D4
:104A2000B8F1100F06D0B8F1180F0FD109F003003C
:104A300002280BD1F54810380068C0F34040002828
:104A40006AD06068002867D10120DAE700BF60689B
:104A5000B0F5803F08D1ED481038006840F4803050
:104A6000EA49103908602EE0606868B9E7481038F4
:104A7000006820F48030E549103908600846006875
:104A800020F4802008601EE06068B0F5A02F0DD1F2
:104A9000DE481038006840F48020DC491039086096
:104AA0000846006840F4803008600CE0D7481038B1
:104AB000006820F48030D549103908600846006845
:104AC00020F48020086000BF606898B1FBF0B4FB60
:104AD000054606E0FBF0B0FB401B642801D903202B
:104AE0008FE7CA4810380068C0F340400028F1D072
:104AF00012E012E0FBF0A0FB054606E0FBF09CFB99
:104B0000401B642801D903207BE7C04810380068A7
:104B1000C0F340400028F1D100BF207800F002002F
:104B200002287BD1B948006800F03808B74818302F
:104B3000D0F80090B8F1000F05D0B8F1180F3AD1B5
:104B400009F00300B0BBB14810380068C0F3800022
:104B500018B1E06808B9012053E700BFFEF710FA6A
:104B600041F20301884219D8206940280AD1A74898
:104B70000C38006820F47C3040F40030A3490C3934
:104B8000086016E0A1480C38006820F47C302169E8
:104B900040EA01309D490C3908600AE09B480C3816
:104BA000006820F0FE40217C40EA016097490C3902
:104BB000086067E0FFE7E06888B394481038006851
:104BC00020F01900E1680843904910390860FBF0B3
:104BD00033FB054606E0FBF02FFB401B022801D902
:104BE00003200EE7894810380068C0F380000028D1
:104BF000F1D000BFFEF7C4F941F2030188421BD88F
:104C0000206940280CD181480C38006820F47C30A1
:104C100040F400307D490C39086018E033E017E0BB
:104C20007A480C38006820F47C30216940EA013071
:104C300076490C3908600AE074480C38006820F0A6
:104C4000FE40217C40EA016070490C39086019E09F
:104C50006E481038006820F001006C491039086077
:104C6000FBF0EAFA054606E0FBF0E6FA401B0228F4
:104C700001D90320C5E6654810380068C0F38000FC
:104C80000028F1D100BF207800F0100010287CD15E
:104C90005E48006800F038085C481830D0F8009092
:104CA000B8F1080F06D0B8F1180F3DD109F0030094
:104CB000012839D1554810380068C0F3002020B1D0
:104CC000E069802801D001209BE600BFFEF758F97B
:104CD00041F2030188421AD8206A20280AD14B48A1
:104CE0000C38006820F0F84040F0804047490C390B
:104CF000086018E045480C38006820F0F84094F847
:104D0000201040EA816041490C3908600BE03F48BF
:104D1000001F006820F07C5094F8201040EA0160E9
:104D20003A49091F086066E0E06978B337481038EF
:104D3000006840F08000354910390860FBF07CFACB
:104D4000054606E0FBF078FA401B022801D9032053
:104D500057E62E4810380068C0F300200028F1D034
:104D600000BFFEF70DF941F2030188421CD8206A0A
:104D700020280CD125480C38006820F0F84040F07D
:104D8000804022490C3908601AE035E019E01F48DC
:104D90000C38006820F0F84094F8201040EA816058
:104DA0001A490C3908600BE01848001F006820F011
:104DB0007C5094F8201040EA01601449091F0860F3
:104DC00019E012481038006820F080000F491039AF
:104DD0000860FBF031FA054606E0FBF02DFA401BB7
:104DE000022801D903200CE6084810380068C0F3F7
:104DF00000200028F1D100BF207800F0080008282A
:104E000034D16069D8B10148643001E010440258DF
:104E1000006840F00100EF490860FBF00DFA05461C
:104E200006E0FBF009FA401B022801D90320E8E55F
:104E3000E8480068C0F340000028F2D016E0E548DA
:104E4000006820F00100E3490860FBF0F5F9054631
:104E500006E0FBF0F1F9401B022801D90320D0E560
:104E6000DC480068C0F340000028F2D1207800F050
:104E70002000202836D1A069D0B1D6487438006807
:104E800040F48050D34974390860FBF0D5F90546E9
:104E900006E0FBF0D1F9401B022801D90320B0E560
:104EA000CC4874380068C0F340300028F1D019E0D5
:104EB000C8487438006820F48050C64974390860C6
:104EC000FBF0BAF9054606E0FBF0B6F9401B0228F4
:104ED00001D9032095E5BF4874380068C0F340301D
:104EE0000028F1D1207800F0040004287DD1BA48D0
:104EF000006840F48070B8490860FBF09DF90546F1
:104F000006E0FBF099F9401B642801D9032078E5FD
:104F1000B148006800F480700028F2D000BFA0689B
:104F2000012808D1AB48001F006840F00100A949E2
:104F3000091F08602DE0A06868B9A648001F006836
:104F400020F00100A349091F08600846006820F00E
:104F5000040008601DE0A06805280DD19D48001FD1
:104F6000006840F004009B49091F0860084600687B
:104F700040F0010008600CE09648001F006820F037
:104F800001009449091F08600846006820F00400E9
:104F9000086000BFA068A0B1FBF04EF9054608E02C
:104FA000FBF04AF9401B41F28831884201D90320C5
:104FB00027E58848001F0068C0F340000028EFD0B4
:104FC00013E0FBF039F9054608E0FBF035F9401B2A
:104FD00041F28831884201D9032012E57D48001F43
:104FE0000068C0F340000028EFD1606A00287DD03F
:104FF00078486438006800F03800182877D0606A74
:10500000022875D173487438006820F080707149A7
:1050100074390860FBF010F9054606E0FBF00CF966
:10502000401B022801D90320EBE46A487438006869
:10503000C0F340600028F1D100BFD4E90A1041EA72
:10504000001064494C39096840F2F3329143084337
:1050500060494C390860208E401EC0F30800616B27
:10506000491E4FF47E4202EA41210843218F491E26
:10507000D20102EA014108433C21095D491E1202A6
:1050800002EA0161084353494439086000BF081F20
:10509000006820F00100091F08604E484038006891
:1050A0004FF6F8718843A16C40EAC1004949403984
:1050B000086048484838006820F00C00216C08431C
:1050C0004449483908600846006820F00200616CD5
:1050D00008434049483908600846006840F4803079
:1050E00008600846006840F4003002E06FE041E0EC
:1050F00025E008600846006840F480200860084603
:10510000006840F00100086032487438006840F0E0
:105110008070304974390860FBF08EF8054606E06F
:10512000FBF08AF8401B022801D9032069E42948D2
:1051300074380068C0F340600028F1D047E025488B
:105140007438006820F08070224974390860FBF0E0
:1051500073F8054606E0FBF06FF8401B022801D902
:1051600003204EE41B4874380068C0F340600028F8
:10517000F1D12CE017484C380768164844380668C7
:10518000606A012821D007F00301A06A81421CD186
:10519000C7F30511E06A884217D1C6F30801206BF6
:1051A000401E814211D1606B401EC6F346218842E9
:1051B0000BD1A06B401EC6F30641884205D1E06BBF
:1051C000401EC6F30661884201D0012019E4002088
:1051D00017E40000744402580048025870B50446B1
:1051E00000260CB9012070BD606A00B900BF002123
:1051F000A1625349206888420CD0524920688842F5
:1052000008D051492068884204D0E0680F2801D9AD
:105210000120E8E72046FBF0F3FB054648492068FB
:10522000884209D047492068884205D0464920680D
:10523000884201D0082D0DD841492068884207D006
:1052400040492068884203D03F492068884203D102
:10525000102D01D90120C6E794F8810028B900205B
:1052600084F880002046FBF0D5F8022084F8810005
:105270002068006820F0010021680860A069B0F192
:10528000806F0BD16068B0F5800F07D1A06B28B993
:105290002068006840F4805021680860A16AE069D5
:1052A00008433043E16B0843E168084321688860A4
:1052B000616A606B0843A16B0843A16908432169D7
:1052C000084361690843216A084361680843E16C47
:1052D0000843A1680843A16C0843A16D08432168F5
:1052E000C860606878B92068806820F4C05040F4D5
:1052F0000060216888602068806820F4C06040F405
:105300008060216888602068006D20F001002168BD
:105310000865606800F48000B0F5800F07D1206850
:10532000C06820F00040616D08432168C86000201B
:10533000C4F88400012084F88100002053E70000B5
:105340000030014000380040003C00402DE9F84F9B
:105350000446884616461D464FF0000A206800F1B4
:1053600030096068B0F5800F0DD1A06858B90420ED
:1053700084F881003346424641462046009500F0BD
:10538000A1FABDE8F88F00BF94F88000012801D190
:105390000220F6E7012084F8800000BFFAF04CFFFD
:1053A000074694F88100012808D04FF0020A00BF98
:1053B000002084F8800000BF5046E2E7B8F1000FFB
:1053C00000D046B94FF0010A00BF002084F88000E9
:1053D00000BF5046D5E704205C3484F82500002047
:1053E000A062C4F80880A681E6812060A080E080E9
:1053F0006061A0615C3CA068B0F5C02F05D1206859
:10540000006820F4006021680860206840686FF33D
:105410000F003043216848602068006840F00100B8
:10542000216808606068B0F5800F05D120680068C9
:1054300040F4007021680860E0680F2832D92CE041
:105440002068406948F20801084060B12068006B9C
:10545000616E0860606E001D6066B4F86A00401EF0
:10546000A4F86A0019E0FAF0E7FEC01BA84201D3D5
:10547000681C00B98DB9204601F072FE00BF002003
:1054800084F8800000BFD4F8840040F48070C4F831
:105490008400012084F8810073E7B4F86A000028D2
:1054A000CED19FE0E068072843D93DE020684069FD
:1054B00000F46040F0B12068406900F4004060B141
:1054C0002068006B616E0860606E001D6066B4F855
:1054D0006A00801EA4F86A0026E0B9F80000616E38
:1054E0000880606E801C6066B4F86A00401EA4F8F4
:1054F0006A0019E0FAF0A0FEC01BA84201D3681CA4
:1055000000B98DB9204601F02BFE00BF002084F8C1
:10551000800000BFD4F8840040F48070C4F8840098
:10552000012084F881002CE7B4F86A000028BDD17E
:1055300058E053E02068406900F4604098B3206868
:10554000406900F4004060B12068006B616E086043
:10555000606E001D6066B4F86A00001FA4F86A005F
:105560003CE02068406900F4C040B0F5005F0CD911
:10557000B9F80000616E0880606E801C6066B4F847
:105580006A00801EA4F86A0028E0206890F83000C5
:10559000616E0870606E401C6066B4F86A00401E60
:1055A000A4F86A001AE0FFE7FAF046FEC01BA84222
:1055B00001D3681C00B98DB9204601F0D1FD00BFB0
:1055C000002084F8800000BFD4F8840040F480708C
:1055D000C4F88400012084F88100D2E6B4F86A009F
:1055E0000028A7D1204601F0BBFD00BF002084F8B1
:1055F000800000BF012084F88100D4F8840008B145
:105600000120BEE65046BCE62DE9F84F0446884628
:1056100017461D46206800F120094FF0000A00BF20
:1056200094F88000012802D10220BDE8F88F012003
:1056300084F8800000BFFAF0FFFD064694F8810070
:10564000012808D04FF0020A00BF002084F8800033
:1056500000BF5046E9E7B8F1000F00D047B94FF05E
:10566000010A00BF002084F8800000BF5046DCE73C
:1056700003205C3484F825000020A062C4F8008078
:10568000A780E780A060A081E081A06160615C3CB0
:10569000A068B0F5C02F05D12068006840F4006014
:1056A00021680860206840686FF30F003843216864
:1056B00048602068006840F0010021680860606868
:1056C000B0F5800F05D12068006840F400702168B3
:1056D0000860E0680F2832D92CE02068406900F0AB
:1056E000020002280CD1E06D006821680862E06DBC
:1056F000001DE065B4F86200401EA4F8620019E0E5
:10570000FAF09AFD801BA84201D3681C00B98DB93C
:10571000204601F025FD00BF002084F8800000BF76
:10572000D4F8840040F48070C4F88400012084F828
:1057300081007AE7B4F862000028CED1A2E0E068E8
:10574000072845D93FE02068406900F002000228A0
:105750001FD1B4F8620001280ED9E06B60B1E06D92
:10576000006821680862E06D001DE065B4F8620021
:10577000801EA4F8620026E0E06D0088A9F8000011
:10578000E06D801CE065B4F86200401EA4F8620081
:1057900019E0FAF051FD801BA84201D3681C00B942
:1057A0008DB9204601F0DCFC00BF002084F88000A9
:1057B00000BFD4F8840040F48070C4F88400012055
:1057C00084F8810031E7B4F862000028BBD159E0C9
:1057D00054E02068406900F00200022834D1B4F897
:1057E000620003280FD9E06B40280CD9E06D0068F7
:1057F00021680862E06D001DE065B4F86200001FDA
:10580000A4F862003AE0B4F8620001280ED9E06B17
:1058100060B1E06D0088A9F80000E06D801CE065D3
:10582000B4F86200801EA4F8620027E0E06D007802
:10583000216881F82000E06D401CE065B4F862004A
:10584000401EA4F8620019E0FAF0F6FC801BA842A2
:1058500001D3681C00B98DB9204601F081FC00BF5E
:10586000002084F8800000BFD4F8840040F48070E9
:10587000C4F88400012084F88100D6E6B4F8620000
:105880000028A6D13346002208212046009501F0C9
:10589000D2FC28B1D4F8840040F02000C4F8840081
:1058A000204601F05DFC00BF002084F8800000BFAE
:1058B000012084F88100D4F8840008B10120B4E606
:1058C0005046B2E62DE9FF4F85B004468A461F4692
:1058D000129E002004902068203003902068303011
:1058E000029000BF94F88000012803D1022009B083
:1058F000BDE8F08F012084F8800000BFFAF09CFC26
:1059000081463D46A84694F881B060680190BBF19D
:10591000010F11D00198B0F5800F04D1A06810B923
:10592000BBF1040F08D00220049000BF002084F8CF
:10593000800000BF0498DAE7BAF1000F02D00798A0
:1059400000B147B90120049000BF002084F8800016
:1059500000BF0498CBE794F88100042802D005200A
:1059600084F881000020C4F8840007986066A4F8D9
:105970006A70A4F86870C4F85CA0A4F86270A4F817
:105980006070002020676067206840686FF30F0038
:105990003843216848602068006840F001002168B1
:1059A00008606068B0F5800F05D12068006840F499
:1059B000007021680860E0680F284DD946E0206833
:1059C000406900F0020002280ED16DB1E06D006860
:1059D00021680862E06D001DE065B4F86200401EB9
:1059E000A4F86200B4F862502068406948F20801E7
:1059F000084080B1B8F1000F0DD02068006B616ED7
:105A00000860606E001D6066B4F86A00401EA4F86D
:105A10006A00B4F86A80FAF00FFCA0EB0900B0420B
:105A200001D3701C00B98EB9204601F099FB00BF6C
:105A3000002084F8800000BFD4F8840040F4807017
:105A4000C4F88400012084F8810050E7002DB6D10D
:105A5000B8F1000FB3D115E1E068072873D96BE006
:105A60002068406900F00200022820D1FDB1012D1C
:105A700010D9E06B70B1E06D006821680862E06DDC
:105A8000001DE065B4F86200801EA4F86200B4F85E
:105A900062500CE054F85C0F018803980180206884
:105AA000801C2060E088401EE080E5885C3C206827
:105AB000406900F4604020B3B8F1000F21D02068A5
:105AC000406900F4004070B12068006B616E0860AE
:105AD000606E001D6066B4F86A00801EA4F86A005B
