:020000040800F2
:10000000B00D0024510300082748000839400008BB
:1000100025480008E50C0008755D00080000000098
:10002000000000000000000000000000DD57000894
:10003000650D00080000000029480008DF5700088F
:100040006B0300086B0300086B0300086B030008D8
:100050006B0300086B0300086B0300086B030008C8
:100060006B0300086B0300086B0300086B030008B8
:100070006B0300086B0300086B0300086B030008A8
:100080006B0300086B0300086B0300086B03000898
:100090006B0300086B0300086B0300086B03000888
:1000A0006B0300086B0300086B0300086B03000878
:1000B0006B0300086B0300086B0300086B03000868
:1000C0006B0300086B0300086B0300086B03000858
:1000D0006B0300086B0300086B0300086B03000848
:1000E0006B0300086B030008000000006B030008AE
:1000F0006B0300086B0300086B0300086B03000828
:100100006B0300086B0300086B0300086B03000817
:100110006B0300086B0300086B0300086B03000807
:100120006B0300086B0300086B0300086B030008F7
:100130006B0300086B0300086B0300086B030008E7
:1001400000000000000000000000000000000000AF
:100150006B0300086B0300086B0300086B030008C7
:100160006B0300086B0300086B0300086B030008B7
:100170006B0300086B0300086B030008000000001D
:100180006B0300086B0300086B0300086B03000897
:100190006B0300086B0300086B0300086B03000887
:1001A0006B0300086B0300086B0300086B03000877
:1001B0006B0300086B0300086B0300086B03000867
:1001C0006B0300086B0300086B0300086B03000857
:1001D0006B0300086B0300086B0300086B03000847
:1001E0006B0300086B0300086B0300086B03000837
:1001F0006B0300086B0300086B0300086B03000827
:100200006B0300086B0300086B0300086B03000816
:100210006B0300086B0300086B0300086B03000806
:100220006B0300086B0300086B030008000000006C
:100230006B0300086B030008000000006B0300085C
:100240006B0300086B0300086B0300086B030008D6
:100250006B0300086B0300086B0300086B030008C6
:100260006B0300086B0300086B0300086B030008B6
:100270006B0300086B0300086B030008000000001C
:100280006B0300086B0300086B030008000000000C
:10029000000000006B03000800F002F800F048F8CE
:1002A0000AA090E8000C82448344AAF10107DA45D1
:1002B00001D100F03DF8AFF2090EBAE80F0013F0DB
:1002C000010F18BFFB1A43F001031847D4CC0000FC
:1002D000F4CC0000103A24BF78C878C1FAD852078D
:1002E00024BF30C830C144BF04680C6070470000B0
:1002F0000023002400250026103A28BF78C1FBD82F
:10030000520728BF30C148BF0B607047642900F016
:10031000D180782900F00A81002070471FB505F0D0
:10032000BFFE9DE8030000F00FFA1FBD10B510BD21
:1003300000F0DEFA1146FFF7F1FF05F0EFFD00F0E7
:10034000FCFA03B4FFF7F2FF03BC00F02DFB000042
:100350000948804709480047FEE7FEE7FEE7FEE759
:10036000FEE7FEE7FEE7FEE7FEE7FEE70448054995
:10037000054A064B70470000E9580008990200083A
:10038000B0070024B00D0024B0090024B0090024F7
:1003900070B5064600F0BCF9056806F10B0020F0C8
:1003A0000704B4429CBF002070BD2B466A68BAB1F6
:1003B0001068A04210D304F1080188423CBF506885
:1003C000586007D35168101941601168091B01601A
:1003D00058601460101D70BD13465268002AE7D1A2
:1003E0002146284600F09CF90028DED170BD70B58A
:1003F0000446051F00F08CF90068002C14BF446807
:1004000070BD002C18BFAC423CBF20466468F8D3D6
:1004100001680A18AA4218BF456003D12A68054638
:100420001144016028684119A1421CBF6C6070BD75
:100430006168696021680844286070BD0FB41CB50C
:10044000074B06AA7B4469460090059800F011FA14
:100450000020694600F020FA1CBC5DF814FB000087
:100460005104000070B5044685690068C10601D5D5
:10047000302600E02026C00707D070BDD4E9012156
:1004800030469047206A401C20626D1EF6D570BD34
:1004900070B5044685690078C00707D170BDD4E9FE
:1004A000012120209047206A401C20626D1EF6D555
:1004B00070BD00002DE9F041064600241068752942
:1004C000314616A510D0AFF30080002802DA404272
:1004D00013A507E031688A0701D512A502E0490794
:1004E00004D511A5012401E0AFF3008000210A2208
:1004F00006F1240709E0B0FBF2FCB0FBF2F302FBCB
:100500001C00303078541846491C0028F3D123468B
:100510002A463046BDE8F04100F04CB9000000002A
:100520002D0000002B0000002000000070B50446E4
:100530000D4621461068AFF300802188090502D5D9
:100540000F4A7A4402E00E4A7A440E32002104F146
:10055000240305E000F00F060009965D5E54491C77
:100560000028F7D120780023000704D5702D02D091
:1005700009B1022311322046BDE8704000F01AB9DB
:1005800021CA00002DE9F05F894604464FF0000AB9
:10059000DFF824B1FB44C0F820A02046E16888477A
:1005A00000287DD0252806D0D4E901219047206A73
:1005B000401C2062F1E700255F462046E16888473D
:1005C0002028064607DB312E05D2B81910F8200C7A
:1005D00008B10543F1E7A80701D525F00405C4F8E3
:1005E0001CA00027C4F818A02A2E09D0304605F018
:1005F000D3FB38B304EB8708303EC8F8186019E025
:1006000059F8041B204604EB87029161E168884792
:10061000012F064618D1E069002820DA25F02005D0
:100620001DE0D8F8180000EB800006EB40003038E1
:10063000C8F818002046E1688847064605F0ACFB7C
:100640000028EED1012F0AD02E2E08D12046E168D5
:1006500088477F1C0646022F45F02005C4DBA069B1
:10066000002803DA404245F00105A061E80701D007
:1006700025F01005A6B1A6F14100192802D82036B0
:1006800045F400654A463146204625604D46FFF751
:100690003DFE60B1012807D0ED1D25F0070000E008
:1006A00007E000F1080978E705F1040975E730462D
:1006B0007AE7206ABDE8F09FF7C900004FF000021A
:1006C00000B5134694469646203922BFA0E80C5048
:1006D000A0E80C50B1F12001BFF4F7AF090728BF23
:1006E000A0E80C5048BF0CC05DF804EB890028BF9F
:1006F00040F8042B08BF704748BF20F8022B11F0C8
:10070000804F18BF00F8012B704770477047704743
:10071000004870475807002470477047704770477B
:1007200038B504460A4600206946AFF30080002829
:1007300008BF38BD02460099204600F0B7F80120F6
:1007400038BD012000F0CCB8F8B5AFF30080054605
:1007500000200C46102000BF0646A819A0420DD963
:10076000324669460020AFF30080070008BF00F062
:10077000B7F80098A04218BF0546C419FFF7C8FF94
:1007800005600746F01D20F007004619284600F0D6
:100790000AF8B44208BFF8BDA21B31463868BDE86C
:1007A000F84000F083B800210160C0E901107047F3
:1007B000102070472DE9F0470D46994692460446B1
:1007C00000F124080168880604D5E06921F01001D1
:1007D000216000E00120A84201DD471B00E0002766
:1007E000A1697A1902EB0900081AA0612078C006F5
:1007F00002D42046FFF736FE002608E0D4E90121A6
:100800001AF806009047206A401C761C20624E456C
:10081000F4DB2078C0060AD52046FFF723FE06E069
:10082000D4E9012130209047206A401C2062381E04
:10083000A7F10107F4DC07E0D4E9012118F805006D
:100840009047206A401C2062281EA5F10105F3DCB8
:100850002046FFF71DFE2078000602D50220BDE8E5
:10086000F0870120FBE7000001694A1C026108785B
:10087000704700B58FB0CDE90131002105910549E0
:100880007944CDE9031011466846FFF77BFE0FB0AF
:1008900000BD0000E5FFFFFF0A6802F8010B0A60D7
:1008A0007047000000487047500700240346406826
:1008B0008C46002818BF88423CBF03464068F8D3E6
:1008C00018681844884207D00CF1030020F0070094
:1008D000001D411A521A0146081D0A60FFF787BD24
:1008E00010B500F039F8BDE8104000F02FB870479F
:1008F0007546FFF7D7FFAE4605006946534620F020
:100900000700854618B020B5FFF730FDBDE8204050
:100910004FF000064FF000074FF000084FF0000BBB
:1009200021F00701AC46ACE8C009ACE8C009ACE86E
:10093000C009ACE8C0098D46704710B50446AFF356
:1009400000802046BDE81040FFF7FBBC002801D026
:1009500000F02AB87047000010B5012805D000212A
:1009600003A000F027F8012010BD09A1F8E700005E
:1009700053494752544D454D3A204F7574206F6688
:100980002068656170206D656D6F727900000000F0
:100990003A2048656170206D656D6F727920636FD4
:1009A000727275707465640001491820ABBEFEE771
:1009B0002600020070B505460C460A2000E06D1CBA
:1009C00000F011F835B128780028F8D102E0641C55
:1009D00000F009F814B120780028F8D1BDE8704083
:1009E0000A20AFF3008008B569468DF800000320A7
:1009F000ABBE08BD70B53A4905460068884202D0D2
:100A0000384A904202D1D1F8080302E03648D0F8C3
:100A1000080310F4403F11D002F020F90446686842
:100A2000B0F5803F06D0B0F5003F03D0B0F5403FB1
:100A300026D101E0000C17E0A40821E04FF40020CB
:100A400001F092FA044668688103890B18D1811479
:100A50000C2915D2DFE801F0140606060606060B7F
:100A60000D0F1113800C4000B4FBF0F408E02409D2
:100A700006E0640904E0A40902E0E40900E0240AB5
:100A800000F05AFF41F20301884208D81748844217
:100A90002868816813D821F48071816070BD144981
:100AA0006008884204D82868816821F44071F4E71E
:100AB0001049884206D82868816821F4407141F4C1
:100AC0008071EAE70C4988422868816804D821F4DB
:100AD000407141F40071E0E741F44071DDE700004E
:100AE000002002400021024000600258002D310128
:100AF000105E5F0020BCBE0040787D012DE9F04112
:100B00000027044600680D4603F0F4FC0646206802
:100B100003F0ECFC304359D020682D4EC1688901A8
:100B200005D5617D012902D1217D01290BD0022D3E
:100B30001DD0206803F0DEFCB8B120688168C1F3E5
:100B4000400169B111E02349012502E08F422ED214
:100B50007F1C0268D2435206F8D440210160E8E7C6
:100B60008168314041F010018160012D11D0206871
:100B700003F0BCFC48B120688168C1F3400121B991
:100B80008168314041F020018160022D08D0032DA1
:100B900004D0042500F0D6FE064613E00C25F9E744
:100BA0000825F7E700F0CEFE801B05280AD9606D06
:100BB00040F010006065A06D40F00100A0650120CC
:100BC000BDE8F081206880682842EBD10020F7E77B
:100BD000C0FFFF7F00DC0C0070B504460068816830
:100BE0008268C1F3400112F0010F24D019BB816863
:100BF00001F00D01012910D18168104A1140891CB2
:100C0000816021680320086000F09CFE05460EE02C
:100C100000F098FE401B022809D9606D40F01000DA
:100C20006065A06D40F00100A065012070BD2068E6
:100C30008068C007ECD1002070BD0000C0FFFF7FBE
:100C400070B504460068816811F0010F3DD18168DC
:100C50001F4A11422AD18168D5432940491C81602D
:100C600000F070FE1B4B064620681B49984201D0DD
:100C7000884201D1194A00E0194A9268884202F07C
:100C80001F0201D1194600E00146814218D0BAB1D5
:100C90001BE0816811F0010F03D181682940491CD4
:100CA000816000F04FFE801B022809D9606D40F082
:100CB00010006065A06D40F00100A065012070BDCE
:100CC00020680168C943C907E3D1002070BD000056
:100CD0003F0000800020024000210240002302402B
:100CE00000630258FEE70000F0B5BFF34F8FBFF37B
:100CF0006F8F1A4900200860BFF34F8FBFF36F8FCB
:100D0000174A116841F400311160BFF34F8FBFF3F0
:100D10006F8F134970310860BFF34F8F081F43F680
:100D2000FF7400680D4D1035C0F34E31C0F3C90398
:100D300004EA4116184600BF46EA80772F60401E3D
:100D4000FAD2491EF4D2BFF34F8F106840F48030BE
:100D50001060BFF34F8FBFF36F8FF0BD50EF00E017
:100D600014ED00E070474FF4FA74204603F0A6FB40
:100D7000FBE70000F8B50027044615460E4600972D
:100D800090F8500001280BD0012084F85000204634
:100D9000FFF722FF0100606D04D040F010002DE04D
:100DA0000220F8BD20F4885040F002006065206801
:100DB00006F4803205F08043134D1A4383682B40BC
:100DC0001A4342F000428260104A20680EE0009B05
:100DD0005B1C0093934209D3606D84F8507020F03F
:100DE000020040F0100060650120F8BD8368DB0F51
:100DF000EDD1606D20F0020040F001006065084612
:100E000084F85070F8BD0000C0FFFE3F00F8C32515
:100E10002DE9F84F4FF0000B0446E64E0D46CDF895
:100E200000B05F4690F85000DFF88CA3012808D08E
:100E30004FF0010984F85090206803F05BFB18B173
:100E40006BE10220BDE8F88F21682868CA690303B6
:100E500028D090FAA0F0B0FA80F000BF00F01F0395
:100E600009FA03F00243CA61D5E900124FF00C0CF5
:100E700020681F23C1F384610CEA921C02F01F0258
:100E8000604493409140026B9A430A430263206896
:100E900003F030FB8046206803F028FB58EA00008E
:100EA00003D07FE0C0F38460D8E72068AA6829688F
:100EB00003F02CFBC1490968B9EB117F06D1216809
:100EC0006869C968C1F38201490008E02068C16807
:100ED000C906C1686869F5D501F010014908884064
:100EE000296904292ED023682A6803EB810102F0C6
:100EF000F8420B6E024303F0004010430866697E1F
:100F000020682A69012917D05FF0000100EB8200F8
:100F1000026E22F000420A430266297E20682A6996
:100F200001290CD00021036902F01F02914023F433
:100F3000F0420A43026135E04FF00041E6E74FF42A
:100F40000061F0E720682978026E02F0F842B2EB07
:100F5000816F03D1016E21F000410166206829787C
:100F6000426E02F0F842B2EB816F03D1416E21F084
:100F70000041416620682978826E02F0F842B2EBA7
:100F8000816F03D1816E21F000418166206829784C
:100F9000C26E02F0F842B2EB816F03D1C16E21F054
:100FA0000041C1662068816811F0010F78D150F8C6
:100FB000C03F2A7BDFF808C2296802F018022CFA29
:100FC00002FCC1F3130823EA08030CEA010C43EA0C
:100FD0000C0303607B48E968814277D128680103EC
:100FE0001BD090FAA0F1B1FA81F1491C01F01F0168
:100FF00009294FEA003131D8002911D090FAA0F127
:10100000B1FA81F101F1010101F01F0109FA01F2C8
:1010100009D100BFC0F3846109E0C0F38461E4E753
:10102000C0F38461EEE790FAA0F1B1FA81F101F129
:10103000010101F01F0142EA816102D1C0F3846025
:1010400003E090FAA0F0B0FA80F000F1010000F0A7
:101050001F0000EB400041EA005133E000290ED0B0
:1010600090FAA0F1B1FA81F101F1010101F01F0143
:1010700009FA01F206D100BFC0F3846106E0C0F3B3
:101080008461F1E790FAA0F1B1FA81F101F1010177
:1010900001F01F0142EA816103D1C0F3846004E0E2
:1010A00040E090FAA0F0B0FA80F0474A00F1010069
:1010B00000F01F0000EB400002EB005041EA00018D
:1010C00041F00071AA68206803F020FAD5F800C04A
:1010D000BCF1000F26DA3D4B20683D49DFF8F49063
:1010E000984201D0B04201D10A4600E04A469268D7
:1010F000984202F0E07201D0B04209D19D68D6F862
:10110000088005F0010508F0010845EA080503E03C
:10111000DAF8085005F0010545B1606D012740F08F
:1011200020006065384684F850B08BE62A4DAC4507
:101130001BD1150219D45045F4D1984202D0B042C7
:1011400000D049468B6842F4000023F0E07202436D
:101150008A60234921480968B1FBF0F0400000E0B3
:10116000401E00900028FBD1DCE71E4DAC450CD1A1
:10117000D5010AD45045D5D1984202D0B04200D012
:1011800049468B6842F080700EE0174DAC45C9D1DE
:101190005502C7D45045C5D1984202D0B04200D0C4
:1011A00049468B6842F4800023F0E07202438A6073
:1011B000B8E7000000210240006002580010005C07
:1011C000FFFF0F000000FF47000020FE002002404C
:1011D0000023024000630258000084CB400D03004E
:1011E00024000024000052C70000B8CF0068006C43
:1011F00070470000F8B54FF0000604003546009631
:1012000002D0606D10B107E00120F8BD204600F06B
:1012100003F9A66584F8506020688168C1F34071C5
:1012200019B181686F4A1140816020688168C1F3FB
:10123000007179B981686C4A114041F08051816038
:101240006B496A480968B1FBF0F000E0401E00906D
:101250000028FBD120688168C1F3007141B9616D3C
:10126000012541F010016165A16D41F00101A16509
:1012700003F040F9616DC90600D420B1606D01250D
:1012800040F0100093E0606D20F4807040F00200A8
:1012900060652068816811F0010F1FD15549564BD8
:1012A000884201D0984207D18A689E6802F0010204
:1012B00006F00106324303E0504A926802F0010250
:1012C00062B9884201D0984201D14D4800E04D48B2
:1012D0008268616822F47C120A43826000F02CFB71
:1012E00041F20301884202D9A06810280CD0617D28
:1012F000227FA368206B490341EA02411843084357
:10130000217F01290CD010E0607D227F216B4003FA
:1013100040EA024241F01000104340F00C00EFE7B9
:10132000218C394A02EB41410843616A29B1A26A22
:1013300001F47871014342EA01002268334BD1681D
:1013400019400143D160206803F0D4F806462068B4
:1013500003F0CCF830431DD1216844F20303267D0D
:10136000E26AC86842EA863298431043C86094F83B
:10137000380001281ED02068016921F001010161B7
:101380002068626B016921F07041114301612046C0
:10139000FFF730FBE068012820681CD0016B21F0CA
:1013A0000F010163606D20F0020040F001006065F4
:1013B0002846F8BD2068A38F154FD4E9101C154EA0
:1013C00007EB0347A26C036941EA0C013A4333403F
:1013D00011431943D3E7A269016B521E21F00F019B
:1013E0001143DEE7C0FFFF5FC0FFFF7F400D03003A
:1013F0002400002400200240002102400060025826
:1014000000230240006302580000FEFF03C0F0FF0B
:101410000100FFFF1EF800FC006882B00D49884201
:1014200016D10D48016841F080710160016801F03A
:1014300080710091016841F004010160006800F0D2
:10144000040000904FF0806002B0014602F0ECBB57
:1014500002B0704700600258E04402582DE9F0479E
:10146000414D0446006888464049414BA842DFF898
:10147000049101D0484501D10A4600E01A4692681D
:1014800002F01F062269082A14D0AEB1052E13D02F
:10149000092E11D0A84202D0484500D019468868CC
:1014A00000F4404058B1606D40F0200060650120BC
:1014B000BDE8F087082703E0C068C007F2E704270B
:1014C00000F040FA82460BE0B8F1FF3F08D000F090
:1014D00039FAA0EB0A01414511D8B8F1000F0ED03E
:1014E000206800683842EFD0606D40F4007060659D
:1014F000206803F003F8D0B1607D48B117E0606D5B
:10150000002184F8501040F0040060650320CFE70C
:101510002068006800070AD5606D20F4807060655F
:10152000606DC00403D4606D40F001006065206808
:10153000484501D12A4600E00246824210D07EB1E1
:10154000052E0DD0092E0BD0484500D00546E96880
:10155000082F07D0490401D40C2101600020A7E71F
:10156000C168F5E70821F8E70020024000230240A7
:1015700000630258002102402DE9F0413B4D044632
:1015800000683B4FA84201D0B84201D1394900E080
:101590003949896801F01F0602F0ACFF18B1022139
:1015A0000846BDE8F08194F8500001280CD00120D5
:1015B00084F850002046FFF743FB01004FF0000283
:1015C00004D084F85020EBE70220EAE7636D40F690
:1015D000016C206823EA0C03B84243F4807363650E
:1015E00001D12B4600E00346834200D01EB9636D53
:1015F00023F480136365636DDB0404D5A36D23F0CE
:101600000603A36500E0A2651C23036084F8502054
:101610002068B84201D12A4600E00246824215D035
:10162000A6B1052E12D0092E10D0626DB84242F438
:101630008012626500D00546E8688001B0D5606D13
:1016400020F4005040F480506065A9E7C268920120
:1016500005D5626D22F4005242F4805262658268C0
:10166000064B1A40121D82609AE7000000200240DB
:10167000002102400023024000630258C0FFFF7FA8
:1016800010B5044690F85000012808D0012084F8D5
:10169000500003212046FFF731FA10B10BE0022081
:1016A00010BD2046FFF798FA28B9616D21F48851E2
:1016B00041F001016165002184F8501010BD000067
:1016C00070B5044600F03EF90546601C02D004489F
:1016D0000078044400F036F9401BA042FAD370BDF4
:1016E000180000242DE9FC4F01257E4C00234FF00B
:1016F000030A4FF0B04E4FF00F0BEBE005FA03F684
:1017000037403A0077D04F68012F05D0022F03D021
:10171000112F01D0122F1AD187684FEA4308D1F850
:101720000CC00AFA08F927EA09070CFA08FC4CEA87
:10173000070CC0F808C0476891F804C0B743CCF361
:10174000001C0CFA03FC4CEA070CC0F804C0C66885
:101750004FEA430CD1F80880E1460AFA0CF7BE4381
:10176000019708FA09F848EA0608C0F80C804E68A4
:10177000022E01D0122E12D1DE084FEA437C00EB7C
:10178000860600960F69366A4FEADC6C0BFA0CF895
:1017900007FA0CF726EA08063743009E37620E79EF
:1017A0000768DDF804C006F0030606FA09F627EA22
:1017B0000C073E4306604E68F6001CD54A4E37685B
:1017C00047F00207376036689F0706F0020600966A
:1017D00023F0030606F1B046B1463F0FD6F8086481
:1017E000DFF808810BFA07FC404526EA0C0603D116
:1017F0004FF0000C41E06CE0DFF8F4C0604502D12E
:101800004FF0010C39E0DFF8ECC0604502D14FF039
:10181000020C32E0DFF8E0C0604502D14FF0030C6B
:101820002BE0DFF8D8C0604502D14FF0040C24E073
:10183000DFF8CCC0604502D14FF0050C1DE0DFF8A9
:10184000C4C0604502D14FF0060C16E0DFF8B8C006
:10185000604502D14FF0070C0FE0DFF8B0C06045E3
:1018600002D14FF0080C08E0DFF8A4C0604502D1B7
:101870004FF0090C01E04FF00A0C0CFA07FC4CEA9F
:10188000060CC9F808C426684F6826EA0206FF035A
:1018900000D51643266066684F6826EA0206BF0335
:1018A00000D516436660D1F804C07646DEF80070B5
:1018B0005FEACC2C27EA020700D517433760D1F83E
:1018C00004C077685FEA8C2C27EA020700D517432B
:1018D00077605B1C0A681746DA407FF40FAFBDE8FB
:1018E000FC8F000080000058F444025800000258A9
:1018F0000004025800080258000C02580010025858
:101900000014025800180258001C02580020025807
:10191000002402580069084000D0012070470AB135
:10192000816170470904FBE702480068C0F30B00BF
:10193000704700000010005C01480068000C704710
:101940000010005C01488068704700001800002407
:1019500002488168027811448160704718000024B1
:10196000032010B500F0CCF801F09AF90F4A1049A5
:1019700014681368C4F3032203F00F038A5CC95C84
:1019800002F01F0201F01F01D0400A4A20FA01F1C3
:10199000116009490860002000F010F808B101202A
:1019A00010BD00F079F8002010BD00001844025866
:1019B000AA600008280000242400002470B50D4D02
:1019C00004462878A0B14FF47A71B1FBF0F00A49CF
:1019D0000968B1FBF0F002F041F948B9102C07D2C8
:1019E00000222146501E00F06BF800206C6070BD94
:1019F000012070BD1800002424000024F0B5154C0F
:101A00004378211D0A1D23600378F3B143680B60FE
:101A1000057BC67A817A437B2D07847B45EA066580
:101A2000C77B90F809C0067A90F800E045EAC1400B
:101A300040EA834040EA444040EA074040EA0C2044
:101A400040EA460040EA0E0001E000200860106015
:101A5000F0BD000098ED00E0BFF35F8F0448002167
:101A60000368034A23F480330360703211607047C7
:101A700024ED00E0074A40F0010006497032106092
:101A8000086840F480300860BFF34F8FBFF36F8F5A
:101A90007047000024ED00E0084808B5016841F0F7
:101AA00002010160006800F00200009002F0C4F83A
:101AB000BDE80840022002F0C7B80000F444025814
:101AC0000E4BF0B41B680D46C3F30223C3F10706A7
:101AD000042E00D90426191D072901D2002300E095
:101AE000DB1E012404FA06F19C40491E2940641EB5
:101AF000994014402143F0BC04F03DB90CED00E0E6
:101B0000064900F0070210B54FF6FF040868044BC1
:101B1000204040EA02201843086010BD0CED00E0B0
:101B20000000FA05134970B50A68D243520705D57B
:101B3000096801F00701814213D118E00A6822F018
:101B4000070202430A60FFF7FDFE0A4D4FF47A7662
:101B50000446083D07E000BFFFF7F4FE001BB0425B
:101B600001D9012070BD2868C0438004F4D400204E
:101B700070BD00000C48025810B501F06FF805491F
:101B80000968054AC1F30211515C01F01F01C84008
:101B900010BD000020440258AA600008494930B531
:101BA000484C0B1D0A680C3409681D68246802F053
:101BB000030305F00102C1F30511C4F3CC040029AD
:101BC00014FB02F200EE102AF8EE400A75D03F4AEC
:101BD0009FED3D1AB7EE000A6BB1DFED3D1A012B08
:101BE00001D0022B64D002EE101A1168F8EE422ADE
:101BF00081EEA22A21E0334C283C23689B0612D5B3
:101C0000344B246801EE901A1168C4F3C104F8EE55
:101C1000612AE34001EE903AC1F30801F8EE611A3F
:101C200081EEA22A0BE001EE901ADFED2B2A00BF15
:101C3000F8EE611A116882EEA12AC1F3080101EEE3
:101C4000901A1168F8EE611A40EE811A71EE800A5E
:101C500062EE200AC1F3462101EE101AB8EE411AD5
:101C600031EE001AC0EE811ABCEEE11A80ED001AC6
:101C70001168C1F3064101EE101AB8EE411A31EEB7
:101C8000001AC0EE811ABCEEE11A80ED011A11684B
:101C9000C1F3066101EE101AB8EE411A31EE000AE6
:101CA00080EE801ABCEEC10A80ED020A30BD04E06D
:101CB00001EE901ADFED092ABAE7002101604160C8
:101CC0008160F3E72844025800000039304402588C
:101CD0000024744A0090D0030024744C20BCBE4BF6
:101CE000494930B5484C0B1D0A68143409681D6811
:101CF000246802F00303C5F30012C1F30531C4F3F5
:101D0000CC04002914FB02F200EE102AF8EE400A7F
:101D100075D03F4A9FED3D1AB7EE000A6BB1DFED7B
:101D20003D1A012B01D0022B64D002EE101A11686B
:101D3000F8EE422A81EEA22A21E0334C283C2368A7
:101D40009B0612D5344B246801EE901A1168C4F337
:101D5000C104F8EE612AE34001EE903AC1F30801B4
:101D6000F8EE611A81EEA22A0BE001EE901ADFED87
:101D70002B2A00BFF8EE611A116882EEA12AC1F386
:101D8000080101EE901A1168F8EE611A40EE811A0E
:101D900071EE800A62EE200AC1F3462101EE101AAC
:101DA000B8EE411A31EE001AC0EE811ABCEEE11A0B
:101DB00080ED001A1168C1F3064101EE101AB8EE69
:101DC000411A31EE001AC0EE811ABCEEE11A80ED24
:101DD000011A1168C1F3066101EE101AB8EE411A3A
:101DE00031EE000A80EE801ABCEEC10A80ED020AD4
:101DF00030BD04E001EE901ADFED092ABAE70021B8
:101E0000016041608160F3E7284402580000003916
:101E1000384402580024744A0090D0030024744CC3
:101E200020BCBE4B494930B5484C0B1D0A681C34D8
:101E300009681D68246802F00303C5F30022C1F39A
:101E40000551C4F3CC04002914FB02F200EE102A61
:101E5000F8EE400A75D03F4A9FED3D1AB7EE000AF2
:101E60006BB1DFED3D1A012B01D0022B64D002EEE5
:101E7000101A1168F8EE422A81EEA22A21E0334CB2
:101E8000283C23689B0612D5344B246801EE901A37
:101E90001168C4F3C104F8EE612AE34001EE903A00
:101EA000C1F30801F8EE611A81EEA22A0BE001EEFF
:101EB000901ADFED2B2A00BFF8EE611A116882EE4E
:101EC000A12AC1F3080101EE901A1168F8EE611A17
:101ED00040EE811A71EE800A62EE200AC1F34621BB
:101EE00001EE101AB8EE411A31EE001AC0EE811A56
:101EF000BCEEE11A80ED001A1168C1F3064101EE53
:101F0000101AB8EE411A31EE001AC0EE811ABCEE7A
:101F1000E11A80ED011A1168C1F3066101EE101A91
:101F2000B8EE411A31EE000A80EE801ABCEEC10A0A
:101F300080ED020A30BD04E001EE901ADFED092ABF
:101F4000BAE70021016041608160F3E7284402584C
:101F500000000039404402580024744A0090D00325
:101F60000024744C20BCBE4B2DE9F0474FF4807622
:101F70000146B0426F48DFF8B8818AB06E4B4FF02F
:101F800080576E4DA8F104044FEA20124FF0005C18
:101F900029D1D8F8001001F0070105291FD2DFE888
:101FA00001F0030A0F20140006A8FFF7F7FD0798B9
:101FB0000AB0BDE8F0876846FFF792FE0098F7E7A1
:101FC00003A8FFF72FFF0398F2E7216811F04051B3
:101FD000EED0B94275D11046EAE71846E8E700208E
:101FE000E6E72846E4E7B1F5007F19D0544EB1F595
:101FF000806F26D0B1F5006F37D04FF48059494536
:102000004FF4804A4BD1D8F8001001F4E041B1F50B
:10201000005FD5D03DDC0029C6D04945DFD1CAE7F5
:10202000D8F8001001F4E0718029C9D004DC00293F
:10203000BAD04029D3D1BEE7C029D2D0B142CED147
:10204000C3E7316801F46001B1F5800FB8D005DC59
:102050000029A9D0B1F5001FC1D1ACE7B1F5C00F7F
:10206000BFD0B1F5000FBAD1AFE7316801F0E06140
:10207000B1F1007FA4D005DC002995D0B1F1807FBB
:10208000ADD198E7B1F1407FABD0B1F1806FA6D16F
:102090009BE7B1F5405FA4D05145A0D195E7B1F5DC
:1020A000002F4FF480350DD0A9421DD1206810F4C7
:1020B0008030B1D0A84292D16846FFF711FE029855
:1020C00076E70EE0316811F44031A8D0A94203D080
:1020D000B1F5003F83D178E703A8FFF7A3FE059889
:1020E00066E761459AD178E7514597D1316801F0AB
:1020F000E041B1F1405FE3D009DC81B1B94211D0D8
:1021000061458BD103A8FFF78DFE049850E7B1F12C
:10211000804F3FF460AFB1F1A04F8BD15DE7FFF787
:102120002BFD45E76846FFF7DBFD019840E700001F
:10213000504402580090D00340787D010080BB00DD
:10214000584402582DE9FC5F044650F8241B002532
:1021500000902E460801FE4FDFF8F8831DD5606E13
:1021600050B1B0F5801F0CD0B0F5001F0ED0B0F507
:10217000401F1DD001250FE0386840F40030386062
:1021800016E00221201D02F051FB03E0009802211D
:1021900002F0DCFB05000BD02E462088C00523D5BD
:1021A000606D05281ED2DFE800F00C11161B1B0025
:1021B000626ED8F8001021F440111143C8F80010E5
:1021C000EBE7386840F40030386009E00021201D5A
:1021D00002F02CFB03E00098002102F0B7FB05465B
:1021E0006DB100E001252E462088800528D5A06D20
:1021F00080281ED00CDC90B140280ED114E0626D16
:10220000D8F8001021F007011143C8F80010EBE7DF
:10221000C02813D0B0F5807F10D001250FE03868BA
:1022200040F40030386009E00021201D02F0FEFA81
:1022300003E00098002102F089FB054695B12E4687
:102240002088DFF81093400509F108092CD5D4F84F
:10225000A400B0F5800F20D00DDCA0B1B0F5001FB8
:102260000FD115E0A26DD8F8001021F4E0711143F0
:10227000C8F80010E4E7B0F5C00F13D0B0F5000FB8
:1022800010D001250FE0386840F40030386009E0D4
:102290000021201D02F0CAFA03E00098002102F09C
:1022A00055FB054675B12E46208800052DD5D4F87E
:1022B000A800B0F1007F21D00EDCA8B1B0F1807F82
:1022C00010D116E0D4F8A420D9F8001021F4600150
:1022D0001143C9F80010E7E7B0F1407F13D0B0F127
:1022E000806F10D001250FE0386840F4003038606E
:1022F00009E00021201D02F099FA03E00098002176
:1023000002F024FB05466DB12E46206880011FD5E2
:10231000A06CD8B110280FD0202812D0302815D0AA
:10232000012514E0D4F8A820D9F8001021F0E061CC
:102330001143C9F80010E8E7386840F4003038600D
:1023400004E00221201D02F071FA05466DB12E460F
:102350002088C0042BD5E06DB0F5005F20D00DDCE7
:10236000A0B1B0F5805F0FD115E07A48A26C001FD4
:10237000016821F0300111430160E9E7B0F5405FE9
:1023800013D0B0F5804F10D001250FE0386840F42D
:102390000030386009E00021201D02F047FA03E018
:1023A0000098002102F0D2FA054685B12E46208819
:1023B000800429D5206EB0F5403F23D010DC08B34F
:1023C000B0F5803F14D0B0F5003F0FD115E0E26DBD
:1023D000D8F8001021F4E0411143C8F80010E6E7F6
:1023E000B0F5802F0ED0B0F5A02F0BD001250AE05C
:1023F0000121201D02F01AFA03E00098012102F0E9
:10240000A5FA05468DB12E46208840042AD5D4F879
:10241000AC00B0F1405F23D010DC08B3B0F1805FB6
:1024200014D0B0F1005F0FD115E0226ED8F8001083
:1024300021F4E0211143C8F80010E5E7B0F1804F26
:102440000ED0B0F1A04F0BD001250AE00121201DD4
:1024500002F0ECF903E00098012102F077FA05465A
:102460006DB12E46208800041FD5E06ED8B1B0F1C2
:10247000805F0ED0B0F1005F10D0012514E0D4F8D9
:10248000AC20D9F8001021F0E0411143C9F8001048
:10249000E8E7386840F40030386004E00121201D8E
:1024A00002F0C4F905466DB12E462068C0011ED564
:1024B000606CD0B101280ED0022811D0032814D0AE
:1024C000012513E0E26ED8F8001021F040511143CD
:1024D000C8F80010E9E7386840F40030386004E0DC
:1024E0000221201D02F0A2F9054685B12E46206882
:1024F000DFF85CB04002ABF11C0B57D51648016801
:1025000041F480710160FFF71DFA82460EE0114828
:10251000626C001F016821F0030111430160E6E7CE
:10252000FFF710FAA0EB0A0064283DD80A480068BB
:10253000C005F5D57DBBDFF81CA0B4F8B0100AF1DA
:10254000200ADAF8000001F4407100F4407005E060
:102550002C4402585044025800480258884211D076
:10256000DAF80010DAF8002021F4407142F48032E9
:10257000CAF80020DAF8002022F48032CAF80020DD
:10258000CAF80010D4F8B000B0F5807F21D1FFF771
:10259000D9F9019019E008E0FFF7D4F90199411A3F
:1025A00041F28830814210D903252E462078DFF889
:1025B00030A4C0073DD0A06F182838D026DC80B3E7
:1025C000082829D0102825D12CE0DAF8000080074F
:1025D000E2D5D4F8B010C1F30120032858460DD03D
:1025E000016821F47C510160B4F8B020DAF80010E1
:1025F000C2F30B021143CAF80010D7E7F94A036887
:1026000002EA111223F47C511143ECE720280ED08A
:1026100028280CD001250BE00121201D02F006F92D
:1026200004E004E00098012102F090F905465DB154
:102630002E46207880071ED5606F062819D2DFE865
:1026400000F0160C11161616A26FDAF8001021F021
:1026500038011143CAF80010EBE70121201D02F0F8
:10266000E5F803E00098012102F070F9054675B124
:1026700000E001252E46207840071FD5D4F89000B1
:10268000062819D2DFE800F0160C11161616626F34
:10269000DAF8001021F007011143CAF80010EAE748
:1026A0000121201D02F0C2F803E00098012102F090
:1026B0004DF905469DB100E001252E4620788006A3
:1026C0002BD5D4F88C00B0F1405F24D011DC10B3CE
:1026D000B0F1805F15D0B0F1005F10D116E0D4F8F2
:1026E0009020D9F8001021F007011143C9F800101B
:1026F000E4E7B0F1804F0ED0B0F1A04F0BD0012530
:102700000AE00021201D02F091F803E00098022168
:1027100002F01CF905468DB12E46207840062BD5D7
:10272000D4F89800B0F5406F24D011DC10B3B0F5A8
:10273000806F15D0B0F5006F10D116E0D4F88C2062
:10274000DAF8001021F0E0411143CAF80010E4E784
:10275000B0F5805F0ED0B0F5A05F0BD001250AE088
:102760000021201D02F062F803E00098022102F02F
:10277000EDF805468DB12E46207800062BD5D4F80D
:102780009C00B0F5C04F24D011DC10B3B0F5005F51
:1027900015D0B0F5804F10D116E0D4F89820D9F8B4
:1027A000001021F4E0511143C9F80010E4E7B0F53E
:1027B000004F0ED0B0F5204F0BD001250AE00021CC
:1027C000201D02F033F803E00098022102F0BEF869
:1027D00005464DB12E46207800071ED5D4F880005E
:1027E000B0F5805F0AD00FE0D4F89C20D9F8001033
:1027F00021F460411143C9F80010ECE70098022170
:1028000002F0A4F800B10126D4F88020DAF8001014
:1028100021F440511143CAF800102078C00613D5A6
:10282000D4F89400B0F5807F05D10098022102F021
:102830008DF800B10126D4F89420D9F8001021F4C5
:1028400040711143C9F800102068000316D5D4F870
:10285000A00038B1B0F5803F09D0B0F5003F0BD0F3
:1028600001250AE00021201D01F0E0FF03E00098AF
:10287000022102F06BF8054685B12E462068400320
:1028800022D5D4F88400B0F5801F11D0B0F5001F18
:1028900013D0B0F5401F15D0012514E0D4F8A020C6
:1028A000D9F8001021F440311143C9F80010E5E7D0
:1028B000386840F40030386004E00098012102F0EC
:1028C00045F8054655B12E462068C0031CD5E06C7E
:1028D00070B1B0F5803F10D0012514E0D4F8842009
:1028E000DAF8001021F440111143CAF80010EBE7A8
:1028F000386840F40030386004E00221201D01F007
:1029000095FF0546CDB12E462068800005D500987C
:10291000022102F01BF800B10126206880031BD5BC
:10292000E06FB8B1B0F5807F10D0B0F5007F11D066
:10293000B0F5407F0ED001250DE02948E26C083843
:10294000016821F4803111430160DDE7386840F40B
:1029500000303860F5B32E462068C00207D5226FDC
:10296000D8F8001021F000411143C8F80010206889
:10297000C00008D5D4F8B420DBF8001021F4804161
:102980001143CBF800102068800207D5A26ED8F85A
:10299000001021F080711143C8F800102068400039
:1029A0000CD5DBF8001021F40041CBF80010DBF867
:1029B0000010D4F8B8201143CBF80010206800288C
:1029C00007DA0748226D0838016821F040511143A9
:1029D000016000E008E086B10120BDE8FC9F000036
:1029E00054440258CFFFFF00E26FDAF8001021F4E0
:1029F00040711143CAF80010AEE70020EDE7000077
:102A00002DE9F05F04000F467ED0DFF83882D8F859
:102A1000000000F00F00B8420CD2D8F8001021F0EE
:102A20000F013943C8F80010D8F8000000F00F007B
:102A3000B84269D12078844D40070AD520692968B9
:102A400001F07001884204D9296821F07001014326
:102A5000296020787C4E361D00070AD560693168F0
:102A600001F07001884204D9316821F070010143FE
:102A700031602078C0060AD5A069316801F4E061B0
:102A8000884204D9316821F4E06101433160207843
:102A9000DFF8B4B180060BF1080B0CD5E16958469C
:102AA000DBF8002002F07002914204D9026822F0A3
:102AB00070020A430260207880070AD5E06829681E
:102AC00001F00F01884204D9296821F00F01014368
:102AD00029602078C0073ED05B49A2682868183971
:102AE00020F47060104328606068022818D0032822
:102AF00019D00968012819D0490700294ADADFF8F6
:102B000048A1AAF1080A00E044E0DAF8002022F027
:102B100007020243CAF80020FEF714FF814612E0C4
:102B200009688903E9E709688901E6E7C905E4E777
:102B3000FEF708FFA0EB090141F28830814202D97B
:102B40000320BDE8F09F6168DAF8000000F038006B
:102B5000B0EBC10FECD1207880070AD5E068296876
:102B600001F00F01884204D2296821F00F010143CE
:102B70002960D8F80010404601F00F01B9420BD986
:102B8000016821F00F0139430160006800F00F0077
:102B9000B84201D00120D4E7207840070AD5206947
:102BA000296801F07001884204D2296821F070017F
:102BB00001432960207800070AD56069316801F077
:102BC0007001884204D2316821F070010143316004
:102BD0002078C0060AD5A069316801F4E061884216
:102BE00004D2316821F4E06101433160207880062D
:102BF0000CD5E1695846DBF8002002F070029142E2
:102C000004D2026822F070020A43026000F048F821
:102C10000E492A682B68C2F3032203F00F038A5C73
:102C2000C95C02F01F0201F01F01D040084A20FADF
:102C300001F111600749086007480068BDE8F05FCE
:102C4000FEF7BCBE0020005218440258AA600008DB
:102C500028000024240000241C00002430B500F0CB
:102C60001FF80B4A0B490C4B15681468C5F3032277
:102C700004F00F048A5C095D02F01F0201F01F01DD
:102C8000D040064A20FA01F119601060084630BDB4
:102C900018440258AA6000082800002424000024D8
:102CA000454970B545480968434B103B11F038025F
:102CB00008D00111082A03D0102A0BD0182A0BD0F3
:102CC000084670BD19688906FBD51968C1F3C101B2
:102CD000C84070BD3A4870BD3749374D18310C1D9A
:102CE00024350A68096826682D6802F0030406F096
:102CF0000102C1F30511C5F3CC0515FB02F200EE8C
:102D0000102AB8EE400AE9B32F4ADFED2E0AB7EEDB
:102D1000001A6CB1DFED2D1A012C01D0022C43D02A
:102D200002EE101A1068F8EE422A81EEA22A1EE086
:102D30001C68A40611D51B6801EE901A1168C3F334
:102D4000C103F8EE612AD84001EE900AC1F30800F1
:102D5000F8EE611A81EEA22A0BE001EE901ADFED87
:102D60001C2A00BFF8EE611A106882EEA12AC0F397
:102D7000080001EE900AF8EE611A40EE201A31EEDA
:102D8000810A00E015E022EE000A1068C0F3462038
:102D9000401C00EE900AF8EE600A80EE201ABCEEAD
:102DA000C10A10EE100A70BD01EE901ADFED092A7B
:102DB000D8E7002070BD0000104402580090D003F6
:102DC00040787D0100000039304402580024744AE4
:102DD0000024744C20BCBE4B2DE9F05F04007CD075
:102DE000FF4F2078FE4D1837DFF8F493103DC007F1
:102DF00048D0D9F80000396800F03800102815D004
:102E0000182803D101F0030002280FD06068B0F544
:102E1000803F12D010B1B0F5A02F18D0286820F450
:102E200080302860286820F4802009E0286880032A
:102E300028D560680028D2D024E0286840F480308B
:102E40002860606888B1FEF77DFD064609E02868C5
:102E500040F480202860F0E7FEF774FD801B6428B2
:102E60007ED828688003F7D50CE0FEF76BFD064698
:102E700005E000BFFEF766FD801B6428F0D82868D7
:102E80008003F7D4207841F20308D54E0C3E80072A
:102E900053D5D9F80000396810F038000ED0182842
:102EA00001D188070AD0E068A8B3296821F0190188
:102EB00001432960FEF746FD82461BE02868400773
:102EC00002D5E06800288AD0FEF736FD40451BD8C1
:102ED0002069402812D0316800E0CCE021F47C3138
:102EE00041EA0030306028E0FEF72CFDA0EB0A003C
:102EF0000228B5D828684007F6D5E5E7306820F401
:102F00007C3040F40030EDE7207C316821F0FE4158
:102F100041EA0060E6E7FFE7286820F0010028604A
:102F2000FEF710FD824605E0FEF70CFDA0EB0A005F
:102F3000022895D828684007F6D42078C0065FD5C7
:102F4000D9F80000DFF898B2396800F03800ABF12A
:102F5000040B082812D0182805D101F0030000E066
:102F6000EAE001280AD0E0690028286838D040F05B
:102F700080002860FEF7E6FC824623E02868C00552
:102F800023D5E069802876D11FE0206A202821D04F
:102F9000316821F0F84141EA8060306030E000BFE4
:102FA00094F82010DBF8002022F07C5242EA016104
:102FB000CBF8001024E000BFFEF7C4FCA0EB0A0031
:102FC000022896D82868C005F6D5FEF7B5FC40451E
:102FD000E6D8DAE7306820F0F84040F08040DCE7DF
:102FE00020F080002860FEF7ADFC064605E000BF3B
:102FF000FEF7A8FC801B02289BD82868C005F7D4E0
:103000002078000729D57648616964300029804618
:10301000016811D041F001010160FEF793FC064602
:1030200005E000BFFEF78EFC801B0228C9D8D8F847
:1030300000008007F6D510E021F001010160FEF7E5
:1030400081FC064605E000BFFEF77CFC801B0228E1
:1030500072D8D8F800008007F6D42078800623D5EF
:10306000A0690028286810D040F480502860FEF73E
:1030700069FC064605E02CE1FEF764FC801B022893
:103080005AD828688004F7D50EE020F480502860D4
:10309000FEF758FC064604E0FEF754FC801B0228AD
:1030A0004AD828688004F7D4207840074FD5DFF845
:1030B0003481D8F8001041F48071C8F80010FEF790
:1030C00041FC064605E000BFFEF73CFC801B64287F
:1030D00032D8D8F80000C005F6D5414EA068603659
:1030E00001280AD008B1052813D0306820F001006B
:1030F0003060306820F0040002E0306840F00100E9
:103100003060A06841F2883A90B1FEF71BFC80461F
:103110000AE0306840F004003060EEE7FEF712FC91
:10312000A0EB0801514507D830688007F6D50EE0BE
:10313000FEF708FC804607E084E000BFFEF702FCD3
:10314000A0EB080151457DD830688007F6D4606A4D
:10315000F0B3DFF88C80D9F8001008F12008C1F333
:10316000C20103296FD00228286820F080702860EF
:1031700003D0FEF7E7FB044680E0FEF7E3FB0646DC
:1031800005E000BFFEF7DEFB801B022873D828682D
:103190008001F7D4E26A40F2F331386854F8283FEE
:1031A000884340EA021018433860217B4FF4FE0C3C
:1031B00022894FF0FE47208A4902267D521E401E7A
:1031C000A1F5007189B20CEA0040C2F3080200E0E8
:1031D00081E01143761E0143014807EA066203E0DD
:1031E00010440258004802581C3011433B4AC8F8AA
:1031F0000010016821F00101016011684FF6F876B6
:10320000236AB14341EAC30111600168A26921F058
:103210000C01114301600168E26921F002011143D0
:103220000160016841F480310160016841F40031BE
:103230000160016841F480210160016841F00101F1
:10324000016001E017E01DE0286840F08070286010
:10325000FEF778FB044604E0FEF774FB001B02282F
:1032600009D828688001F7D535E000BFFEF76AFB72
:10327000001B022802D90320BDE8F09F28688001C6
:10328000F4D428E039680128D8F8000021D0A26AD7
:1032900001F0030393421CD1E26AC1F305118A4293
:1032A00017D1216BC0F30802491E8A4211D1616B0C
:1032B000C0F34622491E91420BD1A16BC0F30642D6
:1032C000491E914205D1E16BC0F30660491E81425F
:1032D00001D00120D0E70020CEE70000344402589E
:1032E0002DE9F047040029D04A4A4FF00009206830
:1032F000494B4A4D9042C4F8289006D0984204D0D9
:10330000A84202D0E1680F2918D8E1684FF0010AFD
:10331000E76B0831C9080AEB57167143904205D094
:10332000984203D0A84201D0082907D8904203D080
:10333000984201D0A84204D1102902D90120BDE849
:10334000F08794F8810020B9204684F8809000F03E
:1033500067F8022084F881002068016821F00101EB
:103360000160A069B0F1806F0AD16068B0F5800F8C
:1033700006D1A06B20B92068016841F4805101603A
:10338000A56AE0692368E16B2843E26808431043BB
:103390009860D4E90D02D4E905C1636A2569184330
:1033A000D4F820800A43266810432843A56DD4E949
:1033B0000172D4E9123140EA0C0040EA08003843B7
:1033C0000843104318432843F060606868B92068D8
:1033D000816821F4C05141F40061816020688168F6
:1033E00021F4C06141F4806181602068016D21F0A9
:1033F000010101656068400206D52068626DC16800
:1034000021F000411143C160C4F8849084F881A088
:10341000002094E70030014000380040003C0040AC
:1034200010B586B0044614216846FDF747F91249E5
:10343000206888421ED11148016841F400510160A2
:10344000006800F4005005900C481038016841F005
:103450001001016000680221002200F010000590B8
:10346000012305244FF4A0408DE81F00044869465D
:10347000FEF738F906B010BD00340140F0440258A0
:10348000001002582DE9FF5F044616460F461D4600
:1034900000214FF0040BD4E900020091303002907B
:1034A000B2F5800F01D1A06888B194F8800001289E
:1034B00019D04FF0010984F88090FEF743FA94F890
:1034C00081108246002001290FD0022126E084F8D5
:1034D00081B03A46114620460093334600F014FA74
:1034E00004B0BDE8F09F0220FAE7B7B1AEB1A26820
:1034F00080466766A4F8686084F881B0C4F88400E8
:10350000A4F86A60E065A4F86000A4F86200B2F56F
:10351000C02F2067606705D009E0012184F8800092
:103520000846DDE72068016821F400610160206839
:1035300041686FF30F01314341602068016841F039
:10354000010101606068B0F5800F04D12068016856
:1035500041F400710160E0680F282ED948F2080696
:10356000B4F86A00002859D02068416931420BD074
:10357000006B616E0860606E001D6066B4F86A00E2
:10358000401EA4F86A00EBE7FEF7DCF9A0EB0A00A6
:10359000A84202D3681CE3D001E0002DE0D1204610
:1035A00001F064FAD4F8842084F8808042F48071B9
:1035B000C4F8841084F8819079E007282AD868E05C
:1035C0002068416911F4604F19D04169090409D597
:1035D000006B616E0860606E001D6066B4F86A0082
:1035E000801E09E002980088616E0880606E801C71
:1035F0006066B4F86A00401EA4F86A000AE0FEF7AC
:10360000A1F9A0EB0A00A84202D3681C02D0C6E7C9
:10361000002DC4D0B4F86A000028D1D13DE0206864
:10362000416911F4604F2AD04169090409D5006B42
:10363000616E0860606E001D6066B4F86A00001F6D
:103640001AE0416901F4C041B1F5005F0AD902985E
:103650000088616E0880606E801C6066B4F86A0045
:10366000801E09E090F83000616E0870606E401CAA
:103670006066B4F86A00401EA4F86A0009E0FEF72C
:1036800061F9A0EB0A00A84202D3681C01D010E047
:103690007DB1B4F86A000028C1D1204601F0E6F9F6
:1036A00084F88190D4F8841084F8808079B1012066
:1036B00016E7204601F0DAF9D4F8842084F88080F7
:1036C00042F48070C4F8840084F88190EFE7009899
:1036D00006E72DE9FC5F0446006817468A4600218C
:1036E0001D4694F8802000F1200B0191012A0DD095
:1036F0004FF0010884F88080FEF724F9814694F8A1
:1037000081000026012804D002201EE00220BDE82E
:10371000FC9FBAF1000F17D0B7B1A1680320C4F81D
:103720005CA0A4F8607084F88100C4F88460A4F8F8
:1037300062706666A4F86860A4F86A60B1F5C02F8C
:103740006667266704D008E0012084F88060DEE721
:103750002068016841F400610160206841686FF3EE
:103760000F01394341602068016841F001010160A7
:103770006068B0F5800F04D12068016841F40071E1
:103780000160E0680F281AD82CE020684169890799
:103790000BD5E16D09680162E06D001DE065B4F8CC
:1037A0006200401EA4F8620009E0FEF7CBF8A0EB2F
:1037B0000900A84202D3681C01D005E025B1B4F885
:1037C00062000028E1D183E0204601F04FF9D4F8EF
:1037D000841084F8806041F48071C4F8841084F807
:1037E00081808DE007282CD86EE020684169890728
:1037F0001CD5B4F8621001290BD9E16B49B1E16D18
:1038000009680162E06D001DE065B4F86200801E89
:1038100009E0E06D0188ABF80010E06D801CE06508
:10382000B4F86200401EA4F862000AE0FEF78AF8CD
:10383000A0EB0900A84202D3681C02D0C4E7002D07
:10384000C2D0B4F862000028CFD141E020684169BD
:1038500089072ED5B4F8621003290CD9E16B4029F1
:1038600009D9E16D09680162E06D001DE065B4F8F9
:103870006200001F1AE0B4F8621001290CD9E16B54
:1038800051B1E06D0188ABF80010E06D801CE0657F
:10389000B4F86200801E09E0E16D097880F820101C
:1038A000E06D401CE065B4F86200401EA4F86200C0
:1038B0000AE0FEF747F8A0EB0900A84202D3681C13
:1038C00002D081E7002DB9D0B4F862000028BDD144
:1038D00000224B4608212046009501F025F928B129
:1038E000D4F8840040F02000C4F88400204601F0A1
:1038F000BDF884F88180D4F8840084F8806008B131
:10390000012004E7019802E72DE9FF4F83B090F80A
:1039100080100446006801294FF00001109F1D46E9
:10392000019100F1200100F13000934602910090D6
:1039300014D04FF0010A84F880A0FEF703F8804607
:1039400094F881006368002101282E464FF480021C
:103950000CD0934208D1A36833B903E0022007B02A
:10396000BDE8F08F042801D0022037E0049898B316
:10397000BBF1000F31D07DB394F88100042802D050
:10398000052084F8810089460846C4F88410C4F8EC
:1039900064B0A4F86A50A4F868500499E165A4F8EA
:1039A0006250A4F8605020676067206841686FF338
:1039B0000F01294341602068016841F00101016065
:1039C0006068904204D12068016841F40071016090
:1039D000E0680F2835D846E0FFE7012084F8801022
:1039E000BDE72068416989070DD565B1E16D0968BA
:1039F0000162E06D001DE065B4F86200401EA4F8AD
:103A00006200B4F8625048F208022068416911422D
:103A10000DD066B1006B616E0860606E001D60665F
:103A2000B4F86A00401EA4F86A00B4F86A60FDF7B2
:103A300089FFA0EB0800B84202D3781C01D004E053
:103A40001FB155EA0600CCD1D2E0204601F00EF8B5
:103A5000D4F8842084F8809042F48071C4F88410F3
:103A600084F881A0DCE007284DD8BEE020684169D9
:103A700089071CD5DDB1012D0BD9E16B49B1E16D91
:103A800009680162E06D001DE065B4F86200801E07
:103A900009E0E06D018802980180E06D801CE0651E
:103AA000B4F86200401EA4F86200B4F862502068C6
:103AB000416911F4604F1BD0D6B14169090409D5A1
:103AC000006B616E0860606E001D6066B4F86A008D
:103AD000801E09E000980088616E0880606E801C7E
:103AE0006066B4F86A00401EA4F86A00B4F86A6020
:103AF000FDF728FFA0EB0800B84202D3781C02D0E3
:103B0000A3E7002FA1D055EA0600AFD170E02068EE
:103B1000416989072CD55DB3032D0CD9E16B402990
:103B20000BD9E16D09680162E06D001DE065B4F834
:103B30006200001F18E0012D0CD9E16B51B1E06D5E
:103B4000018802980180E06D801CE065B4F8620095
:103B5000801E09E0E16D097880F82010E06D401CBE
:103B6000E065B4F86200401EA4F86200B4F8625048
:103B70002068416911F4604F2CD05EB3416909049B
:103B800009D5006B616E0860606E001D6066B4F858
:103B90006A00001F1AE0416901F4C041B1F5005FFD
:103BA0000AD900980088616E0880606E801C60668B
:103BB000B4F86A00801E09E090F83000616E087069
:103BC000606E401C6066B4F86A00401EA4F86A008B
:103BD000B4F86A60FDF7B6FEA0EB0800B84202D365
:103BE000781C02D031E7002F8AD055EA06008ED12A
:103BF0000022434608212046009700F095FF28B197
:103C0000D4F8840040F02000C4F88400204600F07E
:103C10002DFF84F881A0D4F8841084F8809009B135
:103C200001209CE601989AE6024A136883430B43FD
:103C300013607047040400580248016821F0010134
:103C400001607047003C005803490A6822F00202F4
:103C500002430A6070470000003C0058401EB0F16B
:103C6000807F10B501D3012010BD4FF0E0246061CA
:103C70000F21601702F07FF80020A0610721216169
:103C800010BD00002DE9F04390F83C20012A42D0FD
:103C9000012280F83C2051F80C4BDFF880804FF077
:103CA000000991E8680051E9022723F44073B1F854
:103CB0000CC03B43CF6923F480631343026823F4B1
:103CC0000063234323F4805343EA050323F40053A2
:103CD00043EA060323F4804343EA07030C3923F441
:103CE0007023424543EA0C4302D00D4CA2420CD152
:103CF0008D8C23F47006D1E9073446EA055121F092
:103D00008071194321F000732343536480F83C9081
:103D10000020BDE8F0830220FBE700000000014026
:103D200000040140F0B590F83C20012A38D01D4E27
:103D3000012480F83C40022280F83D2002681A4DA0
:103D40005368B242D2F808C001D0AA4203D14F68EA
:103D500023F470033B430F6823F070031F43576045
:103D60000268B24210D0B2F1804F0DD00F4B9A4290
:103D70000AD00F4B9A4207D00E4B9A4204D0AA4267
:103D800002D00D4B9A4204D189682CF0800319436C
:103D90009160002180F83D4080F83C100846F0BD5D
:103DA0000220F0BD0000014000040140000400407A
:103DB00000080040000C00400018004010B5044608
:103DC0004FF0020249B104290ED0082913D094F80B
:103DD0004700012816D0012010BD94F844000128A6
:103DE000F9D184F844200FE094F845000128F2D17D
:103DF00084F8452008E094F846000128EBD184F8C7
:103E0000462001E084F847200422206801F01CFECF
:103E10002068094A416C41F400414164206881688E
:103E20001140062906D0B1F5803F03D0016841F06A
:103E300001010160002010BD0700010010B586B02F
:103E4000044614216846FCF739FC0E492068884274
:103E500016D10D48016841F010010160006801238E
:103E6000022200F01000059000204FF480610091C4
:103E70006946CDE90120CDE903030448FDF732FC92
:103E800006B010BD00000140E04402580010025886
:103E900070B5044690F83C000D4601280BD0012077
:103EA00084F83C000C2A45D007DC5AB1042A1BD008
:103EB000082A78D12CE0022070BD102A4ED0142A96
:103EC00071D15DE0206801F0CDFD2068816941F08D
:103ED000080181612068816921F004018161206805
:103EE0002A698169114311E0206801F00FFE206802
:103EF000816941F4006181612068816921F48061F8
:103F0000816120682969826942EA012181614AE070
:103F1000206801F047FE2068C16941F00801C161D5
:103F20002068C16921F00401C16120682A69C16962
:103F3000114311E0206801F07BFE2068C16941F463
:103F40000061C1612068C16921F48061C16120689C
:103F50002969C26942EA0121C16124E0206801F0B7
:103F60009DFE2068416D41F0080141652068416D6A
:103F700021F00401416520682A69416D114311E077
:103F8000206801F0C1FE2068416D41F40061416587
:103F90002068416D21F48061416520682969426D86
:103FA00042EA01214165002084F83C0070BD10B553
:103FB000040003D094F83D0010B107E0012010BDCB
:103FC000002084F83C00204600F022F8022084F80B
:103FD0003D002068211D01F0D5FC012084F8480037
:103FE00084F83E0084F83F0084F8400084F84100E3
:103FF00084F8420084F8430084F8440084F84500C3
:1040000084F8460084F8470084F83D00002010BD85
:1040100008B500680649884208D10648016841F0A1
:1040200001010160006800F00100009008BD00007F
:1040300000000140F0440258FEE70000014800681B
:10404000806B7047BC0100242DE9F0410D4601460C
:104050002DED028BFFF7F2FF8842044631D0002D90
:104060002FD001EE904A01EE101A00EE905AF8EEB1
:10407000611AB8EE411AB8EE602A9FED140A71EE8B
:10408000C10A30EE420A80EE808AFDF75BFC104FD9
:1040900006460120FDF714FBFDF754FC801B3A682F
:1040A00000EE904A00EE100AF8EE600AB8EE400A00
:1040B00040EE080ABCEEE00A10EE101A9163A84226
:1040C000E7D3BDEC028BBDE8F081000000000000EA
:1040D000BC0100242DE9FF4F85B01D460C2B9046F6
:1040E0000C468946059804906348DDF848B0068878
:1040F00019D0082715FB07F04000FCF749F903A980
:1041000082465E4800F03CFF5C4802A900F040FF98
:10411000A8F120014FF00000C9B20791BBF1000FD8
:10412000014602D097E00627E4E7DFF84CE149E0DA
:104130000C2D0ED0079B524A02EB0312002321F0F4
:10414000010B525C009313060AD573BAAEF8003027
:104150000CE0079A02EB42034A4A02EB8302EDE7C6
:10416000BEF802C09CFA9CFCAEF800C007FB00F34E
:10417000401CBEF800C080B20AEB4303A84223F8FB
:104180000BC000D30020029B5206641CA4B2120E86
:104190009C4202D3AEF8006047E0A4EB0903AB42B7
:1041A00008D1059A4C46039B521C92B205929A4242
:1041B000F0D205E0009B5B1CDBB20093082BC2D35E
:1041C000491CC9B2A942B3D347E00C2D33D0079B99
:1041D0002B4A02EB03124FF0000B21F0010E525C50
:1041E000130608D5244B07FB00FC1B880AEB4C0C7C
:1041F0005BBA2CF80E30401C80B2A84200D30020DD
:10420000029B5206641CA4B2120E9C420BD2A4EB79
:104210000903AB4216D1059A4C46039B521C92B23D
:1042200005929A4215D3144806805046FCF7DFF8F1
:1042300009B0BDE8F08F079A02EB4203114A02EB86
:104240008302C8E70BF1010303F0FF0BBBF1080F7A
:10425000C6D3491CC9B2A942B7D30C2D09D0082036
:104260000499CDE90005054853464A4600F0F0FDA3
:10427000D9E70620F4E7000098000024180700247E
:104280002E650008BA6000082DE9F84F0D46044677
:1042900058194FF0000A111987B21FFA81F8DDE9A9
:1042A0000AB604F0FF0912E0444503D305EB0B0006
:1042B0004C4685B2BD420FD25B4629462046CDF81A
:1042C00000A0FFF707FF04EB5B0084B2761C327896
:1042D000A2F120005E28E7D9BDE8F88F2DE9F04F64
:1042E000654C032087B04FF0000A01215646A060BC
:1042F00084F80CA061736149614801F0EBF8DFF8C4
:10430000848105215E4822464546D8F8003098470A
:104310005A49AA68091F5A489047DFF86CB1DBF880
:10432000000086630022AD6A1146584B5448A847E6
:10433000FDF708FBDFF858914FF40056054654E0AE
:104340000A20FDF7BDF9FDF7FDFA401BB0F57A7FB5
:104350000CD8FDF7F7FA401B64214FF47A724843FA
:10436000DBF80010B0FBF2F088633EE0FDF7EAFAFC
:10437000401B40F6B831884230D8FDF7E3FA401BC5
:104380000A21A0F57A70B0FBF1F242A102A8FCF775
:1043900055F802A910201023CDE90001208882B22F
:1043A000A0F11E0188B20121FFF76EFFFDF7CAFAE6
:1043B0002368401BA0F57A704FF6FF774FF4FA623E
:1043C00058430321B0FBF2F3CDE9001762680021E6
:1043D000D8F83870D21E2A48B84706E0FDF7B2FA7E
:1043E000411B40F6B83081420AD831464F46484614
:1043F000FDF790FA0128A3D102E00A20FDF760F949
:1044000031463846FDF786FA0128F6D000204FF4F1
:104410009671FFF719FE61680022CDE9001AD8F8FD
:104420003850114623681648A8471CA102A8FCF77B
:1044300005F802AD102604213346CDE90065208839
:1044400082B20846FFF720FFFDF76EFA17A1024679
:1044500002A8FBF7F3FFCDE90065208810231621A1
:1044600082B20420FFF710FFC8216420FFF7ECFDA3
:1044700007B0BDE8F08F000008070024A00000246A
:10448000180700242C000024BC0100241E6B000827
:10449000000802582530336400000000576541636E
:1044A000742053747564696F0000000053544D33D9
:1044B00032483778782030782558000070B50A4D9A
:1044C0000122082104462846FDF729FA601EFDF75F
:1044D000F7F8002228460821FDF721FABDE87040D0
:1044E00040F2F310FDF7ECB8001002588068C0F3FA
:1044F000C00070478068C0F380007047C06810F447
:10450000406F01D0002070470120704710B504248F
:1045100004EAD1540723C1F3045120448B408A405C
:10452000416999431143416110BD7FB50025009554
:10453000019502950395FDF78FFA01248DF800404F
:104540001B208DF808008DF80B504FF010468DF8A9
:104550000A4068468DF80150019603948DF8095081
:10456000FDF74CFA16208DF808008DF80F40052154
:104570008DF80B1068468DF80E408DF800408DF8D0
:104580000D508DF80A408DF8014001968DF80C50C1
:104590008DF80950FDF732FA0420FDF76BFA7FBD64
:1045A00070B588B01C216846FCF788F828480125BA
:1045B0002649002404262A0580E8760004754475FF
:1045C00086610577C0E908548462C4620463446369
:1045D00080F83840FCF70EFE08B1FCF7C4FB06205B
:1045E00040F2FF71CDE90050CDE90201184869465B
:1045F000CDE904648DF81940FCF70AFC08B1FCF71A
:10460000B2FB0C211348CDE9000111486946FCF7C3
:10461000FFFB08B1FCF7A7FB12210F48CDE9000111
:104620000B486946FCF7F4FB08B1FCF79CFB18212A
:104630000A48CDE9000106486946FCF7E9FB002875
:1046400001D0FCF790FB08B070BD0000006002587C
:10465000D00000240000B8CF000084CB000052C777
:10466000F0B587B014216846FCF728F826480168A1
:1046700041F010010160016801F01001059101682D
:1046800041F004010160016801F004010591016835
:1046900041F080010160016801F08001059101682D
:1046A00041F00101016000680022184F082100F06C
:1046B000010005903846FDF732F94FF42056384690
:1046C00001223146FDF72BF9002469460125082017
:1046D0000090CDE9015438460394FDF703F8022118
:1046E000680300900A48CDE901416946FCF7FAFFEA
:1046F00003206946CDE90065CDE902403846FCF764
:10470000F1FF07B0F0BD0000E0440258001002586D
:10471000000802582DE9F04115484FF480060021A9
:10472000124D34010722C0E90321E300C0E905145A
:10473000C0E9073141625A0081624FF4C027C1626B
:10474000C0E90D21C163016441648164C1640165F4
:104750004165816580E8E000FEF7C2FD002803D0D6
:10476000BDE8F041FCF7FFBABDE8F081003401403C
:104770003401002410B596B000241C210BA812941B
:1047800013941494FBF79AFF2C216846FBF796FFCD
:1047900023480B22214940F2E73380E81600C0E9A4
:1047A000033444618461FFF702FC08B1FCF7DBFAD3
:1047B0001B4812A9129413941494FFF7B3FA08B18A
:1047C000FCF7D1FA60200821CDE90B04144804223B
:1047D000CDE90D410BA90F9410941194FFF758FBEC
:1047E00008B1FCF7C0FA4FF40050009401940103A3
:1047F0000294CDE9044003940694CDE907410848AA
:10480000694609940A94FFF73DFA08B1FCF7ABFA40
:104810000348FFF713FB16B010BD00000000014075
:10482000BC010024FEE77047704700002DE9F04707
:10483000454D044689464FF0000A2868C04380076A
:104840000AD0414E283E306820F080603060FDF78D
:1048500079F80746B04608E00120BDE8F08700BFC0
:10486000FDF770F8C01B022867D8D8F800000001D7
:10487000F6D4206829684FF4FE0721F47C313E020B
:1048800041EA00302860207AA389B4F804C04002CD
:104890002D4D2D495B1E227CACF1010C1035091DFC
:1048A000A0F5007080B2521ECCF3080C07EA034357
:1048B00040EA0C00184306EA0262104328600868C8
:1048C000626920F0C000104308600A68A06922F005
:1048D000200202430A60281D0A6822F010020A60C2
:1048E00002684FF6F873E4699A4342EAC402026030
:1048F0000868B9F1000F40F010020A6011D0086892
:10490000B9F1010F11D040F400100860D8F8000090
:10491000444640F08060C8F80000FDF713F80546F3
:104920000DE0086840F40020EFE740F48010ECE769
:10493000FDF708F8401B022801D903208DE7206805
:104940000001F5D5504688E7284402582DE9F04784
:10495000454D044689464FF0000A2868C043800749
:104960000AD0414E283E306820F080503060FCF77D
:10497000E9FF0746B04608E00120BDE8F08700BF28
:10498000FCF7E0FFC01B022867D8D8F800008000C1
:10499000F6D4208829684FF4FE0721F07C713E028E
:1049A00041EA00502860207AA389B4F804C040028C
:1049B0002D4D2D495B1E227CACF1010C1835091DD3
:1049C000A0F5007080B2521ECCF3080C07EA034336
:1049D00040EA0C00184306EA0262104328600868A7
:1049E000626920F44060104308600A68A06922F4FC
:1049F000007202430A60281D0A6822F480720A606D
:104A000002684FF6F873E4699A4342EAC40202600E
:104A10000868B9F1000F40F480720A6011D008688C
:104A2000B9F1010F11D040F080700860D8F8000093
:104A3000444640F08050C8F80000FCF783FF05466C
:104A40000DE0086840F48000EFE740F40000ECE778
:104A5000FCF778FF401B022801D903208DE720686E
:104A60008000F5D5504688E72844025810B5026802
:104A700040F26F335169946944F00804946102680C
:104A8000946944F0100494610268146824F00104ED
:104A90001460026814699C4314610268936823F4EB
:104AA0004043936090F88120042A0CD08A060AD5EE
:104AB000D0F8842042F08002C0F884200268936914
:104AC00043F02003936190F88120032A0CD04A061A
:104AD0000AD5D0F8842042F00402C0F8842002688D
:104AE000936943F0400393618A050AD5D0F8842086
:104AF00042F00102C0F884200268936943F4007315
:104B00009361C9050AD5D0F8841041F00801C0F8B6
:104B1000841001688A6942F480728A610021A0F8D9
:104B20006210A0F86A1010BD2DE9F04198461646B3
:104B30000D460746069C09E0FCF704FFA0EB0800C1
:104B4000A04202D3601C01D00BE054B13868406928
:104B500035EA000007D00020B042EDD00020BDE8CB
:104B6000F0810320FBE70120F6E7002070470000FA
:104B7000F8B504466A46002003468DF8000004F1AB
:104B800020001321054601F084FA0A21064620463A
:104B900000F006FA00236A462821284601F079FA37
:104BA000064420460A2100F0FBF900236A4636211C
:104BB000284601F06EFA01460B488C190B49027B1E
:104BC000806801EBC00000790AB940F0080069462E
:104BD00001228DF80000284601F054FA001901D096
:104BE0004FF0FF30F8BD00000807002478000024D3
:104BF000F8B504466A46002003468DF8000004F12B
:104C000020001321054601F044FA0A2106462046F9
:104C100000F0C6F900236A462921284601F039FA36
:104C2000064420460A2100F0BBF900236A463621DB
:104C3000284601F02EFA01460B488C190B49027BDD
:104C4000806801EBC00000790AB940F008006946AD
:104C500001228DF80000284601F014FA001901D055
:104C60004FF0FF30F8BD0000080700247800002452
:104C70002DE9FF4F93F8038093469C7883B0DF7A49
:104C80004FF0000993F80CC004EB0824997ACA4647
:104C900093F80D80DE7C01EB07211F7D4FEA0C4C61
:104CA0009A7C0CEB086893F815C08844DD7D3F04BE
:104CB00002EB06221E7E987D07EB0C6C5F7E624441
:104CC000360400EB05201D7906EB07665F7930445A
:104CD0002D0405EB0767324D3C4403EB08061346F1
:104CE0006D680090A5EB0B05291AA4EB080B88460C
:104CF0000A46DDE9030100F07BFC4FF0FF35E8BB1D
:104D0000274C284F207B0028A06817F8300001D1DD
:104D100040F008008DF8040003980123362120306C
:104D2000009001AA01F0B5F940BBDDE9030142465C
:104D300000F006FC10BB707802228DF8080002A972
:104D400030788DF80900009801F09CF908B1A94667
:104D500004E0B61C0AF1020ADA45ECD3207B0028F5
:104D6000A06807EBC000007901D140F008008DF881
:104D7000040001230098362101AA00E00BE001F0B5
:104D800088F940B9606800220090114623680398B2
:104D900000F02EFC00B1A94607B04846BDE8F08FF0
:104DA00008070024780000242DE9F0411D46144B2B
:104DB00000248046069F48194FF0FF361B68984232
:104DC00019D8404600F0BCFBA8B90E490020C7F333
:104DD0000722FBB206E000BF01EB400701F81020FC
:104DE000401C7B70A842F7D306496A0008F12000F6
:104DF00001F048F900B134462046BDE8F0810000DA
:104E000008070024880400242DE9F05F8A460F4932
:104E10001E468346DDF828909019002517464968FC
:104E20004FF0FF38884208D8002409E03A194B4671
:104E30005146584600F0A4FC08B1454602E0641C07
:104E4000B442F3D32846BDE8F09F000008070024D1
:104E50002DE9FF5F1D481C4691468B46DDE90E6734
:104E60004FF0FF3A4FF0000803688A199A4204D8BD
:104E7000416809EB0700884201D9D04622E00025AD
:104E80001EE000BF009809EB0502594600F058FBF0
:104E9000A0B90F49002008E0227801F8102001EBAA
:104EA00040026378401CA41C5370B042F4D30098B5
:104EB00072000749203001F0E5F800B1D0466D1CC2
:104EC000BD42DFD304B04046BDE8F09F0807002490
:104ED000080200242DE9F84F002699468A468346A9
:104EE000DDE90A78144635460DE04B462246514628
:104EF0005846CDF80080FFF757FF10B14FF0FF364E
:104F000003E0641C6D1CBD42EFD33046BDE8F88F52
:104F10004FF0FF30704700000248806808600020B2
:104F20007047000008070024FEB51C46054600F047
:104F300007FB064605F120002E21054602AA01F0D6
:104F400093F806442846012202A901F094F8064489
:104F500069460122284601F08EF8064428460122BF
:104F600001A901F088F89DF8042080199DF800102F
:104F700001EB0221216001D04FF0FF30FEBD0000A7
:104F800002480068086000207047000008070024FD
:104F900002484068086000207047000008070024AD
:104FA00070B50546C0690E4680470446E8698047EB
:104FB000001BB042FAD3002070BD2DE9F74F5FEA25
:104FC000000982B07DD04FF0000B6A4601215C469B
:104FD00009F120005B468DF800B0019001F059F80E
:104FE00078214846FFF7DCFF0198002301216A463B
:104FF0008DF8004001F04DF8782105464846FFF74E
:10500000CFFF0198012311216A468DF8004001F07D
:1050100040F800236A46B1210544019801F039F8AF
:1050200046190198012569462A468DF8005001F07D
:1050300029F8871901982C26694601228DF800600D
:1050400001F020F800EB07084FF02D0A019801222B
:10505000574669468DF800A001F014F801236A460E
:10506000B2218DF800508044019801F012F801221D
:105070006946804401988DF8006001F003F8012230
:105080006946804401988DF8007000F0FBFF012311
:105090006A46B3218DF800508044019800F0F9FF72
:1050A00001226946804401988DF8006000F0EAFF13
:1050B00001226946804401988DF8007000F0E2FFFB
:1050C00000E0CCE101226946804401988DF800504F
:1050D00000F0D8FF0122694600EB080501988DF821
:1050E000006000F0CFFF46190198012269468DF853
:1050F000007000F0C7FF07256A4601238DF80050B5
:10510000B4210644019800F0C4FFA2216A46871921
:10511000019801238DF80010C02100F0BAFF02268B
:10512000694601228DF800600744019800F0AAFF4B
:1051300084218DF80010012269460744019800F08F
:10514000A1FFC5216A4601238DF80010C121074443
:10515000019800F09EFF0A216A4601238DF8001095
:10516000C2210744019800F094FF012269460744D8
:1051700001988DF8004000F085FF8A246A460123DB
:105180008DF80040C3210744019800F082FF2A21D6
:105190008DF80010012269460744019800F072FF63
:1051A00001236A46C4218DF800400744019800F0AD
:1051B00070FFEE218DF80010C41901980122694694
:1051C00000F060FF0E216A4601238DF80010C52112
:1051D0000444019800F05DFF049904444FF000037B
:1051E0006A46097B00297ED02021019800F051FFFA
:1051F00001233A210444019803AA00F04AFF012345
:10520000B046E0216A46044401988DF8006000F041
:1052100040FF1C218DF800100122694604440198CA
:1052200000F030FF01226946044401988DF80050D7
:1052300000F028FF12218DF8001001226946044475
:10524000019800F01FFF37218DF8001001226946F8
:105250000444019800F016FF32218DF8001001225D
:1052600069460444019800F00DFF29266946012291
:105270008DF800600444019800F004FF01226946A3
:10528000044401988DF800A000F0FCFE012269465C
:10529000044401988DF8006000F0F4FE25218DF89B
:1052A0000010012269460444019800F0EBFE2B2116
:1052B0008DF80010012269460444019800F0E2FED6
:1052C00039218DF80010071901980122694600F074
:1052D000D9FE01225C460744019869468DF800B06A
:1052E00000F0D0FE00E0BFE001218DF8001007447F
:1052F00001980A46694600F0C5FE01224FF0030BF3
:105300000744019869468DF800B000F0BBFE0744E1
:10531000694610208DF800000198012200F0B2FECD
:1053200001236A46E1218DF800B00744019800F09E
:10533000B0FE074469461D208DF800000198012247
:1053400000F0A0FE01226946074401988DF8005044
:1053500000F098FE06218DF80010012269460744EE
:10536000019800F08FFE2E25694601228DF800502D
:105370000744019800F086FE074469462C208DF80A
:1053800000000198012200F07DFE012269460744D9
:1053900001988DF8006000F075FEC6190198012291
:1053A00069468DF800A000F06DFE012269460644B2
:1053B00001988DF8005000F065FE01226946064410
:1053C00001988DF8005000F05DFE37218DF8001037
:1053D000851901980122694600F054FE3F218DF89D
:1053E0000010012269460544019800F04BFE01229D
:1053F0006946054401988DF8004000F043FE012203
:105400006946054401988DF8004000F03BFE0122FA
:105410006946054401988DF8008000F033FE1021A4
:105420008DF80010012269460544019800F02AFE1B
:1054300001236A4613218DF800400544019800F0CD
:1054400028FE4419019801236A46292100F021FE13
:1054500004440499484600F047F9001901D04FF080
:10546000FF3005B0BDE8F08F2121BEE6F8B5203051
:105470000E46DA216A46074600F0F6FD4FF0FF348B
:1054800008B12046F8BD6D463846DB216A1C00F0A5
:10549000EBFD0028F5D1AA1C3846DC2100F0E4FD24
:1054A0000028EED1BDF801109DF8002049BA62F342
:1054B0001F413160F8BD30B40C46036920461146E7
:1054C00030BC184730B40C4683692046114630BCC6
:1054D000184700004FF0FF3210B5E0B10B680360D1
:1054E0004C68002B44600C890481CC68C4600C6952
:1054F00004614C6944618C698461C969C16107496F
:10550000416207490162074981620749C0E90B10FE
:1055100001D098470246104610BD0000B75400085D
:10552000C95700082D550008C554000830B40C4672
:1055300043692046114630BC18474FF0FF30704792
:10554000F8B51446294A0D46114693680A7B497BF3
:10555000012B07D8012909D10AB1183506E0641CCE
:105560001A3503E0012901D1E2B318346A4620302C
:10557000002306462A2100F08CFD07466946280ACA
:105580008DF800000122304600F07CFD074469469A
:10559000012230468DF8005000F074FDC5196A46AE
:1055A000002330462B2100F074FD210A8DF80010F5
:1055B000054469460122304600F064FD0544694611
:1055C000012230468DF8004000F05CFD44196A4627
:1055D000002330462C2100F05CFD001901D04FF073
:1055E000FF30F8BDFFE71A346D1CBFE70807002441
:1055F0002DE9F84314463B4A0D461F461146DDF897
:10560000209093680A7B497B012B07D801290AD196
:105610000AB1183507E0641C1A3504E0012902D1EB
:10562000002A5CD018346A462030002380462A21A4
:1056300000F02FFD06466946280A8DF80000012279
:10564000404600F01FFD06446946012240468DF8A1
:10565000005000F017FD3D4469466D1E0644280ABF
:105660008DF800000122404600F00CFD064469461A
:10567000012240468DF8005000F004FD85196A466D
:10568000002340462B2100F004FD210A8DF8001074
:10569000054469460122404600F0F4FC0544694691
:1056A000012240468DF8004000F0ECFC4C44694675
:1056B000641E0544200A8DF800000122404600F0D7
:1056C000E1FC05446946012240468DF8004000F0A7
:1056D000D9FC401901D04FF0FF30BDE8F8831A34EF
:1056E0006D1CA0E7080700242DE9FC41224C502343
:1056F0008F68A0220546487B80262FB1012F03D05A
:1057000001280BD068B10EE0012801D018B10AE0E1
:10571000C4E9003207E0C4E9006204E0C4E9002300
:1057200001E0C4E9002688680022A060087B20739D
:10573000487B114660736068009028462368FFF735
:1057400057FF217B06460D480029A16800EBC100E8
:10575000007901D140F008008DF8040001233621C2
:1057600001AA05F1200000F094FC801901D04FF04F
:10577000FF30BDE8FC810000080700247800002409
:10578000F8B506460F481F0A4FF6FF7404EA0323D4
:105790004FF0FF353B43ADF80030036800248B42E7
:1057A0000DD9406890420AD93046FFF7C9FE30B99A
:1057B0000222694606F1200000F064FC00B12C468C
:1057C0002046F8BD08070024F0B4C66814460D460C
:1057D00021462846B446F0BC1A4660477047FCF79D
:1057E000B7B800002DE9F043CBB04C212FA8FAF751
:1057F00065FF202142A8FAF761FFBC216846FAF74D
:105800005DFF0220FCF78EF9344935480A6822F022
:1058100001020A6009680168002421F4404141F452
:1058200000410160016801F440414A910168890426
:10583000FCD52C4802250168EF0305264FF001092D
:1058400021F003014FF00808891C016038956020A1
:10585000CDE93956CDE93B053D952FA83E95CDE9DB
:105860003F844194CDE92F97FDF7B6FA4FF4FA76CD
:1058700018B13046FEF722FEFBE742A83F21032283
:1058800080E8160101214694479448944994FDF715
:10589000B7F818B13046FEF711FEFBE709A84FF440
:1058A000022100910A223C2380E82C004FF400786A
:1058B0006846CDE90F840CA928974FF4806C1894A2
:1058C00081E82012FCF73EFC002803D03046FEF7AA
:1058D000F5FDFBE74BB0BDE8F08300002C04005859
:1058E0001848025828440258214A30B52149146802
:1058F0000020204B44F47004146010330A681E4DDD
:1059000042F001020A6018600A681A4B2A400A60D5
:1059100018331C1D251D174A186028322060131DDE
:1059200028601C1D251D10602A1D1860131D206095
:105930001C1D2860251D10601860206028600A6802
:105940000C4B0E4C22F4802260330A6018602068F1
:105950006FF30F00B0F1005F03D209490120C1F8D5
:1059600008014FF0006002498039086030BD000036
:1059700088ED00E0004402587FEDF6EA0010005C7C
:10598000008000512DE9F047274B4FF0804A274D0A
:1059900002689842264E274F274C09D0504507D021
:1059A000A84205D0B04203D0B84201D0A04205D1F0
:1059B000D1F804C022F070024CEA0202DFF87CC089
:1059C000DFF87C809842DFF87C900FD050450DD0F6
:1059D000A8420BD0B04209D0B84207D0A04205D0AF
:1059E000604503D0404501D0484503D1CD6822F43D
:1059F00040722A434D6922F080022A430260984295
:105A00008A68C2620A68826207D0A04205D06045F7
:105A100003D0404501D0484501D109690163012106
:105A20004161BDE8F0870000000001400004004033
:105A300000080040000C004000040140004001400C
:105A4000004401400048014010B5046A042301F0FD
:105A50001F018B409C4304628A40016A114301622A
:105A600010BD00002DE9F04F026ADFF88880DFF8F2
:105A7000889022F00102DFF884A0DFF884B0214F83
:105A80000262DFF884C0066A4268836926F0020673
:105A90000D68B8428C6803EA0C0323F0030344EA60
:105AA000060445EA030507D0404505D0484503D024
:105AB000504501D0584505D1CB6824F00804234354
:105AC00023F00404B84207D0404505D0484503D030
:105AD000504501D0584505D122F44076D1E9053230
